{
	"Auction.sol": {
		"Auction": {
			"abi": [
				{
					"inputs": [],
					"stateMutability": "nonpayable",
					"type": "constructor"
				},
				{
					"anonymous": false,
					"inputs": [
						{
							"indexed": false,
							"internalType": "uint256",
							"name": "newTimeframe",
							"type": "uint256"
						}
					],
					"name": "AuctionExtended",
					"type": "event"
				},
				{
					"anonymous": false,
					"inputs": [
						{
							"indexed": false,
							"internalType": "string",
							"name": "text",
							"type": "string"
						}
					],
					"name": "EndAuction",
					"type": "event"
				},
				{
					"anonymous": false,
					"inputs": [
						{
							"indexed": true,
							"internalType": "address",
							"name": "bidder",
							"type": "address"
						},
						{
							"indexed": false,
							"internalType": "uint256",
							"name": "amount",
							"type": "uint256"
						}
					],
					"name": "NewBid",
					"type": "event"
				},
				{
					"inputs": [],
					"name": "getExcess",
					"outputs": [
						{
							"internalType": "uint256",
							"name": "",
							"type": "uint256"
						}
					],
					"stateMutability": "view",
					"type": "function"
				},
				{
					"inputs": [],
					"name": "getTimeLeft",
					"outputs": [
						{
							"internalType": "uint256",
							"name": "_days",
							"type": "uint256"
						},
						{
							"internalType": "uint256",
							"name": "_hours",
							"type": "uint256"
						},
						{
							"internalType": "uint256",
							"name": "_minutes",
							"type": "uint256"
						}
					],
					"stateMutability": "view",
					"type": "function"
				},
				{
					"inputs": [],
					"name": "getWinnerAmount",
					"outputs": [
						{
							"internalType": "uint256",
							"name": "",
							"type": "uint256"
						}
					],
					"stateMutability": "view",
					"type": "function"
				},
				{
					"inputs": [],
					"name": "getWinnerOffer",
					"outputs": [
						{
							"internalType": "address",
							"name": "",
							"type": "address"
						}
					],
					"stateMutability": "view",
					"type": "function"
				},
				{
					"inputs": [],
					"name": "setOffer",
					"outputs": [],
					"stateMutability": "payable",
					"type": "function"
				},
				{
					"inputs": [],
					"name": "showOffers",
					"outputs": [
						{
							"internalType": "address[]",
							"name": "",
							"type": "address[]"
						},
						{
							"internalType": "uint256[]",
							"name": "",
							"type": "uint256[]"
						}
					],
					"stateMutability": "view",
					"type": "function"
				},
				{
					"inputs": [],
					"name": "withdrawExcess",
					"outputs": [],
					"stateMutability": "payable",
					"type": "function"
				}
			],
			"devdoc": {
				"kind": "dev",
				"methods": {},
				"version": 1
			},
			"evm": {
				"assembly": "    /* \"Auction.sol\":121:5141  contract Auction{ //is Ownable {    ... */\n  mstore(0x40, 0x80)\n    /* \"Auction.sol\":748:881  constructor () {... */\n  callvalue\n  dup1\n  iszero\n  tag_1\n  jumpi\n  0x00\n  dup1\n  revert\ntag_1:\n  pop\n    /* \"Auction.sol\":787:794  10 gwei */\n  0x02540be400\n    /* \"Auction.sol\":774:784  FloorValue */\n  0x00\n    /* \"Auction.sol\":774:794  FloorValue = 10 gwei */\n  dup2\n  swap1\n  sstore\n  pop\n    /* \"Auction.sol\":817:832  block.timestamp */\n  timestamp\n    /* \"Auction.sol\":805:814  StartDate */\n  0x01\n    /* \"Auction.sol\":805:832  StartDate = block.timestamp */\n  dup2\n  swap1\n  sstore\n  pop\n    /* \"Auction.sol\":867:873  7 days */\n  0x093a80\n    /* \"Auction.sol\":855:864  StartDate */\n  sload(0x01)\n    /* \"Auction.sol\":855:873  StartDate + 7 days */\n  tag_4\n  swap2\n  swap1\n  tag_5\n  jump\t// in\ntag_4:\n    /* \"Auction.sol\":843:852  Timeframe */\n  0x02\n    /* \"Auction.sol\":843:873  Timeframe = StartDate + 7 days */\n  dup2\n  swap1\n  sstore\n  pop\n    /* \"Auction.sol\":121:5141  contract Auction{ //is Ownable {    ... */\n  jump(tag_6)\n    /* \"#utility.yul\":7:84   */\ntag_7:\n    /* \"#utility.yul\":44:51   */\n  0x00\n    /* \"#utility.yul\":73:78   */\n  dup2\n    /* \"#utility.yul\":62:78   */\n  swap1\n  pop\n    /* \"#utility.yul\":7:84   */\n  swap2\n  swap1\n  pop\n  jump\t// out\n    /* \"#utility.yul\":90:270   */\ntag_8:\n    /* \"#utility.yul\":138:215   */\n  0x4e487b7100000000000000000000000000000000000000000000000000000000\n    /* \"#utility.yul\":135:136   */\n  0x00\n    /* \"#utility.yul\":128:216   */\n  mstore\n    /* \"#utility.yul\":235:239   */\n  0x11\n    /* \"#utility.yul\":232:233   */\n  0x04\n    /* \"#utility.yul\":225:240   */\n  mstore\n    /* \"#utility.yul\":259:263   */\n  0x24\n    /* \"#utility.yul\":256:257   */\n  0x00\n    /* \"#utility.yul\":249:264   */\n  revert\n    /* \"#utility.yul\":276:467   */\ntag_5:\n    /* \"#utility.yul\":316:319   */\n  0x00\n    /* \"#utility.yul\":335:355   */\n  tag_13\n    /* \"#utility.yul\":353:354   */\n  dup3\n    /* \"#utility.yul\":335:355   */\n  tag_7\n  jump\t// in\ntag_13:\n    /* \"#utility.yul\":330:355   */\n  swap2\n  pop\n    /* \"#utility.yul\":369:389   */\n  tag_14\n    /* \"#utility.yul\":387:388   */\n  dup4\n    /* \"#utility.yul\":369:389   */\n  tag_7\n  jump\t// in\ntag_14:\n    /* \"#utility.yul\":364:389   */\n  swap3\n  pop\n    /* \"#utility.yul\":412:413   */\n  dup3\n    /* \"#utility.yul\":409:410   */\n  dup3\n    /* \"#utility.yul\":405:414   */\n  add\n    /* \"#utility.yul\":398:414   */\n  swap1\n  pop\n    /* \"#utility.yul\":433:436   */\n  dup1\n    /* \"#utility.yul\":430:431   */\n  dup3\n    /* \"#utility.yul\":427:437   */\n  gt\n    /* \"#utility.yul\":424:460   */\n  iszero\n  tag_15\n  jumpi\n    /* \"#utility.yul\":440:458   */\n  tag_16\n  tag_8\n  jump\t// in\ntag_16:\n    /* \"#utility.yul\":424:460   */\ntag_15:\n    /* \"#utility.yul\":276:467   */\n  swap3\n  swap2\n  pop\n  pop\n  jump\t// out\n    /* \"Auction.sol\":121:5141  contract Auction{ //is Ownable {    ... */\ntag_6:\n  dataSize(sub_0)\n  dup1\n  dataOffset(sub_0)\n  0x00\n  codecopy\n  0x00\n  return\nstop\n\nsub_0: assembly {\n        /* \"Auction.sol\":121:5141  contract Auction{ //is Ownable {    ... */\n      mstore(0x40, 0x80)\n      jumpi(tag_1, lt(calldatasize, 0x04))\n      shr(0xe0, calldataload(0x00))\n      dup1\n      0xc264a063\n      gt\n      tag_9\n      jumpi\n      dup1\n      0xc264a063\n      eq\n      tag_5\n      jumpi\n      dup1\n      0xc7e284b8\n      eq\n      tag_6\n      jumpi\n      dup1\n      0xd54c564e\n      eq\n      tag_7\n      jumpi\n      dup1\n      0xd95608e2\n      eq\n      tag_8\n      jumpi\n      jump(tag_1)\n    tag_9:\n      dup1\n      0x534823bf\n      eq\n      tag_2\n      jumpi\n      dup1\n      0x6733430a\n      eq\n      tag_3\n      jumpi\n      dup1\n      0x689567d5\n      eq\n      tag_4\n      jumpi\n    tag_1:\n      0x00\n      dup1\n      revert\n        /* \"Auction.sol\":3487:3957  function showOffers () external view returns(address[] memory, uint[] memory){... */\n    tag_2:\n      callvalue\n      dup1\n      iszero\n      tag_10\n      jumpi\n      0x00\n      dup1\n      revert\n    tag_10:\n      pop\n      tag_11\n      tag_12\n      jump\t// in\n    tag_11:\n      mload(0x40)\n      tag_13\n      swap3\n      swap2\n      swap1\n      tag_14\n      jump\t// in\n    tag_13:\n      mload(0x40)\n      dup1\n      swap2\n      sub\n      swap1\n      return\n        /* \"Auction.sol\":3269:3367  function getWinnerOffer() external view returns(address) {... */\n    tag_3:\n      callvalue\n      dup1\n      iszero\n      tag_15\n      jumpi\n      0x00\n      dup1\n      revert\n    tag_15:\n      pop\n      tag_16\n      tag_17\n      jump\t// in\n    tag_16:\n      mload(0x40)\n      tag_18\n      swap2\n      swap1\n      tag_19\n      jump\t// in\n    tag_18:\n      mload(0x40)\n      dup1\n      swap2\n      sub\n      swap1\n      return\n        /* \"Auction.sol\":1991:3257  function setOffer () external payable extendAuctionIfNeeded {        ... */\n    tag_4:\n      tag_20\n      tag_21\n      jump\t// in\n    tag_20:\n      stop\n        /* \"Auction.sol\":3965:4255  function withdrawExcess() external payable {... */\n    tag_5:\n      tag_22\n      tag_23\n      jump\t// in\n    tag_22:\n      stop\n        /* \"Auction.sol\":4385:5138  function getTimeLeft() public view returns (uint _days, uint _hours, uint _minutes) {... */\n    tag_6:\n      callvalue\n      dup1\n      iszero\n      tag_24\n      jumpi\n      0x00\n      dup1\n      revert\n    tag_24:\n      pop\n      tag_25\n      tag_26\n      jump\t// in\n    tag_25:\n      mload(0x40)\n      tag_27\n      swap4\n      swap3\n      swap2\n      swap1\n      tag_28\n      jump\t// in\n    tag_27:\n      mload(0x40)\n      dup1\n      swap2\n      sub\n      swap1\n      return\n        /* \"Auction.sol\":4261:4379  function getExcess() external view  returns(uint){... */\n    tag_7:\n      callvalue\n      dup1\n      iszero\n      tag_29\n      jumpi\n      0x00\n      dup1\n      revert\n    tag_29:\n      pop\n      tag_30\n      tag_31\n      jump\t// in\n    tag_30:\n      mload(0x40)\n      tag_32\n      swap2\n      swap1\n      tag_33\n      jump\t// in\n    tag_32:\n      mload(0x40)\n      dup1\n      swap2\n      sub\n      swap1\n      return\n        /* \"Auction.sol\":3379:3474  function getWinnerAmount() external view returns(uint) {... */\n    tag_8:\n      callvalue\n      dup1\n      iszero\n      tag_34\n      jumpi\n      0x00\n      dup1\n      revert\n    tag_34:\n      pop\n      tag_35\n      tag_36\n      jump\t// in\n    tag_35:\n      mload(0x40)\n      tag_37\n      swap2\n      swap1\n      tag_33\n      jump\t// in\n    tag_37:\n      mload(0x40)\n      dup1\n      swap2\n      sub\n      swap1\n      return\n        /* \"Auction.sol\":3487:3957  function showOffers () external view returns(address[] memory, uint[] memory){... */\n    tag_12:\n        /* \"Auction.sol\":3532:3548  address[] memory */\n      0x60\n        /* \"Auction.sol\":3550:3563  uint[] memory */\n      dup1\n        /* \"Auction.sol\":3575:3600  address[] memory offerors */\n      0x00\n        /* \"Auction.sol\":3617:3631  offerAddresses */\n      0x06\n        /* \"Auction.sol\":3617:3638  offerAddresses.length */\n      dup1\n      sload\n      swap1\n      pop\n        /* \"Auction.sol\":3603:3639  new address[](offerAddresses.length) */\n      0xffffffffffffffff\n      dup2\n      gt\n      iszero\n      tag_39\n      jumpi\n      tag_40\n      tag_41\n      jump\t// in\n    tag_40:\n    tag_39:\n      mload(0x40)\n      swap1\n      dup1\n      dup3\n      mstore\n      dup1\n      0x20\n      mul\n      0x20\n      add\n      dup3\n      add\n      0x40\n      mstore\n      dup1\n      iszero\n      tag_42\n      jumpi\n      dup2\n      0x20\n      add\n      0x20\n      dup3\n      mul\n      dup1\n      calldatasize\n      dup4\n      calldatacopy\n      dup1\n      dup3\n      add\n      swap2\n      pop\n      pop\n      swap1\n      pop\n    tag_42:\n      pop\n        /* \"Auction.sol\":3575:3639  address[] memory offerors = new address[](offerAddresses.length) */\n      swap1\n      pop\n        /* \"Auction.sol\":3650:3671  uint[] memory amounts */\n      0x00\n        /* \"Auction.sol\":3685:3699  offerAddresses */\n      0x06\n        /* \"Auction.sol\":3685:3706  offerAddresses.length */\n      dup1\n      sload\n      swap1\n      pop\n        /* \"Auction.sol\":3674:3707  new uint[](offerAddresses.length) */\n      0xffffffffffffffff\n      dup2\n      gt\n      iszero\n      tag_43\n      jumpi\n      tag_44\n      tag_41\n      jump\t// in\n    tag_44:\n    tag_43:\n      mload(0x40)\n      swap1\n      dup1\n      dup3\n      mstore\n      dup1\n      0x20\n      mul\n      0x20\n      add\n      dup3\n      add\n      0x40\n      mstore\n      dup1\n      iszero\n      tag_45\n      jumpi\n      dup2\n      0x20\n      add\n      0x20\n      dup3\n      mul\n      dup1\n      calldatasize\n      dup4\n      calldatacopy\n      dup1\n      dup3\n      add\n      swap2\n      pop\n      pop\n      swap1\n      pop\n    tag_45:\n      pop\n        /* \"Auction.sol\":3650:3707  uint[] memory amounts = new uint[](offerAddresses.length) */\n      swap1\n      pop\n        /* \"Auction.sol\":3723:3729  uint i */\n      0x00\n        /* \"Auction.sol\":3718:3908  for (uint i = 0; i < offerAddresses.length; i++) {... */\n    tag_46:\n        /* \"Auction.sol\":3739:3753  offerAddresses */\n      0x06\n        /* \"Auction.sol\":3739:3760  offerAddresses.length */\n      dup1\n      sload\n      swap1\n      pop\n        /* \"Auction.sol\":3735:3736  i */\n      dup2\n        /* \"Auction.sol\":3735:3760  i < offerAddresses.length */\n      lt\n        /* \"Auction.sol\":3718:3908  for (uint i = 0; i < offerAddresses.length; i++) {... */\n      iszero\n      tag_47\n      jumpi\n        /* \"Auction.sol\":3778:3793  address offeror */\n      0x00\n        /* \"Auction.sol\":3796:3810  offerAddresses */\n      0x06\n        /* \"Auction.sol\":3811:3812  i */\n      dup3\n        /* \"Auction.sol\":3796:3813  offerAddresses[i] */\n      dup2\n      sload\n      dup2\n      lt\n      tag_49\n      jumpi\n      tag_50\n      tag_51\n      jump\t// in\n    tag_50:\n    tag_49:\n      swap1\n      0x00\n      mstore\n      keccak256(0x00, 0x20)\n      add\n      0x00\n      swap1\n      sload\n      swap1\n      0x0100\n      exp\n      swap1\n      div\n      0xffffffffffffffffffffffffffffffffffffffff\n      and\n        /* \"Auction.sol\":3778:3813  address offeror = offerAddresses[i] */\n      swap1\n      pop\n        /* \"Auction.sol\":3838:3845  offeror */\n      dup1\n        /* \"Auction.sol\":3824:3832  offerors */\n      dup5\n        /* \"Auction.sol\":3833:3834  i */\n      dup4\n        /* \"Auction.sol\":3824:3835  offerors[i] */\n      dup2\n      mload\n      dup2\n      lt\n      tag_53\n      jumpi\n      tag_54\n      tag_51\n      jump\t// in\n    tag_54:\n    tag_53:\n      0x20\n      mul\n      0x20\n      add\n      add\n        /* \"Auction.sol\":3824:3845  offerors[i] = offeror */\n      swap1\n      0xffffffffffffffffffffffffffffffffffffffff\n      and\n      swap1\n      dup2\n      0xffffffffffffffffffffffffffffffffffffffff\n      and\n      dup2\n      mstore\n      pop\n      pop\n        /* \"Auction.sol\":3869:3875  offers */\n      0x05\n        /* \"Auction.sol\":3869:3884  offers[offeror] */\n      0x00\n        /* \"Auction.sol\":3876:3883  offeror */\n      dup3\n        /* \"Auction.sol\":3869:3884  offers[offeror] */\n      0xffffffffffffffffffffffffffffffffffffffff\n      and\n      0xffffffffffffffffffffffffffffffffffffffff\n      and\n      dup2\n      mstore\n      0x20\n      add\n      swap1\n      dup2\n      mstore\n      0x20\n      add\n      0x00\n      keccak256\n        /* \"Auction.sol\":3869:3896  offers[offeror].offerAmount */\n      0x01\n      add\n      sload\n        /* \"Auction.sol\":3856:3863  amounts */\n      dup4\n        /* \"Auction.sol\":3864:3865  i */\n      dup4\n        /* \"Auction.sol\":3856:3866  amounts[i] */\n      dup2\n      mload\n      dup2\n      lt\n      tag_55\n      jumpi\n      tag_56\n      tag_51\n      jump\t// in\n    tag_56:\n    tag_55:\n      0x20\n      mul\n      0x20\n      add\n      add\n        /* \"Auction.sol\":3856:3896  amounts[i] = offers[offeror].offerAmount */\n      dup2\n      dup2\n      mstore\n      pop\n      pop\n        /* \"Auction.sol\":3767:3908  {... */\n      pop\n        /* \"Auction.sol\":3762:3765  i++ */\n      dup1\n      dup1\n      0x01\n      add\n      swap2\n      pop\n      pop\n        /* \"Auction.sol\":3718:3908  for (uint i = 0; i < offerAddresses.length; i++) {... */\n      jump(tag_46)\n    tag_47:\n      pop\n        /* \"Auction.sol\":3930:3938  offerors */\n      dup2\n        /* \"Auction.sol\":3940:3947  amounts */\n      dup2\n        /* \"Auction.sol\":3922:3948  return (offerors, amounts) */\n      swap4\n      pop\n      swap4\n      pop\n      pop\n      pop\n        /* \"Auction.sol\":3487:3957  function showOffers () external view returns(address[] memory, uint[] memory){... */\n      swap1\n      swap2\n      jump\t// out\n        /* \"Auction.sol\":3269:3367  function getWinnerOffer() external view returns(address) {... */\n    tag_17:\n        /* \"Auction.sol\":3317:3324  address */\n      0x00\n        /* \"Auction.sol\":3344:3359  offerWinAddress */\n      0x03\n      0x00\n      swap1\n      sload\n      swap1\n      0x0100\n      exp\n      swap1\n      div\n      0xffffffffffffffffffffffffffffffffffffffff\n      and\n        /* \"Auction.sol\":3337:3359  return offerWinAddress */\n      swap1\n      pop\n        /* \"Auction.sol\":3269:3367  function getWinnerOffer() external view returns(address) {... */\n      swap1\n      jump\t// out\n        /* \"Auction.sol\":1991:3257  function setOffer () external payable extendAuctionIfNeeded {        ... */\n    tag_21:\n        /* \"Auction.sol\":1838:1848  10 minutes */\n      0x0258\n        /* \"Auction.sol\":1826:1835  Timeframe */\n      sload(0x02)\n        /* \"Auction.sol\":1826:1848  Timeframe - 10 minutes */\n      tag_59\n      swap2\n      swap1\n      tag_60\n      jump\t// in\n    tag_59:\n        /* \"Auction.sol\":1807:1822  block.timestamp */\n      timestamp\n        /* \"Auction.sol\":1807:1848  block.timestamp >= Timeframe - 10 minutes */\n      lt\n        /* \"Auction.sol\":1803:1950  if (block.timestamp >= Timeframe - 10 minutes) {... */\n      tag_61\n      jumpi\n        /* \"Auction.sol\":1878:1888  10 minutes */\n      0x0258\n        /* \"Auction.sol\":1865:1874  Timeframe */\n      0x02\n      0x00\n        /* \"Auction.sol\":1865:1888  Timeframe += 10 minutes */\n      dup3\n      dup3\n      sload\n      tag_62\n      swap2\n      swap1\n      tag_63\n      jump\t// in\n    tag_62:\n      swap3\n      pop\n      pop\n      dup2\n      swap1\n      sstore\n      pop\n        /* \"Auction.sol\":1910:1936  AuctionExtended(Timeframe) */\n      0xc2b459809119087ca9d2bc10dea53a51b7d848b1a11075db037bdca58292c3e8\n        /* \"Auction.sol\":1926:1935  Timeframe */\n      sload(0x02)\n        /* \"Auction.sol\":1910:1936  AuctionExtended(Timeframe) */\n      mload(0x40)\n      tag_64\n      swap2\n      swap1\n      tag_33\n      jump\t// in\n    tag_64:\n      mload(0x40)\n      dup1\n      swap2\n      sub\n      swap1\n      log1\n        /* \"Auction.sol\":1803:1950  if (block.timestamp >= Timeframe - 10 minutes) {... */\n    tag_61:\n        /* \"Auction.sol\":2095:2104  Timeframe */\n      sload(0x02)\n        /* \"Auction.sol\":2076:2091  block.timestamp */\n      timestamp\n        /* \"Auction.sol\":2076:2104  block.timestamp <= Timeframe */\n      gt\n      iszero\n        /* \"Auction.sol\":2068:2132  require(block.timestamp <= Timeframe, \"La subasta ha terminado\") */\n      tag_66\n      jumpi\n      mload(0x40)\n      0x08c379a000000000000000000000000000000000000000000000000000000000\n      dup2\n      mstore\n      0x04\n      add\n      tag_67\n      swap1\n      tag_68\n      jump\t// in\n    tag_67:\n      mload(0x40)\n      dup1\n      swap2\n      sub\n      swap1\n      revert\n    tag_66:\n        /* \"Auction.sol\":2215:2216  0 */\n      0x00\n        /* \"Auction.sol\":2181:2187  offers */\n      0x05\n        /* \"Auction.sol\":2181:2199  offers[msg.sender] */\n      0x00\n        /* \"Auction.sol\":2188:2198  msg.sender */\n      caller\n        /* \"Auction.sol\":2181:2199  offers[msg.sender] */\n      0xffffffffffffffffffffffffffffffffffffffff\n      and\n      0xffffffffffffffffffffffffffffffffffffffff\n      and\n      dup2\n      mstore\n      0x20\n      add\n      swap1\n      dup2\n      mstore\n      0x20\n      add\n      0x00\n      keccak256\n        /* \"Auction.sol\":2181:2211  offers[msg.sender].offerAmount */\n      0x01\n      add\n      sload\n        /* \"Auction.sol\":2181:2216  offers[msg.sender].offerAmount == 0 */\n      sub\n        /* \"Auction.sol\":2177:2475  if (offers[msg.sender].offerAmount == 0) {    //Verifico si ya realizo una oferta esa address... */\n      tag_69\n      jumpi\n        /* \"Auction.sol\":2284:2298  offerAddresses */\n      0x06\n        /* \"Auction.sol\":2304:2314  msg.sender */\n      caller\n        /* \"Auction.sol\":2284:2315  offerAddresses.push(msg.sender) */\n      swap1\n      dup1\n      0x01\n      dup2\n      sload\n      add\n      dup1\n      dup3\n      sstore\n      dup1\n      swap2\n      pop\n      pop\n      0x01\n      swap1\n      sub\n      swap1\n      0x00\n      mstore\n      keccak256(0x00, 0x20)\n      add\n      0x00\n      swap1\n      swap2\n      swap1\n      swap2\n      swap1\n      swap2\n      0x0100\n      exp\n      dup2\n      sload\n      dup2\n      0xffffffffffffffffffffffffffffffffffffffff\n      mul\n      not\n      and\n      swap1\n      dup4\n      0xffffffffffffffffffffffffffffffffffffffff\n      and\n      mul\n      or\n      swap1\n      sstore\n      pop\n        /* \"Auction.sol\":2177:2475  if (offers[msg.sender].offerAmount == 0) {    //Verifico si ya realizo una oferta esa address... */\n      jump(tag_71)\n    tag_69:\n        /* \"Auction.sol\":2417:2432  offerWinAddress */\n      0x03\n      0x00\n      swap1\n      sload\n      swap1\n      0x0100\n      exp\n      swap1\n      div\n      0xffffffffffffffffffffffffffffffffffffffff\n      and\n        /* \"Auction.sol\":2403:2432  msg.sender != offerWinAddress */\n      0xffffffffffffffffffffffffffffffffffffffff\n      and\n        /* \"Auction.sol\":2403:2413  msg.sender */\n      caller\n        /* \"Auction.sol\":2403:2432  msg.sender != offerWinAddress */\n      0xffffffffffffffffffffffffffffffffffffffff\n      and\n      sub\n        /* \"Auction.sol\":2395:2465  require(msg.sender != offerWinAddress, \"Ya tienes la oferta mas alta\") */\n      tag_72\n      jumpi\n      mload(0x40)\n      0x08c379a000000000000000000000000000000000000000000000000000000000\n      dup2\n      mstore\n      0x04\n      add\n      tag_73\n      swap1\n      tag_74\n      jump\t// in\n    tag_73:\n      mload(0x40)\n      dup1\n      swap2\n      sub\n      swap1\n      revert\n    tag_72:\n        /* \"Auction.sol\":2177:2475  if (offers[msg.sender].offerAmount == 0) {    //Verifico si ya realizo una oferta esa address... */\n    tag_71:\n        /* \"Auction.sol\":2524:2527  100 */\n      0x64\n        /* \"Auction.sol\":2520:2523  105 */\n      0x69\n        /* \"Auction.sol\":2504:2518  offerWinAmount */\n      sload(0x04)\n        /* \"Auction.sol\":2504:2523  offerWinAmount *105 */\n      tag_75\n      swap2\n      swap1\n      tag_76\n      jump\t// in\n    tag_75:\n        /* \"Auction.sol\":2504:2527  offerWinAmount *105/100 */\n      tag_77\n      swap2\n      swap1\n      tag_78\n      jump\t// in\n    tag_77:\n        /* \"Auction.sol\":2491:2500  msg.value */\n      callvalue\n        /* \"Auction.sol\":2491:2527  msg.value >= offerWinAmount *105/100 */\n      lt\n      iszero\n        /* \"Auction.sol\":2483:2574  require(msg.value >= offerWinAmount *105/100, \"La oferta debe ser superior al menos en 5%\") */\n      tag_79\n      jumpi\n      mload(0x40)\n      0x08c379a000000000000000000000000000000000000000000000000000000000\n      dup2\n      mstore\n      0x04\n      add\n      tag_80\n      swap1\n      tag_81\n      jump\t// in\n    tag_80:\n      mload(0x40)\n      dup1\n      swap2\n      sub\n      swap1\n      revert\n    tag_79:\n        /* \"Auction.sol\":2642:2827  Offer({... */\n      mload(0x40)\n      dup1\n      0x60\n      add\n      0x40\n      mstore\n      dup1\n        /* \"Auction.sol\":2669:2684  block.timestamp */\n      timestamp\n        /* \"Auction.sol\":2642:2827  Offer({... */\n      dup2\n      mstore\n      0x20\n      add\n        /* \"Auction.sol\":2712:2721  msg.value */\n      callvalue\n        /* \"Auction.sol\":2642:2827  Offer({... */\n      dup2\n      mstore\n      0x20\n      add\n        /* \"Auction.sol\":2784:2790  offers */\n      0x05\n        /* \"Auction.sol\":2784:2802  offers[msg.sender] */\n      0x00\n        /* \"Auction.sol\":2791:2801  msg.sender */\n      caller\n        /* \"Auction.sol\":2784:2802  offers[msg.sender] */\n      0xffffffffffffffffffffffffffffffffffffffff\n      and\n      0xffffffffffffffffffffffffffffffffffffffff\n      and\n      dup2\n      mstore\n      0x20\n      add\n      swap1\n      dup2\n      mstore\n      0x20\n      add\n      0x00\n      keccak256\n        /* \"Auction.sol\":2784:2815  offers[msg.sender].excessAmount */\n      0x02\n      add\n      sload\n        /* \"Auction.sol\":2750:2756  offers */\n      0x05\n        /* \"Auction.sol\":2750:2768  offers[msg.sender] */\n      0x00\n        /* \"Auction.sol\":2757:2767  msg.sender */\n      caller\n        /* \"Auction.sol\":2750:2768  offers[msg.sender] */\n      0xffffffffffffffffffffffffffffffffffffffff\n      and\n      0xffffffffffffffffffffffffffffffffffffffff\n      and\n      dup2\n      mstore\n      0x20\n      add\n      swap1\n      dup2\n      mstore\n      0x20\n      add\n      0x00\n      keccak256\n        /* \"Auction.sol\":2750:2780  offers[msg.sender].offerAmount */\n      0x01\n      add\n      sload\n        /* \"Auction.sol\":2750:2815  offers[msg.sender].offerAmount +  offers[msg.sender].excessAmount */\n      tag_82\n      swap2\n      swap1\n      tag_63\n      jump\t// in\n    tag_82:\n        /* \"Auction.sol\":2642:2827  Offer({... */\n      dup2\n      mstore\n      pop\n        /* \"Auction.sol\":2621:2627  offers */\n      0x05\n        /* \"Auction.sol\":2621:2639  offers[msg.sender] */\n      0x00\n        /* \"Auction.sol\":2628:2638  msg.sender */\n      caller\n        /* \"Auction.sol\":2621:2639  offers[msg.sender] */\n      0xffffffffffffffffffffffffffffffffffffffff\n      and\n      0xffffffffffffffffffffffffffffffffffffffff\n      and\n      dup2\n      mstore\n      0x20\n      add\n      swap1\n      dup2\n      mstore\n      0x20\n      add\n      0x00\n      keccak256\n        /* \"Auction.sol\":2621:2827  offers[msg.sender] = Offer({... */\n      0x00\n      dup3\n      add\n      mload\n      dup2\n      0x00\n      add\n      sstore\n      0x20\n      dup3\n      add\n      mload\n      dup2\n      0x01\n      add\n      sstore\n      0x40\n      dup3\n      add\n      mload\n      dup2\n      0x02\n      add\n      sstore\n      swap1\n      pop\n      pop\n        /* \"Auction.sol\":2949:2958  msg.value */\n      callvalue\n        /* \"Auction.sol\":2932:2946  offerWinAmount */\n      0x04\n        /* \"Auction.sol\":2932:2958  offerWinAmount = msg.value */\n      dup2\n      swap1\n      sstore\n      pop\n        /* \"Auction.sol\":3064:3074  msg.sender */\n      caller\n        /* \"Auction.sol\":3046:3061  offerWinAddress */\n      0x03\n      0x00\n        /* \"Auction.sol\":3046:3074  offerWinAddress = msg.sender */\n      0x0100\n      exp\n      dup2\n      sload\n      dup2\n      0xffffffffffffffffffffffffffffffffffffffff\n      mul\n      not\n      and\n      swap1\n      dup4\n      0xffffffffffffffffffffffffffffffffffffffff\n      and\n      mul\n      or\n      swap1\n      sstore\n      pop\n        /* \"Auction.sol\":3217:3227  msg.sender */\n      caller\n        /* \"Auction.sol\":3210:3239  NewBid(msg.sender, msg.value) */\n      0xffffffffffffffffffffffffffffffffffffffff\n      and\n      0xdd0b6c6a77960e2066c96171b4d7ac9e8b4c184011f38544afa36a5bb63ec59f\n        /* \"Auction.sol\":3229:3238  msg.value */\n      callvalue\n        /* \"Auction.sol\":3210:3239  NewBid(msg.sender, msg.value) */\n      mload(0x40)\n      tag_83\n      swap2\n      swap1\n      tag_33\n      jump\t// in\n    tag_83:\n      mload(0x40)\n      dup1\n      swap2\n      sub\n      swap1\n      log2\n        /* \"Auction.sol\":1991:3257  function setOffer () external payable extendAuctionIfNeeded {        ... */\n      jump\t// out\n        /* \"Auction.sol\":3965:4255  function withdrawExcess() external payable {... */\n    tag_23:\n        /* \"Auction.sol\":4038:4044  offers */\n      0x05\n        /* \"Auction.sol\":4038:4056  offers[msg.sender] */\n      0x00\n        /* \"Auction.sol\":4045:4055  msg.sender */\n      caller\n        /* \"Auction.sol\":4038:4056  offers[msg.sender] */\n      0xffffffffffffffffffffffffffffffffffffffff\n      and\n      0xffffffffffffffffffffffffffffffffffffffff\n      and\n      dup2\n      mstore\n      0x20\n      add\n      swap1\n      dup2\n      mstore\n      0x20\n      add\n      0x00\n      keccak256\n        /* \"Auction.sol\":4038:4069  offers[msg.sender].excessAmount */\n      0x02\n      add\n      sload\n        /* \"Auction.sol\":4027:4036  msg.value */\n      callvalue\n        /* \"Auction.sol\":4027:4069  msg.value<=offers[msg.sender].excessAmount */\n      gt\n      iszero\n        /* \"Auction.sol\":4019:4111  require(msg.value<=offers[msg.sender].excessAmount,\"No tiene suficiente saldo para retirar\") */\n      tag_85\n      jumpi\n      mload(0x40)\n      0x08c379a000000000000000000000000000000000000000000000000000000000\n      dup2\n      mstore\n      0x04\n      add\n      tag_86\n      swap1\n      tag_87\n      jump\t// in\n    tag_86:\n      mload(0x40)\n      dup1\n      swap2\n      sub\n      swap1\n      revert\n    tag_85:\n        /* \"Auction.sol\":4188:4197  msg.value */\n      callvalue\n        /* \"Auction.sol\":4156:4162  offers */\n      0x05\n        /* \"Auction.sol\":4156:4174  offers[msg.sender] */\n      0x00\n        /* \"Auction.sol\":4163:4173  msg.sender */\n      caller\n        /* \"Auction.sol\":4156:4174  offers[msg.sender] */\n      0xffffffffffffffffffffffffffffffffffffffff\n      and\n      0xffffffffffffffffffffffffffffffffffffffff\n      and\n      dup2\n      mstore\n      0x20\n      add\n      swap1\n      dup2\n      mstore\n      0x20\n      add\n      0x00\n      keccak256\n        /* \"Auction.sol\":4156:4187  offers[msg.sender].excessAmount */\n      0x02\n      add\n      sload\n        /* \"Auction.sol\":4156:4197  offers[msg.sender].excessAmount-msg.value */\n      tag_88\n      swap2\n      swap1\n      tag_60\n      jump\t// in\n    tag_88:\n        /* \"Auction.sol\":4122:4128  offers */\n      0x05\n        /* \"Auction.sol\":4122:4140  offers[msg.sender] */\n      0x00\n        /* \"Auction.sol\":4129:4139  msg.sender */\n      caller\n        /* \"Auction.sol\":4122:4140  offers[msg.sender] */\n      0xffffffffffffffffffffffffffffffffffffffff\n      and\n      0xffffffffffffffffffffffffffffffffffffffff\n      and\n      dup2\n      mstore\n      0x20\n      add\n      swap1\n      dup2\n      mstore\n      0x20\n      add\n      0x00\n      keccak256\n        /* \"Auction.sol\":4122:4153  offers[msg.sender].excessAmount */\n      0x02\n      add\n        /* \"Auction.sol\":4122:4197  offers[msg.sender].excessAmount = offers[msg.sender].excessAmount-msg.value */\n      dup2\n      swap1\n      sstore\n      pop\n        /* \"Auction.sol\":4216:4226  msg.sender */\n      caller\n        /* \"Auction.sol\":4208:4236  payable(msg.sender).transfer */\n      0xffffffffffffffffffffffffffffffffffffffff\n      and\n        /* \"Auction.sol\":4208:4247  payable(msg.sender).transfer(msg.value) */\n      0x08fc\n        /* \"Auction.sol\":4237:4246  msg.value */\n      callvalue\n        /* \"Auction.sol\":4208:4247  payable(msg.sender).transfer(msg.value) */\n      swap1\n      dup2\n      iszero\n      mul\n      swap1\n      mload(0x40)\n      0x00\n      mload(0x40)\n      dup1\n      dup4\n      sub\n      dup2\n      dup6\n      dup9\n      dup9\n      call\n      swap4\n      pop\n      pop\n      pop\n      pop\n      iszero\n      dup1\n      iszero\n      tag_90\n      jumpi\n      returndatasize\n      0x00\n      dup1\n      returndatacopy\n      revert(0x00, returndatasize)\n    tag_90:\n      pop\n        /* \"Auction.sol\":3965:4255  function withdrawExcess() external payable {... */\n      jump\t// out\n        /* \"Auction.sol\":4385:5138  function getTimeLeft() public view returns (uint _days, uint _hours, uint _minutes) {... */\n    tag_26:\n        /* \"Auction.sol\":4429:4439  uint _days */\n      0x00\n        /* \"Auction.sol\":4441:4452  uint _hours */\n      dup1\n        /* \"Auction.sol\":4454:4467  uint _minutes */\n      0x00\n        /* \"Auction.sol\":4503:4512  Timeframe */\n      sload(0x02)\n        /* \"Auction.sol\":4484:4499  block.timestamp */\n      timestamp\n        /* \"Auction.sol\":4484:4512  block.timestamp >= Timeframe */\n      lt\n        /* \"Auction.sol\":4480:4580  if (block.timestamp >= Timeframe) {... */\n      tag_92\n      jumpi\n        /* \"Auction.sol\":4537:4538  0 */\n      0x00\n        /* \"Auction.sol\":4540:4541  0 */\n      dup1\n        /* \"Auction.sol\":4543:4544  0 */\n      0x00\n        /* \"Auction.sol\":4529:4545  return (0, 0, 0) */\n      swap3\n      pop\n      swap3\n      pop\n      swap3\n      pop\n      jump(tag_91)\n        /* \"Auction.sol\":4480:4580  if (block.timestamp >= Timeframe) {... */\n    tag_92:\n        /* \"Auction.sol\":4592:4605  uint timeLeft */\n      0x00\n        /* \"Auction.sol\":4620:4635  block.timestamp */\n      timestamp\n        /* \"Auction.sol\":4608:4617  Timeframe */\n      sload(0x02)\n        /* \"Auction.sol\":4608:4635  Timeframe - block.timestamp */\n      tag_93\n      swap2\n      swap1\n      tag_60\n      jump\t// in\n    tag_93:\n        /* \"Auction.sol\":4592:4635  uint timeLeft = Timeframe - block.timestamp */\n      swap1\n      pop\n        /* \"Auction.sol\":4667:4672  86400 */\n      0x015180\n        /* \"Auction.sol\":4656:4664  timeLeft */\n      dup2\n        /* \"Auction.sol\":4656:4672  timeLeft / 86400 */\n      tag_94\n      swap2\n      swap1\n      tag_78\n      jump\t// in\n    tag_94:\n        /* \"Auction.sol\":4648:4672  _days = timeLeft / 86400 */\n      swap4\n      pop\n        /* \"Auction.sol\":4751:4756  86400 */\n      0x015180\n        /* \"Auction.sol\":4739:4756  timeLeft %= 86400 */\n      dup2\n      tag_95\n      swap2\n      swap1\n      tag_96\n      jump\t// in\n    tag_95:\n      swap1\n      pop\n        /* \"Auction.sol\":4868:4872  3600 */\n      0x0e10\n        /* \"Auction.sol\":4857:4865  timeLeft */\n      dup2\n        /* \"Auction.sol\":4857:4872  timeLeft / 3600 */\n      tag_97\n      swap2\n      swap1\n      tag_78\n      jump\t// in\n    tag_97:\n        /* \"Auction.sol\":4848:4872  _hours = timeLeft / 3600 */\n      swap3\n      pop\n        /* \"Auction.sol\":4952:4956  3600 */\n      0x0e10\n        /* \"Auction.sol\":4940:4956  timeLeft %= 3600 */\n      dup2\n      tag_98\n      swap2\n      swap1\n      tag_96\n      jump\t// in\n    tag_98:\n      swap1\n      pop\n        /* \"Auction.sol\":5071:5073  60 */\n      0x3c\n        /* \"Auction.sol\":5060:5068  timeLeft */\n      dup2\n        /* \"Auction.sol\":5060:5073  timeLeft / 60 */\n      tag_99\n      swap2\n      swap1\n      tag_78\n      jump\t// in\n    tag_99:\n        /* \"Auction.sol\":5049:5073  _minutes = timeLeft / 60 */\n      swap2\n      pop\n        /* \"Auction.sol\":4469:5138  {... */\n      pop\n        /* \"Auction.sol\":4385:5138  function getTimeLeft() public view returns (uint _days, uint _hours, uint _minutes) {... */\n    tag_91:\n      swap1\n      swap2\n      swap3\n      jump\t// out\n        /* \"Auction.sol\":4261:4379  function getExcess() external view  returns(uint){... */\n    tag_31:\n        /* \"Auction.sol\":4305:4309  uint */\n      0x00\n        /* \"Auction.sol\":4329:4335  offers */\n      0x05\n        /* \"Auction.sol\":4329:4347  offers[msg.sender] */\n      0x00\n        /* \"Auction.sol\":4336:4346  msg.sender */\n      caller\n        /* \"Auction.sol\":4329:4347  offers[msg.sender] */\n      0xffffffffffffffffffffffffffffffffffffffff\n      and\n      0xffffffffffffffffffffffffffffffffffffffff\n      and\n      dup2\n      mstore\n      0x20\n      add\n      swap1\n      dup2\n      mstore\n      0x20\n      add\n      0x00\n      keccak256\n        /* \"Auction.sol\":4329:4360  offers[msg.sender].excessAmount */\n      0x02\n      add\n      sload\n        /* \"Auction.sol\":4321:4361  return (offers[msg.sender].excessAmount) */\n      swap1\n      pop\n        /* \"Auction.sol\":4261:4379  function getExcess() external view  returns(uint){... */\n      swap1\n      jump\t// out\n        /* \"Auction.sol\":3379:3474  function getWinnerAmount() external view returns(uint) {... */\n    tag_36:\n        /* \"Auction.sol\":3428:3432  uint */\n      0x00\n        /* \"Auction.sol\":3452:3466  offerWinAmount */\n      sload(0x04)\n        /* \"Auction.sol\":3445:3466  return offerWinAmount */\n      swap1\n      pop\n        /* \"Auction.sol\":3379:3474  function getWinnerAmount() external view returns(uint) {... */\n      swap1\n      jump\t// out\n        /* \"#utility.yul\":7:121   */\n    tag_102:\n        /* \"#utility.yul\":74:80   */\n      0x00\n        /* \"#utility.yul\":108:113   */\n      dup2\n        /* \"#utility.yul\":102:114   */\n      mload\n        /* \"#utility.yul\":92:114   */\n      swap1\n      pop\n        /* \"#utility.yul\":7:121   */\n      swap2\n      swap1\n      pop\n      jump\t// out\n        /* \"#utility.yul\":127:311   */\n    tag_103:\n        /* \"#utility.yul\":226:237   */\n      0x00\n        /* \"#utility.yul\":260:266   */\n      dup3\n        /* \"#utility.yul\":255:258   */\n      dup3\n        /* \"#utility.yul\":248:267   */\n      mstore\n        /* \"#utility.yul\":300:304   */\n      0x20\n        /* \"#utility.yul\":295:298   */\n      dup3\n        /* \"#utility.yul\":291:305   */\n      add\n        /* \"#utility.yul\":276:305   */\n      swap1\n      pop\n        /* \"#utility.yul\":127:311   */\n      swap3\n      swap2\n      pop\n      pop\n      jump\t// out\n        /* \"#utility.yul\":317:449   */\n    tag_104:\n        /* \"#utility.yul\":384:388   */\n      0x00\n        /* \"#utility.yul\":407:410   */\n      dup2\n        /* \"#utility.yul\":399:410   */\n      swap1\n      pop\n        /* \"#utility.yul\":437:441   */\n      0x20\n        /* \"#utility.yul\":432:435   */\n      dup3\n        /* \"#utility.yul\":428:442   */\n      add\n        /* \"#utility.yul\":420:442   */\n      swap1\n      pop\n        /* \"#utility.yul\":317:449   */\n      swap2\n      swap1\n      pop\n      jump\t// out\n        /* \"#utility.yul\":455:581   */\n    tag_105:\n        /* \"#utility.yul\":492:499   */\n      0x00\n        /* \"#utility.yul\":532:574   */\n      0xffffffffffffffffffffffffffffffffffffffff\n        /* \"#utility.yul\":525:530   */\n      dup3\n        /* \"#utility.yul\":521:575   */\n      and\n        /* \"#utility.yul\":510:575   */\n      swap1\n      pop\n        /* \"#utility.yul\":455:581   */\n      swap2\n      swap1\n      pop\n      jump\t// out\n        /* \"#utility.yul\":587:683   */\n    tag_106:\n        /* \"#utility.yul\":624:631   */\n      0x00\n        /* \"#utility.yul\":653:677   */\n      tag_138\n        /* \"#utility.yul\":671:676   */\n      dup3\n        /* \"#utility.yul\":653:677   */\n      tag_105\n      jump\t// in\n    tag_138:\n        /* \"#utility.yul\":642:677   */\n      swap1\n      pop\n        /* \"#utility.yul\":587:683   */\n      swap2\n      swap1\n      pop\n      jump\t// out\n        /* \"#utility.yul\":689:797   */\n    tag_107:\n        /* \"#utility.yul\":766:790   */\n      tag_140\n        /* \"#utility.yul\":784:789   */\n      dup2\n        /* \"#utility.yul\":766:790   */\n      tag_106\n      jump\t// in\n    tag_140:\n        /* \"#utility.yul\":761:764   */\n      dup3\n        /* \"#utility.yul\":754:791   */\n      mstore\n        /* \"#utility.yul\":689:797   */\n      pop\n      pop\n      jump\t// out\n        /* \"#utility.yul\":803:982   */\n    tag_108:\n        /* \"#utility.yul\":872:882   */\n      0x00\n        /* \"#utility.yul\":893:939   */\n      tag_142\n        /* \"#utility.yul\":935:938   */\n      dup4\n        /* \"#utility.yul\":927:933   */\n      dup4\n        /* \"#utility.yul\":893:939   */\n      tag_107\n      jump\t// in\n    tag_142:\n        /* \"#utility.yul\":971:975   */\n      0x20\n        /* \"#utility.yul\":966:969   */\n      dup4\n        /* \"#utility.yul\":962:976   */\n      add\n        /* \"#utility.yul\":948:976   */\n      swap1\n      pop\n        /* \"#utility.yul\":803:982   */\n      swap3\n      swap2\n      pop\n      pop\n      jump\t// out\n        /* \"#utility.yul\":988:1101   */\n    tag_109:\n        /* \"#utility.yul\":1058:1062   */\n      0x00\n        /* \"#utility.yul\":1090:1094   */\n      0x20\n        /* \"#utility.yul\":1085:1088   */\n      dup3\n        /* \"#utility.yul\":1081:1095   */\n      add\n        /* \"#utility.yul\":1073:1095   */\n      swap1\n      pop\n        /* \"#utility.yul\":988:1101   */\n      swap2\n      swap1\n      pop\n      jump\t// out\n        /* \"#utility.yul\":1137:1869   */\n    tag_110:\n        /* \"#utility.yul\":1256:1259   */\n      0x00\n        /* \"#utility.yul\":1285:1339   */\n      tag_145\n        /* \"#utility.yul\":1333:1338   */\n      dup3\n        /* \"#utility.yul\":1285:1339   */\n      tag_102\n      jump\t// in\n    tag_145:\n        /* \"#utility.yul\":1355:1441   */\n      tag_146\n        /* \"#utility.yul\":1434:1440   */\n      dup2\n        /* \"#utility.yul\":1429:1432   */\n      dup6\n        /* \"#utility.yul\":1355:1441   */\n      tag_103\n      jump\t// in\n    tag_146:\n        /* \"#utility.yul\":1348:1441   */\n      swap4\n      pop\n        /* \"#utility.yul\":1465:1521   */\n      tag_147\n        /* \"#utility.yul\":1515:1520   */\n      dup4\n        /* \"#utility.yul\":1465:1521   */\n      tag_104\n      jump\t// in\n    tag_147:\n        /* \"#utility.yul\":1544:1551   */\n      dup1\n        /* \"#utility.yul\":1575:1576   */\n      0x00\n        /* \"#utility.yul\":1560:1844   */\n    tag_148:\n        /* \"#utility.yul\":1585:1591   */\n      dup4\n        /* \"#utility.yul\":1582:1583   */\n      dup2\n        /* \"#utility.yul\":1579:1592   */\n      lt\n        /* \"#utility.yul\":1560:1844   */\n      iszero\n      tag_150\n      jumpi\n        /* \"#utility.yul\":1661:1667   */\n      dup2\n        /* \"#utility.yul\":1655:1668   */\n      mload\n        /* \"#utility.yul\":1688:1751   */\n      tag_151\n        /* \"#utility.yul\":1747:1750   */\n      dup9\n        /* \"#utility.yul\":1732:1745   */\n      dup3\n        /* \"#utility.yul\":1688:1751   */\n      tag_108\n      jump\t// in\n    tag_151:\n        /* \"#utility.yul\":1681:1751   */\n      swap8\n      pop\n        /* \"#utility.yul\":1774:1834   */\n      tag_152\n        /* \"#utility.yul\":1827:1833   */\n      dup4\n        /* \"#utility.yul\":1774:1834   */\n      tag_109\n      jump\t// in\n    tag_152:\n        /* \"#utility.yul\":1764:1834   */\n      swap3\n      pop\n        /* \"#utility.yul\":1620:1844   */\n      pop\n        /* \"#utility.yul\":1607:1608   */\n      0x01\n        /* \"#utility.yul\":1604:1605   */\n      dup2\n        /* \"#utility.yul\":1600:1609   */\n      add\n        /* \"#utility.yul\":1595:1609   */\n      swap1\n      pop\n        /* \"#utility.yul\":1560:1844   */\n      jump(tag_148)\n    tag_150:\n        /* \"#utility.yul\":1564:1578   */\n      pop\n        /* \"#utility.yul\":1860:1863   */\n      dup6\n        /* \"#utility.yul\":1853:1863   */\n      swap4\n      pop\n        /* \"#utility.yul\":1261:1869   */\n      pop\n      pop\n      pop\n        /* \"#utility.yul\":1137:1869   */\n      swap3\n      swap2\n      pop\n      pop\n      jump\t// out\n        /* \"#utility.yul\":1875:1989   */\n    tag_111:\n        /* \"#utility.yul\":1942:1948   */\n      0x00\n        /* \"#utility.yul\":1976:1981   */\n      dup2\n        /* \"#utility.yul\":1970:1982   */\n      mload\n        /* \"#utility.yul\":1960:1982   */\n      swap1\n      pop\n        /* \"#utility.yul\":1875:1989   */\n      swap2\n      swap1\n      pop\n      jump\t// out\n        /* \"#utility.yul\":1995:2179   */\n    tag_112:\n        /* \"#utility.yul\":2094:2105   */\n      0x00\n        /* \"#utility.yul\":2128:2134   */\n      dup3\n        /* \"#utility.yul\":2123:2126   */\n      dup3\n        /* \"#utility.yul\":2116:2135   */\n      mstore\n        /* \"#utility.yul\":2168:2172   */\n      0x20\n        /* \"#utility.yul\":2163:2166   */\n      dup3\n        /* \"#utility.yul\":2159:2173   */\n      add\n        /* \"#utility.yul\":2144:2173   */\n      swap1\n      pop\n        /* \"#utility.yul\":1995:2179   */\n      swap3\n      swap2\n      pop\n      pop\n      jump\t// out\n        /* \"#utility.yul\":2185:2317   */\n    tag_113:\n        /* \"#utility.yul\":2252:2256   */\n      0x00\n        /* \"#utility.yul\":2275:2278   */\n      dup2\n        /* \"#utility.yul\":2267:2278   */\n      swap1\n      pop\n        /* \"#utility.yul\":2305:2309   */\n      0x20\n        /* \"#utility.yul\":2300:2303   */\n      dup3\n        /* \"#utility.yul\":2296:2310   */\n      add\n        /* \"#utility.yul\":2288:2310   */\n      swap1\n      pop\n        /* \"#utility.yul\":2185:2317   */\n      swap2\n      swap1\n      pop\n      jump\t// out\n        /* \"#utility.yul\":2323:2400   */\n    tag_114:\n        /* \"#utility.yul\":2360:2367   */\n      0x00\n        /* \"#utility.yul\":2389:2394   */\n      dup2\n        /* \"#utility.yul\":2378:2394   */\n      swap1\n      pop\n        /* \"#utility.yul\":2323:2400   */\n      swap2\n      swap1\n      pop\n      jump\t// out\n        /* \"#utility.yul\":2406:2514   */\n    tag_115:\n        /* \"#utility.yul\":2483:2507   */\n      tag_158\n        /* \"#utility.yul\":2501:2506   */\n      dup2\n        /* \"#utility.yul\":2483:2507   */\n      tag_114\n      jump\t// in\n    tag_158:\n        /* \"#utility.yul\":2478:2481   */\n      dup3\n        /* \"#utility.yul\":2471:2508   */\n      mstore\n        /* \"#utility.yul\":2406:2514   */\n      pop\n      pop\n      jump\t// out\n        /* \"#utility.yul\":2520:2699   */\n    tag_116:\n        /* \"#utility.yul\":2589:2599   */\n      0x00\n        /* \"#utility.yul\":2610:2656   */\n      tag_160\n        /* \"#utility.yul\":2652:2655   */\n      dup4\n        /* \"#utility.yul\":2644:2650   */\n      dup4\n        /* \"#utility.yul\":2610:2656   */\n      tag_115\n      jump\t// in\n    tag_160:\n        /* \"#utility.yul\":2688:2692   */\n      0x20\n        /* \"#utility.yul\":2683:2686   */\n      dup4\n        /* \"#utility.yul\":2679:2693   */\n      add\n        /* \"#utility.yul\":2665:2693   */\n      swap1\n      pop\n        /* \"#utility.yul\":2520:2699   */\n      swap3\n      swap2\n      pop\n      pop\n      jump\t// out\n        /* \"#utility.yul\":2705:2818   */\n    tag_117:\n        /* \"#utility.yul\":2775:2779   */\n      0x00\n        /* \"#utility.yul\":2807:2811   */\n      0x20\n        /* \"#utility.yul\":2802:2805   */\n      dup3\n        /* \"#utility.yul\":2798:2812   */\n      add\n        /* \"#utility.yul\":2790:2812   */\n      swap1\n      pop\n        /* \"#utility.yul\":2705:2818   */\n      swap2\n      swap1\n      pop\n      jump\t// out\n        /* \"#utility.yul\":2854:3586   */\n    tag_118:\n        /* \"#utility.yul\":2973:2976   */\n      0x00\n        /* \"#utility.yul\":3002:3056   */\n      tag_163\n        /* \"#utility.yul\":3050:3055   */\n      dup3\n        /* \"#utility.yul\":3002:3056   */\n      tag_111\n      jump\t// in\n    tag_163:\n        /* \"#utility.yul\":3072:3158   */\n      tag_164\n        /* \"#utility.yul\":3151:3157   */\n      dup2\n        /* \"#utility.yul\":3146:3149   */\n      dup6\n        /* \"#utility.yul\":3072:3158   */\n      tag_112\n      jump\t// in\n    tag_164:\n        /* \"#utility.yul\":3065:3158   */\n      swap4\n      pop\n        /* \"#utility.yul\":3182:3238   */\n      tag_165\n        /* \"#utility.yul\":3232:3237   */\n      dup4\n        /* \"#utility.yul\":3182:3238   */\n      tag_113\n      jump\t// in\n    tag_165:\n        /* \"#utility.yul\":3261:3268   */\n      dup1\n        /* \"#utility.yul\":3292:3293   */\n      0x00\n        /* \"#utility.yul\":3277:3561   */\n    tag_166:\n        /* \"#utility.yul\":3302:3308   */\n      dup4\n        /* \"#utility.yul\":3299:3300   */\n      dup2\n        /* \"#utility.yul\":3296:3309   */\n      lt\n        /* \"#utility.yul\":3277:3561   */\n      iszero\n      tag_168\n      jumpi\n        /* \"#utility.yul\":3378:3384   */\n      dup2\n        /* \"#utility.yul\":3372:3385   */\n      mload\n        /* \"#utility.yul\":3405:3468   */\n      tag_169\n        /* \"#utility.yul\":3464:3467   */\n      dup9\n        /* \"#utility.yul\":3449:3462   */\n      dup3\n        /* \"#utility.yul\":3405:3468   */\n      tag_116\n      jump\t// in\n    tag_169:\n        /* \"#utility.yul\":3398:3468   */\n      swap8\n      pop\n        /* \"#utility.yul\":3491:3551   */\n      tag_170\n        /* \"#utility.yul\":3544:3550   */\n      dup4\n        /* \"#utility.yul\":3491:3551   */\n      tag_117\n      jump\t// in\n    tag_170:\n        /* \"#utility.yul\":3481:3551   */\n      swap3\n      pop\n        /* \"#utility.yul\":3337:3561   */\n      pop\n        /* \"#utility.yul\":3324:3325   */\n      0x01\n        /* \"#utility.yul\":3321:3322   */\n      dup2\n        /* \"#utility.yul\":3317:3326   */\n      add\n        /* \"#utility.yul\":3312:3326   */\n      swap1\n      pop\n        /* \"#utility.yul\":3277:3561   */\n      jump(tag_166)\n    tag_168:\n        /* \"#utility.yul\":3281:3295   */\n      pop\n        /* \"#utility.yul\":3577:3580   */\n      dup6\n        /* \"#utility.yul\":3570:3580   */\n      swap4\n      pop\n        /* \"#utility.yul\":2978:3586   */\n      pop\n      pop\n      pop\n        /* \"#utility.yul\":2854:3586   */\n      swap3\n      swap2\n      pop\n      pop\n      jump\t// out\n        /* \"#utility.yul\":3592:4226   */\n    tag_14:\n        /* \"#utility.yul\":3813:3817   */\n      0x00\n        /* \"#utility.yul\":3851:3853   */\n      0x40\n        /* \"#utility.yul\":3840:3849   */\n      dup3\n        /* \"#utility.yul\":3836:3854   */\n      add\n        /* \"#utility.yul\":3828:3854   */\n      swap1\n      pop\n        /* \"#utility.yul\":3900:3909   */\n      dup2\n        /* \"#utility.yul\":3894:3898   */\n      dup2\n        /* \"#utility.yul\":3890:3910   */\n      sub\n        /* \"#utility.yul\":3886:3887   */\n      0x00\n        /* \"#utility.yul\":3875:3884   */\n      dup4\n        /* \"#utility.yul\":3871:3888   */\n      add\n        /* \"#utility.yul\":3864:3911   */\n      mstore\n        /* \"#utility.yul\":3928:4036   */\n      tag_172\n        /* \"#utility.yul\":4031:4035   */\n      dup2\n        /* \"#utility.yul\":4022:4028   */\n      dup6\n        /* \"#utility.yul\":3928:4036   */\n      tag_110\n      jump\t// in\n    tag_172:\n        /* \"#utility.yul\":3920:4036   */\n      swap1\n      pop\n        /* \"#utility.yul\":4083:4092   */\n      dup2\n        /* \"#utility.yul\":4077:4081   */\n      dup2\n        /* \"#utility.yul\":4073:4093   */\n      sub\n        /* \"#utility.yul\":4068:4070   */\n      0x20\n        /* \"#utility.yul\":4057:4066   */\n      dup4\n        /* \"#utility.yul\":4053:4071   */\n      add\n        /* \"#utility.yul\":4046:4094   */\n      mstore\n        /* \"#utility.yul\":4111:4219   */\n      tag_173\n        /* \"#utility.yul\":4214:4218   */\n      dup2\n        /* \"#utility.yul\":4205:4211   */\n      dup5\n        /* \"#utility.yul\":4111:4219   */\n      tag_118\n      jump\t// in\n    tag_173:\n        /* \"#utility.yul\":4103:4219   */\n      swap1\n      pop\n        /* \"#utility.yul\":3592:4226   */\n      swap4\n      swap3\n      pop\n      pop\n      pop\n      jump\t// out\n        /* \"#utility.yul\":4232:4350   */\n    tag_119:\n        /* \"#utility.yul\":4319:4343   */\n      tag_175\n        /* \"#utility.yul\":4337:4342   */\n      dup2\n        /* \"#utility.yul\":4319:4343   */\n      tag_106\n      jump\t// in\n    tag_175:\n        /* \"#utility.yul\":4314:4317   */\n      dup3\n        /* \"#utility.yul\":4307:4344   */\n      mstore\n        /* \"#utility.yul\":4232:4350   */\n      pop\n      pop\n      jump\t// out\n        /* \"#utility.yul\":4356:4578   */\n    tag_19:\n        /* \"#utility.yul\":4449:4453   */\n      0x00\n        /* \"#utility.yul\":4487:4489   */\n      0x20\n        /* \"#utility.yul\":4476:4485   */\n      dup3\n        /* \"#utility.yul\":4472:4490   */\n      add\n        /* \"#utility.yul\":4464:4490   */\n      swap1\n      pop\n        /* \"#utility.yul\":4500:4571   */\n      tag_177\n        /* \"#utility.yul\":4568:4569   */\n      0x00\n        /* \"#utility.yul\":4557:4566   */\n      dup4\n        /* \"#utility.yul\":4553:4570   */\n      add\n        /* \"#utility.yul\":4544:4550   */\n      dup5\n        /* \"#utility.yul\":4500:4571   */\n      tag_119\n      jump\t// in\n    tag_177:\n        /* \"#utility.yul\":4356:4578   */\n      swap3\n      swap2\n      pop\n      pop\n      jump\t// out\n        /* \"#utility.yul\":4584:4702   */\n    tag_120:\n        /* \"#utility.yul\":4671:4695   */\n      tag_179\n        /* \"#utility.yul\":4689:4694   */\n      dup2\n        /* \"#utility.yul\":4671:4695   */\n      tag_114\n      jump\t// in\n    tag_179:\n        /* \"#utility.yul\":4666:4669   */\n      dup3\n        /* \"#utility.yul\":4659:4696   */\n      mstore\n        /* \"#utility.yul\":4584:4702   */\n      pop\n      pop\n      jump\t// out\n        /* \"#utility.yul\":4708:5150   */\n    tag_28:\n        /* \"#utility.yul\":4857:4861   */\n      0x00\n        /* \"#utility.yul\":4895:4897   */\n      0x60\n        /* \"#utility.yul\":4884:4893   */\n      dup3\n        /* \"#utility.yul\":4880:4898   */\n      add\n        /* \"#utility.yul\":4872:4898   */\n      swap1\n      pop\n        /* \"#utility.yul\":4908:4979   */\n      tag_181\n        /* \"#utility.yul\":4976:4977   */\n      0x00\n        /* \"#utility.yul\":4965:4974   */\n      dup4\n        /* \"#utility.yul\":4961:4978   */\n      add\n        /* \"#utility.yul\":4952:4958   */\n      dup7\n        /* \"#utility.yul\":4908:4979   */\n      tag_120\n      jump\t// in\n    tag_181:\n        /* \"#utility.yul\":4989:5061   */\n      tag_182\n        /* \"#utility.yul\":5057:5059   */\n      0x20\n        /* \"#utility.yul\":5046:5055   */\n      dup4\n        /* \"#utility.yul\":5042:5060   */\n      add\n        /* \"#utility.yul\":5033:5039   */\n      dup6\n        /* \"#utility.yul\":4989:5061   */\n      tag_120\n      jump\t// in\n    tag_182:\n        /* \"#utility.yul\":5071:5143   */\n      tag_183\n        /* \"#utility.yul\":5139:5141   */\n      0x40\n        /* \"#utility.yul\":5128:5137   */\n      dup4\n        /* \"#utility.yul\":5124:5142   */\n      add\n        /* \"#utility.yul\":5115:5121   */\n      dup5\n        /* \"#utility.yul\":5071:5143   */\n      tag_120\n      jump\t// in\n    tag_183:\n        /* \"#utility.yul\":4708:5150   */\n      swap5\n      swap4\n      pop\n      pop\n      pop\n      pop\n      jump\t// out\n        /* \"#utility.yul\":5156:5378   */\n    tag_33:\n        /* \"#utility.yul\":5249:5253   */\n      0x00\n        /* \"#utility.yul\":5287:5289   */\n      0x20\n        /* \"#utility.yul\":5276:5285   */\n      dup3\n        /* \"#utility.yul\":5272:5290   */\n      add\n        /* \"#utility.yul\":5264:5290   */\n      swap1\n      pop\n        /* \"#utility.yul\":5300:5371   */\n      tag_185\n        /* \"#utility.yul\":5368:5369   */\n      0x00\n        /* \"#utility.yul\":5357:5366   */\n      dup4\n        /* \"#utility.yul\":5353:5370   */\n      add\n        /* \"#utility.yul\":5344:5350   */\n      dup5\n        /* \"#utility.yul\":5300:5371   */\n      tag_120\n      jump\t// in\n    tag_185:\n        /* \"#utility.yul\":5156:5378   */\n      swap3\n      swap2\n      pop\n      pop\n      jump\t// out\n        /* \"#utility.yul\":5384:5564   */\n    tag_41:\n        /* \"#utility.yul\":5432:5509   */\n      0x4e487b7100000000000000000000000000000000000000000000000000000000\n        /* \"#utility.yul\":5429:5430   */\n      0x00\n        /* \"#utility.yul\":5422:5510   */\n      mstore\n        /* \"#utility.yul\":5529:5533   */\n      0x41\n        /* \"#utility.yul\":5526:5527   */\n      0x04\n        /* \"#utility.yul\":5519:5534   */\n      mstore\n        /* \"#utility.yul\":5553:5557   */\n      0x24\n        /* \"#utility.yul\":5550:5551   */\n      0x00\n        /* \"#utility.yul\":5543:5558   */\n      revert\n        /* \"#utility.yul\":5570:5750   */\n    tag_51:\n        /* \"#utility.yul\":5618:5695   */\n      0x4e487b7100000000000000000000000000000000000000000000000000000000\n        /* \"#utility.yul\":5615:5616   */\n      0x00\n        /* \"#utility.yul\":5608:5696   */\n      mstore\n        /* \"#utility.yul\":5715:5719   */\n      0x32\n        /* \"#utility.yul\":5712:5713   */\n      0x04\n        /* \"#utility.yul\":5705:5720   */\n      mstore\n        /* \"#utility.yul\":5739:5743   */\n      0x24\n        /* \"#utility.yul\":5736:5737   */\n      0x00\n        /* \"#utility.yul\":5729:5744   */\n      revert\n        /* \"#utility.yul\":5756:5936   */\n    tag_121:\n        /* \"#utility.yul\":5804:5881   */\n      0x4e487b7100000000000000000000000000000000000000000000000000000000\n        /* \"#utility.yul\":5801:5802   */\n      0x00\n        /* \"#utility.yul\":5794:5882   */\n      mstore\n        /* \"#utility.yul\":5901:5905   */\n      0x11\n        /* \"#utility.yul\":5898:5899   */\n      0x04\n        /* \"#utility.yul\":5891:5906   */\n      mstore\n        /* \"#utility.yul\":5925:5929   */\n      0x24\n        /* \"#utility.yul\":5922:5923   */\n      0x00\n        /* \"#utility.yul\":5915:5930   */\n      revert\n        /* \"#utility.yul\":5942:6136   */\n    tag_60:\n        /* \"#utility.yul\":5982:5986   */\n      0x00\n        /* \"#utility.yul\":6002:6022   */\n      tag_190\n        /* \"#utility.yul\":6020:6021   */\n      dup3\n        /* \"#utility.yul\":6002:6022   */\n      tag_114\n      jump\t// in\n    tag_190:\n        /* \"#utility.yul\":5997:6022   */\n      swap2\n      pop\n        /* \"#utility.yul\":6036:6056   */\n      tag_191\n        /* \"#utility.yul\":6054:6055   */\n      dup4\n        /* \"#utility.yul\":6036:6056   */\n      tag_114\n      jump\t// in\n    tag_191:\n        /* \"#utility.yul\":6031:6056   */\n      swap3\n      pop\n        /* \"#utility.yul\":6080:6081   */\n      dup3\n        /* \"#utility.yul\":6077:6078   */\n      dup3\n        /* \"#utility.yul\":6073:6082   */\n      sub\n        /* \"#utility.yul\":6065:6082   */\n      swap1\n      pop\n        /* \"#utility.yul\":6104:6105   */\n      dup2\n        /* \"#utility.yul\":6098:6102   */\n      dup2\n        /* \"#utility.yul\":6095:6106   */\n      gt\n        /* \"#utility.yul\":6092:6129   */\n      iszero\n      tag_192\n      jumpi\n        /* \"#utility.yul\":6109:6127   */\n      tag_193\n      tag_121\n      jump\t// in\n    tag_193:\n        /* \"#utility.yul\":6092:6129   */\n    tag_192:\n        /* \"#utility.yul\":5942:6136   */\n      swap3\n      swap2\n      pop\n      pop\n      jump\t// out\n        /* \"#utility.yul\":6142:6333   */\n    tag_63:\n        /* \"#utility.yul\":6182:6185   */\n      0x00\n        /* \"#utility.yul\":6201:6221   */\n      tag_195\n        /* \"#utility.yul\":6219:6220   */\n      dup3\n        /* \"#utility.yul\":6201:6221   */\n      tag_114\n      jump\t// in\n    tag_195:\n        /* \"#utility.yul\":6196:6221   */\n      swap2\n      pop\n        /* \"#utility.yul\":6235:6255   */\n      tag_196\n        /* \"#utility.yul\":6253:6254   */\n      dup4\n        /* \"#utility.yul\":6235:6255   */\n      tag_114\n      jump\t// in\n    tag_196:\n        /* \"#utility.yul\":6230:6255   */\n      swap3\n      pop\n        /* \"#utility.yul\":6278:6279   */\n      dup3\n        /* \"#utility.yul\":6275:6276   */\n      dup3\n        /* \"#utility.yul\":6271:6280   */\n      add\n        /* \"#utility.yul\":6264:6280   */\n      swap1\n      pop\n        /* \"#utility.yul\":6299:6302   */\n      dup1\n        /* \"#utility.yul\":6296:6297   */\n      dup3\n        /* \"#utility.yul\":6293:6303   */\n      gt\n        /* \"#utility.yul\":6290:6326   */\n      iszero\n      tag_197\n      jumpi\n        /* \"#utility.yul\":6306:6324   */\n      tag_198\n      tag_121\n      jump\t// in\n    tag_198:\n        /* \"#utility.yul\":6290:6326   */\n    tag_197:\n        /* \"#utility.yul\":6142:6333   */\n      swap3\n      swap2\n      pop\n      pop\n      jump\t// out\n        /* \"#utility.yul\":6339:6508   */\n    tag_122:\n        /* \"#utility.yul\":6423:6434   */\n      0x00\n        /* \"#utility.yul\":6457:6463   */\n      dup3\n        /* \"#utility.yul\":6452:6455   */\n      dup3\n        /* \"#utility.yul\":6445:6464   */\n      mstore\n        /* \"#utility.yul\":6497:6501   */\n      0x20\n        /* \"#utility.yul\":6492:6495   */\n      dup3\n        /* \"#utility.yul\":6488:6502   */\n      add\n        /* \"#utility.yul\":6473:6502   */\n      swap1\n      pop\n        /* \"#utility.yul\":6339:6508   */\n      swap3\n      swap2\n      pop\n      pop\n      jump\t// out\n        /* \"#utility.yul\":6514:6687   */\n    tag_123:\n        /* \"#utility.yul\":6654:6679   */\n      0x4c612073756261737461206861207465726d696e61646f000000000000000000\n        /* \"#utility.yul\":6650:6651   */\n      0x00\n        /* \"#utility.yul\":6642:6648   */\n      dup3\n        /* \"#utility.yul\":6638:6652   */\n      add\n        /* \"#utility.yul\":6631:6680   */\n      mstore\n        /* \"#utility.yul\":6514:6687   */\n      pop\n      jump\t// out\n        /* \"#utility.yul\":6693:7059   */\n    tag_124:\n        /* \"#utility.yul\":6835:6838   */\n      0x00\n        /* \"#utility.yul\":6856:6923   */\n      tag_202\n        /* \"#utility.yul\":6920:6922   */\n      0x17\n        /* \"#utility.yul\":6915:6918   */\n      dup4\n        /* \"#utility.yul\":6856:6923   */\n      tag_122\n      jump\t// in\n    tag_202:\n        /* \"#utility.yul\":6849:6923   */\n      swap2\n      pop\n        /* \"#utility.yul\":6932:7025   */\n      tag_203\n        /* \"#utility.yul\":7021:7024   */\n      dup3\n        /* \"#utility.yul\":6932:7025   */\n      tag_123\n      jump\t// in\n    tag_203:\n        /* \"#utility.yul\":7050:7052   */\n      0x20\n        /* \"#utility.yul\":7045:7048   */\n      dup3\n        /* \"#utility.yul\":7041:7053   */\n      add\n        /* \"#utility.yul\":7034:7053   */\n      swap1\n      pop\n        /* \"#utility.yul\":6693:7059   */\n      swap2\n      swap1\n      pop\n      jump\t// out\n        /* \"#utility.yul\":7065:7484   */\n    tag_68:\n        /* \"#utility.yul\":7231:7235   */\n      0x00\n        /* \"#utility.yul\":7269:7271   */\n      0x20\n        /* \"#utility.yul\":7258:7267   */\n      dup3\n        /* \"#utility.yul\":7254:7272   */\n      add\n        /* \"#utility.yul\":7246:7272   */\n      swap1\n      pop\n        /* \"#utility.yul\":7318:7327   */\n      dup2\n        /* \"#utility.yul\":7312:7316   */\n      dup2\n        /* \"#utility.yul\":7308:7328   */\n      sub\n        /* \"#utility.yul\":7304:7305   */\n      0x00\n        /* \"#utility.yul\":7293:7302   */\n      dup4\n        /* \"#utility.yul\":7289:7306   */\n      add\n        /* \"#utility.yul\":7282:7329   */\n      mstore\n        /* \"#utility.yul\":7346:7477   */\n      tag_205\n        /* \"#utility.yul\":7472:7476   */\n      dup2\n        /* \"#utility.yul\":7346:7477   */\n      tag_124\n      jump\t// in\n    tag_205:\n        /* \"#utility.yul\":7338:7477   */\n      swap1\n      pop\n        /* \"#utility.yul\":7065:7484   */\n      swap2\n      swap1\n      pop\n      jump\t// out\n        /* \"#utility.yul\":7490:7668   */\n    tag_125:\n        /* \"#utility.yul\":7630:7660   */\n      0x5961207469656e6573206c61206f6665727461206d617320616c746100000000\n        /* \"#utility.yul\":7626:7627   */\n      0x00\n        /* \"#utility.yul\":7618:7624   */\n      dup3\n        /* \"#utility.yul\":7614:7628   */\n      add\n        /* \"#utility.yul\":7607:7661   */\n      mstore\n        /* \"#utility.yul\":7490:7668   */\n      pop\n      jump\t// out\n        /* \"#utility.yul\":7674:8040   */\n    tag_126:\n        /* \"#utility.yul\":7816:7819   */\n      0x00\n        /* \"#utility.yul\":7837:7904   */\n      tag_208\n        /* \"#utility.yul\":7901:7903   */\n      0x1c\n        /* \"#utility.yul\":7896:7899   */\n      dup4\n        /* \"#utility.yul\":7837:7904   */\n      tag_122\n      jump\t// in\n    tag_208:\n        /* \"#utility.yul\":7830:7904   */\n      swap2\n      pop\n        /* \"#utility.yul\":7913:8006   */\n      tag_209\n        /* \"#utility.yul\":8002:8005   */\n      dup3\n        /* \"#utility.yul\":7913:8006   */\n      tag_125\n      jump\t// in\n    tag_209:\n        /* \"#utility.yul\":8031:8033   */\n      0x20\n        /* \"#utility.yul\":8026:8029   */\n      dup3\n        /* \"#utility.yul\":8022:8034   */\n      add\n        /* \"#utility.yul\":8015:8034   */\n      swap1\n      pop\n        /* \"#utility.yul\":7674:8040   */\n      swap2\n      swap1\n      pop\n      jump\t// out\n        /* \"#utility.yul\":8046:8465   */\n    tag_74:\n        /* \"#utility.yul\":8212:8216   */\n      0x00\n        /* \"#utility.yul\":8250:8252   */\n      0x20\n        /* \"#utility.yul\":8239:8248   */\n      dup3\n        /* \"#utility.yul\":8235:8253   */\n      add\n        /* \"#utility.yul\":8227:8253   */\n      swap1\n      pop\n        /* \"#utility.yul\":8299:8308   */\n      dup2\n        /* \"#utility.yul\":8293:8297   */\n      dup2\n        /* \"#utility.yul\":8289:8309   */\n      sub\n        /* \"#utility.yul\":8285:8286   */\n      0x00\n        /* \"#utility.yul\":8274:8283   */\n      dup4\n        /* \"#utility.yul\":8270:8287   */\n      add\n        /* \"#utility.yul\":8263:8310   */\n      mstore\n        /* \"#utility.yul\":8327:8458   */\n      tag_211\n        /* \"#utility.yul\":8453:8457   */\n      dup2\n        /* \"#utility.yul\":8327:8458   */\n      tag_126\n      jump\t// in\n    tag_211:\n        /* \"#utility.yul\":8319:8458   */\n      swap1\n      pop\n        /* \"#utility.yul\":8046:8465   */\n      swap2\n      swap1\n      pop\n      jump\t// out\n        /* \"#utility.yul\":8471:8881   */\n    tag_76:\n        /* \"#utility.yul\":8511:8518   */\n      0x00\n        /* \"#utility.yul\":8534:8554   */\n      tag_213\n        /* \"#utility.yul\":8552:8553   */\n      dup3\n        /* \"#utility.yul\":8534:8554   */\n      tag_114\n      jump\t// in\n    tag_213:\n        /* \"#utility.yul\":8529:8554   */\n      swap2\n      pop\n        /* \"#utility.yul\":8568:8588   */\n      tag_214\n        /* \"#utility.yul\":8586:8587   */\n      dup4\n        /* \"#utility.yul\":8568:8588   */\n      tag_114\n      jump\t// in\n    tag_214:\n        /* \"#utility.yul\":8563:8588   */\n      swap3\n      pop\n        /* \"#utility.yul\":8623:8624   */\n      dup3\n        /* \"#utility.yul\":8620:8621   */\n      dup3\n        /* \"#utility.yul\":8616:8625   */\n      mul\n        /* \"#utility.yul\":8645:8675   */\n      tag_215\n        /* \"#utility.yul\":8663:8674   */\n      dup2\n        /* \"#utility.yul\":8645:8675   */\n      tag_114\n      jump\t// in\n    tag_215:\n        /* \"#utility.yul\":8634:8675   */\n      swap2\n      pop\n        /* \"#utility.yul\":8824:8825   */\n      dup3\n        /* \"#utility.yul\":8815:8822   */\n      dup3\n        /* \"#utility.yul\":8811:8826   */\n      div\n        /* \"#utility.yul\":8808:8809   */\n      dup5\n        /* \"#utility.yul\":8805:8827   */\n      eq\n        /* \"#utility.yul\":8785:8786   */\n      dup4\n        /* \"#utility.yul\":8778:8787   */\n      iszero\n        /* \"#utility.yul\":8758:8841   */\n      or\n        /* \"#utility.yul\":8735:8874   */\n      tag_216\n      jumpi\n        /* \"#utility.yul\":8854:8872   */\n      tag_217\n      tag_121\n      jump\t// in\n    tag_217:\n        /* \"#utility.yul\":8735:8874   */\n    tag_216:\n        /* \"#utility.yul\":8519:8881   */\n      pop\n        /* \"#utility.yul\":8471:8881   */\n      swap3\n      swap2\n      pop\n      pop\n      jump\t// out\n        /* \"#utility.yul\":8887:9067   */\n    tag_127:\n        /* \"#utility.yul\":8935:9012   */\n      0x4e487b7100000000000000000000000000000000000000000000000000000000\n        /* \"#utility.yul\":8932:8933   */\n      0x00\n        /* \"#utility.yul\":8925:9013   */\n      mstore\n        /* \"#utility.yul\":9032:9036   */\n      0x12\n        /* \"#utility.yul\":9029:9030   */\n      0x04\n        /* \"#utility.yul\":9022:9037   */\n      mstore\n        /* \"#utility.yul\":9056:9060   */\n      0x24\n        /* \"#utility.yul\":9053:9054   */\n      0x00\n        /* \"#utility.yul\":9046:9061   */\n      revert\n        /* \"#utility.yul\":9073:9258   */\n    tag_78:\n        /* \"#utility.yul\":9113:9114   */\n      0x00\n        /* \"#utility.yul\":9130:9150   */\n      tag_220\n        /* \"#utility.yul\":9148:9149   */\n      dup3\n        /* \"#utility.yul\":9130:9150   */\n      tag_114\n      jump\t// in\n    tag_220:\n        /* \"#utility.yul\":9125:9150   */\n      swap2\n      pop\n        /* \"#utility.yul\":9164:9184   */\n      tag_221\n        /* \"#utility.yul\":9182:9183   */\n      dup4\n        /* \"#utility.yul\":9164:9184   */\n      tag_114\n      jump\t// in\n    tag_221:\n        /* \"#utility.yul\":9159:9184   */\n      swap3\n      pop\n        /* \"#utility.yul\":9203:9204   */\n      dup3\n        /* \"#utility.yul\":9193:9228   */\n      tag_222\n      jumpi\n        /* \"#utility.yul\":9208:9226   */\n      tag_223\n      tag_127\n      jump\t// in\n    tag_223:\n        /* \"#utility.yul\":9193:9228   */\n    tag_222:\n        /* \"#utility.yul\":9250:9251   */\n      dup3\n        /* \"#utility.yul\":9247:9248   */\n      dup3\n        /* \"#utility.yul\":9243:9252   */\n      div\n        /* \"#utility.yul\":9238:9252   */\n      swap1\n      pop\n        /* \"#utility.yul\":9073:9258   */\n      swap3\n      swap2\n      pop\n      pop\n      jump\t// out\n        /* \"#utility.yul\":9264:9493   */\n    tag_128:\n        /* \"#utility.yul\":9404:9438   */\n      0x4c61206f6665727461206465626520736572207375706572696f7220616c206d\n        /* \"#utility.yul\":9400:9401   */\n      0x00\n        /* \"#utility.yul\":9392:9398   */\n      dup3\n        /* \"#utility.yul\":9388:9402   */\n      add\n        /* \"#utility.yul\":9381:9439   */\n      mstore\n        /* \"#utility.yul\":9473:9485   */\n      0x656e6f7320656e20352500000000000000000000000000000000000000000000\n        /* \"#utility.yul\":9468:9470   */\n      0x20\n        /* \"#utility.yul\":9460:9466   */\n      dup3\n        /* \"#utility.yul\":9456:9471   */\n      add\n        /* \"#utility.yul\":9449:9486   */\n      mstore\n        /* \"#utility.yul\":9264:9493   */\n      pop\n      jump\t// out\n        /* \"#utility.yul\":9499:9865   */\n    tag_129:\n        /* \"#utility.yul\":9641:9644   */\n      0x00\n        /* \"#utility.yul\":9662:9729   */\n      tag_226\n        /* \"#utility.yul\":9726:9728   */\n      0x2a\n        /* \"#utility.yul\":9721:9724   */\n      dup4\n        /* \"#utility.yul\":9662:9729   */\n      tag_122\n      jump\t// in\n    tag_226:\n        /* \"#utility.yul\":9655:9729   */\n      swap2\n      pop\n        /* \"#utility.yul\":9738:9831   */\n      tag_227\n        /* \"#utility.yul\":9827:9830   */\n      dup3\n        /* \"#utility.yul\":9738:9831   */\n      tag_128\n      jump\t// in\n    tag_227:\n        /* \"#utility.yul\":9856:9858   */\n      0x40\n        /* \"#utility.yul\":9851:9854   */\n      dup3\n        /* \"#utility.yul\":9847:9859   */\n      add\n        /* \"#utility.yul\":9840:9859   */\n      swap1\n      pop\n        /* \"#utility.yul\":9499:9865   */\n      swap2\n      swap1\n      pop\n      jump\t// out\n        /* \"#utility.yul\":9871:10290   */\n    tag_81:\n        /* \"#utility.yul\":10037:10041   */\n      0x00\n        /* \"#utility.yul\":10075:10077   */\n      0x20\n        /* \"#utility.yul\":10064:10073   */\n      dup3\n        /* \"#utility.yul\":10060:10078   */\n      add\n        /* \"#utility.yul\":10052:10078   */\n      swap1\n      pop\n        /* \"#utility.yul\":10124:10133   */\n      dup2\n        /* \"#utility.yul\":10118:10122   */\n      dup2\n        /* \"#utility.yul\":10114:10134   */\n      sub\n        /* \"#utility.yul\":10110:10111   */\n      0x00\n        /* \"#utility.yul\":10099:10108   */\n      dup4\n        /* \"#utility.yul\":10095:10112   */\n      add\n        /* \"#utility.yul\":10088:10135   */\n      mstore\n        /* \"#utility.yul\":10152:10283   */\n      tag_229\n        /* \"#utility.yul\":10278:10282   */\n      dup2\n        /* \"#utility.yul\":10152:10283   */\n      tag_129\n      jump\t// in\n    tag_229:\n        /* \"#utility.yul\":10144:10283   */\n      swap1\n      pop\n        /* \"#utility.yul\":9871:10290   */\n      swap2\n      swap1\n      pop\n      jump\t// out\n        /* \"#utility.yul\":10296:10521   */\n    tag_130:\n        /* \"#utility.yul\":10436:10470   */\n      0x4e6f207469656e6520737566696369656e74652073616c646f20706172612072\n        /* \"#utility.yul\":10432:10433   */\n      0x00\n        /* \"#utility.yul\":10424:10430   */\n      dup3\n        /* \"#utility.yul\":10420:10434   */\n      add\n        /* \"#utility.yul\":10413:10471   */\n      mstore\n        /* \"#utility.yul\":10505:10513   */\n      0x6574697261720000000000000000000000000000000000000000000000000000\n        /* \"#utility.yul\":10500:10502   */\n      0x20\n        /* \"#utility.yul\":10492:10498   */\n      dup3\n        /* \"#utility.yul\":10488:10503   */\n      add\n        /* \"#utility.yul\":10481:10514   */\n      mstore\n        /* \"#utility.yul\":10296:10521   */\n      pop\n      jump\t// out\n        /* \"#utility.yul\":10527:10893   */\n    tag_131:\n        /* \"#utility.yul\":10669:10672   */\n      0x00\n        /* \"#utility.yul\":10690:10757   */\n      tag_232\n        /* \"#utility.yul\":10754:10756   */\n      0x26\n        /* \"#utility.yul\":10749:10752   */\n      dup4\n        /* \"#utility.yul\":10690:10757   */\n      tag_122\n      jump\t// in\n    tag_232:\n        /* \"#utility.yul\":10683:10757   */\n      swap2\n      pop\n        /* \"#utility.yul\":10766:10859   */\n      tag_233\n        /* \"#utility.yul\":10855:10858   */\n      dup3\n        /* \"#utility.yul\":10766:10859   */\n      tag_130\n      jump\t// in\n    tag_233:\n        /* \"#utility.yul\":10884:10886   */\n      0x40\n        /* \"#utility.yul\":10879:10882   */\n      dup3\n        /* \"#utility.yul\":10875:10887   */\n      add\n        /* \"#utility.yul\":10868:10887   */\n      swap1\n      pop\n        /* \"#utility.yul\":10527:10893   */\n      swap2\n      swap1\n      pop\n      jump\t// out\n        /* \"#utility.yul\":10899:11318   */\n    tag_87:\n        /* \"#utility.yul\":11065:11069   */\n      0x00\n        /* \"#utility.yul\":11103:11105   */\n      0x20\n        /* \"#utility.yul\":11092:11101   */\n      dup3\n        /* \"#utility.yul\":11088:11106   */\n      add\n        /* \"#utility.yul\":11080:11106   */\n      swap1\n      pop\n        /* \"#utility.yul\":11152:11161   */\n      dup2\n        /* \"#utility.yul\":11146:11150   */\n      dup2\n        /* \"#utility.yul\":11142:11162   */\n      sub\n        /* \"#utility.yul\":11138:11139   */\n      0x00\n        /* \"#utility.yul\":11127:11136   */\n      dup4\n        /* \"#utility.yul\":11123:11140   */\n      add\n        /* \"#utility.yul\":11116:11163   */\n      mstore\n        /* \"#utility.yul\":11180:11311   */\n      tag_235\n        /* \"#utility.yul\":11306:11310   */\n      dup2\n        /* \"#utility.yul\":11180:11311   */\n      tag_131\n      jump\t// in\n    tag_235:\n        /* \"#utility.yul\":11172:11311   */\n      swap1\n      pop\n        /* \"#utility.yul\":10899:11318   */\n      swap2\n      swap1\n      pop\n      jump\t// out\n        /* \"#utility.yul\":11324:11500   */\n    tag_96:\n        /* \"#utility.yul\":11356:11357   */\n      0x00\n        /* \"#utility.yul\":11373:11393   */\n      tag_237\n        /* \"#utility.yul\":11391:11392   */\n      dup3\n        /* \"#utility.yul\":11373:11393   */\n      tag_114\n      jump\t// in\n    tag_237:\n        /* \"#utility.yul\":11368:11393   */\n      swap2\n      pop\n        /* \"#utility.yul\":11407:11427   */\n      tag_238\n        /* \"#utility.yul\":11425:11426   */\n      dup4\n        /* \"#utility.yul\":11407:11427   */\n      tag_114\n      jump\t// in\n    tag_238:\n        /* \"#utility.yul\":11402:11427   */\n      swap3\n      pop\n        /* \"#utility.yul\":11446:11447   */\n      dup3\n        /* \"#utility.yul\":11436:11471   */\n      tag_239\n      jumpi\n        /* \"#utility.yul\":11451:11469   */\n      tag_240\n      tag_127\n      jump\t// in\n    tag_240:\n        /* \"#utility.yul\":11436:11471   */\n    tag_239:\n        /* \"#utility.yul\":11492:11493   */\n      dup3\n        /* \"#utility.yul\":11489:11490   */\n      dup3\n        /* \"#utility.yul\":11485:11494   */\n      mod\n        /* \"#utility.yul\":11480:11494   */\n      swap1\n      pop\n        /* \"#utility.yul\":11324:11500   */\n      swap3\n      swap2\n      pop\n      pop\n      jump\t// out\n\n    auxdata: 0xa2646970667358221220907ed1f54d76d48913c91d19d7d5570303cd28038574482117b2fb29081e359e64736f6c634300081a0033\n}\n",
				"bytecode": {
					"linkReferences": {},
					"object": "6080604052348015600e575f80fd5b506402540be4005f819055504260018190555062093a80600154603091906070565b600281905550609c565b5f819050919050565b7f4e487b71000000000000000000000000000000000000000000000000000000005f52601160045260245ffd5b5f607882603a565b9150608183603a565b925082820190508082111560965760956043565b5b92915050565b610f9b806100a95f395ff3fe60806040526004361061006f575f3560e01c8063c264a0631161004d578063c264a063146100d2578063c7e284b8146100dc578063d54c564e14610108578063d95608e2146101325761006f565b8063534823bf146100735780636733430a1461009e578063689567d5146100c8575b5f80fd5b34801561007e575f80fd5b5061008761015c565b604051610095929190610af4565b60405180910390f35b3480156100a9575f80fd5b506100b2610318565b6040516100bf9190610b38565b60405180910390f35b6100d0610340565b005b6100da610721565b005b3480156100e7575f80fd5b506100f061087a565b6040516100ff93929190610b60565b60405180910390f35b348015610113575f80fd5b5061011c6108fd565b6040516101299190610b95565b60405180910390f35b34801561013d575f80fd5b50610146610944565b6040516101539190610b95565b60405180910390f35b6060805f60068054905067ffffffffffffffff81111561017f5761017e610bae565b5b6040519080825280602002602001820160405280156101ad5781602001602082028036833780820191505090505b5090505f60068054905067ffffffffffffffff8111156101d0576101cf610bae565b5b6040519080825280602002602001820160405280156101fe5781602001602082028036833780820191505090505b5090505f5b60068054905081101561030b575f6006828154811061022557610224610bdb565b5b905f5260205f20015f9054906101000a900473ffffffffffffffffffffffffffffffffffffffff1690508084838151811061026357610262610bdb565b5b602002602001019073ffffffffffffffffffffffffffffffffffffffff16908173ffffffffffffffffffffffffffffffffffffffff168152505060055f8273ffffffffffffffffffffffffffffffffffffffff1673ffffffffffffffffffffffffffffffffffffffff1681526020019081526020015f20600101548383815181106102f1576102f0610bdb565b5b602002602001018181525050508080600101915050610203565b5081819350935050509091565b5f60035f9054906101000a900473ffffffffffffffffffffffffffffffffffffffff16905090565b6102586002546103509190610c35565b42106103aa5761025860025f8282546103699190610c68565b925050819055507fc2b459809119087ca9d2bc10dea53a51b7d848b1a11075db037bdca58292c3e86002546040516103a19190610b95565b60405180910390a15b6002544211156103ef576040517f08c379a00000000000000000000000000000000000000000000000000000000081526004016103e690610cf5565b60405180910390fd5b5f60055f3373ffffffffffffffffffffffffffffffffffffffff1673ffffffffffffffffffffffffffffffffffffffff1681526020019081526020015f20600101540361049b57600633908060018154018082558091505060019003905f5260205f20015f9091909190916101000a81548173ffffffffffffffffffffffffffffffffffffffff021916908373ffffffffffffffffffffffffffffffffffffffff16021790555061052b565b60035f9054906101000a900473ffffffffffffffffffffffffffffffffffffffff1673ffffffffffffffffffffffffffffffffffffffff163373ffffffffffffffffffffffffffffffffffffffff160361052a576040517f08c379a000000000000000000000000000000000000000000000000000000000815260040161052190610d5d565b60405180910390fd5b5b6064606960045461053c9190610d7b565b6105469190610de9565b341015610588576040517f08c379a000000000000000000000000000000000000000000000000000000000815260040161057f90610e89565b60405180910390fd5b604051806060016040528042815260200134815260200160055f3373ffffffffffffffffffffffffffffffffffffffff1673ffffffffffffffffffffffffffffffffffffffff1681526020019081526020015f206002015460055f3373ffffffffffffffffffffffffffffffffffffffff1673ffffffffffffffffffffffffffffffffffffffff1681526020019081526020015f206001015461062b9190610c68565b81525060055f3373ffffffffffffffffffffffffffffffffffffffff1673ffffffffffffffffffffffffffffffffffffffff1681526020019081526020015f205f820151815f01556020820151816001015560408201518160020155905050346004819055503360035f6101000a81548173ffffffffffffffffffffffffffffffffffffffff021916908373ffffffffffffffffffffffffffffffffffffffff1602179055503373ffffffffffffffffffffffffffffffffffffffff167fdd0b6c6a77960e2066c96171b4d7ac9e8b4c184011f38544afa36a5bb63ec59f346040516107179190610b95565b60405180910390a2565b60055f3373ffffffffffffffffffffffffffffffffffffffff1673ffffffffffffffffffffffffffffffffffffffff1681526020019081526020015f20600201543411156107a4576040517f08c379a000000000000000000000000000000000000000000000000000000000815260040161079b90610f17565b60405180910390fd5b3460055f3373ffffffffffffffffffffffffffffffffffffffff1673ffffffffffffffffffffffffffffffffffffffff1681526020019081526020015f20600201546107f09190610c35565b60055f3373ffffffffffffffffffffffffffffffffffffffff1673ffffffffffffffffffffffffffffffffffffffff1681526020019081526020015f20600201819055503373ffffffffffffffffffffffffffffffffffffffff166108fc3490811502906040515f60405180830381858888f19350505050158015610877573d5f803e3d5ffd5b50565b5f805f6002544210610894575f805f9250925092506108f8565b5f426002546108a39190610c35565b905062015180816108b49190610de9565b935062015180816108c59190610f35565b9050610e10816108d59190610de9565b9250610e10816108e59190610f35565b9050603c816108f49190610de9565b9150505b909192565b5f60055f3373ffffffffffffffffffffffffffffffffffffffff1673ffffffffffffffffffffffffffffffffffffffff1681526020019081526020015f2060020154905090565b5f600454905090565b5f81519050919050565b5f82825260208201905092915050565b5f819050602082019050919050565b5f73ffffffffffffffffffffffffffffffffffffffff82169050919050565b5f61099f82610976565b9050919050565b6109af81610995565b82525050565b5f6109c083836109a6565b60208301905092915050565b5f602082019050919050565b5f6109e28261094d565b6109ec8185610957565b93506109f783610967565b805f5b83811015610a27578151610a0e88826109b5565b9750610a19836109cc565b9250506001810190506109fa565b5085935050505092915050565b5f81519050919050565b5f82825260208201905092915050565b5f819050602082019050919050565b5f819050919050565b610a6f81610a5d565b82525050565b5f610a808383610a66565b60208301905092915050565b5f602082019050919050565b5f610aa282610a34565b610aac8185610a3e565b9350610ab783610a4e565b805f5b83811015610ae7578151610ace8882610a75565b9750610ad983610a8c565b925050600181019050610aba565b5085935050505092915050565b5f6040820190508181035f830152610b0c81856109d8565b90508181036020830152610b208184610a98565b90509392505050565b610b3281610995565b82525050565b5f602082019050610b4b5f830184610b29565b92915050565b610b5a81610a5d565b82525050565b5f606082019050610b735f830186610b51565b610b806020830185610b51565b610b8d6040830184610b51565b949350505050565b5f602082019050610ba85f830184610b51565b92915050565b7f4e487b71000000000000000000000000000000000000000000000000000000005f52604160045260245ffd5b7f4e487b71000000000000000000000000000000000000000000000000000000005f52603260045260245ffd5b7f4e487b71000000000000000000000000000000000000000000000000000000005f52601160045260245ffd5b5f610c3f82610a5d565b9150610c4a83610a5d565b9250828203905081811115610c6257610c61610c08565b5b92915050565b5f610c7282610a5d565b9150610c7d83610a5d565b9250828201905080821115610c9557610c94610c08565b5b92915050565b5f82825260208201905092915050565b7f4c612073756261737461206861207465726d696e61646f0000000000000000005f82015250565b5f610cdf601783610c9b565b9150610cea82610cab565b602082019050919050565b5f6020820190508181035f830152610d0c81610cd3565b9050919050565b7f5961207469656e6573206c61206f6665727461206d617320616c7461000000005f82015250565b5f610d47601c83610c9b565b9150610d5282610d13565b602082019050919050565b5f6020820190508181035f830152610d7481610d3b565b9050919050565b5f610d8582610a5d565b9150610d9083610a5d565b9250828202610d9e81610a5d565b91508282048414831517610db557610db4610c08565b5b5092915050565b7f4e487b71000000000000000000000000000000000000000000000000000000005f52601260045260245ffd5b5f610df382610a5d565b9150610dfe83610a5d565b925082610e0e57610e0d610dbc565b5b828204905092915050565b7f4c61206f6665727461206465626520736572207375706572696f7220616c206d5f8201527f656e6f7320656e20352500000000000000000000000000000000000000000000602082015250565b5f610e73602a83610c9b565b9150610e7e82610e19565b604082019050919050565b5f6020820190508181035f830152610ea081610e67565b9050919050565b7f4e6f207469656e6520737566696369656e74652073616c646f207061726120725f8201527f6574697261720000000000000000000000000000000000000000000000000000602082015250565b5f610f01602683610c9b565b9150610f0c82610ea7565b604082019050919050565b5f6020820190508181035f830152610f2e81610ef5565b9050919050565b5f610f3f82610a5d565b9150610f4a83610a5d565b925082610f5a57610f59610dbc565b5b82820690509291505056fea2646970667358221220907ed1f54d76d48913c91d19d7d5570303cd28038574482117b2fb29081e359e64736f6c634300081a0033",
					"opcodes": "PUSH1 0x80 PUSH1 0x40 MSTORE CALLVALUE DUP1 ISZERO PUSH1 0xE JUMPI PUSH0 DUP1 REVERT JUMPDEST POP PUSH5 0x2540BE400 PUSH0 DUP2 SWAP1 SSTORE POP TIMESTAMP PUSH1 0x1 DUP2 SWAP1 SSTORE POP PUSH3 0x93A80 PUSH1 0x1 SLOAD PUSH1 0x30 SWAP2 SWAP1 PUSH1 0x70 JUMP JUMPDEST PUSH1 0x2 DUP2 SWAP1 SSTORE POP PUSH1 0x9C JUMP JUMPDEST PUSH0 DUP2 SWAP1 POP SWAP2 SWAP1 POP JUMP JUMPDEST PUSH32 0x4E487B7100000000000000000000000000000000000000000000000000000000 PUSH0 MSTORE PUSH1 0x11 PUSH1 0x4 MSTORE PUSH1 0x24 PUSH0 REVERT JUMPDEST PUSH0 PUSH1 0x78 DUP3 PUSH1 0x3A JUMP JUMPDEST SWAP2 POP PUSH1 0x81 DUP4 PUSH1 0x3A JUMP JUMPDEST SWAP3 POP DUP3 DUP3 ADD SWAP1 POP DUP1 DUP3 GT ISZERO PUSH1 0x96 JUMPI PUSH1 0x95 PUSH1 0x43 JUMP JUMPDEST JUMPDEST SWAP3 SWAP2 POP POP JUMP JUMPDEST PUSH2 0xF9B DUP1 PUSH2 0xA9 PUSH0 CODECOPY PUSH0 RETURN INVALID PUSH1 0x80 PUSH1 0x40 MSTORE PUSH1 0x4 CALLDATASIZE LT PUSH2 0x6F JUMPI PUSH0 CALLDATALOAD PUSH1 0xE0 SHR DUP1 PUSH4 0xC264A063 GT PUSH2 0x4D JUMPI DUP1 PUSH4 0xC264A063 EQ PUSH2 0xD2 JUMPI DUP1 PUSH4 0xC7E284B8 EQ PUSH2 0xDC JUMPI DUP1 PUSH4 0xD54C564E EQ PUSH2 0x108 JUMPI DUP1 PUSH4 0xD95608E2 EQ PUSH2 0x132 JUMPI PUSH2 0x6F JUMP JUMPDEST DUP1 PUSH4 0x534823BF EQ PUSH2 0x73 JUMPI DUP1 PUSH4 0x6733430A EQ PUSH2 0x9E JUMPI DUP1 PUSH4 0x689567D5 EQ PUSH2 0xC8 JUMPI JUMPDEST PUSH0 DUP1 REVERT JUMPDEST CALLVALUE DUP1 ISZERO PUSH2 0x7E JUMPI PUSH0 DUP1 REVERT JUMPDEST POP PUSH2 0x87 PUSH2 0x15C JUMP JUMPDEST PUSH1 0x40 MLOAD PUSH2 0x95 SWAP3 SWAP2 SWAP1 PUSH2 0xAF4 JUMP JUMPDEST PUSH1 0x40 MLOAD DUP1 SWAP2 SUB SWAP1 RETURN JUMPDEST CALLVALUE DUP1 ISZERO PUSH2 0xA9 JUMPI PUSH0 DUP1 REVERT JUMPDEST POP PUSH2 0xB2 PUSH2 0x318 JUMP JUMPDEST PUSH1 0x40 MLOAD PUSH2 0xBF SWAP2 SWAP1 PUSH2 0xB38 JUMP JUMPDEST PUSH1 0x40 MLOAD DUP1 SWAP2 SUB SWAP1 RETURN JUMPDEST PUSH2 0xD0 PUSH2 0x340 JUMP JUMPDEST STOP JUMPDEST PUSH2 0xDA PUSH2 0x721 JUMP JUMPDEST STOP JUMPDEST CALLVALUE DUP1 ISZERO PUSH2 0xE7 JUMPI PUSH0 DUP1 REVERT JUMPDEST POP PUSH2 0xF0 PUSH2 0x87A JUMP JUMPDEST PUSH1 0x40 MLOAD PUSH2 0xFF SWAP4 SWAP3 SWAP2 SWAP1 PUSH2 0xB60 JUMP JUMPDEST PUSH1 0x40 MLOAD DUP1 SWAP2 SUB SWAP1 RETURN JUMPDEST CALLVALUE DUP1 ISZERO PUSH2 0x113 JUMPI PUSH0 DUP1 REVERT JUMPDEST POP PUSH2 0x11C PUSH2 0x8FD JUMP JUMPDEST PUSH1 0x40 MLOAD PUSH2 0x129 SWAP2 SWAP1 PUSH2 0xB95 JUMP JUMPDEST PUSH1 0x40 MLOAD DUP1 SWAP2 SUB SWAP1 RETURN JUMPDEST CALLVALUE DUP1 ISZERO PUSH2 0x13D JUMPI PUSH0 DUP1 REVERT JUMPDEST POP PUSH2 0x146 PUSH2 0x944 JUMP JUMPDEST PUSH1 0x40 MLOAD PUSH2 0x153 SWAP2 SWAP1 PUSH2 0xB95 JUMP JUMPDEST PUSH1 0x40 MLOAD DUP1 SWAP2 SUB SWAP1 RETURN JUMPDEST PUSH1 0x60 DUP1 PUSH0 PUSH1 0x6 DUP1 SLOAD SWAP1 POP PUSH8 0xFFFFFFFFFFFFFFFF DUP2 GT ISZERO PUSH2 0x17F JUMPI PUSH2 0x17E PUSH2 0xBAE JUMP JUMPDEST JUMPDEST PUSH1 0x40 MLOAD SWAP1 DUP1 DUP3 MSTORE DUP1 PUSH1 0x20 MUL PUSH1 0x20 ADD DUP3 ADD PUSH1 0x40 MSTORE DUP1 ISZERO PUSH2 0x1AD JUMPI DUP2 PUSH1 0x20 ADD PUSH1 0x20 DUP3 MUL DUP1 CALLDATASIZE DUP4 CALLDATACOPY DUP1 DUP3 ADD SWAP2 POP POP SWAP1 POP JUMPDEST POP SWAP1 POP PUSH0 PUSH1 0x6 DUP1 SLOAD SWAP1 POP PUSH8 0xFFFFFFFFFFFFFFFF DUP2 GT ISZERO PUSH2 0x1D0 JUMPI PUSH2 0x1CF PUSH2 0xBAE JUMP JUMPDEST JUMPDEST PUSH1 0x40 MLOAD SWAP1 DUP1 DUP3 MSTORE DUP1 PUSH1 0x20 MUL PUSH1 0x20 ADD DUP3 ADD PUSH1 0x40 MSTORE DUP1 ISZERO PUSH2 0x1FE JUMPI DUP2 PUSH1 0x20 ADD PUSH1 0x20 DUP3 MUL DUP1 CALLDATASIZE DUP4 CALLDATACOPY DUP1 DUP3 ADD SWAP2 POP POP SWAP1 POP JUMPDEST POP SWAP1 POP PUSH0 JUMPDEST PUSH1 0x6 DUP1 SLOAD SWAP1 POP DUP2 LT ISZERO PUSH2 0x30B JUMPI PUSH0 PUSH1 0x6 DUP3 DUP2 SLOAD DUP2 LT PUSH2 0x225 JUMPI PUSH2 0x224 PUSH2 0xBDB JUMP JUMPDEST JUMPDEST SWAP1 PUSH0 MSTORE PUSH1 0x20 PUSH0 KECCAK256 ADD PUSH0 SWAP1 SLOAD SWAP1 PUSH2 0x100 EXP SWAP1 DIV PUSH20 0xFFFFFFFFFFFFFFFFFFFFFFFFFFFFFFFFFFFFFFFF AND SWAP1 POP DUP1 DUP5 DUP4 DUP2 MLOAD DUP2 LT PUSH2 0x263 JUMPI PUSH2 0x262 PUSH2 0xBDB JUMP JUMPDEST JUMPDEST PUSH1 0x20 MUL PUSH1 0x20 ADD ADD SWAP1 PUSH20 0xFFFFFFFFFFFFFFFFFFFFFFFFFFFFFFFFFFFFFFFF AND SWAP1 DUP2 PUSH20 0xFFFFFFFFFFFFFFFFFFFFFFFFFFFFFFFFFFFFFFFF AND DUP2 MSTORE POP POP PUSH1 0x5 PUSH0 DUP3 PUSH20 0xFFFFFFFFFFFFFFFFFFFFFFFFFFFFFFFFFFFFFFFF AND PUSH20 0xFFFFFFFFFFFFFFFFFFFFFFFFFFFFFFFFFFFFFFFF AND DUP2 MSTORE PUSH1 0x20 ADD SWAP1 DUP2 MSTORE PUSH1 0x20 ADD PUSH0 KECCAK256 PUSH1 0x1 ADD SLOAD DUP4 DUP4 DUP2 MLOAD DUP2 LT PUSH2 0x2F1 JUMPI PUSH2 0x2F0 PUSH2 0xBDB JUMP JUMPDEST JUMPDEST PUSH1 0x20 MUL PUSH1 0x20 ADD ADD DUP2 DUP2 MSTORE POP POP POP DUP1 DUP1 PUSH1 0x1 ADD SWAP2 POP POP PUSH2 0x203 JUMP JUMPDEST POP DUP2 DUP2 SWAP4 POP SWAP4 POP POP POP SWAP1 SWAP2 JUMP JUMPDEST PUSH0 PUSH1 0x3 PUSH0 SWAP1 SLOAD SWAP1 PUSH2 0x100 EXP SWAP1 DIV PUSH20 0xFFFFFFFFFFFFFFFFFFFFFFFFFFFFFFFFFFFFFFFF AND SWAP1 POP SWAP1 JUMP JUMPDEST PUSH2 0x258 PUSH1 0x2 SLOAD PUSH2 0x350 SWAP2 SWAP1 PUSH2 0xC35 JUMP JUMPDEST TIMESTAMP LT PUSH2 0x3AA JUMPI PUSH2 0x258 PUSH1 0x2 PUSH0 DUP3 DUP3 SLOAD PUSH2 0x369 SWAP2 SWAP1 PUSH2 0xC68 JUMP JUMPDEST SWAP3 POP POP DUP2 SWAP1 SSTORE POP PUSH32 0xC2B459809119087CA9D2BC10DEA53A51B7D848B1A11075DB037BDCA58292C3E8 PUSH1 0x2 SLOAD PUSH1 0x40 MLOAD PUSH2 0x3A1 SWAP2 SWAP1 PUSH2 0xB95 JUMP JUMPDEST PUSH1 0x40 MLOAD DUP1 SWAP2 SUB SWAP1 LOG1 JUMPDEST PUSH1 0x2 SLOAD TIMESTAMP GT ISZERO PUSH2 0x3EF JUMPI PUSH1 0x40 MLOAD PUSH32 0x8C379A000000000000000000000000000000000000000000000000000000000 DUP2 MSTORE PUSH1 0x4 ADD PUSH2 0x3E6 SWAP1 PUSH2 0xCF5 JUMP JUMPDEST PUSH1 0x40 MLOAD DUP1 SWAP2 SUB SWAP1 REVERT JUMPDEST PUSH0 PUSH1 0x5 PUSH0 CALLER PUSH20 0xFFFFFFFFFFFFFFFFFFFFFFFFFFFFFFFFFFFFFFFF AND PUSH20 0xFFFFFFFFFFFFFFFFFFFFFFFFFFFFFFFFFFFFFFFF AND DUP2 MSTORE PUSH1 0x20 ADD SWAP1 DUP2 MSTORE PUSH1 0x20 ADD PUSH0 KECCAK256 PUSH1 0x1 ADD SLOAD SUB PUSH2 0x49B JUMPI PUSH1 0x6 CALLER SWAP1 DUP1 PUSH1 0x1 DUP2 SLOAD ADD DUP1 DUP3 SSTORE DUP1 SWAP2 POP POP PUSH1 0x1 SWAP1 SUB SWAP1 PUSH0 MSTORE PUSH1 0x20 PUSH0 KECCAK256 ADD PUSH0 SWAP1 SWAP2 SWAP1 SWAP2 SWAP1 SWAP2 PUSH2 0x100 EXP DUP2 SLOAD DUP2 PUSH20 0xFFFFFFFFFFFFFFFFFFFFFFFFFFFFFFFFFFFFFFFF MUL NOT AND SWAP1 DUP4 PUSH20 0xFFFFFFFFFFFFFFFFFFFFFFFFFFFFFFFFFFFFFFFF AND MUL OR SWAP1 SSTORE POP PUSH2 0x52B JUMP JUMPDEST PUSH1 0x3 PUSH0 SWAP1 SLOAD SWAP1 PUSH2 0x100 EXP SWAP1 DIV PUSH20 0xFFFFFFFFFFFFFFFFFFFFFFFFFFFFFFFFFFFFFFFF AND PUSH20 0xFFFFFFFFFFFFFFFFFFFFFFFFFFFFFFFFFFFFFFFF AND CALLER PUSH20 0xFFFFFFFFFFFFFFFFFFFFFFFFFFFFFFFFFFFFFFFF AND SUB PUSH2 0x52A JUMPI PUSH1 0x40 MLOAD PUSH32 0x8C379A000000000000000000000000000000000000000000000000000000000 DUP2 MSTORE PUSH1 0x4 ADD PUSH2 0x521 SWAP1 PUSH2 0xD5D JUMP JUMPDEST PUSH1 0x40 MLOAD DUP1 SWAP2 SUB SWAP1 REVERT JUMPDEST JUMPDEST PUSH1 0x64 PUSH1 0x69 PUSH1 0x4 SLOAD PUSH2 0x53C SWAP2 SWAP1 PUSH2 0xD7B JUMP JUMPDEST PUSH2 0x546 SWAP2 SWAP1 PUSH2 0xDE9 JUMP JUMPDEST CALLVALUE LT ISZERO PUSH2 0x588 JUMPI PUSH1 0x40 MLOAD PUSH32 0x8C379A000000000000000000000000000000000000000000000000000000000 DUP2 MSTORE PUSH1 0x4 ADD PUSH2 0x57F SWAP1 PUSH2 0xE89 JUMP JUMPDEST PUSH1 0x40 MLOAD DUP1 SWAP2 SUB SWAP1 REVERT JUMPDEST PUSH1 0x40 MLOAD DUP1 PUSH1 0x60 ADD PUSH1 0x40 MSTORE DUP1 TIMESTAMP DUP2 MSTORE PUSH1 0x20 ADD CALLVALUE DUP2 MSTORE PUSH1 0x20 ADD PUSH1 0x5 PUSH0 CALLER PUSH20 0xFFFFFFFFFFFFFFFFFFFFFFFFFFFFFFFFFFFFFFFF AND PUSH20 0xFFFFFFFFFFFFFFFFFFFFFFFFFFFFFFFFFFFFFFFF AND DUP2 MSTORE PUSH1 0x20 ADD SWAP1 DUP2 MSTORE PUSH1 0x20 ADD PUSH0 KECCAK256 PUSH1 0x2 ADD SLOAD PUSH1 0x5 PUSH0 CALLER PUSH20 0xFFFFFFFFFFFFFFFFFFFFFFFFFFFFFFFFFFFFFFFF AND PUSH20 0xFFFFFFFFFFFFFFFFFFFFFFFFFFFFFFFFFFFFFFFF AND DUP2 MSTORE PUSH1 0x20 ADD SWAP1 DUP2 MSTORE PUSH1 0x20 ADD PUSH0 KECCAK256 PUSH1 0x1 ADD SLOAD PUSH2 0x62B SWAP2 SWAP1 PUSH2 0xC68 JUMP JUMPDEST DUP2 MSTORE POP PUSH1 0x5 PUSH0 CALLER PUSH20 0xFFFFFFFFFFFFFFFFFFFFFFFFFFFFFFFFFFFFFFFF AND PUSH20 0xFFFFFFFFFFFFFFFFFFFFFFFFFFFFFFFFFFFFFFFF AND DUP2 MSTORE PUSH1 0x20 ADD SWAP1 DUP2 MSTORE PUSH1 0x20 ADD PUSH0 KECCAK256 PUSH0 DUP3 ADD MLOAD DUP2 PUSH0 ADD SSTORE PUSH1 0x20 DUP3 ADD MLOAD DUP2 PUSH1 0x1 ADD SSTORE PUSH1 0x40 DUP3 ADD MLOAD DUP2 PUSH1 0x2 ADD SSTORE SWAP1 POP POP CALLVALUE PUSH1 0x4 DUP2 SWAP1 SSTORE POP CALLER PUSH1 0x3 PUSH0 PUSH2 0x100 EXP DUP2 SLOAD DUP2 PUSH20 0xFFFFFFFFFFFFFFFFFFFFFFFFFFFFFFFFFFFFFFFF MUL NOT AND SWAP1 DUP4 PUSH20 0xFFFFFFFFFFFFFFFFFFFFFFFFFFFFFFFFFFFFFFFF AND MUL OR SWAP1 SSTORE POP CALLER PUSH20 0xFFFFFFFFFFFFFFFFFFFFFFFFFFFFFFFFFFFFFFFF AND PUSH32 0xDD0B6C6A77960E2066C96171B4D7AC9E8B4C184011F38544AFA36A5BB63EC59F CALLVALUE PUSH1 0x40 MLOAD PUSH2 0x717 SWAP2 SWAP1 PUSH2 0xB95 JUMP JUMPDEST PUSH1 0x40 MLOAD DUP1 SWAP2 SUB SWAP1 LOG2 JUMP JUMPDEST PUSH1 0x5 PUSH0 CALLER PUSH20 0xFFFFFFFFFFFFFFFFFFFFFFFFFFFFFFFFFFFFFFFF AND PUSH20 0xFFFFFFFFFFFFFFFFFFFFFFFFFFFFFFFFFFFFFFFF AND DUP2 MSTORE PUSH1 0x20 ADD SWAP1 DUP2 MSTORE PUSH1 0x20 ADD PUSH0 KECCAK256 PUSH1 0x2 ADD SLOAD CALLVALUE GT ISZERO PUSH2 0x7A4 JUMPI PUSH1 0x40 MLOAD PUSH32 0x8C379A000000000000000000000000000000000000000000000000000000000 DUP2 MSTORE PUSH1 0x4 ADD PUSH2 0x79B SWAP1 PUSH2 0xF17 JUMP JUMPDEST PUSH1 0x40 MLOAD DUP1 SWAP2 SUB SWAP1 REVERT JUMPDEST CALLVALUE PUSH1 0x5 PUSH0 CALLER PUSH20 0xFFFFFFFFFFFFFFFFFFFFFFFFFFFFFFFFFFFFFFFF AND PUSH20 0xFFFFFFFFFFFFFFFFFFFFFFFFFFFFFFFFFFFFFFFF AND DUP2 MSTORE PUSH1 0x20 ADD SWAP1 DUP2 MSTORE PUSH1 0x20 ADD PUSH0 KECCAK256 PUSH1 0x2 ADD SLOAD PUSH2 0x7F0 SWAP2 SWAP1 PUSH2 0xC35 JUMP JUMPDEST PUSH1 0x5 PUSH0 CALLER PUSH20 0xFFFFFFFFFFFFFFFFFFFFFFFFFFFFFFFFFFFFFFFF AND PUSH20 0xFFFFFFFFFFFFFFFFFFFFFFFFFFFFFFFFFFFFFFFF AND DUP2 MSTORE PUSH1 0x20 ADD SWAP1 DUP2 MSTORE PUSH1 0x20 ADD PUSH0 KECCAK256 PUSH1 0x2 ADD DUP2 SWAP1 SSTORE POP CALLER PUSH20 0xFFFFFFFFFFFFFFFFFFFFFFFFFFFFFFFFFFFFFFFF AND PUSH2 0x8FC CALLVALUE SWAP1 DUP2 ISZERO MUL SWAP1 PUSH1 0x40 MLOAD PUSH0 PUSH1 0x40 MLOAD DUP1 DUP4 SUB DUP2 DUP6 DUP9 DUP9 CALL SWAP4 POP POP POP POP ISZERO DUP1 ISZERO PUSH2 0x877 JUMPI RETURNDATASIZE PUSH0 DUP1 RETURNDATACOPY RETURNDATASIZE PUSH0 REVERT JUMPDEST POP JUMP JUMPDEST PUSH0 DUP1 PUSH0 PUSH1 0x2 SLOAD TIMESTAMP LT PUSH2 0x894 JUMPI PUSH0 DUP1 PUSH0 SWAP3 POP SWAP3 POP SWAP3 POP PUSH2 0x8F8 JUMP JUMPDEST PUSH0 TIMESTAMP PUSH1 0x2 SLOAD PUSH2 0x8A3 SWAP2 SWAP1 PUSH2 0xC35 JUMP JUMPDEST SWAP1 POP PUSH3 0x15180 DUP2 PUSH2 0x8B4 SWAP2 SWAP1 PUSH2 0xDE9 JUMP JUMPDEST SWAP4 POP PUSH3 0x15180 DUP2 PUSH2 0x8C5 SWAP2 SWAP1 PUSH2 0xF35 JUMP JUMPDEST SWAP1 POP PUSH2 0xE10 DUP2 PUSH2 0x8D5 SWAP2 SWAP1 PUSH2 0xDE9 JUMP JUMPDEST SWAP3 POP PUSH2 0xE10 DUP2 PUSH2 0x8E5 SWAP2 SWAP1 PUSH2 0xF35 JUMP JUMPDEST SWAP1 POP PUSH1 0x3C DUP2 PUSH2 0x8F4 SWAP2 SWAP1 PUSH2 0xDE9 JUMP JUMPDEST SWAP2 POP POP JUMPDEST SWAP1 SWAP2 SWAP3 JUMP JUMPDEST PUSH0 PUSH1 0x5 PUSH0 CALLER PUSH20 0xFFFFFFFFFFFFFFFFFFFFFFFFFFFFFFFFFFFFFFFF AND PUSH20 0xFFFFFFFFFFFFFFFFFFFFFFFFFFFFFFFFFFFFFFFF AND DUP2 MSTORE PUSH1 0x20 ADD SWAP1 DUP2 MSTORE PUSH1 0x20 ADD PUSH0 KECCAK256 PUSH1 0x2 ADD SLOAD SWAP1 POP SWAP1 JUMP JUMPDEST PUSH0 PUSH1 0x4 SLOAD SWAP1 POP SWAP1 JUMP JUMPDEST PUSH0 DUP2 MLOAD SWAP1 POP SWAP2 SWAP1 POP JUMP JUMPDEST PUSH0 DUP3 DUP3 MSTORE PUSH1 0x20 DUP3 ADD SWAP1 POP SWAP3 SWAP2 POP POP JUMP JUMPDEST PUSH0 DUP2 SWAP1 POP PUSH1 0x20 DUP3 ADD SWAP1 POP SWAP2 SWAP1 POP JUMP JUMPDEST PUSH0 PUSH20 0xFFFFFFFFFFFFFFFFFFFFFFFFFFFFFFFFFFFFFFFF DUP3 AND SWAP1 POP SWAP2 SWAP1 POP JUMP JUMPDEST PUSH0 PUSH2 0x99F DUP3 PUSH2 0x976 JUMP JUMPDEST SWAP1 POP SWAP2 SWAP1 POP JUMP JUMPDEST PUSH2 0x9AF DUP2 PUSH2 0x995 JUMP JUMPDEST DUP3 MSTORE POP POP JUMP JUMPDEST PUSH0 PUSH2 0x9C0 DUP4 DUP4 PUSH2 0x9A6 JUMP JUMPDEST PUSH1 0x20 DUP4 ADD SWAP1 POP SWAP3 SWAP2 POP POP JUMP JUMPDEST PUSH0 PUSH1 0x20 DUP3 ADD SWAP1 POP SWAP2 SWAP1 POP JUMP JUMPDEST PUSH0 PUSH2 0x9E2 DUP3 PUSH2 0x94D JUMP JUMPDEST PUSH2 0x9EC DUP2 DUP6 PUSH2 0x957 JUMP JUMPDEST SWAP4 POP PUSH2 0x9F7 DUP4 PUSH2 0x967 JUMP JUMPDEST DUP1 PUSH0 JUMPDEST DUP4 DUP2 LT ISZERO PUSH2 0xA27 JUMPI DUP2 MLOAD PUSH2 0xA0E DUP9 DUP3 PUSH2 0x9B5 JUMP JUMPDEST SWAP8 POP PUSH2 0xA19 DUP4 PUSH2 0x9CC JUMP JUMPDEST SWAP3 POP POP PUSH1 0x1 DUP2 ADD SWAP1 POP PUSH2 0x9FA JUMP JUMPDEST POP DUP6 SWAP4 POP POP POP POP SWAP3 SWAP2 POP POP JUMP JUMPDEST PUSH0 DUP2 MLOAD SWAP1 POP SWAP2 SWAP1 POP JUMP JUMPDEST PUSH0 DUP3 DUP3 MSTORE PUSH1 0x20 DUP3 ADD SWAP1 POP SWAP3 SWAP2 POP POP JUMP JUMPDEST PUSH0 DUP2 SWAP1 POP PUSH1 0x20 DUP3 ADD SWAP1 POP SWAP2 SWAP1 POP JUMP JUMPDEST PUSH0 DUP2 SWAP1 POP SWAP2 SWAP1 POP JUMP JUMPDEST PUSH2 0xA6F DUP2 PUSH2 0xA5D JUMP JUMPDEST DUP3 MSTORE POP POP JUMP JUMPDEST PUSH0 PUSH2 0xA80 DUP4 DUP4 PUSH2 0xA66 JUMP JUMPDEST PUSH1 0x20 DUP4 ADD SWAP1 POP SWAP3 SWAP2 POP POP JUMP JUMPDEST PUSH0 PUSH1 0x20 DUP3 ADD SWAP1 POP SWAP2 SWAP1 POP JUMP JUMPDEST PUSH0 PUSH2 0xAA2 DUP3 PUSH2 0xA34 JUMP JUMPDEST PUSH2 0xAAC DUP2 DUP6 PUSH2 0xA3E JUMP JUMPDEST SWAP4 POP PUSH2 0xAB7 DUP4 PUSH2 0xA4E JUMP JUMPDEST DUP1 PUSH0 JUMPDEST DUP4 DUP2 LT ISZERO PUSH2 0xAE7 JUMPI DUP2 MLOAD PUSH2 0xACE DUP9 DUP3 PUSH2 0xA75 JUMP JUMPDEST SWAP8 POP PUSH2 0xAD9 DUP4 PUSH2 0xA8C JUMP JUMPDEST SWAP3 POP POP PUSH1 0x1 DUP2 ADD SWAP1 POP PUSH2 0xABA JUMP JUMPDEST POP DUP6 SWAP4 POP POP POP POP SWAP3 SWAP2 POP POP JUMP JUMPDEST PUSH0 PUSH1 0x40 DUP3 ADD SWAP1 POP DUP2 DUP2 SUB PUSH0 DUP4 ADD MSTORE PUSH2 0xB0C DUP2 DUP6 PUSH2 0x9D8 JUMP JUMPDEST SWAP1 POP DUP2 DUP2 SUB PUSH1 0x20 DUP4 ADD MSTORE PUSH2 0xB20 DUP2 DUP5 PUSH2 0xA98 JUMP JUMPDEST SWAP1 POP SWAP4 SWAP3 POP POP POP JUMP JUMPDEST PUSH2 0xB32 DUP2 PUSH2 0x995 JUMP JUMPDEST DUP3 MSTORE POP POP JUMP JUMPDEST PUSH0 PUSH1 0x20 DUP3 ADD SWAP1 POP PUSH2 0xB4B PUSH0 DUP4 ADD DUP5 PUSH2 0xB29 JUMP JUMPDEST SWAP3 SWAP2 POP POP JUMP JUMPDEST PUSH2 0xB5A DUP2 PUSH2 0xA5D JUMP JUMPDEST DUP3 MSTORE POP POP JUMP JUMPDEST PUSH0 PUSH1 0x60 DUP3 ADD SWAP1 POP PUSH2 0xB73 PUSH0 DUP4 ADD DUP7 PUSH2 0xB51 JUMP JUMPDEST PUSH2 0xB80 PUSH1 0x20 DUP4 ADD DUP6 PUSH2 0xB51 JUMP JUMPDEST PUSH2 0xB8D PUSH1 0x40 DUP4 ADD DUP5 PUSH2 0xB51 JUMP JUMPDEST SWAP5 SWAP4 POP POP POP POP JUMP JUMPDEST PUSH0 PUSH1 0x20 DUP3 ADD SWAP1 POP PUSH2 0xBA8 PUSH0 DUP4 ADD DUP5 PUSH2 0xB51 JUMP JUMPDEST SWAP3 SWAP2 POP POP JUMP JUMPDEST PUSH32 0x4E487B7100000000000000000000000000000000000000000000000000000000 PUSH0 MSTORE PUSH1 0x41 PUSH1 0x4 MSTORE PUSH1 0x24 PUSH0 REVERT JUMPDEST PUSH32 0x4E487B7100000000000000000000000000000000000000000000000000000000 PUSH0 MSTORE PUSH1 0x32 PUSH1 0x4 MSTORE PUSH1 0x24 PUSH0 REVERT JUMPDEST PUSH32 0x4E487B7100000000000000000000000000000000000000000000000000000000 PUSH0 MSTORE PUSH1 0x11 PUSH1 0x4 MSTORE PUSH1 0x24 PUSH0 REVERT JUMPDEST PUSH0 PUSH2 0xC3F DUP3 PUSH2 0xA5D JUMP JUMPDEST SWAP2 POP PUSH2 0xC4A DUP4 PUSH2 0xA5D JUMP JUMPDEST SWAP3 POP DUP3 DUP3 SUB SWAP1 POP DUP2 DUP2 GT ISZERO PUSH2 0xC62 JUMPI PUSH2 0xC61 PUSH2 0xC08 JUMP JUMPDEST JUMPDEST SWAP3 SWAP2 POP POP JUMP JUMPDEST PUSH0 PUSH2 0xC72 DUP3 PUSH2 0xA5D JUMP JUMPDEST SWAP2 POP PUSH2 0xC7D DUP4 PUSH2 0xA5D JUMP JUMPDEST SWAP3 POP DUP3 DUP3 ADD SWAP1 POP DUP1 DUP3 GT ISZERO PUSH2 0xC95 JUMPI PUSH2 0xC94 PUSH2 0xC08 JUMP JUMPDEST JUMPDEST SWAP3 SWAP2 POP POP JUMP JUMPDEST PUSH0 DUP3 DUP3 MSTORE PUSH1 0x20 DUP3 ADD SWAP1 POP SWAP3 SWAP2 POP POP JUMP JUMPDEST PUSH32 0x4C612073756261737461206861207465726D696E61646F000000000000000000 PUSH0 DUP3 ADD MSTORE POP JUMP JUMPDEST PUSH0 PUSH2 0xCDF PUSH1 0x17 DUP4 PUSH2 0xC9B JUMP JUMPDEST SWAP2 POP PUSH2 0xCEA DUP3 PUSH2 0xCAB JUMP JUMPDEST PUSH1 0x20 DUP3 ADD SWAP1 POP SWAP2 SWAP1 POP JUMP JUMPDEST PUSH0 PUSH1 0x20 DUP3 ADD SWAP1 POP DUP2 DUP2 SUB PUSH0 DUP4 ADD MSTORE PUSH2 0xD0C DUP2 PUSH2 0xCD3 JUMP JUMPDEST SWAP1 POP SWAP2 SWAP1 POP JUMP JUMPDEST PUSH32 0x5961207469656E6573206C61206F6665727461206D617320616C746100000000 PUSH0 DUP3 ADD MSTORE POP JUMP JUMPDEST PUSH0 PUSH2 0xD47 PUSH1 0x1C DUP4 PUSH2 0xC9B JUMP JUMPDEST SWAP2 POP PUSH2 0xD52 DUP3 PUSH2 0xD13 JUMP JUMPDEST PUSH1 0x20 DUP3 ADD SWAP1 POP SWAP2 SWAP1 POP JUMP JUMPDEST PUSH0 PUSH1 0x20 DUP3 ADD SWAP1 POP DUP2 DUP2 SUB PUSH0 DUP4 ADD MSTORE PUSH2 0xD74 DUP2 PUSH2 0xD3B JUMP JUMPDEST SWAP1 POP SWAP2 SWAP1 POP JUMP JUMPDEST PUSH0 PUSH2 0xD85 DUP3 PUSH2 0xA5D JUMP JUMPDEST SWAP2 POP PUSH2 0xD90 DUP4 PUSH2 0xA5D JUMP JUMPDEST SWAP3 POP DUP3 DUP3 MUL PUSH2 0xD9E DUP2 PUSH2 0xA5D JUMP JUMPDEST SWAP2 POP DUP3 DUP3 DIV DUP5 EQ DUP4 ISZERO OR PUSH2 0xDB5 JUMPI PUSH2 0xDB4 PUSH2 0xC08 JUMP JUMPDEST JUMPDEST POP SWAP3 SWAP2 POP POP JUMP JUMPDEST PUSH32 0x4E487B7100000000000000000000000000000000000000000000000000000000 PUSH0 MSTORE PUSH1 0x12 PUSH1 0x4 MSTORE PUSH1 0x24 PUSH0 REVERT JUMPDEST PUSH0 PUSH2 0xDF3 DUP3 PUSH2 0xA5D JUMP JUMPDEST SWAP2 POP PUSH2 0xDFE DUP4 PUSH2 0xA5D JUMP JUMPDEST SWAP3 POP DUP3 PUSH2 0xE0E JUMPI PUSH2 0xE0D PUSH2 0xDBC JUMP JUMPDEST JUMPDEST DUP3 DUP3 DIV SWAP1 POP SWAP3 SWAP2 POP POP JUMP JUMPDEST PUSH32 0x4C61206F6665727461206465626520736572207375706572696F7220616C206D PUSH0 DUP3 ADD MSTORE PUSH32 0x656E6F7320656E20352500000000000000000000000000000000000000000000 PUSH1 0x20 DUP3 ADD MSTORE POP JUMP JUMPDEST PUSH0 PUSH2 0xE73 PUSH1 0x2A DUP4 PUSH2 0xC9B JUMP JUMPDEST SWAP2 POP PUSH2 0xE7E DUP3 PUSH2 0xE19 JUMP JUMPDEST PUSH1 0x40 DUP3 ADD SWAP1 POP SWAP2 SWAP1 POP JUMP JUMPDEST PUSH0 PUSH1 0x20 DUP3 ADD SWAP1 POP DUP2 DUP2 SUB PUSH0 DUP4 ADD MSTORE PUSH2 0xEA0 DUP2 PUSH2 0xE67 JUMP JUMPDEST SWAP1 POP SWAP2 SWAP1 POP JUMP JUMPDEST PUSH32 0x4E6F207469656E6520737566696369656E74652073616C646F20706172612072 PUSH0 DUP3 ADD MSTORE PUSH32 0x6574697261720000000000000000000000000000000000000000000000000000 PUSH1 0x20 DUP3 ADD MSTORE POP JUMP JUMPDEST PUSH0 PUSH2 0xF01 PUSH1 0x26 DUP4 PUSH2 0xC9B JUMP JUMPDEST SWAP2 POP PUSH2 0xF0C DUP3 PUSH2 0xEA7 JUMP JUMPDEST PUSH1 0x40 DUP3 ADD SWAP1 POP SWAP2 SWAP1 POP JUMP JUMPDEST PUSH0 PUSH1 0x20 DUP3 ADD SWAP1 POP DUP2 DUP2 SUB PUSH0 DUP4 ADD MSTORE PUSH2 0xF2E DUP2 PUSH2 0xEF5 JUMP JUMPDEST SWAP1 POP SWAP2 SWAP1 POP JUMP JUMPDEST PUSH0 PUSH2 0xF3F DUP3 PUSH2 0xA5D JUMP JUMPDEST SWAP2 POP PUSH2 0xF4A DUP4 PUSH2 0xA5D JUMP JUMPDEST SWAP3 POP DUP3 PUSH2 0xF5A JUMPI PUSH2 0xF59 PUSH2 0xDBC JUMP JUMPDEST JUMPDEST DUP3 DUP3 MOD SWAP1 POP SWAP3 SWAP2 POP POP JUMP INVALID LOG2 PUSH5 0x6970667358 0x22 SLT KECCAK256 SWAP1 PUSH31 0xD1F54D76D48913C91D19D7D5570303CD28038574482117B2FB29081E359E64 PUSH20 0x6F6C634300081A00330000000000000000000000 "
				},
				"gasEstimates": {
					"creation": {
						"codeDepositCost": "799000",
						"executionCost": "infinite",
						"totalCost": "infinite"
					},
					"external": {
						"getExcess()": "2569",
						"getTimeLeft()": "infinite",
						"getWinnerAmount()": "2498",
						"getWinnerOffer()": "2538",
						"setOffer()": "infinite",
						"showOffers()": "infinite",
						"withdrawExcess()": "infinite"
					},
					"internal": {
						"AuctionEnded()": "infinite"
					}
				},
				"methodIdentifiers": {
					"getExcess()": "d54c564e",
					"getTimeLeft()": "c7e284b8",
					"getWinnerAmount()": "d95608e2",
					"getWinnerOffer()": "6733430a",
					"setOffer()": "689567d5",
					"showOffers()": "534823bf",
					"withdrawExcess()": "c264a063"
				}
			},
			"storageLayout": {
				"storage": [
					{
						"astId": 3,
						"contract": "Auction.sol:Auction",
						"label": "FloorValue",
						"offset": 0,
						"slot": "0",
						"type": "t_uint256"
					},
					{
						"astId": 5,
						"contract": "Auction.sol:Auction",
						"label": "StartDate",
						"offset": 0,
						"slot": "1",
						"type": "t_uint256"
					},
					{
						"astId": 7,
						"contract": "Auction.sol:Auction",
						"label": "Timeframe",
						"offset": 0,
						"slot": "2",
						"type": "t_uint256"
					},
					{
						"astId": 16,
						"contract": "Auction.sol:Auction",
						"label": "offerWinAddress",
						"offset": 0,
						"slot": "3",
						"type": "t_address"
					},
					{
						"astId": 18,
						"contract": "Auction.sol:Auction",
						"label": "offerWinAmount",
						"offset": 0,
						"slot": "4",
						"type": "t_uint256"
					},
					{
						"astId": 23,
						"contract": "Auction.sol:Auction",
						"label": "offers",
						"offset": 0,
						"slot": "5",
						"type": "t_mapping(t_address,t_struct(Offer)14_storage)"
					},
					{
						"astId": 26,
						"contract": "Auction.sol:Auction",
						"label": "offerAddresses",
						"offset": 0,
						"slot": "6",
						"type": "t_array(t_address)dyn_storage"
					}
				],
				"types": {
					"t_address": {
						"encoding": "inplace",
						"label": "address",
						"numberOfBytes": "20"
					},
					"t_array(t_address)dyn_storage": {
						"base": "t_address",
						"encoding": "dynamic_array",
						"label": "address[]",
						"numberOfBytes": "32"
					},
					"t_mapping(t_address,t_struct(Offer)14_storage)": {
						"encoding": "mapping",
						"key": "t_address",
						"label": "mapping(address => struct Auction.Offer)",
						"numberOfBytes": "32",
						"value": "t_struct(Offer)14_storage"
					},
					"t_struct(Offer)14_storage": {
						"encoding": "inplace",
						"label": "struct Auction.Offer",
						"members": [
							{
								"astId": 9,
								"contract": "Auction.sol:Auction",
								"label": "date",
								"offset": 0,
								"slot": "0",
								"type": "t_uint256"
							},
							{
								"astId": 11,
								"contract": "Auction.sol:Auction",
								"label": "offerAmount",
								"offset": 0,
								"slot": "1",
								"type": "t_uint256"
							},
							{
								"astId": 13,
								"contract": "Auction.sol:Auction",
								"label": "excessAmount",
								"offset": 0,
								"slot": "2",
								"type": "t_uint256"
							}
						],
						"numberOfBytes": "96"
					},
					"t_uint256": {
						"encoding": "inplace",
						"label": "uint256",
						"numberOfBytes": "32"
					}
				}
			},
			"userdoc": {
				"kind": "user",
				"methods": {},
				"version": 1
			}
		}
	}
}