{
	"SimpleDex.sol": {
		"SimpleDEX": {
			"abi": [
				{
					"inputs": [
						{
							"internalType": "address",
							"name": "_tokenA",
							"type": "address"
						},
						{
							"internalType": "address",
							"name": "_tokenB",
							"type": "address"
						}
					],
					"stateMutability": "nonpayable",
					"type": "constructor"
				},
				{
					"inputs": [
						{
							"internalType": "address",
							"name": "owner",
							"type": "address"
						}
					],
					"name": "OwnableInvalidOwner",
					"type": "error"
				},
				{
					"inputs": [
						{
							"internalType": "address",
							"name": "account",
							"type": "address"
						}
					],
					"name": "OwnableUnauthorizedAccount",
					"type": "error"
				},
				{
					"anonymous": false,
					"inputs": [
						{
							"indexed": true,
							"internalType": "address",
							"name": "owner",
							"type": "address"
						},
						{
							"indexed": false,
							"internalType": "uint256",
							"name": "amountA",
							"type": "uint256"
						},
						{
							"indexed": false,
							"internalType": "uint256",
							"name": "amountB",
							"type": "uint256"
						}
					],
					"name": "LiquidityAdded",
					"type": "event"
				},
				{
					"anonymous": false,
					"inputs": [
						{
							"indexed": true,
							"internalType": "address",
							"name": "owner",
							"type": "address"
						},
						{
							"indexed": false,
							"internalType": "uint256",
							"name": "amountA",
							"type": "uint256"
						},
						{
							"indexed": false,
							"internalType": "uint256",
							"name": "amountB",
							"type": "uint256"
						}
					],
					"name": "LiquidityRemoved",
					"type": "event"
				},
				{
					"anonymous": false,
					"inputs": [
						{
							"indexed": true,
							"internalType": "address",
							"name": "previousOwner",
							"type": "address"
						},
						{
							"indexed": true,
							"internalType": "address",
							"name": "newOwner",
							"type": "address"
						}
					],
					"name": "OwnershipTransferred",
					"type": "event"
				},
				{
					"anonymous": false,
					"inputs": [
						{
							"indexed": true,
							"internalType": "address",
							"name": "owner",
							"type": "address"
						},
						{
							"indexed": false,
							"internalType": "uint256",
							"name": "amountA",
							"type": "uint256"
						},
						{
							"indexed": false,
							"internalType": "uint256",
							"name": "amountB",
							"type": "uint256"
						}
					],
					"name": "PoolInitialized",
					"type": "event"
				},
				{
					"anonymous": false,
					"inputs": [
						{
							"indexed": true,
							"internalType": "address",
							"name": "user",
							"type": "address"
						},
						{
							"indexed": false,
							"internalType": "address",
							"name": "tokenIn",
							"type": "address"
						},
						{
							"indexed": false,
							"internalType": "address",
							"name": "tokenOut",
							"type": "address"
						},
						{
							"indexed": false,
							"internalType": "uint256",
							"name": "amountIn",
							"type": "uint256"
						},
						{
							"indexed": false,
							"internalType": "uint256",
							"name": "amountOut",
							"type": "uint256"
						}
					],
					"name": "Swap",
					"type": "event"
				},
				{
					"inputs": [
						{
							"internalType": "uint256",
							"name": "amountA",
							"type": "uint256"
						},
						{
							"internalType": "uint256",
							"name": "amountB",
							"type": "uint256"
						}
					],
					"name": "addLiquidity",
					"outputs": [],
					"stateMutability": "nonpayable",
					"type": "function"
				},
				{
					"inputs": [],
					"name": "getPrice",
					"outputs": [
						{
							"internalType": "uint256",
							"name": "tokenAEquivalent",
							"type": "uint256"
						},
						{
							"internalType": "uint256",
							"name": "tokenBEquivalent",
							"type": "uint256"
						}
					],
					"stateMutability": "view",
					"type": "function"
				},
				{
					"inputs": [],
					"name": "getReserves",
					"outputs": [
						{
							"internalType": "uint256",
							"name": "",
							"type": "uint256"
						},
						{
							"internalType": "uint256",
							"name": "",
							"type": "uint256"
						}
					],
					"stateMutability": "view",
					"type": "function"
				},
				{
					"inputs": [
						{
							"internalType": "uint256",
							"name": "amountA",
							"type": "uint256"
						},
						{
							"internalType": "uint256",
							"name": "amountB",
							"type": "uint256"
						}
					],
					"name": "initializePool",
					"outputs": [],
					"stateMutability": "nonpayable",
					"type": "function"
				},
				{
					"inputs": [],
					"name": "owner",
					"outputs": [
						{
							"internalType": "address",
							"name": "",
							"type": "address"
						}
					],
					"stateMutability": "view",
					"type": "function"
				},
				{
					"inputs": [
						{
							"internalType": "uint256",
							"name": "amountA",
							"type": "uint256"
						},
						{
							"internalType": "uint256",
							"name": "amountB",
							"type": "uint256"
						}
					],
					"name": "removeLiquidity",
					"outputs": [],
					"stateMutability": "nonpayable",
					"type": "function"
				},
				{
					"inputs": [],
					"name": "renounceOwnership",
					"outputs": [],
					"stateMutability": "nonpayable",
					"type": "function"
				},
				{
					"inputs": [
						{
							"internalType": "uint256",
							"name": "amountA",
							"type": "uint256"
						}
					],
					"name": "swapAForB",
					"outputs": [],
					"stateMutability": "nonpayable",
					"type": "function"
				},
				{
					"inputs": [
						{
							"internalType": "uint256",
							"name": "amountB",
							"type": "uint256"
						}
					],
					"name": "swapBForA",
					"outputs": [],
					"stateMutability": "nonpayable",
					"type": "function"
				},
				{
					"inputs": [],
					"name": "tokenA",
					"outputs": [
						{
							"internalType": "contract IERC20",
							"name": "",
							"type": "address"
						}
					],
					"stateMutability": "view",
					"type": "function"
				},
				{
					"inputs": [],
					"name": "tokenB",
					"outputs": [
						{
							"internalType": "contract IERC20",
							"name": "",
							"type": "address"
						}
					],
					"stateMutability": "view",
					"type": "function"
				},
				{
					"inputs": [
						{
							"internalType": "address",
							"name": "newOwner",
							"type": "address"
						}
					],
					"name": "transferOwnership",
					"outputs": [],
					"stateMutability": "nonpayable",
					"type": "function"
				}
			],
			"devdoc": {
				"errors": {
					"OwnableInvalidOwner(address)": [
						{
							"details": "The owner is not a valid owner account. (eg. `address(0)`)"
						}
					],
					"OwnableUnauthorizedAccount(address)": [
						{
							"details": "The caller account is not authorized to perform an operation."
						}
					]
				},
				"kind": "dev",
				"methods": {
					"owner()": {
						"details": "Returns the address of the current owner."
					},
					"renounceOwnership()": {
						"details": "Leaves the contract without owner. It will not be possible to call `onlyOwner` functions. Can only be called by the current owner. NOTE: Renouncing ownership will leave the contract without an owner, thereby disabling any functionality that is only available to the owner."
					},
					"transferOwnership(address)": {
						"details": "Transfers ownership of the contract to a new account (`newOwner`). Can only be called by the current owner."
					}
				},
				"version": 1
			},
			"evm": {
				"assembly": "    /* \"SimpleDex.sol\":189:5209  contract SimpleDEX is Ownable {... */\n  mstore(0x40, 0x80)\n    /* \"SimpleDex.sol\":655:821  constructor(address _tokenA, address _tokenB)  Ownable(msg.sender)  {... */\n  callvalue\n  dup1\n  iszero\n  tag_1\n  jumpi\n  0x00\n  dup1\n  revert\ntag_1:\n  pop\n  mload(0x40)\n  sub(codesize, bytecodeSize)\n  dup1\n  bytecodeSize\n  dup4\n  codecopy\n  dup2\n  dup2\n  add\n  0x40\n  mstore\n  dup2\n  add\n  swap1\n  tag_2\n  swap2\n  swap1\n  tag_3\n  jump\t// in\ntag_2:\n    /* \"SimpleDex.sol\":710:720  msg.sender */\n  caller\n    /* \"@openzeppelin/contracts/access/Ownable.sol\":1297:1298  0 */\n  0x00\n    /* \"@openzeppelin/contracts/access/Ownable.sol\":1273:1299  initialOwner == address(0) */\n  0xffffffffffffffffffffffffffffffffffffffff\n  and\n    /* \"@openzeppelin/contracts/access/Ownable.sol\":1273:1285  initialOwner */\n  dup2\n    /* \"@openzeppelin/contracts/access/Ownable.sol\":1273:1299  initialOwner == address(0) */\n  0xffffffffffffffffffffffffffffffffffffffff\n  and\n  sub\n    /* \"@openzeppelin/contracts/access/Ownable.sol\":1269:1364  if (initialOwner == address(0)) {... */\n  tag_7\n  jumpi\n    /* \"@openzeppelin/contracts/access/Ownable.sol\":1350:1351  0 */\n  0x00\n    /* \"@openzeppelin/contracts/access/Ownable.sol\":1322:1353  OwnableInvalidOwner(address(0)) */\n  mload(0x40)\n  0x1e4fbdf700000000000000000000000000000000000000000000000000000000\n  dup2\n  mstore\n  0x04\n  add\n  tag_8\n  swap2\n  swap1\n  tag_9\n  jump\t// in\ntag_8:\n  mload(0x40)\n  dup1\n  swap2\n  sub\n  swap1\n  revert\n    /* \"@openzeppelin/contracts/access/Ownable.sol\":1269:1364  if (initialOwner == address(0)) {... */\ntag_7:\n    /* \"@openzeppelin/contracts/access/Ownable.sol\":1373:1405  _transferOwnership(initialOwner) */\n  tag_10\n    /* \"@openzeppelin/contracts/access/Ownable.sol\":1392:1404  initialOwner */\n  dup2\n    /* \"@openzeppelin/contracts/access/Ownable.sol\":1373:1391  _transferOwnership */\n  shl(0x20, tag_11)\n    /* \"@openzeppelin/contracts/access/Ownable.sol\":1373:1405  _transferOwnership(initialOwner) */\n  0x20\n  shr\n  jump\t// in\ntag_10:\n    /* \"@openzeppelin/contracts/access/Ownable.sol\":1225:1412  constructor(address initialOwner) {... */\n  pop\n    /* \"SimpleDex.sol\":750:757  _tokenA */\n  dup2\n    /* \"SimpleDex.sol\":734:740  tokenA */\n  0x01\n  0x00\n    /* \"SimpleDex.sol\":734:758  tokenA = IERC20(_tokenA) */\n  0x0100\n  exp\n  dup2\n  sload\n  dup2\n  0xffffffffffffffffffffffffffffffffffffffff\n  mul\n  not\n  and\n  swap1\n  dup4\n  0xffffffffffffffffffffffffffffffffffffffff\n  and\n  mul\n  or\n  swap1\n  sstore\n  pop\n    /* \"SimpleDex.sol\":785:792  _tokenB */\n  dup1\n    /* \"SimpleDex.sol\":769:775  tokenB */\n  0x02\n  0x00\n    /* \"SimpleDex.sol\":769:793  tokenB = IERC20(_tokenB) */\n  0x0100\n  exp\n  dup2\n  sload\n  dup2\n  0xffffffffffffffffffffffffffffffffffffffff\n  mul\n  not\n  and\n  swap1\n  dup4\n  0xffffffffffffffffffffffffffffffffffffffff\n  and\n  mul\n  or\n  swap1\n  sstore\n  pop\n    /* \"SimpleDex.sol\":655:821  constructor(address _tokenA, address _tokenB)  Ownable(msg.sender)  {... */\n  pop\n  pop\n    /* \"SimpleDex.sol\":189:5209  contract SimpleDEX is Ownable {... */\n  jump(tag_13)\n    /* \"@openzeppelin/contracts/access/Ownable.sol\":2912:3099  function _transferOwnership(address newOwner) internal virtual {... */\ntag_11:\n    /* \"@openzeppelin/contracts/access/Ownable.sol\":2985:3001  address oldOwner */\n  0x00\n    /* \"@openzeppelin/contracts/access/Ownable.sol\":3004:3010  _owner */\n  dup1\n  0x00\n  swap1\n  sload\n  swap1\n  0x0100\n  exp\n  swap1\n  div\n  0xffffffffffffffffffffffffffffffffffffffff\n  and\n    /* \"@openzeppelin/contracts/access/Ownable.sol\":2985:3010  address oldOwner = _owner */\n  swap1\n  pop\n    /* \"@openzeppelin/contracts/access/Ownable.sol\":3029:3037  newOwner */\n  dup2\n    /* \"@openzeppelin/contracts/access/Ownable.sol\":3020:3026  _owner */\n  0x00\n  dup1\n    /* \"@openzeppelin/contracts/access/Ownable.sol\":3020:3037  _owner = newOwner */\n  0x0100\n  exp\n  dup2\n  sload\n  dup2\n  0xffffffffffffffffffffffffffffffffffffffff\n  mul\n  not\n  and\n  swap1\n  dup4\n  0xffffffffffffffffffffffffffffffffffffffff\n  and\n  mul\n  or\n  swap1\n  sstore\n  pop\n    /* \"@openzeppelin/contracts/access/Ownable.sol\":3083:3091  newOwner */\n  dup2\n    /* \"@openzeppelin/contracts/access/Ownable.sol\":3052:3092  OwnershipTransferred(oldOwner, newOwner) */\n  0xffffffffffffffffffffffffffffffffffffffff\n  and\n    /* \"@openzeppelin/contracts/access/Ownable.sol\":3073:3081  oldOwner */\n  dup2\n    /* \"@openzeppelin/contracts/access/Ownable.sol\":3052:3092  OwnershipTransferred(oldOwner, newOwner) */\n  0xffffffffffffffffffffffffffffffffffffffff\n  and\n  0x8be0079c531659141344cd1fd0a4f28419497f9722a3daafe3b4186f6b6457e0\n  mload(0x40)\n  mload(0x40)\n  dup1\n  swap2\n  sub\n  swap1\n  log3\n    /* \"@openzeppelin/contracts/access/Ownable.sol\":2975:3099  {... */\n  pop\n    /* \"@openzeppelin/contracts/access/Ownable.sol\":2912:3099  function _transferOwnership(address newOwner) internal virtual {... */\n  pop\n  jump\t// out\n    /* \"#utility.yul\":88:205   */\ntag_16:\n    /* \"#utility.yul\":197:198   */\n  0x00\n    /* \"#utility.yul\":194:195   */\n  dup1\n    /* \"#utility.yul\":187:199   */\n  revert\n    /* \"#utility.yul\":334:460   */\ntag_18:\n    /* \"#utility.yul\":371:378   */\n  0x00\n    /* \"#utility.yul\":411:453   */\n  0xffffffffffffffffffffffffffffffffffffffff\n    /* \"#utility.yul\":404:409   */\n  dup3\n    /* \"#utility.yul\":400:454   */\n  and\n    /* \"#utility.yul\":389:454   */\n  swap1\n  pop\n    /* \"#utility.yul\":334:460   */\n  swap2\n  swap1\n  pop\n  jump\t// out\n    /* \"#utility.yul\":466:562   */\ntag_19:\n    /* \"#utility.yul\":503:510   */\n  0x00\n    /* \"#utility.yul\":532:556   */\n  tag_29\n    /* \"#utility.yul\":550:555   */\n  dup3\n    /* \"#utility.yul\":532:556   */\n  tag_18\n  jump\t// in\ntag_29:\n    /* \"#utility.yul\":521:556   */\n  swap1\n  pop\n    /* \"#utility.yul\":466:562   */\n  swap2\n  swap1\n  pop\n  jump\t// out\n    /* \"#utility.yul\":568:690   */\ntag_20:\n    /* \"#utility.yul\":641:665   */\n  tag_31\n    /* \"#utility.yul\":659:664   */\n  dup2\n    /* \"#utility.yul\":641:665   */\n  tag_19\n  jump\t// in\ntag_31:\n    /* \"#utility.yul\":634:639   */\n  dup2\n    /* \"#utility.yul\":631:666   */\n  eq\n    /* \"#utility.yul\":621:684   */\n  tag_32\n  jumpi\n    /* \"#utility.yul\":680:681   */\n  0x00\n    /* \"#utility.yul\":677:678   */\n  dup1\n    /* \"#utility.yul\":670:682   */\n  revert\n    /* \"#utility.yul\":621:684   */\ntag_32:\n    /* \"#utility.yul\":568:690   */\n  pop\n  jump\t// out\n    /* \"#utility.yul\":696:839   */\ntag_21:\n    /* \"#utility.yul\":753:758   */\n  0x00\n    /* \"#utility.yul\":784:790   */\n  dup2\n    /* \"#utility.yul\":778:791   */\n  mload\n    /* \"#utility.yul\":769:791   */\n  swap1\n  pop\n    /* \"#utility.yul\":800:833   */\n  tag_34\n    /* \"#utility.yul\":827:832   */\n  dup2\n    /* \"#utility.yul\":800:833   */\n  tag_20\n  jump\t// in\ntag_34:\n    /* \"#utility.yul\":696:839   */\n  swap3\n  swap2\n  pop\n  pop\n  jump\t// out\n    /* \"#utility.yul\":845:1352   */\ntag_3:\n    /* \"#utility.yul\":924:930   */\n  0x00\n    /* \"#utility.yul\":932:938   */\n  dup1\n    /* \"#utility.yul\":981:983   */\n  0x40\n    /* \"#utility.yul\":969:978   */\n  dup4\n    /* \"#utility.yul\":960:967   */\n  dup6\n    /* \"#utility.yul\":956:979   */\n  sub\n    /* \"#utility.yul\":952:984   */\n  slt\n    /* \"#utility.yul\":949:1068   */\n  iszero\n  tag_36\n  jumpi\n    /* \"#utility.yul\":987:1066   */\n  tag_37\n  tag_16\n  jump\t// in\ntag_37:\n    /* \"#utility.yul\":949:1068   */\ntag_36:\n    /* \"#utility.yul\":1107:1108   */\n  0x00\n    /* \"#utility.yul\":1132:1196   */\n  tag_38\n    /* \"#utility.yul\":1188:1195   */\n  dup6\n    /* \"#utility.yul\":1179:1185   */\n  dup3\n    /* \"#utility.yul\":1168:1177   */\n  dup7\n    /* \"#utility.yul\":1164:1186   */\n  add\n    /* \"#utility.yul\":1132:1196   */\n  tag_21\n  jump\t// in\ntag_38:\n    /* \"#utility.yul\":1122:1196   */\n  swap3\n  pop\n    /* \"#utility.yul\":1078:1206   */\n  pop\n    /* \"#utility.yul\":1245:1247   */\n  0x20\n    /* \"#utility.yul\":1271:1335   */\n  tag_39\n    /* \"#utility.yul\":1327:1334   */\n  dup6\n    /* \"#utility.yul\":1318:1324   */\n  dup3\n    /* \"#utility.yul\":1307:1316   */\n  dup7\n    /* \"#utility.yul\":1303:1325   */\n  add\n    /* \"#utility.yul\":1271:1335   */\n  tag_21\n  jump\t// in\ntag_39:\n    /* \"#utility.yul\":1261:1335   */\n  swap2\n  pop\n    /* \"#utility.yul\":1216:1345   */\n  pop\n    /* \"#utility.yul\":845:1352   */\n  swap3\n  pop\n  swap3\n  swap1\n  pop\n  jump\t// out\n    /* \"#utility.yul\":1358:1476   */\ntag_22:\n    /* \"#utility.yul\":1445:1469   */\n  tag_41\n    /* \"#utility.yul\":1463:1468   */\n  dup2\n    /* \"#utility.yul\":1445:1469   */\n  tag_19\n  jump\t// in\ntag_41:\n    /* \"#utility.yul\":1440:1443   */\n  dup3\n    /* \"#utility.yul\":1433:1470   */\n  mstore\n    /* \"#utility.yul\":1358:1476   */\n  pop\n  pop\n  jump\t// out\n    /* \"#utility.yul\":1482:1704   */\ntag_9:\n    /* \"#utility.yul\":1575:1579   */\n  0x00\n    /* \"#utility.yul\":1613:1615   */\n  0x20\n    /* \"#utility.yul\":1602:1611   */\n  dup3\n    /* \"#utility.yul\":1598:1616   */\n  add\n    /* \"#utility.yul\":1590:1616   */\n  swap1\n  pop\n    /* \"#utility.yul\":1626:1697   */\n  tag_43\n    /* \"#utility.yul\":1694:1695   */\n  0x00\n    /* \"#utility.yul\":1683:1692   */\n  dup4\n    /* \"#utility.yul\":1679:1696   */\n  add\n    /* \"#utility.yul\":1670:1676   */\n  dup5\n    /* \"#utility.yul\":1626:1697   */\n  tag_22\n  jump\t// in\ntag_43:\n    /* \"#utility.yul\":1482:1704   */\n  swap3\n  swap2\n  pop\n  pop\n  jump\t// out\n    /* \"SimpleDex.sol\":189:5209  contract SimpleDEX is Ownable {... */\ntag_13:\n  dataSize(sub_0)\n  dup1\n  dataOffset(sub_0)\n  0x00\n  codecopy\n  0x00\n  return\nstop\n\nsub_0: assembly {\n        /* \"SimpleDex.sol\":189:5209  contract SimpleDEX is Ownable {... */\n      mstore(0x40, 0x80)\n      callvalue\n      dup1\n      iszero\n      tag_1\n      jumpi\n      0x00\n      dup1\n      revert\n    tag_1:\n      pop\n      jumpi(tag_2, lt(calldatasize, 0x04))\n      shr(0xe0, calldataload(0x00))\n      dup1\n      0x98d5fdca\n      gt\n      tag_15\n      jumpi\n      dup1\n      0x98d5fdca\n      eq\n      tag_9\n      jumpi\n      dup1\n      0x9cd441da\n      eq\n      tag_10\n      jumpi\n      dup1\n      0x9d7de6b3\n      eq\n      tag_11\n      jumpi\n      dup1\n      0xe619a498\n      eq\n      tag_12\n      jumpi\n      dup1\n      0xf11e2562\n      eq\n      tag_13\n      jumpi\n      dup1\n      0xf2fde38b\n      eq\n      tag_14\n      jumpi\n      jump(tag_2)\n    tag_15:\n      dup1\n      0x03102091\n      eq\n      tag_3\n      jumpi\n      dup1\n      0x0902f1ac\n      eq\n      tag_4\n      jumpi\n      dup1\n      0x0fc63d10\n      eq\n      tag_5\n      jumpi\n      dup1\n      0x5f64b55b\n      eq\n      tag_6\n      jumpi\n      dup1\n      0x715018a6\n      eq\n      tag_7\n      jumpi\n      dup1\n      0x8da5cb5b\n      eq\n      tag_8\n      jumpi\n    tag_2:\n      0x00\n      dup1\n      revert\n        /* \"SimpleDex.sol\":2369:3053  function swapAForB(uint256 amountA) external {... */\n    tag_3:\n      tag_16\n      0x04\n      dup1\n      calldatasize\n      sub\n      dup2\n      add\n      swap1\n      tag_17\n      swap2\n      swap1\n      tag_18\n      jump\t// in\n    tag_17:\n      tag_19\n      jump\t// in\n    tag_16:\n      stop\n        /* \"SimpleDex.sol\":4497:4702  function getReserves() external view returns (uint256, uint256) {... */\n    tag_4:\n      tag_20\n      tag_21\n      jump\t// in\n    tag_20:\n      mload(0x40)\n      tag_22\n      swap3\n      swap2\n      swap1\n      tag_23\n      jump\t// in\n    tag_22:\n      mload(0x40)\n      dup1\n      swap2\n      sub\n      swap1\n      return\n        /* \"SimpleDex.sol\":226:246  IERC20 public tokenA */\n    tag_5:\n      tag_24\n      tag_25\n      jump\t// in\n    tag_24:\n      mload(0x40)\n      tag_26\n      swap2\n      swap1\n      tag_27\n      jump\t// in\n    tag_26:\n      mload(0x40)\n      dup1\n      swap2\n      sub\n      swap1\n      return\n        /* \"SimpleDex.sol\":253:273  IERC20 public tokenB */\n    tag_6:\n      tag_28\n      tag_29\n      jump\t// in\n    tag_28:\n      mload(0x40)\n      tag_30\n      swap2\n      swap1\n      tag_27\n      jump\t// in\n    tag_30:\n      mload(0x40)\n      dup1\n      swap2\n      sub\n      swap1\n      return\n        /* \"@openzeppelin/contracts/access/Ownable.sol\":2293:2394  function renounceOwnership() public virtual onlyOwner {... */\n    tag_7:\n      tag_31\n      tag_32\n      jump\t// in\n    tag_31:\n      stop\n        /* \"@openzeppelin/contracts/access/Ownable.sol\":1638:1723  function owner() public view virtual returns (address) {... */\n    tag_8:\n      tag_33\n      tag_34\n      jump\t// in\n    tag_33:\n      mload(0x40)\n      tag_35\n      swap2\n      swap1\n      tag_36\n      jump\t// in\n    tag_35:\n      mload(0x40)\n      dup1\n      swap2\n      sub\n      swap1\n      return\n        /* \"SimpleDex.sol\":4733:5206  function getPrice() external view returns (uint256 tokenAEquivalent,uint256 tokenBEquivalent) {... */\n    tag_9:\n      tag_37\n      tag_38\n      jump\t// in\n    tag_37:\n      mload(0x40)\n      tag_39\n      swap3\n      swap2\n      swap1\n      tag_23\n      jump\t// in\n    tag_39:\n      mload(0x40)\n      dup1\n      swap2\n      sub\n      swap1\n      return\n        /* \"SimpleDex.sol\":1405:2333  function addLiquidity(uint256 amountA, uint256 amountB) external onlyOwner {... */\n    tag_10:\n      tag_40\n      0x04\n      dup1\n      calldatasize\n      sub\n      dup2\n      add\n      swap1\n      tag_41\n      swap2\n      swap1\n      tag_42\n      jump\t// in\n    tag_41:\n      tag_43\n      jump\t// in\n    tag_40:\n      stop\n        /* \"SimpleDex.sol\":4161:4456  function removeLiquidity(uint256 amountA, uint256 amountB) external onlyOwner {                   ... */\n    tag_11:\n      tag_44\n      0x04\n      dup1\n      calldatasize\n      sub\n      dup2\n      add\n      swap1\n      tag_45\n      swap2\n      swap1\n      tag_42\n      jump\t// in\n    tag_45:\n      tag_46\n      jump\t// in\n    tag_44:\n      stop\n        /* \"SimpleDex.sol\":3088:3776  function swapBForA(uint256 amountB) external {... */\n    tag_12:\n      tag_47\n      0x04\n      dup1\n      calldatasize\n      sub\n      dup2\n      add\n      swap1\n      tag_48\n      swap2\n      swap1\n      tag_18\n      jump\t// in\n    tag_48:\n      tag_49\n      jump\t// in\n    tag_47:\n      stop\n        /* \"SimpleDex.sol\":829:1371  function initializePool(uint256 amountA, uint256 amountB)  external onlyOwner {... */\n    tag_13:\n      tag_50\n      0x04\n      dup1\n      calldatasize\n      sub\n      dup2\n      add\n      swap1\n      tag_51\n      swap2\n      swap1\n      tag_42\n      jump\t// in\n    tag_51:\n      tag_52\n      jump\t// in\n    tag_50:\n      stop\n        /* \"@openzeppelin/contracts/access/Ownable.sol\":2543:2758  function transferOwnership(address newOwner) public virtual onlyOwner {... */\n    tag_14:\n      tag_53\n      0x04\n      dup1\n      calldatasize\n      sub\n      dup2\n      add\n      swap1\n      tag_54\n      swap2\n      swap1\n      tag_55\n      jump\t// in\n    tag_54:\n      tag_56\n      jump\t// in\n    tag_53:\n      stop\n        /* \"SimpleDex.sol\":2369:3053  function swapAForB(uint256 amountA) external {... */\n    tag_19:\n        /* \"SimpleDex.sol\":2443:2444  0 */\n      0x00\n        /* \"SimpleDex.sol\":2433:2440  amountA */\n      dup2\n        /* \"SimpleDex.sol\":2433:2444  amountA > 0 */\n      gt\n        /* \"SimpleDex.sol\":2425:2463  require(amountA > 0, \"Invalid amount\") */\n      tag_58\n      jumpi\n      mload(0x40)\n      0x08c379a000000000000000000000000000000000000000000000000000000000\n      dup2\n      mstore\n      0x04\n      add\n      tag_59\n      swap1\n      tag_60\n      jump\t// in\n    tag_59:\n      mload(0x40)\n      dup1\n      swap2\n      sub\n      swap1\n      revert\n    tag_58:\n        /* \"SimpleDex.sol\":2522:2538  uint256 reserveA */\n      0x00\n        /* \"SimpleDex.sol\":2541:2547  tokenA */\n      0x01\n      0x00\n      swap1\n      sload\n      swap1\n      0x0100\n      exp\n      swap1\n      div\n      0xffffffffffffffffffffffffffffffffffffffff\n      and\n        /* \"SimpleDex.sol\":2541:2557  tokenA.balanceOf */\n      0xffffffffffffffffffffffffffffffffffffffff\n      and\n      0x70a08231\n        /* \"SimpleDex.sol\":2566:2570  this */\n      address\n        /* \"SimpleDex.sol\":2541:2572  tokenA.balanceOf(address(this)) */\n      mload(0x40)\n      dup3\n      0xffffffff\n      and\n      0xe0\n      shl\n      dup2\n      mstore\n      0x04\n      add\n      tag_61\n      swap2\n      swap1\n      tag_36\n      jump\t// in\n    tag_61:\n      0x20\n      mload(0x40)\n      dup1\n      dup4\n      sub\n      dup2\n      dup7\n      gas\n      staticcall\n      iszero\n      dup1\n      iszero\n      tag_63\n      jumpi\n      returndatasize\n      0x00\n      dup1\n      returndatacopy\n      revert(0x00, returndatasize)\n    tag_63:\n      pop\n      pop\n      pop\n      pop\n      mload(0x40)\n      returndatasize\n      not(0x1f)\n      0x1f\n      dup3\n      add\n      and\n      dup3\n      add\n      dup1\n      0x40\n      mstore\n      pop\n      dup2\n      add\n      swap1\n      tag_64\n      swap2\n      swap1\n      tag_65\n      jump\t// in\n    tag_64:\n        /* \"SimpleDex.sol\":2522:2572  uint256 reserveA = tokenA.balanceOf(address(this)) */\n      swap1\n      pop\n        /* \"SimpleDex.sol\":2583:2599  uint256 reserveB */\n      0x00\n        /* \"SimpleDex.sol\":2602:2608  tokenB */\n      0x02\n      0x00\n      swap1\n      sload\n      swap1\n      0x0100\n      exp\n      swap1\n      div\n      0xffffffffffffffffffffffffffffffffffffffff\n      and\n        /* \"SimpleDex.sol\":2602:2618  tokenB.balanceOf */\n      0xffffffffffffffffffffffffffffffffffffffff\n      and\n      0x70a08231\n        /* \"SimpleDex.sol\":2627:2631  this */\n      address\n        /* \"SimpleDex.sol\":2602:2633  tokenB.balanceOf(address(this)) */\n      mload(0x40)\n      dup3\n      0xffffffff\n      and\n      0xe0\n      shl\n      dup2\n      mstore\n      0x04\n      add\n      tag_66\n      swap2\n      swap1\n      tag_36\n      jump\t// in\n    tag_66:\n      0x20\n      mload(0x40)\n      dup1\n      dup4\n      sub\n      dup2\n      dup7\n      gas\n      staticcall\n      iszero\n      dup1\n      iszero\n      tag_68\n      jumpi\n      returndatasize\n      0x00\n      dup1\n      returndatacopy\n      revert(0x00, returndatasize)\n    tag_68:\n      pop\n      pop\n      pop\n      pop\n      mload(0x40)\n      returndatasize\n      not(0x1f)\n      0x1f\n      dup3\n      add\n      and\n      dup3\n      add\n      dup1\n      0x40\n      mstore\n      pop\n      dup2\n      add\n      swap1\n      tag_69\n      swap2\n      swap1\n      tag_65\n      jump\t// in\n    tag_69:\n        /* \"SimpleDex.sol\":2583:2633  uint256 reserveB = tokenB.balanceOf(address(this)) */\n      swap1\n      pop\n        /* \"SimpleDex.sol\":2644:2659  uint256 amountB */\n      0x00\n        /* \"SimpleDex.sol\":2662:2703  getAmountOut(amountA, reserveA, reserveB) */\n      tag_70\n        /* \"SimpleDex.sol\":2675:2682  amountA */\n      dup5\n        /* \"SimpleDex.sol\":2684:2692  reserveA */\n      dup5\n        /* \"SimpleDex.sol\":2694:2702  reserveB */\n      dup5\n        /* \"SimpleDex.sol\":2662:2674  getAmountOut */\n      tag_71\n        /* \"SimpleDex.sol\":2662:2703  getAmountOut(amountA, reserveA, reserveB) */\n      jump\t// in\n    tag_70:\n        /* \"SimpleDex.sol\":2644:2703  uint256 amountB = getAmountOut(amountA, reserveA, reserveB) */\n      swap1\n      pop\n        /* \"SimpleDex.sol\":2772:2778  tokenA */\n      0x01\n      0x00\n      swap1\n      sload\n      swap1\n      0x0100\n      exp\n      swap1\n      div\n      0xffffffffffffffffffffffffffffffffffffffff\n      and\n        /* \"SimpleDex.sol\":2772:2791  tokenA.transferFrom */\n      0xffffffffffffffffffffffffffffffffffffffff\n      and\n      0x23b872dd\n        /* \"SimpleDex.sol\":2792:2802  msg.sender */\n      caller\n        /* \"SimpleDex.sol\":2812:2816  this */\n      address\n        /* \"SimpleDex.sol\":2828:2832  1e18 */\n      0x0de0b6b3a7640000\n        /* \"SimpleDex.sol\":2819:2826  amountA */\n      dup9\n        /* \"SimpleDex.sol\":2819:2832  amountA* 1e18 */\n      tag_72\n      swap2\n      swap1\n      tag_73\n      jump\t// in\n    tag_72:\n        /* \"SimpleDex.sol\":2772:2833  tokenA.transferFrom(msg.sender, address(this), amountA* 1e18) */\n      mload(0x40)\n      dup5\n      0xffffffff\n      and\n      0xe0\n      shl\n      dup2\n      mstore\n      0x04\n      add\n      tag_74\n      swap4\n      swap3\n      swap2\n      swap1\n      tag_75\n      jump\t// in\n    tag_74:\n      0x20\n      mload(0x40)\n      dup1\n      dup4\n      sub\n      dup2\n      0x00\n      dup8\n      gas\n      call\n      iszero\n      dup1\n      iszero\n      tag_77\n      jumpi\n      returndatasize\n      0x00\n      dup1\n      returndatacopy\n      revert(0x00, returndatasize)\n    tag_77:\n      pop\n      pop\n      pop\n      pop\n      mload(0x40)\n      returndatasize\n      not(0x1f)\n      0x1f\n      dup3\n      add\n      and\n      dup3\n      add\n      dup1\n      0x40\n      mstore\n      pop\n      dup2\n      add\n      swap1\n      tag_78\n      swap2\n      swap1\n      tag_79\n      jump\t// in\n    tag_78:\n      pop\n        /* \"SimpleDex.sol\":2905:2911  tokenB */\n      0x02\n      0x00\n      swap1\n      sload\n      swap1\n      0x0100\n      exp\n      swap1\n      div\n      0xffffffffffffffffffffffffffffffffffffffff\n      and\n        /* \"SimpleDex.sol\":2905:2920  tokenB.transfer */\n      0xffffffffffffffffffffffffffffffffffffffff\n      and\n      0xa9059cbb\n        /* \"SimpleDex.sol\":2921:2931  msg.sender */\n      caller\n        /* \"SimpleDex.sol\":2942:2946  1e18 */\n      0x0de0b6b3a7640000\n        /* \"SimpleDex.sol\":2933:2940  amountB */\n      dup5\n        /* \"SimpleDex.sol\":2933:2946  amountB* 1e18 */\n      tag_80\n      swap2\n      swap1\n      tag_73\n      jump\t// in\n    tag_80:\n        /* \"SimpleDex.sol\":2905:2947  tokenB.transfer(msg.sender, amountB* 1e18) */\n      mload(0x40)\n      dup4\n      0xffffffff\n      and\n      0xe0\n      shl\n      dup2\n      mstore\n      0x04\n      add\n      tag_81\n      swap3\n      swap2\n      swap1\n      tag_82\n      jump\t// in\n    tag_81:\n      0x20\n      mload(0x40)\n      dup1\n      dup4\n      sub\n      dup2\n      0x00\n      dup8\n      gas\n      call\n      iszero\n      dup1\n      iszero\n      tag_84\n      jumpi\n      returndatasize\n      0x00\n      dup1\n      returndatacopy\n      revert(0x00, returndatasize)\n    tag_84:\n      pop\n      pop\n      pop\n      pop\n      mload(0x40)\n      returndatasize\n      not(0x1f)\n      0x1f\n      dup3\n      add\n      and\n      dup3\n      add\n      dup1\n      0x40\n      mstore\n      pop\n      dup2\n      add\n      swap1\n      tag_85\n      swap2\n      swap1\n      tag_79\n      jump\t// in\n    tag_85:\n      pop\n        /* \"SimpleDex.sol\":2970:2980  msg.sender */\n      caller\n        /* \"SimpleDex.sol\":2965:3045  Swap(msg.sender, address(tokenA), address(tokenB), amountA* 1e18, amountB* 1e18) */\n      0xffffffffffffffffffffffffffffffffffffffff\n      and\n      0xcd3829a3813dc3cdd188fd3d01dcf3268c16be2fdd2dd21d0665418816e46062\n        /* \"SimpleDex.sol\":2990:2996  tokenA */\n      0x01\n      0x00\n      swap1\n      sload\n      swap1\n      0x0100\n      exp\n      swap1\n      div\n      0xffffffffffffffffffffffffffffffffffffffff\n      and\n        /* \"SimpleDex.sol\":3007:3013  tokenB */\n      0x02\n      0x00\n      swap1\n      sload\n      swap1\n      0x0100\n      exp\n      swap1\n      div\n      0xffffffffffffffffffffffffffffffffffffffff\n      and\n        /* \"SimpleDex.sol\":3025:3029  1e18 */\n      0x0de0b6b3a7640000\n        /* \"SimpleDex.sol\":3016:3023  amountA */\n      dup9\n        /* \"SimpleDex.sol\":3016:3029  amountA* 1e18 */\n      tag_86\n      swap2\n      swap1\n      tag_73\n      jump\t// in\n    tag_86:\n        /* \"SimpleDex.sol\":3040:3044  1e18 */\n      0x0de0b6b3a7640000\n        /* \"SimpleDex.sol\":3031:3038  amountB */\n      dup7\n        /* \"SimpleDex.sol\":3031:3044  amountB* 1e18 */\n      tag_87\n      swap2\n      swap1\n      tag_73\n      jump\t// in\n    tag_87:\n        /* \"SimpleDex.sol\":2965:3045  Swap(msg.sender, address(tokenA), address(tokenB), amountA* 1e18, amountB* 1e18) */\n      mload(0x40)\n      tag_88\n      swap5\n      swap4\n      swap3\n      swap2\n      swap1\n      tag_89\n      jump\t// in\n    tag_88:\n      mload(0x40)\n      dup1\n      swap2\n      sub\n      swap1\n      log2\n        /* \"SimpleDex.sol\":2414:3053  {... */\n      pop\n      pop\n      pop\n        /* \"SimpleDex.sol\":2369:3053  function swapAForB(uint256 amountA) external {... */\n      pop\n      jump\t// out\n        /* \"SimpleDex.sol\":4497:4702  function getReserves() external view returns (uint256, uint256) {... */\n    tag_21:\n        /* \"SimpleDex.sol\":4543:4550  uint256 */\n      0x00\n        /* \"SimpleDex.sol\":4552:4559  uint256 */\n      dup1\n        /* \"SimpleDex.sol\":4627:4631  1e18 */\n      0x0de0b6b3a7640000\n        /* \"SimpleDex.sol\":4594:4600  tokenA */\n      0x01\n      0x00\n      swap1\n      sload\n      swap1\n      0x0100\n      exp\n      swap1\n      div\n      0xffffffffffffffffffffffffffffffffffffffff\n      and\n        /* \"SimpleDex.sol\":4594:4610  tokenA.balanceOf */\n      0xffffffffffffffffffffffffffffffffffffffff\n      and\n      0x70a08231\n        /* \"SimpleDex.sol\":4619:4623  this */\n      address\n        /* \"SimpleDex.sol\":4594:4625  tokenA.balanceOf(address(this)) */\n      mload(0x40)\n      dup3\n      0xffffffff\n      and\n      0xe0\n      shl\n      dup2\n      mstore\n      0x04\n      add\n      tag_91\n      swap2\n      swap1\n      tag_36\n      jump\t// in\n    tag_91:\n      0x20\n      mload(0x40)\n      dup1\n      dup4\n      sub\n      dup2\n      dup7\n      gas\n      staticcall\n      iszero\n      dup1\n      iszero\n      tag_93\n      jumpi\n      returndatasize\n      0x00\n      dup1\n      returndatacopy\n      revert(0x00, returndatasize)\n    tag_93:\n      pop\n      pop\n      pop\n      pop\n      mload(0x40)\n      returndatasize\n      not(0x1f)\n      0x1f\n      dup3\n      add\n      and\n      dup3\n      add\n      dup1\n      0x40\n      mstore\n      pop\n      dup2\n      add\n      swap1\n      tag_94\n      swap2\n      swap1\n      tag_65\n      jump\t// in\n    tag_94:\n        /* \"SimpleDex.sol\":4594:4631  tokenA.balanceOf(address(this))/ 1e18 */\n      tag_95\n      swap2\n      swap1\n      tag_96\n      jump\t// in\n    tag_95:\n        /* \"SimpleDex.sol\":4679:4683  1e18 */\n      0x0de0b6b3a7640000\n        /* \"SimpleDex.sol\":4646:4652  tokenB */\n      0x02\n      0x00\n      swap1\n      sload\n      swap1\n      0x0100\n      exp\n      swap1\n      div\n      0xffffffffffffffffffffffffffffffffffffffff\n      and\n        /* \"SimpleDex.sol\":4646:4662  tokenB.balanceOf */\n      0xffffffffffffffffffffffffffffffffffffffff\n      and\n      0x70a08231\n        /* \"SimpleDex.sol\":4671:4675  this */\n      address\n        /* \"SimpleDex.sol\":4646:4677  tokenB.balanceOf(address(this)) */\n      mload(0x40)\n      dup3\n      0xffffffff\n      and\n      0xe0\n      shl\n      dup2\n      mstore\n      0x04\n      add\n      tag_97\n      swap2\n      swap1\n      tag_36\n      jump\t// in\n    tag_97:\n      0x20\n      mload(0x40)\n      dup1\n      dup4\n      sub\n      dup2\n      dup7\n      gas\n      staticcall\n      iszero\n      dup1\n      iszero\n      tag_99\n      jumpi\n      returndatasize\n      0x00\n      dup1\n      returndatacopy\n      revert(0x00, returndatasize)\n    tag_99:\n      pop\n      pop\n      pop\n      pop\n      mload(0x40)\n      returndatasize\n      not(0x1f)\n      0x1f\n      dup3\n      add\n      and\n      dup3\n      add\n      dup1\n      0x40\n      mstore\n      pop\n      dup2\n      add\n      swap1\n      tag_100\n      swap2\n      swap1\n      tag_65\n      jump\t// in\n    tag_100:\n        /* \"SimpleDex.sol\":4646:4683  tokenB.balanceOf(address(this))/ 1e18 */\n      tag_101\n      swap2\n      swap1\n      tag_96\n      jump\t// in\n    tag_101:\n        /* \"SimpleDex.sol\":4572:4694  return (... */\n      swap2\n      pop\n      swap2\n      pop\n        /* \"SimpleDex.sol\":4497:4702  function getReserves() external view returns (uint256, uint256) {... */\n      swap1\n      swap2\n      jump\t// out\n        /* \"SimpleDex.sol\":226:246  IERC20 public tokenA */\n    tag_25:\n      0x01\n      0x00\n      swap1\n      sload\n      swap1\n      0x0100\n      exp\n      swap1\n      div\n      0xffffffffffffffffffffffffffffffffffffffff\n      and\n      dup2\n      jump\t// out\n        /* \"SimpleDex.sol\":253:273  IERC20 public tokenB */\n    tag_29:\n      0x02\n      0x00\n      swap1\n      sload\n      swap1\n      0x0100\n      exp\n      swap1\n      div\n      0xffffffffffffffffffffffffffffffffffffffff\n      and\n      dup2\n      jump\t// out\n        /* \"@openzeppelin/contracts/access/Ownable.sol\":2293:2394  function renounceOwnership() public virtual onlyOwner {... */\n    tag_32:\n        /* \"@openzeppelin/contracts/access/Ownable.sol\":1531:1544  _checkOwner() */\n      tag_103\n        /* \"@openzeppelin/contracts/access/Ownable.sol\":1531:1542  _checkOwner */\n      tag_104\n        /* \"@openzeppelin/contracts/access/Ownable.sol\":1531:1544  _checkOwner() */\n      jump\t// in\n    tag_103:\n        /* \"@openzeppelin/contracts/access/Ownable.sol\":2357:2387  _transferOwnership(address(0)) */\n      tag_106\n        /* \"@openzeppelin/contracts/access/Ownable.sol\":2384:2385  0 */\n      0x00\n        /* \"@openzeppelin/contracts/access/Ownable.sol\":2357:2375  _transferOwnership */\n      tag_107\n        /* \"@openzeppelin/contracts/access/Ownable.sol\":2357:2387  _transferOwnership(address(0)) */\n      jump\t// in\n    tag_106:\n        /* \"@openzeppelin/contracts/access/Ownable.sol\":2293:2394  function renounceOwnership() public virtual onlyOwner {... */\n      jump\t// out\n        /* \"@openzeppelin/contracts/access/Ownable.sol\":1638:1723  function owner() public view virtual returns (address) {... */\n    tag_34:\n        /* \"@openzeppelin/contracts/access/Ownable.sol\":1684:1691  address */\n      0x00\n        /* \"@openzeppelin/contracts/access/Ownable.sol\":1710:1716  _owner */\n      dup1\n      0x00\n      swap1\n      sload\n      swap1\n      0x0100\n      exp\n      swap1\n      div\n      0xffffffffffffffffffffffffffffffffffffffff\n      and\n        /* \"@openzeppelin/contracts/access/Ownable.sol\":1703:1716  return _owner */\n      swap1\n      pop\n        /* \"@openzeppelin/contracts/access/Ownable.sol\":1638:1723  function owner() public view virtual returns (address) {... */\n      swap1\n      jump\t// out\n        /* \"SimpleDex.sol\":4733:5206  function getPrice() external view returns (uint256 tokenAEquivalent,uint256 tokenBEquivalent) {... */\n    tag_38:\n        /* \"SimpleDex.sol\":4776:4800  uint256 tokenAEquivalent */\n      0x00\n        /* \"SimpleDex.sol\":4801:4825  uint256 tokenBEquivalent */\n      dup1\n        /* \"SimpleDex.sol\":4838:4854  uint256 reserveA */\n      0x00\n        /* \"SimpleDex.sol\":4857:4863  tokenA */\n      0x01\n      0x00\n      swap1\n      sload\n      swap1\n      0x0100\n      exp\n      swap1\n      div\n      0xffffffffffffffffffffffffffffffffffffffff\n      and\n        /* \"SimpleDex.sol\":4857:4873  tokenA.balanceOf */\n      0xffffffffffffffffffffffffffffffffffffffff\n      and\n      0x70a08231\n        /* \"SimpleDex.sol\":4882:4886  this */\n      address\n        /* \"SimpleDex.sol\":4857:4888  tokenA.balanceOf(address(this)) */\n      mload(0x40)\n      dup3\n      0xffffffff\n      and\n      0xe0\n      shl\n      dup2\n      mstore\n      0x04\n      add\n      tag_110\n      swap2\n      swap1\n      tag_36\n      jump\t// in\n    tag_110:\n      0x20\n      mload(0x40)\n      dup1\n      dup4\n      sub\n      dup2\n      dup7\n      gas\n      staticcall\n      iszero\n      dup1\n      iszero\n      tag_112\n      jumpi\n      returndatasize\n      0x00\n      dup1\n      returndatacopy\n      revert(0x00, returndatasize)\n    tag_112:\n      pop\n      pop\n      pop\n      pop\n      mload(0x40)\n      returndatasize\n      not(0x1f)\n      0x1f\n      dup3\n      add\n      and\n      dup3\n      add\n      dup1\n      0x40\n      mstore\n      pop\n      dup2\n      add\n      swap1\n      tag_113\n      swap2\n      swap1\n      tag_65\n      jump\t// in\n    tag_113:\n        /* \"SimpleDex.sol\":4838:4888  uint256 reserveA = tokenA.balanceOf(address(this)) */\n      swap1\n      pop\n        /* \"SimpleDex.sol\":4899:4915  uint256 reserveB */\n      0x00\n        /* \"SimpleDex.sol\":4918:4924  tokenB */\n      0x02\n      0x00\n      swap1\n      sload\n      swap1\n      0x0100\n      exp\n      swap1\n      div\n      0xffffffffffffffffffffffffffffffffffffffff\n      and\n        /* \"SimpleDex.sol\":4918:4934  tokenB.balanceOf */\n      0xffffffffffffffffffffffffffffffffffffffff\n      and\n      0x70a08231\n        /* \"SimpleDex.sol\":4943:4947  this */\n      address\n        /* \"SimpleDex.sol\":4918:4949  tokenB.balanceOf(address(this)) */\n      mload(0x40)\n      dup3\n      0xffffffff\n      and\n      0xe0\n      shl\n      dup2\n      mstore\n      0x04\n      add\n      tag_114\n      swap2\n      swap1\n      tag_36\n      jump\t// in\n    tag_114:\n      0x20\n      mload(0x40)\n      dup1\n      dup4\n      sub\n      dup2\n      dup7\n      gas\n      staticcall\n      iszero\n      dup1\n      iszero\n      tag_116\n      jumpi\n      returndatasize\n      0x00\n      dup1\n      returndatacopy\n      revert(0x00, returndatasize)\n    tag_116:\n      pop\n      pop\n      pop\n      pop\n      mload(0x40)\n      returndatasize\n      not(0x1f)\n      0x1f\n      dup3\n      add\n      and\n      dup3\n      add\n      dup1\n      0x40\n      mstore\n      pop\n      dup2\n      add\n      swap1\n      tag_117\n      swap2\n      swap1\n      tag_65\n      jump\t// in\n    tag_117:\n        /* \"SimpleDex.sol\":4899:4949  uint256 reserveB = tokenB.balanceOf(address(this)) */\n      swap1\n      pop\n        /* \"SimpleDex.sol\":4979:4980  0 */\n      0x00\n        /* \"SimpleDex.sol\":4968:4976  reserveA */\n      dup3\n        /* \"SimpleDex.sol\":4968:4980  reserveA > 0 */\n      gt\n        /* \"SimpleDex.sol\":4968:4996  reserveA > 0 && reserveB > 0 */\n      dup1\n      iszero\n      tag_118\n      jumpi\n      pop\n        /* \"SimpleDex.sol\":4995:4996  0 */\n      0x00\n        /* \"SimpleDex.sol\":4984:4992  reserveB */\n      dup2\n        /* \"SimpleDex.sol\":4984:4996  reserveB > 0 */\n      gt\n        /* \"SimpleDex.sol\":4968:4996  reserveA > 0 && reserveB > 0 */\n    tag_118:\n        /* \"SimpleDex.sol\":4960:5022  require(reserveA > 0 && reserveB > 0, \"Insufficient reserves\") */\n      tag_119\n      jumpi\n      mload(0x40)\n      0x08c379a000000000000000000000000000000000000000000000000000000000\n      dup2\n      mstore\n      0x04\n      add\n      tag_120\n      swap1\n      tag_121\n      jump\t// in\n    tag_120:\n      mload(0x40)\n      dup1\n      swap2\n      sub\n      swap1\n      revert\n    tag_119:\n        /* \"SimpleDex.sol\":5080:5083  100 */\n      0x64\n        /* \"SimpleDex.sol\":5075:5079  1e18 */\n      0x0de0b6b3a7640000\n        /* \"SimpleDex.sol\":5064:5072  reserveB */\n      dup3\n        /* \"SimpleDex.sol\":5056:5060  1e18 */\n      0x0de0b6b3a7640000\n        /* \"SimpleDex.sol\":5045:5053  reserveA */\n      dup6\n        /* \"SimpleDex.sol\":5045:5060  reserveA * 1e18 */\n      tag_122\n      swap2\n      swap1\n      tag_73\n      jump\t// in\n    tag_122:\n        /* \"SimpleDex.sol\":5044:5072  (reserveA * 1e18) / reserveB */\n      tag_123\n      swap2\n      swap1\n      tag_96\n      jump\t// in\n    tag_123:\n        /* \"SimpleDex.sol\":5043:5079  ((reserveA * 1e18) / reserveB)/ 1e18 */\n      tag_124\n      swap2\n      swap1\n      tag_96\n      jump\t// in\n    tag_124:\n        /* \"SimpleDex.sol\":5043:5083  ((reserveA * 1e18) / reserveB)/ 1e18*100 */\n      tag_125\n      swap2\n      swap1\n      tag_73\n      jump\t// in\n    tag_125:\n        /* \"SimpleDex.sol\":5122:5125  100 */\n      0x64\n        /* \"SimpleDex.sol\":5117:5121  1e18 */\n      0x0de0b6b3a7640000\n        /* \"SimpleDex.sol\":5106:5114  reserveA */\n      dup5\n        /* \"SimpleDex.sol\":5098:5102  1e18 */\n      0x0de0b6b3a7640000\n        /* \"SimpleDex.sol\":5087:5095  reserveB */\n      dup6\n        /* \"SimpleDex.sol\":5087:5102  reserveB * 1e18 */\n      tag_126\n      swap2\n      swap1\n      tag_73\n      jump\t// in\n    tag_126:\n        /* \"SimpleDex.sol\":5086:5114  (reserveB * 1e18) / reserveA */\n      tag_127\n      swap2\n      swap1\n      tag_96\n      jump\t// in\n    tag_127:\n        /* \"SimpleDex.sol\":5085:5121  ((reserveB * 1e18) / reserveA)/ 1e18 */\n      tag_128\n      swap2\n      swap1\n      tag_96\n      jump\t// in\n    tag_128:\n        /* \"SimpleDex.sol\":5085:5125  ((reserveB * 1e18) / reserveA)/ 1e18*100 */\n      tag_129\n      swap2\n      swap1\n      tag_73\n      jump\t// in\n    tag_129:\n        /* \"SimpleDex.sol\":5035:5126  return (((reserveA * 1e18) / reserveB)/ 1e18*100, ((reserveB * 1e18) / reserveA)/ 1e18*100) */\n      swap4\n      pop\n      swap4\n      pop\n      pop\n      pop\n        /* \"SimpleDex.sol\":4733:5206  function getPrice() external view returns (uint256 tokenAEquivalent,uint256 tokenBEquivalent) {... */\n      swap1\n      swap2\n      jump\t// out\n        /* \"SimpleDex.sol\":1405:2333  function addLiquidity(uint256 amountA, uint256 amountB) external onlyOwner {... */\n    tag_43:\n        /* \"@openzeppelin/contracts/access/Ownable.sol\":1531:1544  _checkOwner() */\n      tag_131\n        /* \"@openzeppelin/contracts/access/Ownable.sol\":1531:1542  _checkOwner */\n      tag_104\n        /* \"@openzeppelin/contracts/access/Ownable.sol\":1531:1544  _checkOwner() */\n      jump\t// in\n    tag_131:\n        /* \"SimpleDex.sol\":1509:1510  0 */\n      0x00\n        /* \"SimpleDex.sol\":1499:1506  amountA */\n      dup3\n        /* \"SimpleDex.sol\":1499:1510  amountA > 0 */\n      gt\n        /* \"SimpleDex.sol\":1499:1525  amountA > 0 && amountB > 0 */\n      dup1\n      iszero\n      tag_133\n      jumpi\n      pop\n        /* \"SimpleDex.sol\":1524:1525  0 */\n      0x00\n        /* \"SimpleDex.sol\":1514:1521  amountB */\n      dup2\n        /* \"SimpleDex.sol\":1514:1525  amountB > 0 */\n      gt\n        /* \"SimpleDex.sol\":1499:1525  amountA > 0 && amountB > 0 */\n    tag_133:\n        /* \"SimpleDex.sol\":1491:1545  require(amountA > 0 && amountB > 0, \"Invalid amounts\") */\n      tag_134\n      jumpi\n      mload(0x40)\n      0x08c379a000000000000000000000000000000000000000000000000000000000\n      dup2\n      mstore\n      0x04\n      add\n      tag_135\n      swap1\n      tag_136\n      jump\t// in\n    tag_135:\n      mload(0x40)\n      dup1\n      swap2\n      sub\n      swap1\n      revert\n    tag_134:\n        /* \"SimpleDex.sol\":1601:1602  0 */\n      0x00\n        /* \"SimpleDex.sol\":1567:1573  tokenB */\n      0x02\n      0x00\n      swap1\n      sload\n      swap1\n      0x0100\n      exp\n      swap1\n      div\n      0xffffffffffffffffffffffffffffffffffffffff\n      and\n        /* \"SimpleDex.sol\":1567:1583  tokenB.balanceOf */\n      0xffffffffffffffffffffffffffffffffffffffff\n      and\n      0x70a08231\n        /* \"SimpleDex.sol\":1592:1596  this */\n      address\n        /* \"SimpleDex.sol\":1567:1598  tokenB.balanceOf(address(this)) */\n      mload(0x40)\n      dup3\n      0xffffffff\n      and\n      0xe0\n      shl\n      dup2\n      mstore\n      0x04\n      add\n      tag_137\n      swap2\n      swap1\n      tag_36\n      jump\t// in\n    tag_137:\n      0x20\n      mload(0x40)\n      dup1\n      dup4\n      sub\n      dup2\n      dup7\n      gas\n      staticcall\n      iszero\n      dup1\n      iszero\n      tag_139\n      jumpi\n      returndatasize\n      0x00\n      dup1\n      returndatacopy\n      revert(0x00, returndatasize)\n    tag_139:\n      pop\n      pop\n      pop\n      pop\n      mload(0x40)\n      returndatasize\n      not(0x1f)\n      0x1f\n      dup3\n      add\n      and\n      dup3\n      add\n      dup1\n      0x40\n      mstore\n      pop\n      dup2\n      add\n      swap1\n      tag_140\n      swap2\n      swap1\n      tag_65\n      jump\t// in\n    tag_140:\n        /* \"SimpleDex.sol\":1567:1602  tokenB.balanceOf(address(this)) > 0 */\n      gt\n        /* \"SimpleDex.sol\":1567:1641  tokenB.balanceOf(address(this)) > 0 && tokenA.balanceOf(address(this)) > 0 */\n      dup1\n      iszero\n      tag_141\n      jumpi\n      pop\n        /* \"SimpleDex.sol\":1640:1641  0 */\n      0x00\n        /* \"SimpleDex.sol\":1606:1612  tokenA */\n      0x01\n      0x00\n      swap1\n      sload\n      swap1\n      0x0100\n      exp\n      swap1\n      div\n      0xffffffffffffffffffffffffffffffffffffffff\n      and\n        /* \"SimpleDex.sol\":1606:1622  tokenA.balanceOf */\n      0xffffffffffffffffffffffffffffffffffffffff\n      and\n      0x70a08231\n        /* \"SimpleDex.sol\":1631:1635  this */\n      address\n        /* \"SimpleDex.sol\":1606:1637  tokenA.balanceOf(address(this)) */\n      mload(0x40)\n      dup3\n      0xffffffff\n      and\n      0xe0\n      shl\n      dup2\n      mstore\n      0x04\n      add\n      tag_142\n      swap2\n      swap1\n      tag_36\n      jump\t// in\n    tag_142:\n      0x20\n      mload(0x40)\n      dup1\n      dup4\n      sub\n      dup2\n      dup7\n      gas\n      staticcall\n      iszero\n      dup1\n      iszero\n      tag_144\n      jumpi\n      returndatasize\n      0x00\n      dup1\n      returndatacopy\n      revert(0x00, returndatasize)\n    tag_144:\n      pop\n      pop\n      pop\n      pop\n      mload(0x40)\n      returndatasize\n      not(0x1f)\n      0x1f\n      dup3\n      add\n      and\n      dup3\n      add\n      dup1\n      0x40\n      mstore\n      pop\n      dup2\n      add\n      swap1\n      tag_145\n      swap2\n      swap1\n      tag_65\n      jump\t// in\n    tag_145:\n        /* \"SimpleDex.sol\":1606:1641  tokenA.balanceOf(address(this)) > 0 */\n      gt\n        /* \"SimpleDex.sol\":1567:1641  tokenB.balanceOf(address(this)) > 0 && tokenA.balanceOf(address(this)) > 0 */\n    tag_141:\n        /* \"SimpleDex.sol\":1559:1666  require(tokenB.balanceOf(address(this)) > 0 && tokenA.balanceOf(address(this)) > 0, \"Pool Not Initialized\") */\n      tag_146\n      jumpi\n      mload(0x40)\n      0x08c379a000000000000000000000000000000000000000000000000000000000\n      dup2\n      mstore\n      0x04\n      add\n      tag_147\n      swap1\n      tag_148\n      jump\t// in\n    tag_147:\n      mload(0x40)\n      dup1\n      swap2\n      sub\n      swap1\n      revert\n    tag_146:\n        /* \"SimpleDex.sol\":1679:1693  uint256 ratioA */\n      0x00\n        /* \"SimpleDex.sol\":1739:1745  tokenB */\n      0x02\n      0x00\n      swap1\n      sload\n      swap1\n      0x0100\n      exp\n      swap1\n      div\n      0xffffffffffffffffffffffffffffffffffffffff\n      and\n        /* \"SimpleDex.sol\":1739:1755  tokenB.balanceOf */\n      0xffffffffffffffffffffffffffffffffffffffff\n      and\n      0x70a08231\n        /* \"SimpleDex.sol\":1764:1768  this */\n      address\n        /* \"SimpleDex.sol\":1739:1770  tokenB.balanceOf(address(this)) */\n      mload(0x40)\n      dup3\n      0xffffffff\n      and\n      0xe0\n      shl\n      dup2\n      mstore\n      0x04\n      add\n      tag_149\n      swap2\n      swap1\n      tag_36\n      jump\t// in\n    tag_149:\n      0x20\n      mload(0x40)\n      dup1\n      dup4\n      sub\n      dup2\n      dup7\n      gas\n      staticcall\n      iszero\n      dup1\n      iszero\n      tag_151\n      jumpi\n      returndatasize\n      0x00\n      dup1\n      returndatacopy\n      revert(0x00, returndatasize)\n    tag_151:\n      pop\n      pop\n      pop\n      pop\n      mload(0x40)\n      returndatasize\n      not(0x1f)\n      0x1f\n      dup3\n      add\n      and\n      dup3\n      add\n      dup1\n      0x40\n      mstore\n      pop\n      dup2\n      add\n      swap1\n      tag_152\n      swap2\n      swap1\n      tag_65\n      jump\t// in\n    tag_152:\n        /* \"SimpleDex.sol\":1731:1735  1e18 */\n      0x0de0b6b3a7640000\n        /* \"SimpleDex.sol\":1697:1703  tokenA */\n      0x01\n      0x00\n      swap1\n      sload\n      swap1\n      0x0100\n      exp\n      swap1\n      div\n      0xffffffffffffffffffffffffffffffffffffffff\n      and\n        /* \"SimpleDex.sol\":1697:1713  tokenA.balanceOf */\n      0xffffffffffffffffffffffffffffffffffffffff\n      and\n      0x70a08231\n        /* \"SimpleDex.sol\":1722:1726  this */\n      address\n        /* \"SimpleDex.sol\":1697:1728  tokenA.balanceOf(address(this)) */\n      mload(0x40)\n      dup3\n      0xffffffff\n      and\n      0xe0\n      shl\n      dup2\n      mstore\n      0x04\n      add\n      tag_153\n      swap2\n      swap1\n      tag_36\n      jump\t// in\n    tag_153:\n      0x20\n      mload(0x40)\n      dup1\n      dup4\n      sub\n      dup2\n      dup7\n      gas\n      staticcall\n      iszero\n      dup1\n      iszero\n      tag_155\n      jumpi\n      returndatasize\n      0x00\n      dup1\n      returndatacopy\n      revert(0x00, returndatasize)\n    tag_155:\n      pop\n      pop\n      pop\n      pop\n      mload(0x40)\n      returndatasize\n      not(0x1f)\n      0x1f\n      dup3\n      add\n      and\n      dup3\n      add\n      dup1\n      0x40\n      mstore\n      pop\n      dup2\n      add\n      swap1\n      tag_156\n      swap2\n      swap1\n      tag_65\n      jump\t// in\n    tag_156:\n        /* \"SimpleDex.sol\":1697:1735  tokenA.balanceOf(address(this)) * 1e18 */\n      tag_157\n      swap2\n      swap1\n      tag_73\n      jump\t// in\n    tag_157:\n        /* \"SimpleDex.sol\":1696:1770  (tokenA.balanceOf(address(this)) * 1e18) / tokenB.balanceOf(address(this)) */\n      tag_158\n      swap2\n      swap1\n      tag_96\n      jump\t// in\n    tag_158:\n        /* \"SimpleDex.sol\":1679:1770  uint256 ratioA = (tokenA.balanceOf(address(this)) * 1e18) / tokenB.balanceOf(address(this)) */\n      swap1\n      pop\n        /* \"SimpleDex.sol\":1782:1796  uint256 ratioB */\n      0x00\n        /* \"SimpleDex.sol\":1842:1848  tokenA */\n      0x01\n      0x00\n      swap1\n      sload\n      swap1\n      0x0100\n      exp\n      swap1\n      div\n      0xffffffffffffffffffffffffffffffffffffffff\n      and\n        /* \"SimpleDex.sol\":1842:1858  tokenA.balanceOf */\n      0xffffffffffffffffffffffffffffffffffffffff\n      and\n      0x70a08231\n        /* \"SimpleDex.sol\":1867:1871  this */\n      address\n        /* \"SimpleDex.sol\":1842:1873  tokenA.balanceOf(address(this)) */\n      mload(0x40)\n      dup3\n      0xffffffff\n      and\n      0xe0\n      shl\n      dup2\n      mstore\n      0x04\n      add\n      tag_159\n      swap2\n      swap1\n      tag_36\n      jump\t// in\n    tag_159:\n      0x20\n      mload(0x40)\n      dup1\n      dup4\n      sub\n      dup2\n      dup7\n      gas\n      staticcall\n      iszero\n      dup1\n      iszero\n      tag_161\n      jumpi\n      returndatasize\n      0x00\n      dup1\n      returndatacopy\n      revert(0x00, returndatasize)\n    tag_161:\n      pop\n      pop\n      pop\n      pop\n      mload(0x40)\n      returndatasize\n      not(0x1f)\n      0x1f\n      dup3\n      add\n      and\n      dup3\n      add\n      dup1\n      0x40\n      mstore\n      pop\n      dup2\n      add\n      swap1\n      tag_162\n      swap2\n      swap1\n      tag_65\n      jump\t// in\n    tag_162:\n        /* \"SimpleDex.sol\":1834:1838  1e18 */\n      0x0de0b6b3a7640000\n        /* \"SimpleDex.sol\":1800:1806  tokenB */\n      0x02\n      0x00\n      swap1\n      sload\n      swap1\n      0x0100\n      exp\n      swap1\n      div\n      0xffffffffffffffffffffffffffffffffffffffff\n      and\n        /* \"SimpleDex.sol\":1800:1816  tokenB.balanceOf */\n      0xffffffffffffffffffffffffffffffffffffffff\n      and\n      0x70a08231\n        /* \"SimpleDex.sol\":1825:1829  this */\n      address\n        /* \"SimpleDex.sol\":1800:1831  tokenB.balanceOf(address(this)) */\n      mload(0x40)\n      dup3\n      0xffffffff\n      and\n      0xe0\n      shl\n      dup2\n      mstore\n      0x04\n      add\n      tag_163\n      swap2\n      swap1\n      tag_36\n      jump\t// in\n    tag_163:\n      0x20\n      mload(0x40)\n      dup1\n      dup4\n      sub\n      dup2\n      dup7\n      gas\n      staticcall\n      iszero\n      dup1\n      iszero\n      tag_165\n      jumpi\n      returndatasize\n      0x00\n      dup1\n      returndatacopy\n      revert(0x00, returndatasize)\n    tag_165:\n      pop\n      pop\n      pop\n      pop\n      mload(0x40)\n      returndatasize\n      not(0x1f)\n      0x1f\n      dup3\n      add\n      and\n      dup3\n      add\n      dup1\n      0x40\n      mstore\n      pop\n      dup2\n      add\n      swap1\n      tag_166\n      swap2\n      swap1\n      tag_65\n      jump\t// in\n    tag_166:\n        /* \"SimpleDex.sol\":1800:1838  tokenB.balanceOf(address(this)) * 1e18 */\n      tag_167\n      swap2\n      swap1\n      tag_73\n      jump\t// in\n    tag_167:\n        /* \"SimpleDex.sol\":1799:1873  (tokenB.balanceOf(address(this)) * 1e18) / tokenA.balanceOf(address(this)) */\n      tag_168\n      swap2\n      swap1\n      tag_96\n      jump\t// in\n    tag_168:\n        /* \"SimpleDex.sol\":1782:1873  uint256 ratioB = (tokenB.balanceOf(address(this)) * 1e18) / tokenA.balanceOf(address(this)) */\n      swap1\n      pop\n        /* \"SimpleDex.sol\":2001:2007  ratioA */\n      dup2\n        /* \"SimpleDex.sol\":1990:1997  amountB */\n      dup4\n        /* \"SimpleDex.sol\":1980:1987  amountA */\n      dup6\n        /* \"SimpleDex.sol\":1980:1997  amountA / amountB */\n      tag_169\n      swap2\n      swap1\n      tag_96\n      jump\t// in\n    tag_169:\n        /* \"SimpleDex.sol\":1980:2007  amountA / amountB == ratioA */\n      eq\n        /* \"SimpleDex.sol\":1980:2037  amountA / amountB == ratioA || amountB/ amountA == ratioB */\n      dup1\n      tag_170\n      jumpi\n      pop\n        /* \"SimpleDex.sol\":2031:2037  ratioB */\n      dup1\n        /* \"SimpleDex.sol\":2020:2027  amountA */\n      dup5\n        /* \"SimpleDex.sol\":2011:2018  amountB */\n      dup5\n        /* \"SimpleDex.sol\":2011:2027  amountB/ amountA */\n      tag_171\n      swap2\n      swap1\n      tag_96\n      jump\t// in\n    tag_171:\n        /* \"SimpleDex.sol\":2011:2037  amountB/ amountA == ratioB */\n      eq\n        /* \"SimpleDex.sol\":1980:2037  amountA / amountB == ratioA || amountB/ amountA == ratioB */\n    tag_170:\n        /* \"SimpleDex.sol\":1958:2088  require(... */\n      tag_172\n      jumpi\n      mload(0x40)\n      0x08c379a000000000000000000000000000000000000000000000000000000000\n      dup2\n      mstore\n      0x04\n      add\n      tag_173\n      swap1\n      tag_174\n      jump\t// in\n    tag_173:\n      mload(0x40)\n      dup1\n      swap2\n      sub\n      swap1\n      revert\n    tag_172:\n        /* \"SimpleDex.sol\":2101:2107  tokenA */\n      0x01\n      0x00\n      swap1\n      sload\n      swap1\n      0x0100\n      exp\n      swap1\n      div\n      0xffffffffffffffffffffffffffffffffffffffff\n      and\n        /* \"SimpleDex.sol\":2101:2120  tokenA.transferFrom */\n      0xffffffffffffffffffffffffffffffffffffffff\n      and\n      0x23b872dd\n        /* \"SimpleDex.sol\":2121:2131  msg.sender */\n      caller\n        /* \"SimpleDex.sol\":2141:2145  this */\n      address\n        /* \"SimpleDex.sol\":2157:2161  1e18 */\n      0x0de0b6b3a7640000\n        /* \"SimpleDex.sol\":2148:2155  amountA */\n      dup9\n        /* \"SimpleDex.sol\":2148:2161  amountA* 1e18 */\n      tag_175\n      swap2\n      swap1\n      tag_73\n      jump\t// in\n    tag_175:\n        /* \"SimpleDex.sol\":2101:2162  tokenA.transferFrom(msg.sender, address(this), amountA* 1e18) */\n      mload(0x40)\n      dup5\n      0xffffffff\n      and\n      0xe0\n      shl\n      dup2\n      mstore\n      0x04\n      add\n      tag_176\n      swap4\n      swap3\n      swap2\n      swap1\n      tag_75\n      jump\t// in\n    tag_176:\n      0x20\n      mload(0x40)\n      dup1\n      dup4\n      sub\n      dup2\n      0x00\n      dup8\n      gas\n      call\n      iszero\n      dup1\n      iszero\n      tag_178\n      jumpi\n      returndatasize\n      0x00\n      dup1\n      returndatacopy\n      revert(0x00, returndatasize)\n    tag_178:\n      pop\n      pop\n      pop\n      pop\n      mload(0x40)\n      returndatasize\n      not(0x1f)\n      0x1f\n      dup3\n      add\n      and\n      dup3\n      add\n      dup1\n      0x40\n      mstore\n      pop\n      dup2\n      add\n      swap1\n      tag_179\n      swap2\n      swap1\n      tag_79\n      jump\t// in\n    tag_179:\n      pop\n        /* \"SimpleDex.sol\":2173:2179  tokenB */\n      0x02\n      0x00\n      swap1\n      sload\n      swap1\n      0x0100\n      exp\n      swap1\n      div\n      0xffffffffffffffffffffffffffffffffffffffff\n      and\n        /* \"SimpleDex.sol\":2173:2192  tokenB.transferFrom */\n      0xffffffffffffffffffffffffffffffffffffffff\n      and\n      0x23b872dd\n        /* \"SimpleDex.sol\":2193:2203  msg.sender */\n      caller\n        /* \"SimpleDex.sol\":2213:2217  this */\n      address\n        /* \"SimpleDex.sol\":2229:2233  1e18 */\n      0x0de0b6b3a7640000\n        /* \"SimpleDex.sol\":2220:2227  amountB */\n      dup8\n        /* \"SimpleDex.sol\":2220:2233  amountB* 1e18 */\n      tag_180\n      swap2\n      swap1\n      tag_73\n      jump\t// in\n    tag_180:\n        /* \"SimpleDex.sol\":2173:2234  tokenB.transferFrom(msg.sender, address(this), amountB* 1e18) */\n      mload(0x40)\n      dup5\n      0xffffffff\n      and\n      0xe0\n      shl\n      dup2\n      mstore\n      0x04\n      add\n      tag_181\n      swap4\n      swap3\n      swap2\n      swap1\n      tag_75\n      jump\t// in\n    tag_181:\n      0x20\n      mload(0x40)\n      dup1\n      dup4\n      sub\n      dup2\n      0x00\n      dup8\n      gas\n      call\n      iszero\n      dup1\n      iszero\n      tag_183\n      jumpi\n      returndatasize\n      0x00\n      dup1\n      returndatacopy\n      revert(0x00, returndatasize)\n    tag_183:\n      pop\n      pop\n      pop\n      pop\n      mload(0x40)\n      returndatasize\n      not(0x1f)\n      0x1f\n      dup3\n      add\n      and\n      dup3\n      add\n      dup1\n      0x40\n      mstore\n      pop\n      dup2\n      add\n      swap1\n      tag_184\n      swap2\n      swap1\n      tag_79\n      jump\t// in\n    tag_184:\n      pop\n        /* \"SimpleDex.sol\":2270:2280  msg.sender */\n      caller\n        /* \"SimpleDex.sol\":2255:2311  LiquidityAdded(msg.sender, amountA* 1e18, amountB* 1e18) */\n      0xffffffffffffffffffffffffffffffffffffffff\n      and\n      0xac1d76749e5447b7b16f5ab61447e1bd502f3bb4807af3b28e620d1700a6ee45\n        /* \"SimpleDex.sol\":2291:2295  1e18 */\n      0x0de0b6b3a7640000\n        /* \"SimpleDex.sol\":2282:2289  amountA */\n      dup7\n        /* \"SimpleDex.sol\":2282:2295  amountA* 1e18 */\n      tag_185\n      swap2\n      swap1\n      tag_73\n      jump\t// in\n    tag_185:\n        /* \"SimpleDex.sol\":2306:2310  1e18 */\n      0x0de0b6b3a7640000\n        /* \"SimpleDex.sol\":2297:2304  amountB */\n      dup7\n        /* \"SimpleDex.sol\":2297:2310  amountB* 1e18 */\n      tag_186\n      swap2\n      swap1\n      tag_73\n      jump\t// in\n    tag_186:\n        /* \"SimpleDex.sol\":2255:2311  LiquidityAdded(msg.sender, amountA* 1e18, amountB* 1e18) */\n      mload(0x40)\n      tag_187\n      swap3\n      swap2\n      swap1\n      tag_23\n      jump\t// in\n    tag_187:\n      mload(0x40)\n      dup1\n      swap2\n      sub\n      swap1\n      log2\n        /* \"SimpleDex.sol\":1480:2333  {... */\n      pop\n      pop\n        /* \"SimpleDex.sol\":1405:2333  function addLiquidity(uint256 amountA, uint256 amountB) external onlyOwner {... */\n      pop\n      pop\n      jump\t// out\n        /* \"SimpleDex.sol\":4161:4456  function removeLiquidity(uint256 amountA, uint256 amountB) external onlyOwner {                   ... */\n    tag_46:\n        /* \"@openzeppelin/contracts/access/Ownable.sol\":1531:1544  _checkOwner() */\n      tag_189\n        /* \"@openzeppelin/contracts/access/Ownable.sol\":1531:1542  _checkOwner */\n      tag_104\n        /* \"@openzeppelin/contracts/access/Ownable.sol\":1531:1544  _checkOwner() */\n      jump\t// in\n    tag_189:\n        /* \"SimpleDex.sol\":4269:4275  tokenA */\n      0x01\n      0x00\n      swap1\n      sload\n      swap1\n      0x0100\n      exp\n      swap1\n      div\n      0xffffffffffffffffffffffffffffffffffffffff\n      and\n        /* \"SimpleDex.sol\":4269:4284  tokenA.transfer */\n      0xffffffffffffffffffffffffffffffffffffffff\n      and\n      0xa9059cbb\n        /* \"SimpleDex.sol\":4285:4295  msg.sender */\n      caller\n        /* \"SimpleDex.sol\":4306:4310  1e18 */\n      0x0de0b6b3a7640000\n        /* \"SimpleDex.sol\":4297:4304  amountA */\n      dup6\n        /* \"SimpleDex.sol\":4297:4310  amountA* 1e18 */\n      tag_191\n      swap2\n      swap1\n      tag_73\n      jump\t// in\n    tag_191:\n        /* \"SimpleDex.sol\":4269:4311  tokenA.transfer(msg.sender, amountA* 1e18) */\n      mload(0x40)\n      dup4\n      0xffffffff\n      and\n      0xe0\n      shl\n      dup2\n      mstore\n      0x04\n      add\n      tag_192\n      swap3\n      swap2\n      swap1\n      tag_82\n      jump\t// in\n    tag_192:\n      0x20\n      mload(0x40)\n      dup1\n      dup4\n      sub\n      dup2\n      0x00\n      dup8\n      gas\n      call\n      iszero\n      dup1\n      iszero\n      tag_194\n      jumpi\n      returndatasize\n      0x00\n      dup1\n      returndatacopy\n      revert(0x00, returndatasize)\n    tag_194:\n      pop\n      pop\n      pop\n      pop\n      mload(0x40)\n      returndatasize\n      not(0x1f)\n      0x1f\n      dup3\n      add\n      and\n      dup3\n      add\n      dup1\n      0x40\n      mstore\n      pop\n      dup2\n      add\n      swap1\n      tag_195\n      swap2\n      swap1\n      tag_79\n      jump\t// in\n    tag_195:\n      pop\n        /* \"SimpleDex.sol\":4322:4328  tokenB */\n      0x02\n      0x00\n      swap1\n      sload\n      swap1\n      0x0100\n      exp\n      swap1\n      div\n      0xffffffffffffffffffffffffffffffffffffffff\n      and\n        /* \"SimpleDex.sol\":4322:4337  tokenB.transfer */\n      0xffffffffffffffffffffffffffffffffffffffff\n      and\n      0xa9059cbb\n        /* \"SimpleDex.sol\":4338:4348  msg.sender */\n      caller\n        /* \"SimpleDex.sol\":4359:4363  1e18 */\n      0x0de0b6b3a7640000\n        /* \"SimpleDex.sol\":4350:4357  amountB */\n      dup5\n        /* \"SimpleDex.sol\":4350:4363  amountB* 1e18 */\n      tag_196\n      swap2\n      swap1\n      tag_73\n      jump\t// in\n    tag_196:\n        /* \"SimpleDex.sol\":4322:4364  tokenB.transfer(msg.sender, amountB* 1e18) */\n      mload(0x40)\n      dup4\n      0xffffffff\n      and\n      0xe0\n      shl\n      dup2\n      mstore\n      0x04\n      add\n      tag_197\n      swap3\n      swap2\n      swap1\n      tag_82\n      jump\t// in\n    tag_197:\n      0x20\n      mload(0x40)\n      dup1\n      dup4\n      sub\n      dup2\n      0x00\n      dup8\n      gas\n      call\n      iszero\n      dup1\n      iszero\n      tag_199\n      jumpi\n      returndatasize\n      0x00\n      dup1\n      returndatacopy\n      revert(0x00, returndatasize)\n    tag_199:\n      pop\n      pop\n      pop\n      pop\n      mload(0x40)\n      returndatasize\n      not(0x1f)\n      0x1f\n      dup3\n      add\n      and\n      dup3\n      add\n      dup1\n      0x40\n      mstore\n      pop\n      dup2\n      add\n      swap1\n      tag_200\n      swap2\n      swap1\n      tag_79\n      jump\t// in\n    tag_200:\n      pop\n        /* \"SimpleDex.sol\":4407:4417  msg.sender */\n      caller\n        /* \"SimpleDex.sol\":4390:4448  LiquidityRemoved(msg.sender, amountA* 1e18, amountB* 1e18) */\n      0xffffffffffffffffffffffffffffffffffffffff\n      and\n      0x96cd817c6329656790ef8fba7675405193677d39619571282f5e21f3a98cd059\n        /* \"SimpleDex.sol\":4428:4432  1e18 */\n      0x0de0b6b3a7640000\n        /* \"SimpleDex.sol\":4419:4426  amountA */\n      dup5\n        /* \"SimpleDex.sol\":4419:4432  amountA* 1e18 */\n      tag_201\n      swap2\n      swap1\n      tag_73\n      jump\t// in\n    tag_201:\n        /* \"SimpleDex.sol\":4443:4447  1e18 */\n      0x0de0b6b3a7640000\n        /* \"SimpleDex.sol\":4434:4441  amountB */\n      dup5\n        /* \"SimpleDex.sol\":4434:4447  amountB* 1e18 */\n      tag_202\n      swap2\n      swap1\n      tag_73\n      jump\t// in\n    tag_202:\n        /* \"SimpleDex.sol\":4390:4448  LiquidityRemoved(msg.sender, amountA* 1e18, amountB* 1e18) */\n      mload(0x40)\n      tag_203\n      swap3\n      swap2\n      swap1\n      tag_23\n      jump\t// in\n    tag_203:\n      mload(0x40)\n      dup1\n      swap2\n      sub\n      swap1\n      log2\n        /* \"SimpleDex.sol\":4161:4456  function removeLiquidity(uint256 amountA, uint256 amountB) external onlyOwner {                   ... */\n      pop\n      pop\n      jump\t// out\n        /* \"SimpleDex.sol\":3088:3776  function swapBForA(uint256 amountB) external {... */\n    tag_49:\n        /* \"SimpleDex.sol\":3162:3163  0 */\n      0x00\n        /* \"SimpleDex.sol\":3152:3159  amountB */\n      dup2\n        /* \"SimpleDex.sol\":3152:3163  amountB > 0 */\n      gt\n        /* \"SimpleDex.sol\":3144:3182  require(amountB > 0, \"Invalid amount\") */\n      tag_205\n      jumpi\n      mload(0x40)\n      0x08c379a000000000000000000000000000000000000000000000000000000000\n      dup2\n      mstore\n      0x04\n      add\n      tag_206\n      swap1\n      tag_60\n      jump\t// in\n    tag_206:\n      mload(0x40)\n      dup1\n      swap2\n      sub\n      swap1\n      revert\n    tag_205:\n        /* \"SimpleDex.sol\":3241:3257  uint256 reserveA */\n      0x00\n        /* \"SimpleDex.sol\":3260:3266  tokenA */\n      0x01\n      0x00\n      swap1\n      sload\n      swap1\n      0x0100\n      exp\n      swap1\n      div\n      0xffffffffffffffffffffffffffffffffffffffff\n      and\n        /* \"SimpleDex.sol\":3260:3276  tokenA.balanceOf */\n      0xffffffffffffffffffffffffffffffffffffffff\n      and\n      0x70a08231\n        /* \"SimpleDex.sol\":3285:3289  this */\n      address\n        /* \"SimpleDex.sol\":3260:3291  tokenA.balanceOf(address(this)) */\n      mload(0x40)\n      dup3\n      0xffffffff\n      and\n      0xe0\n      shl\n      dup2\n      mstore\n      0x04\n      add\n      tag_207\n      swap2\n      swap1\n      tag_36\n      jump\t// in\n    tag_207:\n      0x20\n      mload(0x40)\n      dup1\n      dup4\n      sub\n      dup2\n      dup7\n      gas\n      staticcall\n      iszero\n      dup1\n      iszero\n      tag_209\n      jumpi\n      returndatasize\n      0x00\n      dup1\n      returndatacopy\n      revert(0x00, returndatasize)\n    tag_209:\n      pop\n      pop\n      pop\n      pop\n      mload(0x40)\n      returndatasize\n      not(0x1f)\n      0x1f\n      dup3\n      add\n      and\n      dup3\n      add\n      dup1\n      0x40\n      mstore\n      pop\n      dup2\n      add\n      swap1\n      tag_210\n      swap2\n      swap1\n      tag_65\n      jump\t// in\n    tag_210:\n        /* \"SimpleDex.sol\":3241:3291  uint256 reserveA = tokenA.balanceOf(address(this)) */\n      swap1\n      pop\n        /* \"SimpleDex.sol\":3302:3318  uint256 reserveB */\n      0x00\n        /* \"SimpleDex.sol\":3321:3327  tokenB */\n      0x02\n      0x00\n      swap1\n      sload\n      swap1\n      0x0100\n      exp\n      swap1\n      div\n      0xffffffffffffffffffffffffffffffffffffffff\n      and\n        /* \"SimpleDex.sol\":3321:3337  tokenB.balanceOf */\n      0xffffffffffffffffffffffffffffffffffffffff\n      and\n      0x70a08231\n        /* \"SimpleDex.sol\":3346:3350  this */\n      address\n        /* \"SimpleDex.sol\":3321:3352  tokenB.balanceOf(address(this)) */\n      mload(0x40)\n      dup3\n      0xffffffff\n      and\n      0xe0\n      shl\n      dup2\n      mstore\n      0x04\n      add\n      tag_211\n      swap2\n      swap1\n      tag_36\n      jump\t// in\n    tag_211:\n      0x20\n      mload(0x40)\n      dup1\n      dup4\n      sub\n      dup2\n      dup7\n      gas\n      staticcall\n      iszero\n      dup1\n      iszero\n      tag_213\n      jumpi\n      returndatasize\n      0x00\n      dup1\n      returndatacopy\n      revert(0x00, returndatasize)\n    tag_213:\n      pop\n      pop\n      pop\n      pop\n      mload(0x40)\n      returndatasize\n      not(0x1f)\n      0x1f\n      dup3\n      add\n      and\n      dup3\n      add\n      dup1\n      0x40\n      mstore\n      pop\n      dup2\n      add\n      swap1\n      tag_214\n      swap2\n      swap1\n      tag_65\n      jump\t// in\n    tag_214:\n        /* \"SimpleDex.sol\":3302:3352  uint256 reserveB = tokenB.balanceOf(address(this)) */\n      swap1\n      pop\n        /* \"SimpleDex.sol\":3363:3378  uint256 amountA */\n      0x00\n        /* \"SimpleDex.sol\":3381:3422  getAmountOut(amountB, reserveB, reserveA) */\n      tag_215\n        /* \"SimpleDex.sol\":3394:3401  amountB */\n      dup5\n        /* \"SimpleDex.sol\":3403:3411  reserveB */\n      dup4\n        /* \"SimpleDex.sol\":3413:3421  reserveA */\n      dup6\n        /* \"SimpleDex.sol\":3381:3393  getAmountOut */\n      tag_71\n        /* \"SimpleDex.sol\":3381:3422  getAmountOut(amountB, reserveB, reserveA) */\n      jump\t// in\n    tag_215:\n        /* \"SimpleDex.sol\":3363:3422  uint256 amountA = getAmountOut(amountB, reserveB, reserveA) */\n      swap1\n      pop\n        /* \"SimpleDex.sol\":3511:3517  tokenB */\n      0x02\n      0x00\n      swap1\n      sload\n      swap1\n      0x0100\n      exp\n      swap1\n      div\n      0xffffffffffffffffffffffffffffffffffffffff\n      and\n        /* \"SimpleDex.sol\":3511:3530  tokenB.transferFrom */\n      0xffffffffffffffffffffffffffffffffffffffff\n      and\n      0x23b872dd\n        /* \"SimpleDex.sol\":3531:3541  msg.sender */\n      caller\n        /* \"SimpleDex.sol\":3551:3555  this */\n      address\n        /* \"SimpleDex.sol\":3567:3571  1e18 */\n      0x0de0b6b3a7640000\n        /* \"SimpleDex.sol\":3558:3565  amountB */\n      dup9\n        /* \"SimpleDex.sol\":3558:3571  amountB* 1e18 */\n      tag_216\n      swap2\n      swap1\n      tag_73\n      jump\t// in\n    tag_216:\n        /* \"SimpleDex.sol\":3511:3572  tokenB.transferFrom(msg.sender, address(this), amountB* 1e18) */\n      mload(0x40)\n      dup5\n      0xffffffff\n      and\n      0xe0\n      shl\n      dup2\n      mstore\n      0x04\n      add\n      tag_217\n      swap4\n      swap3\n      swap2\n      swap1\n      tag_75\n      jump\t// in\n    tag_217:\n      0x20\n      mload(0x40)\n      dup1\n      dup4\n      sub\n      dup2\n      0x00\n      dup8\n      gas\n      call\n      iszero\n      dup1\n      iszero\n      tag_219\n      jumpi\n      returndatasize\n      0x00\n      dup1\n      returndatacopy\n      revert(0x00, returndatasize)\n    tag_219:\n      pop\n      pop\n      pop\n      pop\n      mload(0x40)\n      returndatasize\n      not(0x1f)\n      0x1f\n      dup3\n      add\n      and\n      dup3\n      add\n      dup1\n      0x40\n      mstore\n      pop\n      dup2\n      add\n      swap1\n      tag_220\n      swap2\n      swap1\n      tag_79\n      jump\t// in\n    tag_220:\n      pop\n        /* \"SimpleDex.sol\":3628:3634  tokenA */\n      0x01\n      0x00\n      swap1\n      sload\n      swap1\n      0x0100\n      exp\n      swap1\n      div\n      0xffffffffffffffffffffffffffffffffffffffff\n      and\n        /* \"SimpleDex.sol\":3628:3643  tokenA.transfer */\n      0xffffffffffffffffffffffffffffffffffffffff\n      and\n      0xa9059cbb\n        /* \"SimpleDex.sol\":3644:3654  msg.sender */\n      caller\n        /* \"SimpleDex.sol\":3665:3669  1e18 */\n      0x0de0b6b3a7640000\n        /* \"SimpleDex.sol\":3656:3663  amountA */\n      dup5\n        /* \"SimpleDex.sol\":3656:3669  amountA* 1e18 */\n      tag_221\n      swap2\n      swap1\n      tag_73\n      jump\t// in\n    tag_221:\n        /* \"SimpleDex.sol\":3628:3670  tokenA.transfer(msg.sender, amountA* 1e18) */\n      mload(0x40)\n      dup4\n      0xffffffff\n      and\n      0xe0\n      shl\n      dup2\n      mstore\n      0x04\n      add\n      tag_222\n      swap3\n      swap2\n      swap1\n      tag_82\n      jump\t// in\n    tag_222:\n      0x20\n      mload(0x40)\n      dup1\n      dup4\n      sub\n      dup2\n      0x00\n      dup8\n      gas\n      call\n      iszero\n      dup1\n      iszero\n      tag_224\n      jumpi\n      returndatasize\n      0x00\n      dup1\n      returndatacopy\n      revert(0x00, returndatasize)\n    tag_224:\n      pop\n      pop\n      pop\n      pop\n      mload(0x40)\n      returndatasize\n      not(0x1f)\n      0x1f\n      dup3\n      add\n      and\n      dup3\n      add\n      dup1\n      0x40\n      mstore\n      pop\n      dup2\n      add\n      swap1\n      tag_225\n      swap2\n      swap1\n      tag_79\n      jump\t// in\n    tag_225:\n      pop\n        /* \"SimpleDex.sol\":3693:3703  msg.sender */\n      caller\n        /* \"SimpleDex.sol\":3688:3768  Swap(msg.sender, address(tokenB), address(tokenA), amountB* 1e18, amountA* 1e18) */\n      0xffffffffffffffffffffffffffffffffffffffff\n      and\n      0xcd3829a3813dc3cdd188fd3d01dcf3268c16be2fdd2dd21d0665418816e46062\n        /* \"SimpleDex.sol\":3713:3719  tokenB */\n      0x02\n      0x00\n      swap1\n      sload\n      swap1\n      0x0100\n      exp\n      swap1\n      div\n      0xffffffffffffffffffffffffffffffffffffffff\n      and\n        /* \"SimpleDex.sol\":3730:3736  tokenA */\n      0x01\n      0x00\n      swap1\n      sload\n      swap1\n      0x0100\n      exp\n      swap1\n      div\n      0xffffffffffffffffffffffffffffffffffffffff\n      and\n        /* \"SimpleDex.sol\":3748:3752  1e18 */\n      0x0de0b6b3a7640000\n        /* \"SimpleDex.sol\":3739:3746  amountB */\n      dup9\n        /* \"SimpleDex.sol\":3739:3752  amountB* 1e18 */\n      tag_226\n      swap2\n      swap1\n      tag_73\n      jump\t// in\n    tag_226:\n        /* \"SimpleDex.sol\":3763:3767  1e18 */\n      0x0de0b6b3a7640000\n        /* \"SimpleDex.sol\":3754:3761  amountA */\n      dup7\n        /* \"SimpleDex.sol\":3754:3767  amountA* 1e18 */\n      tag_227\n      swap2\n      swap1\n      tag_73\n      jump\t// in\n    tag_227:\n        /* \"SimpleDex.sol\":3688:3768  Swap(msg.sender, address(tokenB), address(tokenA), amountB* 1e18, amountA* 1e18) */\n      mload(0x40)\n      tag_228\n      swap5\n      swap4\n      swap3\n      swap2\n      swap1\n      tag_89\n      jump\t// in\n    tag_228:\n      mload(0x40)\n      dup1\n      swap2\n      sub\n      swap1\n      log2\n        /* \"SimpleDex.sol\":3133:3776  {... */\n      pop\n      pop\n      pop\n        /* \"SimpleDex.sol\":3088:3776  function swapBForA(uint256 amountB) external {... */\n      pop\n      jump\t// out\n        /* \"SimpleDex.sol\":829:1371  function initializePool(uint256 amountA, uint256 amountB)  external onlyOwner {... */\n    tag_52:\n        /* \"@openzeppelin/contracts/access/Ownable.sol\":1531:1544  _checkOwner() */\n      tag_230\n        /* \"@openzeppelin/contracts/access/Ownable.sol\":1531:1542  _checkOwner */\n      tag_104\n        /* \"@openzeppelin/contracts/access/Ownable.sol\":1531:1544  _checkOwner() */\n      jump\t// in\n    tag_230:\n        /* \"SimpleDex.sol\":947:948  4 */\n      0x04\n        /* \"SimpleDex.sol\":937:944  amountA */\n      dup3\n        /* \"SimpleDex.sol\":937:948  amountA * 4 */\n      tag_232\n      swap2\n      swap1\n      tag_73\n      jump\t// in\n    tag_232:\n        /* \"SimpleDex.sol\":926:933  amountB */\n      dup2\n        /* \"SimpleDex.sol\":926:948  amountB == amountA * 4 */\n      eq\n        /* \"SimpleDex.sol\":918:992  require(amountB == amountA * 4, \"Invalid ratio: TokenB must be 4x TokenA\") */\n      tag_233\n      jumpi\n      mload(0x40)\n      0x08c379a000000000000000000000000000000000000000000000000000000000\n      dup2\n      mstore\n      0x04\n      add\n      tag_234\n      swap1\n      tag_235\n      jump\t// in\n    tag_234:\n      mload(0x40)\n      dup1\n      swap2\n      sub\n      swap1\n      revert\n    tag_233:\n        /* \"SimpleDex.sol\":1033:1039  tokenA */\n      0x01\n      0x00\n      swap1\n      sload\n      swap1\n      0x0100\n      exp\n      swap1\n      div\n      0xffffffffffffffffffffffffffffffffffffffff\n      and\n        /* \"SimpleDex.sol\":1033:1052  tokenA.transferFrom */\n      0xffffffffffffffffffffffffffffffffffffffff\n      and\n      0x23b872dd\n        /* \"SimpleDex.sol\":1053:1063  msg.sender */\n      caller\n        /* \"SimpleDex.sol\":1073:1077  this */\n      address\n        /* \"SimpleDex.sol\":1089:1093  1e18 */\n      0x0de0b6b3a7640000\n        /* \"SimpleDex.sol\":1080:1087  amountA */\n      dup7\n        /* \"SimpleDex.sol\":1080:1093  amountA* 1e18 */\n      tag_236\n      swap2\n      swap1\n      tag_73\n      jump\t// in\n    tag_236:\n        /* \"SimpleDex.sol\":1033:1094  tokenA.transferFrom(msg.sender, address(this), amountA* 1e18) */\n      mload(0x40)\n      dup5\n      0xffffffff\n      and\n      0xe0\n      shl\n      dup2\n      mstore\n      0x04\n      add\n      tag_237\n      swap4\n      swap3\n      swap2\n      swap1\n      tag_75\n      jump\t// in\n    tag_237:\n      0x20\n      mload(0x40)\n      dup1\n      dup4\n      sub\n      dup2\n      0x00\n      dup8\n      gas\n      call\n      iszero\n      dup1\n      iszero\n      tag_239\n      jumpi\n      returndatasize\n      0x00\n      dup1\n      returndatacopy\n      revert(0x00, returndatasize)\n    tag_239:\n      pop\n      pop\n      pop\n      pop\n      mload(0x40)\n      returndatasize\n      not(0x1f)\n      0x1f\n      dup3\n      add\n      and\n      dup3\n      add\n      dup1\n      0x40\n      mstore\n      pop\n      dup2\n      add\n      swap1\n      tag_240\n      swap2\n      swap1\n      tag_79\n      jump\t// in\n    tag_240:\n        /* \"SimpleDex.sol\":1011:1145  require(... */\n      tag_241\n      jumpi\n      mload(0x40)\n      0x08c379a000000000000000000000000000000000000000000000000000000000\n      dup2\n      mstore\n      0x04\n      add\n      tag_242\n      swap1\n      tag_243\n      jump\t// in\n    tag_242:\n      mload(0x40)\n      dup1\n      swap2\n      sub\n      swap1\n      revert\n    tag_241:\n        /* \"SimpleDex.sol\":1178:1184  tokenB */\n      0x02\n      0x00\n      swap1\n      sload\n      swap1\n      0x0100\n      exp\n      swap1\n      div\n      0xffffffffffffffffffffffffffffffffffffffff\n      and\n        /* \"SimpleDex.sol\":1178:1197  tokenB.transferFrom */\n      0xffffffffffffffffffffffffffffffffffffffff\n      and\n      0x23b872dd\n        /* \"SimpleDex.sol\":1198:1208  msg.sender */\n      caller\n        /* \"SimpleDex.sol\":1218:1222  this */\n      address\n        /* \"SimpleDex.sol\":1234:1238  1e18 */\n      0x0de0b6b3a7640000\n        /* \"SimpleDex.sol\":1225:1232  amountB */\n      dup6\n        /* \"SimpleDex.sol\":1225:1238  amountB* 1e18 */\n      tag_244\n      swap2\n      swap1\n      tag_73\n      jump\t// in\n    tag_244:\n        /* \"SimpleDex.sol\":1178:1239  tokenB.transferFrom(msg.sender, address(this), amountB* 1e18) */\n      mload(0x40)\n      dup5\n      0xffffffff\n      and\n      0xe0\n      shl\n      dup2\n      mstore\n      0x04\n      add\n      tag_245\n      swap4\n      swap3\n      swap2\n      swap1\n      tag_75\n      jump\t// in\n    tag_245:\n      0x20\n      mload(0x40)\n      dup1\n      dup4\n      sub\n      dup2\n      0x00\n      dup8\n      gas\n      call\n      iszero\n      dup1\n      iszero\n      tag_247\n      jumpi\n      returndatasize\n      0x00\n      dup1\n      returndatacopy\n      revert(0x00, returndatasize)\n    tag_247:\n      pop\n      pop\n      pop\n      pop\n      mload(0x40)\n      returndatasize\n      not(0x1f)\n      0x1f\n      dup3\n      add\n      and\n      dup3\n      add\n      dup1\n      0x40\n      mstore\n      pop\n      dup2\n      add\n      swap1\n      tag_248\n      swap2\n      swap1\n      tag_79\n      jump\t// in\n    tag_248:\n        /* \"SimpleDex.sol\":1156:1290  require(... */\n      tag_249\n      jumpi\n      mload(0x40)\n      0x08c379a000000000000000000000000000000000000000000000000000000000\n      dup2\n      mstore\n      0x04\n      add\n      tag_250\n      swap1\n      tag_251\n      jump\t// in\n    tag_250:\n      mload(0x40)\n      dup1\n      swap2\n      sub\n      swap1\n      revert\n    tag_249:\n        /* \"SimpleDex.sol\":1322:1332  msg.sender */\n      caller\n        /* \"SimpleDex.sol\":1306:1363  PoolInitialized(msg.sender, amountA* 1e18, amountB* 1e18) */\n      0xffffffffffffffffffffffffffffffffffffffff\n      and\n      0x997f3e422a7446ccf056e7a989c8a281f20af906a7ac6ad0e6f9fea0edd6055c\n        /* \"SimpleDex.sol\":1343:1347  1e18 */\n      0x0de0b6b3a7640000\n        /* \"SimpleDex.sol\":1334:1341  amountA */\n      dup5\n        /* \"SimpleDex.sol\":1334:1347  amountA* 1e18 */\n      tag_252\n      swap2\n      swap1\n      tag_73\n      jump\t// in\n    tag_252:\n        /* \"SimpleDex.sol\":1358:1362  1e18 */\n      0x0de0b6b3a7640000\n        /* \"SimpleDex.sol\":1349:1356  amountB */\n      dup5\n        /* \"SimpleDex.sol\":1349:1362  amountB* 1e18 */\n      tag_253\n      swap2\n      swap1\n      tag_73\n      jump\t// in\n    tag_253:\n        /* \"SimpleDex.sol\":1306:1363  PoolInitialized(msg.sender, amountA* 1e18, amountB* 1e18) */\n      mload(0x40)\n      tag_254\n      swap3\n      swap2\n      swap1\n      tag_23\n      jump\t// in\n    tag_254:\n      mload(0x40)\n      dup1\n      swap2\n      sub\n      swap1\n      log2\n        /* \"SimpleDex.sol\":829:1371  function initializePool(uint256 amountA, uint256 amountB)  external onlyOwner {... */\n      pop\n      pop\n      jump\t// out\n        /* \"@openzeppelin/contracts/access/Ownable.sol\":2543:2758  function transferOwnership(address newOwner) public virtual onlyOwner {... */\n    tag_56:\n        /* \"@openzeppelin/contracts/access/Ownable.sol\":1531:1544  _checkOwner() */\n      tag_256\n        /* \"@openzeppelin/contracts/access/Ownable.sol\":1531:1542  _checkOwner */\n      tag_104\n        /* \"@openzeppelin/contracts/access/Ownable.sol\":1531:1544  _checkOwner() */\n      jump\t// in\n    tag_256:\n        /* \"@openzeppelin/contracts/access/Ownable.sol\":2647:2648  0 */\n      0x00\n        /* \"@openzeppelin/contracts/access/Ownable.sol\":2627:2649  newOwner == address(0) */\n      0xffffffffffffffffffffffffffffffffffffffff\n      and\n        /* \"@openzeppelin/contracts/access/Ownable.sol\":2627:2635  newOwner */\n      dup2\n        /* \"@openzeppelin/contracts/access/Ownable.sol\":2627:2649  newOwner == address(0) */\n      0xffffffffffffffffffffffffffffffffffffffff\n      and\n      sub\n        /* \"@openzeppelin/contracts/access/Ownable.sol\":2623:2714  if (newOwner == address(0)) {... */\n      tag_258\n      jumpi\n        /* \"@openzeppelin/contracts/access/Ownable.sol\":2700:2701  0 */\n      0x00\n        /* \"@openzeppelin/contracts/access/Ownable.sol\":2672:2703  OwnableInvalidOwner(address(0)) */\n      mload(0x40)\n      0x1e4fbdf700000000000000000000000000000000000000000000000000000000\n      dup2\n      mstore\n      0x04\n      add\n      tag_259\n      swap2\n      swap1\n      tag_36\n      jump\t// in\n    tag_259:\n      mload(0x40)\n      dup1\n      swap2\n      sub\n      swap1\n      revert\n        /* \"@openzeppelin/contracts/access/Ownable.sol\":2623:2714  if (newOwner == address(0)) {... */\n    tag_258:\n        /* \"@openzeppelin/contracts/access/Ownable.sol\":2723:2751  _transferOwnership(newOwner) */\n      tag_260\n        /* \"@openzeppelin/contracts/access/Ownable.sol\":2742:2750  newOwner */\n      dup2\n        /* \"@openzeppelin/contracts/access/Ownable.sol\":2723:2741  _transferOwnership */\n      tag_107\n        /* \"@openzeppelin/contracts/access/Ownable.sol\":2723:2751  _transferOwnership(newOwner) */\n      jump\t// in\n    tag_260:\n        /* \"@openzeppelin/contracts/access/Ownable.sol\":2543:2758  function transferOwnership(address newOwner) public virtual onlyOwner {... */\n      pop\n      jump\t// out\n        /* \"SimpleDex.sol\":3877:4133  function getAmountOut(uint256 amountIn, uint256 reserveIn, uint256 reserveOut) internal pure returns (uint256) {... */\n    tag_71:\n        /* \"SimpleDex.sol\":3979:3986  uint256 */\n      0x00\n        /* \"SimpleDex.sol\":4019:4020  0 */\n      dup1\n        /* \"SimpleDex.sol\":4007:4016  reserveIn */\n      dup4\n        /* \"SimpleDex.sol\":4007:4020  reserveIn > 0 */\n      gt\n        /* \"SimpleDex.sol\":4007:4038  reserveIn > 0 && reserveOut > 0 */\n      dup1\n      iszero\n      tag_262\n      jumpi\n      pop\n        /* \"SimpleDex.sol\":4037:4038  0 */\n      0x00\n        /* \"SimpleDex.sol\":4024:4034  reserveOut */\n      dup3\n        /* \"SimpleDex.sol\":4024:4038  reserveOut > 0 */\n      gt\n        /* \"SimpleDex.sol\":4007:4038  reserveIn > 0 && reserveOut > 0 */\n    tag_262:\n        /* \"SimpleDex.sol\":3999:4059  require(reserveIn > 0 && reserveOut > 0, \"Invalid reserves\") */\n      tag_263\n      jumpi\n      mload(0x40)\n      0x08c379a000000000000000000000000000000000000000000000000000000000\n      dup2\n      mstore\n      0x04\n      add\n      tag_264\n      swap1\n      tag_265\n      jump\t// in\n    tag_264:\n      mload(0x40)\n      dup1\n      swap2\n      sub\n      swap1\n      revert\n    tag_263:\n        /* \"SimpleDex.sol\":4116:4124  amountIn */\n      dup4\n        /* \"SimpleDex.sol\":4104:4113  reserveIn */\n      dup4\n        /* \"SimpleDex.sol\":4104:4124  reserveIn + amountIn */\n      tag_266\n      swap2\n      swap1\n      tag_267\n      jump\t// in\n    tag_266:\n        /* \"SimpleDex.sol\":4089:4099  reserveOut */\n      dup3\n        /* \"SimpleDex.sol\":4078:4086  amountIn */\n      dup6\n        /* \"SimpleDex.sol\":4078:4099  amountIn * reserveOut */\n      tag_268\n      swap2\n      swap1\n      tag_73\n      jump\t// in\n    tag_268:\n        /* \"SimpleDex.sol\":4077:4125  (amountIn * reserveOut) / (reserveIn + amountIn) */\n      tag_269\n      swap2\n      swap1\n      tag_96\n      jump\t// in\n    tag_269:\n        /* \"SimpleDex.sol\":4070:4125  return (amountIn * reserveOut) / (reserveIn + amountIn) */\n      swap1\n      pop\n        /* \"SimpleDex.sol\":3877:4133  function getAmountOut(uint256 amountIn, uint256 reserveIn, uint256 reserveOut) internal pure returns (uint256) {... */\n      swap4\n      swap3\n      pop\n      pop\n      pop\n      jump\t// out\n        /* \"@openzeppelin/contracts/access/Ownable.sol\":1796:1958  function _checkOwner() internal view virtual {... */\n    tag_104:\n        /* \"@openzeppelin/contracts/access/Ownable.sol\":1866:1878  _msgSender() */\n      tag_271\n        /* \"@openzeppelin/contracts/access/Ownable.sol\":1866:1876  _msgSender */\n      tag_272\n        /* \"@openzeppelin/contracts/access/Ownable.sol\":1866:1878  _msgSender() */\n      jump\t// in\n    tag_271:\n        /* \"@openzeppelin/contracts/access/Ownable.sol\":1855:1878  owner() != _msgSender() */\n      0xffffffffffffffffffffffffffffffffffffffff\n      and\n        /* \"@openzeppelin/contracts/access/Ownable.sol\":1855:1862  owner() */\n      tag_273\n        /* \"@openzeppelin/contracts/access/Ownable.sol\":1855:1860  owner */\n      tag_34\n        /* \"@openzeppelin/contracts/access/Ownable.sol\":1855:1862  owner() */\n      jump\t// in\n    tag_273:\n        /* \"@openzeppelin/contracts/access/Ownable.sol\":1855:1878  owner() != _msgSender() */\n      0xffffffffffffffffffffffffffffffffffffffff\n      and\n      eq\n        /* \"@openzeppelin/contracts/access/Ownable.sol\":1851:1952  if (owner() != _msgSender()) {... */\n      tag_274\n      jumpi\n        /* \"@openzeppelin/contracts/access/Ownable.sol\":1928:1940  _msgSender() */\n      tag_275\n        /* \"@openzeppelin/contracts/access/Ownable.sol\":1928:1938  _msgSender */\n      tag_272\n        /* \"@openzeppelin/contracts/access/Ownable.sol\":1928:1940  _msgSender() */\n      jump\t// in\n    tag_275:\n        /* \"@openzeppelin/contracts/access/Ownable.sol\":1901:1941  OwnableUnauthorizedAccount(_msgSender()) */\n      mload(0x40)\n      0x118cdaa700000000000000000000000000000000000000000000000000000000\n      dup2\n      mstore\n      0x04\n      add\n      tag_276\n      swap2\n      swap1\n      tag_36\n      jump\t// in\n    tag_276:\n      mload(0x40)\n      dup1\n      swap2\n      sub\n      swap1\n      revert\n        /* \"@openzeppelin/contracts/access/Ownable.sol\":1851:1952  if (owner() != _msgSender()) {... */\n    tag_274:\n        /* \"@openzeppelin/contracts/access/Ownable.sol\":1796:1958  function _checkOwner() internal view virtual {... */\n      jump\t// out\n        /* \"@openzeppelin/contracts/access/Ownable.sol\":2912:3099  function _transferOwnership(address newOwner) internal virtual {... */\n    tag_107:\n        /* \"@openzeppelin/contracts/access/Ownable.sol\":2985:3001  address oldOwner */\n      0x00\n        /* \"@openzeppelin/contracts/access/Ownable.sol\":3004:3010  _owner */\n      dup1\n      0x00\n      swap1\n      sload\n      swap1\n      0x0100\n      exp\n      swap1\n      div\n      0xffffffffffffffffffffffffffffffffffffffff\n      and\n        /* \"@openzeppelin/contracts/access/Ownable.sol\":2985:3010  address oldOwner = _owner */\n      swap1\n      pop\n        /* \"@openzeppelin/contracts/access/Ownable.sol\":3029:3037  newOwner */\n      dup2\n        /* \"@openzeppelin/contracts/access/Ownable.sol\":3020:3026  _owner */\n      0x00\n      dup1\n        /* \"@openzeppelin/contracts/access/Ownable.sol\":3020:3037  _owner = newOwner */\n      0x0100\n      exp\n      dup2\n      sload\n      dup2\n      0xffffffffffffffffffffffffffffffffffffffff\n      mul\n      not\n      and\n      swap1\n      dup4\n      0xffffffffffffffffffffffffffffffffffffffff\n      and\n      mul\n      or\n      swap1\n      sstore\n      pop\n        /* \"@openzeppelin/contracts/access/Ownable.sol\":3083:3091  newOwner */\n      dup2\n        /* \"@openzeppelin/contracts/access/Ownable.sol\":3052:3092  OwnershipTransferred(oldOwner, newOwner) */\n      0xffffffffffffffffffffffffffffffffffffffff\n      and\n        /* \"@openzeppelin/contracts/access/Ownable.sol\":3073:3081  oldOwner */\n      dup2\n        /* \"@openzeppelin/contracts/access/Ownable.sol\":3052:3092  OwnershipTransferred(oldOwner, newOwner) */\n      0xffffffffffffffffffffffffffffffffffffffff\n      and\n      0x8be0079c531659141344cd1fd0a4f28419497f9722a3daafe3b4186f6b6457e0\n      mload(0x40)\n      mload(0x40)\n      dup1\n      swap2\n      sub\n      swap1\n      log3\n        /* \"@openzeppelin/contracts/access/Ownable.sol\":2975:3099  {... */\n      pop\n        /* \"@openzeppelin/contracts/access/Ownable.sol\":2912:3099  function _transferOwnership(address newOwner) internal virtual {... */\n      pop\n      jump\t// out\n        /* \"@openzeppelin/contracts/utils/Context.sol\":656:752  function _msgSender() internal view virtual returns (address) {... */\n    tag_272:\n        /* \"@openzeppelin/contracts/utils/Context.sol\":709:716  address */\n      0x00\n        /* \"@openzeppelin/contracts/utils/Context.sol\":735:745  msg.sender */\n      caller\n        /* \"@openzeppelin/contracts/utils/Context.sol\":728:745  return msg.sender */\n      swap1\n      pop\n        /* \"@openzeppelin/contracts/utils/Context.sol\":656:752  function _msgSender() internal view virtual returns (address) {... */\n      swap1\n      jump\t// out\n        /* \"#utility.yul\":88:205   */\n    tag_280:\n        /* \"#utility.yul\":197:198   */\n      0x00\n        /* \"#utility.yul\":194:195   */\n      dup1\n        /* \"#utility.yul\":187:199   */\n      revert\n        /* \"#utility.yul\":334:411   */\n    tag_282:\n        /* \"#utility.yul\":371:378   */\n      0x00\n        /* \"#utility.yul\":400:405   */\n      dup2\n        /* \"#utility.yul\":389:405   */\n      swap1\n      pop\n        /* \"#utility.yul\":334:411   */\n      swap2\n      swap1\n      pop\n      jump\t// out\n        /* \"#utility.yul\":417:539   */\n    tag_283:\n        /* \"#utility.yul\":490:514   */\n      tag_327\n        /* \"#utility.yul\":508:513   */\n      dup2\n        /* \"#utility.yul\":490:514   */\n      tag_282\n      jump\t// in\n    tag_327:\n        /* \"#utility.yul\":483:488   */\n      dup2\n        /* \"#utility.yul\":480:515   */\n      eq\n        /* \"#utility.yul\":470:533   */\n      tag_328\n      jumpi\n        /* \"#utility.yul\":529:530   */\n      0x00\n        /* \"#utility.yul\":526:527   */\n      dup1\n        /* \"#utility.yul\":519:531   */\n      revert\n        /* \"#utility.yul\":470:533   */\n    tag_328:\n        /* \"#utility.yul\":417:539   */\n      pop\n      jump\t// out\n        /* \"#utility.yul\":545:684   */\n    tag_284:\n        /* \"#utility.yul\":591:596   */\n      0x00\n        /* \"#utility.yul\":629:635   */\n      dup2\n        /* \"#utility.yul\":616:636   */\n      calldataload\n        /* \"#utility.yul\":607:636   */\n      swap1\n      pop\n        /* \"#utility.yul\":645:678   */\n      tag_330\n        /* \"#utility.yul\":672:677   */\n      dup2\n        /* \"#utility.yul\":645:678   */\n      tag_283\n      jump\t// in\n    tag_330:\n        /* \"#utility.yul\":545:684   */\n      swap3\n      swap2\n      pop\n      pop\n      jump\t// out\n        /* \"#utility.yul\":690:1019   */\n    tag_18:\n        /* \"#utility.yul\":749:755   */\n      0x00\n        /* \"#utility.yul\":798:800   */\n      0x20\n        /* \"#utility.yul\":786:795   */\n      dup3\n        /* \"#utility.yul\":777:784   */\n      dup5\n        /* \"#utility.yul\":773:796   */\n      sub\n        /* \"#utility.yul\":769:801   */\n      slt\n        /* \"#utility.yul\":766:885   */\n      iszero\n      tag_332\n      jumpi\n        /* \"#utility.yul\":804:883   */\n      tag_333\n      tag_280\n      jump\t// in\n    tag_333:\n        /* \"#utility.yul\":766:885   */\n    tag_332:\n        /* \"#utility.yul\":924:925   */\n      0x00\n        /* \"#utility.yul\":949:1002   */\n      tag_334\n        /* \"#utility.yul\":994:1001   */\n      dup5\n        /* \"#utility.yul\":985:991   */\n      dup3\n        /* \"#utility.yul\":974:983   */\n      dup6\n        /* \"#utility.yul\":970:992   */\n      add\n        /* \"#utility.yul\":949:1002   */\n      tag_284\n      jump\t// in\n    tag_334:\n        /* \"#utility.yul\":939:1002   */\n      swap2\n      pop\n        /* \"#utility.yul\":895:1012   */\n      pop\n        /* \"#utility.yul\":690:1019   */\n      swap3\n      swap2\n      pop\n      pop\n      jump\t// out\n        /* \"#utility.yul\":1025:1143   */\n    tag_285:\n        /* \"#utility.yul\":1112:1136   */\n      tag_336\n        /* \"#utility.yul\":1130:1135   */\n      dup2\n        /* \"#utility.yul\":1112:1136   */\n      tag_282\n      jump\t// in\n    tag_336:\n        /* \"#utility.yul\":1107:1110   */\n      dup3\n        /* \"#utility.yul\":1100:1137   */\n      mstore\n        /* \"#utility.yul\":1025:1143   */\n      pop\n      pop\n      jump\t// out\n        /* \"#utility.yul\":1149:1481   */\n    tag_23:\n        /* \"#utility.yul\":1270:1274   */\n      0x00\n        /* \"#utility.yul\":1308:1310   */\n      0x40\n        /* \"#utility.yul\":1297:1306   */\n      dup3\n        /* \"#utility.yul\":1293:1311   */\n      add\n        /* \"#utility.yul\":1285:1311   */\n      swap1\n      pop\n        /* \"#utility.yul\":1321:1392   */\n      tag_338\n        /* \"#utility.yul\":1389:1390   */\n      0x00\n        /* \"#utility.yul\":1378:1387   */\n      dup4\n        /* \"#utility.yul\":1374:1391   */\n      add\n        /* \"#utility.yul\":1365:1371   */\n      dup6\n        /* \"#utility.yul\":1321:1392   */\n      tag_285\n      jump\t// in\n    tag_338:\n        /* \"#utility.yul\":1402:1474   */\n      tag_339\n        /* \"#utility.yul\":1470:1472   */\n      0x20\n        /* \"#utility.yul\":1459:1468   */\n      dup4\n        /* \"#utility.yul\":1455:1473   */\n      add\n        /* \"#utility.yul\":1446:1452   */\n      dup5\n        /* \"#utility.yul\":1402:1474   */\n      tag_285\n      jump\t// in\n    tag_339:\n        /* \"#utility.yul\":1149:1481   */\n      swap4\n      swap3\n      pop\n      pop\n      pop\n      jump\t// out\n        /* \"#utility.yul\":1487:1613   */\n    tag_286:\n        /* \"#utility.yul\":1524:1531   */\n      0x00\n        /* \"#utility.yul\":1564:1606   */\n      0xffffffffffffffffffffffffffffffffffffffff\n        /* \"#utility.yul\":1557:1562   */\n      dup3\n        /* \"#utility.yul\":1553:1607   */\n      and\n        /* \"#utility.yul\":1542:1607   */\n      swap1\n      pop\n        /* \"#utility.yul\":1487:1613   */\n      swap2\n      swap1\n      pop\n      jump\t// out\n        /* \"#utility.yul\":1619:1679   */\n    tag_287:\n        /* \"#utility.yul\":1647:1650   */\n      0x00\n        /* \"#utility.yul\":1668:1673   */\n      dup2\n        /* \"#utility.yul\":1661:1673   */\n      swap1\n      pop\n        /* \"#utility.yul\":1619:1679   */\n      swap2\n      swap1\n      pop\n      jump\t// out\n        /* \"#utility.yul\":1685:1827   */\n    tag_288:\n        /* \"#utility.yul\":1735:1744   */\n      0x00\n        /* \"#utility.yul\":1768:1821   */\n      tag_343\n        /* \"#utility.yul\":1786:1820   */\n      tag_344\n        /* \"#utility.yul\":1795:1819   */\n      tag_345\n        /* \"#utility.yul\":1813:1818   */\n      dup5\n        /* \"#utility.yul\":1795:1819   */\n      tag_286\n      jump\t// in\n    tag_345:\n        /* \"#utility.yul\":1786:1820   */\n      tag_287\n      jump\t// in\n    tag_344:\n        /* \"#utility.yul\":1768:1821   */\n      tag_286\n      jump\t// in\n    tag_343:\n        /* \"#utility.yul\":1755:1821   */\n      swap1\n      pop\n        /* \"#utility.yul\":1685:1827   */\n      swap2\n      swap1\n      pop\n      jump\t// out\n        /* \"#utility.yul\":1833:1959   */\n    tag_289:\n        /* \"#utility.yul\":1883:1892   */\n      0x00\n        /* \"#utility.yul\":1916:1953   */\n      tag_347\n        /* \"#utility.yul\":1947:1952   */\n      dup3\n        /* \"#utility.yul\":1916:1953   */\n      tag_288\n      jump\t// in\n    tag_347:\n        /* \"#utility.yul\":1903:1953   */\n      swap1\n      pop\n        /* \"#utility.yul\":1833:1959   */\n      swap2\n      swap1\n      pop\n      jump\t// out\n        /* \"#utility.yul\":1965:2105   */\n    tag_290:\n        /* \"#utility.yul\":2029:2038   */\n      0x00\n        /* \"#utility.yul\":2062:2099   */\n      tag_349\n        /* \"#utility.yul\":2093:2098   */\n      dup3\n        /* \"#utility.yul\":2062:2099   */\n      tag_289\n      jump\t// in\n    tag_349:\n        /* \"#utility.yul\":2049:2099   */\n      swap1\n      pop\n        /* \"#utility.yul\":1965:2105   */\n      swap2\n      swap1\n      pop\n      jump\t// out\n        /* \"#utility.yul\":2111:2270   */\n    tag_291:\n        /* \"#utility.yul\":2212:2263   */\n      tag_351\n        /* \"#utility.yul\":2257:2262   */\n      dup2\n        /* \"#utility.yul\":2212:2263   */\n      tag_290\n      jump\t// in\n    tag_351:\n        /* \"#utility.yul\":2207:2210   */\n      dup3\n        /* \"#utility.yul\":2200:2264   */\n      mstore\n        /* \"#utility.yul\":2111:2270   */\n      pop\n      pop\n      jump\t// out\n        /* \"#utility.yul\":2276:2526   */\n    tag_27:\n        /* \"#utility.yul\":2383:2387   */\n      0x00\n        /* \"#utility.yul\":2421:2423   */\n      0x20\n        /* \"#utility.yul\":2410:2419   */\n      dup3\n        /* \"#utility.yul\":2406:2424   */\n      add\n        /* \"#utility.yul\":2398:2424   */\n      swap1\n      pop\n        /* \"#utility.yul\":2434:2519   */\n      tag_353\n        /* \"#utility.yul\":2516:2517   */\n      0x00\n        /* \"#utility.yul\":2505:2514   */\n      dup4\n        /* \"#utility.yul\":2501:2518   */\n      add\n        /* \"#utility.yul\":2492:2498   */\n      dup5\n        /* \"#utility.yul\":2434:2519   */\n      tag_291\n      jump\t// in\n    tag_353:\n        /* \"#utility.yul\":2276:2526   */\n      swap3\n      swap2\n      pop\n      pop\n      jump\t// out\n        /* \"#utility.yul\":2532:2628   */\n    tag_292:\n        /* \"#utility.yul\":2569:2576   */\n      0x00\n        /* \"#utility.yul\":2598:2622   */\n      tag_355\n        /* \"#utility.yul\":2616:2621   */\n      dup3\n        /* \"#utility.yul\":2598:2622   */\n      tag_286\n      jump\t// in\n    tag_355:\n        /* \"#utility.yul\":2587:2622   */\n      swap1\n      pop\n        /* \"#utility.yul\":2532:2628   */\n      swap2\n      swap1\n      pop\n      jump\t// out\n        /* \"#utility.yul\":2634:2752   */\n    tag_293:\n        /* \"#utility.yul\":2721:2745   */\n      tag_357\n        /* \"#utility.yul\":2739:2744   */\n      dup2\n        /* \"#utility.yul\":2721:2745   */\n      tag_292\n      jump\t// in\n    tag_357:\n        /* \"#utility.yul\":2716:2719   */\n      dup3\n        /* \"#utility.yul\":2709:2746   */\n      mstore\n        /* \"#utility.yul\":2634:2752   */\n      pop\n      pop\n      jump\t// out\n        /* \"#utility.yul\":2758:2980   */\n    tag_36:\n        /* \"#utility.yul\":2851:2855   */\n      0x00\n        /* \"#utility.yul\":2889:2891   */\n      0x20\n        /* \"#utility.yul\":2878:2887   */\n      dup3\n        /* \"#utility.yul\":2874:2892   */\n      add\n        /* \"#utility.yul\":2866:2892   */\n      swap1\n      pop\n        /* \"#utility.yul\":2902:2973   */\n      tag_359\n        /* \"#utility.yul\":2970:2971   */\n      0x00\n        /* \"#utility.yul\":2959:2968   */\n      dup4\n        /* \"#utility.yul\":2955:2972   */\n      add\n        /* \"#utility.yul\":2946:2952   */\n      dup5\n        /* \"#utility.yul\":2902:2973   */\n      tag_293\n      jump\t// in\n    tag_359:\n        /* \"#utility.yul\":2758:2980   */\n      swap3\n      swap2\n      pop\n      pop\n      jump\t// out\n        /* \"#utility.yul\":2986:3460   */\n    tag_42:\n        /* \"#utility.yul\":3054:3060   */\n      0x00\n        /* \"#utility.yul\":3062:3068   */\n      dup1\n        /* \"#utility.yul\":3111:3113   */\n      0x40\n        /* \"#utility.yul\":3099:3108   */\n      dup4\n        /* \"#utility.yul\":3090:3097   */\n      dup6\n        /* \"#utility.yul\":3086:3109   */\n      sub\n        /* \"#utility.yul\":3082:3114   */\n      slt\n        /* \"#utility.yul\":3079:3198   */\n      iszero\n      tag_361\n      jumpi\n        /* \"#utility.yul\":3117:3196   */\n      tag_362\n      tag_280\n      jump\t// in\n    tag_362:\n        /* \"#utility.yul\":3079:3198   */\n    tag_361:\n        /* \"#utility.yul\":3237:3238   */\n      0x00\n        /* \"#utility.yul\":3262:3315   */\n      tag_363\n        /* \"#utility.yul\":3307:3314   */\n      dup6\n        /* \"#utility.yul\":3298:3304   */\n      dup3\n        /* \"#utility.yul\":3287:3296   */\n      dup7\n        /* \"#utility.yul\":3283:3305   */\n      add\n        /* \"#utility.yul\":3262:3315   */\n      tag_284\n      jump\t// in\n    tag_363:\n        /* \"#utility.yul\":3252:3315   */\n      swap3\n      pop\n        /* \"#utility.yul\":3208:3325   */\n      pop\n        /* \"#utility.yul\":3364:3366   */\n      0x20\n        /* \"#utility.yul\":3390:3443   */\n      tag_364\n        /* \"#utility.yul\":3435:3442   */\n      dup6\n        /* \"#utility.yul\":3426:3432   */\n      dup3\n        /* \"#utility.yul\":3415:3424   */\n      dup7\n        /* \"#utility.yul\":3411:3433   */\n      add\n        /* \"#utility.yul\":3390:3443   */\n      tag_284\n      jump\t// in\n    tag_364:\n        /* \"#utility.yul\":3380:3443   */\n      swap2\n      pop\n        /* \"#utility.yul\":3335:3453   */\n      pop\n        /* \"#utility.yul\":2986:3460   */\n      swap3\n      pop\n      swap3\n      swap1\n      pop\n      jump\t// out\n        /* \"#utility.yul\":3466:3588   */\n    tag_294:\n        /* \"#utility.yul\":3539:3563   */\n      tag_366\n        /* \"#utility.yul\":3557:3562   */\n      dup2\n        /* \"#utility.yul\":3539:3563   */\n      tag_292\n      jump\t// in\n    tag_366:\n        /* \"#utility.yul\":3532:3537   */\n      dup2\n        /* \"#utility.yul\":3529:3564   */\n      eq\n        /* \"#utility.yul\":3519:3582   */\n      tag_367\n      jumpi\n        /* \"#utility.yul\":3578:3579   */\n      0x00\n        /* \"#utility.yul\":3575:3576   */\n      dup1\n        /* \"#utility.yul\":3568:3580   */\n      revert\n        /* \"#utility.yul\":3519:3582   */\n    tag_367:\n        /* \"#utility.yul\":3466:3588   */\n      pop\n      jump\t// out\n        /* \"#utility.yul\":3594:3733   */\n    tag_295:\n        /* \"#utility.yul\":3640:3645   */\n      0x00\n        /* \"#utility.yul\":3678:3684   */\n      dup2\n        /* \"#utility.yul\":3665:3685   */\n      calldataload\n        /* \"#utility.yul\":3656:3685   */\n      swap1\n      pop\n        /* \"#utility.yul\":3694:3727   */\n      tag_369\n        /* \"#utility.yul\":3721:3726   */\n      dup2\n        /* \"#utility.yul\":3694:3727   */\n      tag_294\n      jump\t// in\n    tag_369:\n        /* \"#utility.yul\":3594:3733   */\n      swap3\n      swap2\n      pop\n      pop\n      jump\t// out\n        /* \"#utility.yul\":3739:4068   */\n    tag_55:\n        /* \"#utility.yul\":3798:3804   */\n      0x00\n        /* \"#utility.yul\":3847:3849   */\n      0x20\n        /* \"#utility.yul\":3835:3844   */\n      dup3\n        /* \"#utility.yul\":3826:3833   */\n      dup5\n        /* \"#utility.yul\":3822:3845   */\n      sub\n        /* \"#utility.yul\":3818:3850   */\n      slt\n        /* \"#utility.yul\":3815:3934   */\n      iszero\n      tag_371\n      jumpi\n        /* \"#utility.yul\":3853:3932   */\n      tag_372\n      tag_280\n      jump\t// in\n    tag_372:\n        /* \"#utility.yul\":3815:3934   */\n    tag_371:\n        /* \"#utility.yul\":3973:3974   */\n      0x00\n        /* \"#utility.yul\":3998:4051   */\n      tag_373\n        /* \"#utility.yul\":4043:4050   */\n      dup5\n        /* \"#utility.yul\":4034:4040   */\n      dup3\n        /* \"#utility.yul\":4023:4032   */\n      dup6\n        /* \"#utility.yul\":4019:4041   */\n      add\n        /* \"#utility.yul\":3998:4051   */\n      tag_295\n      jump\t// in\n    tag_373:\n        /* \"#utility.yul\":3988:4051   */\n      swap2\n      pop\n        /* \"#utility.yul\":3944:4061   */\n      pop\n        /* \"#utility.yul\":3739:4068   */\n      swap3\n      swap2\n      pop\n      pop\n      jump\t// out\n        /* \"#utility.yul\":4074:4243   */\n    tag_296:\n        /* \"#utility.yul\":4158:4169   */\n      0x00\n        /* \"#utility.yul\":4192:4198   */\n      dup3\n        /* \"#utility.yul\":4187:4190   */\n      dup3\n        /* \"#utility.yul\":4180:4199   */\n      mstore\n        /* \"#utility.yul\":4232:4236   */\n      0x20\n        /* \"#utility.yul\":4227:4230   */\n      dup3\n        /* \"#utility.yul\":4223:4237   */\n      add\n        /* \"#utility.yul\":4208:4237   */\n      swap1\n      pop\n        /* \"#utility.yul\":4074:4243   */\n      swap3\n      swap2\n      pop\n      pop\n      jump\t// out\n        /* \"#utility.yul\":4249:4413   */\n    tag_297:\n        /* \"#utility.yul\":4389:4405   */\n      0x496e76616c696420616d6f756e74000000000000000000000000000000000000\n        /* \"#utility.yul\":4385:4386   */\n      0x00\n        /* \"#utility.yul\":4377:4383   */\n      dup3\n        /* \"#utility.yul\":4373:4387   */\n      add\n        /* \"#utility.yul\":4366:4406   */\n      mstore\n        /* \"#utility.yul\":4249:4413   */\n      pop\n      jump\t// out\n        /* \"#utility.yul\":4419:4785   */\n    tag_298:\n        /* \"#utility.yul\":4561:4564   */\n      0x00\n        /* \"#utility.yul\":4582:4649   */\n      tag_377\n        /* \"#utility.yul\":4646:4648   */\n      0x0e\n        /* \"#utility.yul\":4641:4644   */\n      dup4\n        /* \"#utility.yul\":4582:4649   */\n      tag_296\n      jump\t// in\n    tag_377:\n        /* \"#utility.yul\":4575:4649   */\n      swap2\n      pop\n        /* \"#utility.yul\":4658:4751   */\n      tag_378\n        /* \"#utility.yul\":4747:4750   */\n      dup3\n        /* \"#utility.yul\":4658:4751   */\n      tag_297\n      jump\t// in\n    tag_378:\n        /* \"#utility.yul\":4776:4778   */\n      0x20\n        /* \"#utility.yul\":4771:4774   */\n      dup3\n        /* \"#utility.yul\":4767:4779   */\n      add\n        /* \"#utility.yul\":4760:4779   */\n      swap1\n      pop\n        /* \"#utility.yul\":4419:4785   */\n      swap2\n      swap1\n      pop\n      jump\t// out\n        /* \"#utility.yul\":4791:5210   */\n    tag_60:\n        /* \"#utility.yul\":4957:4961   */\n      0x00\n        /* \"#utility.yul\":4995:4997   */\n      0x20\n        /* \"#utility.yul\":4984:4993   */\n      dup3\n        /* \"#utility.yul\":4980:4998   */\n      add\n        /* \"#utility.yul\":4972:4998   */\n      swap1\n      pop\n        /* \"#utility.yul\":5044:5053   */\n      dup2\n        /* \"#utility.yul\":5038:5042   */\n      dup2\n        /* \"#utility.yul\":5034:5054   */\n      sub\n        /* \"#utility.yul\":5030:5031   */\n      0x00\n        /* \"#utility.yul\":5019:5028   */\n      dup4\n        /* \"#utility.yul\":5015:5032   */\n      add\n        /* \"#utility.yul\":5008:5055   */\n      mstore\n        /* \"#utility.yul\":5072:5203   */\n      tag_380\n        /* \"#utility.yul\":5198:5202   */\n      dup2\n        /* \"#utility.yul\":5072:5203   */\n      tag_298\n      jump\t// in\n    tag_380:\n        /* \"#utility.yul\":5064:5203   */\n      swap1\n      pop\n        /* \"#utility.yul\":4791:5210   */\n      swap2\n      swap1\n      pop\n      jump\t// out\n        /* \"#utility.yul\":5216:5359   */\n    tag_299:\n        /* \"#utility.yul\":5273:5278   */\n      0x00\n        /* \"#utility.yul\":5304:5310   */\n      dup2\n        /* \"#utility.yul\":5298:5311   */\n      mload\n        /* \"#utility.yul\":5289:5311   */\n      swap1\n      pop\n        /* \"#utility.yul\":5320:5353   */\n      tag_382\n        /* \"#utility.yul\":5347:5352   */\n      dup2\n        /* \"#utility.yul\":5320:5353   */\n      tag_283\n      jump\t// in\n    tag_382:\n        /* \"#utility.yul\":5216:5359   */\n      swap3\n      swap2\n      pop\n      pop\n      jump\t// out\n        /* \"#utility.yul\":5365:5716   */\n    tag_65:\n        /* \"#utility.yul\":5435:5441   */\n      0x00\n        /* \"#utility.yul\":5484:5486   */\n      0x20\n        /* \"#utility.yul\":5472:5481   */\n      dup3\n        /* \"#utility.yul\":5463:5470   */\n      dup5\n        /* \"#utility.yul\":5459:5482   */\n      sub\n        /* \"#utility.yul\":5455:5487   */\n      slt\n        /* \"#utility.yul\":5452:5571   */\n      iszero\n      tag_384\n      jumpi\n        /* \"#utility.yul\":5490:5569   */\n      tag_385\n      tag_280\n      jump\t// in\n    tag_385:\n        /* \"#utility.yul\":5452:5571   */\n    tag_384:\n        /* \"#utility.yul\":5610:5611   */\n      0x00\n        /* \"#utility.yul\":5635:5699   */\n      tag_386\n        /* \"#utility.yul\":5691:5698   */\n      dup5\n        /* \"#utility.yul\":5682:5688   */\n      dup3\n        /* \"#utility.yul\":5671:5680   */\n      dup6\n        /* \"#utility.yul\":5667:5689   */\n      add\n        /* \"#utility.yul\":5635:5699   */\n      tag_299\n      jump\t// in\n    tag_386:\n        /* \"#utility.yul\":5625:5699   */\n      swap2\n      pop\n        /* \"#utility.yul\":5581:5709   */\n      pop\n        /* \"#utility.yul\":5365:5716   */\n      swap3\n      swap2\n      pop\n      pop\n      jump\t// out\n        /* \"#utility.yul\":5722:5902   */\n    tag_300:\n        /* \"#utility.yul\":5770:5847   */\n      0x4e487b7100000000000000000000000000000000000000000000000000000000\n        /* \"#utility.yul\":5767:5768   */\n      0x00\n        /* \"#utility.yul\":5760:5848   */\n      mstore\n        /* \"#utility.yul\":5867:5871   */\n      0x11\n        /* \"#utility.yul\":5864:5865   */\n      0x04\n        /* \"#utility.yul\":5857:5872   */\n      mstore\n        /* \"#utility.yul\":5891:5895   */\n      0x24\n        /* \"#utility.yul\":5888:5889   */\n      0x00\n        /* \"#utility.yul\":5881:5896   */\n      revert\n        /* \"#utility.yul\":5908:6318   */\n    tag_73:\n        /* \"#utility.yul\":5948:5955   */\n      0x00\n        /* \"#utility.yul\":5971:5991   */\n      tag_389\n        /* \"#utility.yul\":5989:5990   */\n      dup3\n        /* \"#utility.yul\":5971:5991   */\n      tag_282\n      jump\t// in\n    tag_389:\n        /* \"#utility.yul\":5966:5991   */\n      swap2\n      pop\n        /* \"#utility.yul\":6005:6025   */\n      tag_390\n        /* \"#utility.yul\":6023:6024   */\n      dup4\n        /* \"#utility.yul\":6005:6025   */\n      tag_282\n      jump\t// in\n    tag_390:\n        /* \"#utility.yul\":6000:6025   */\n      swap3\n      pop\n        /* \"#utility.yul\":6060:6061   */\n      dup3\n        /* \"#utility.yul\":6057:6058   */\n      dup3\n        /* \"#utility.yul\":6053:6062   */\n      mul\n        /* \"#utility.yul\":6082:6112   */\n      tag_391\n        /* \"#utility.yul\":6100:6111   */\n      dup2\n        /* \"#utility.yul\":6082:6112   */\n      tag_282\n      jump\t// in\n    tag_391:\n        /* \"#utility.yul\":6071:6112   */\n      swap2\n      pop\n        /* \"#utility.yul\":6261:6262   */\n      dup3\n        /* \"#utility.yul\":6252:6259   */\n      dup3\n        /* \"#utility.yul\":6248:6263   */\n      div\n        /* \"#utility.yul\":6245:6246   */\n      dup5\n        /* \"#utility.yul\":6242:6264   */\n      eq\n        /* \"#utility.yul\":6222:6223   */\n      dup4\n        /* \"#utility.yul\":6215:6224   */\n      iszero\n        /* \"#utility.yul\":6195:6278   */\n      or\n        /* \"#utility.yul\":6172:6311   */\n      tag_392\n      jumpi\n        /* \"#utility.yul\":6291:6309   */\n      tag_393\n      tag_300\n      jump\t// in\n    tag_393:\n        /* \"#utility.yul\":6172:6311   */\n    tag_392:\n        /* \"#utility.yul\":5956:6318   */\n      pop\n        /* \"#utility.yul\":5908:6318   */\n      swap3\n      swap2\n      pop\n      pop\n      jump\t// out\n        /* \"#utility.yul\":6324:6766   */\n    tag_75:\n        /* \"#utility.yul\":6473:6477   */\n      0x00\n        /* \"#utility.yul\":6511:6513   */\n      0x60\n        /* \"#utility.yul\":6500:6509   */\n      dup3\n        /* \"#utility.yul\":6496:6514   */\n      add\n        /* \"#utility.yul\":6488:6514   */\n      swap1\n      pop\n        /* \"#utility.yul\":6524:6595   */\n      tag_395\n        /* \"#utility.yul\":6592:6593   */\n      0x00\n        /* \"#utility.yul\":6581:6590   */\n      dup4\n        /* \"#utility.yul\":6577:6594   */\n      add\n        /* \"#utility.yul\":6568:6574   */\n      dup7\n        /* \"#utility.yul\":6524:6595   */\n      tag_293\n      jump\t// in\n    tag_395:\n        /* \"#utility.yul\":6605:6677   */\n      tag_396\n        /* \"#utility.yul\":6673:6675   */\n      0x20\n        /* \"#utility.yul\":6662:6671   */\n      dup4\n        /* \"#utility.yul\":6658:6676   */\n      add\n        /* \"#utility.yul\":6649:6655   */\n      dup6\n        /* \"#utility.yul\":6605:6677   */\n      tag_293\n      jump\t// in\n    tag_396:\n        /* \"#utility.yul\":6687:6759   */\n      tag_397\n        /* \"#utility.yul\":6755:6757   */\n      0x40\n        /* \"#utility.yul\":6744:6753   */\n      dup4\n        /* \"#utility.yul\":6740:6758   */\n      add\n        /* \"#utility.yul\":6731:6737   */\n      dup5\n        /* \"#utility.yul\":6687:6759   */\n      tag_285\n      jump\t// in\n    tag_397:\n        /* \"#utility.yul\":6324:6766   */\n      swap5\n      swap4\n      pop\n      pop\n      pop\n      pop\n      jump\t// out\n        /* \"#utility.yul\":6772:6862   */\n    tag_301:\n        /* \"#utility.yul\":6806:6813   */\n      0x00\n        /* \"#utility.yul\":6849:6854   */\n      dup2\n        /* \"#utility.yul\":6842:6855   */\n      iszero\n        /* \"#utility.yul\":6835:6856   */\n      iszero\n        /* \"#utility.yul\":6824:6856   */\n      swap1\n      pop\n        /* \"#utility.yul\":6772:6862   */\n      swap2\n      swap1\n      pop\n      jump\t// out\n        /* \"#utility.yul\":6868:6984   */\n    tag_302:\n        /* \"#utility.yul\":6938:6959   */\n      tag_400\n        /* \"#utility.yul\":6953:6958   */\n      dup2\n        /* \"#utility.yul\":6938:6959   */\n      tag_301\n      jump\t// in\n    tag_400:\n        /* \"#utility.yul\":6931:6936   */\n      dup2\n        /* \"#utility.yul\":6928:6960   */\n      eq\n        /* \"#utility.yul\":6918:6978   */\n      tag_401\n      jumpi\n        /* \"#utility.yul\":6974:6975   */\n      0x00\n        /* \"#utility.yul\":6971:6972   */\n      dup1\n        /* \"#utility.yul\":6964:6976   */\n      revert\n        /* \"#utility.yul\":6918:6978   */\n    tag_401:\n        /* \"#utility.yul\":6868:6984   */\n      pop\n      jump\t// out\n        /* \"#utility.yul\":6990:7127   */\n    tag_303:\n        /* \"#utility.yul\":7044:7049   */\n      0x00\n        /* \"#utility.yul\":7075:7081   */\n      dup2\n        /* \"#utility.yul\":7069:7082   */\n      mload\n        /* \"#utility.yul\":7060:7082   */\n      swap1\n      pop\n        /* \"#utility.yul\":7091:7121   */\n      tag_403\n        /* \"#utility.yul\":7115:7120   */\n      dup2\n        /* \"#utility.yul\":7091:7121   */\n      tag_302\n      jump\t// in\n    tag_403:\n        /* \"#utility.yul\":6990:7127   */\n      swap3\n      swap2\n      pop\n      pop\n      jump\t// out\n        /* \"#utility.yul\":7133:7478   */\n    tag_79:\n        /* \"#utility.yul\":7200:7206   */\n      0x00\n        /* \"#utility.yul\":7249:7251   */\n      0x20\n        /* \"#utility.yul\":7237:7246   */\n      dup3\n        /* \"#utility.yul\":7228:7235   */\n      dup5\n        /* \"#utility.yul\":7224:7247   */\n      sub\n        /* \"#utility.yul\":7220:7252   */\n      slt\n        /* \"#utility.yul\":7217:7336   */\n      iszero\n      tag_405\n      jumpi\n        /* \"#utility.yul\":7255:7334   */\n      tag_406\n      tag_280\n      jump\t// in\n    tag_406:\n        /* \"#utility.yul\":7217:7336   */\n    tag_405:\n        /* \"#utility.yul\":7375:7376   */\n      0x00\n        /* \"#utility.yul\":7400:7461   */\n      tag_407\n        /* \"#utility.yul\":7453:7460   */\n      dup5\n        /* \"#utility.yul\":7444:7450   */\n      dup3\n        /* \"#utility.yul\":7433:7442   */\n      dup6\n        /* \"#utility.yul\":7429:7451   */\n      add\n        /* \"#utility.yul\":7400:7461   */\n      tag_303\n      jump\t// in\n    tag_407:\n        /* \"#utility.yul\":7390:7461   */\n      swap2\n      pop\n        /* \"#utility.yul\":7346:7471   */\n      pop\n        /* \"#utility.yul\":7133:7478   */\n      swap3\n      swap2\n      pop\n      pop\n      jump\t// out\n        /* \"#utility.yul\":7484:7816   */\n    tag_82:\n        /* \"#utility.yul\":7605:7609   */\n      0x00\n        /* \"#utility.yul\":7643:7645   */\n      0x40\n        /* \"#utility.yul\":7632:7641   */\n      dup3\n        /* \"#utility.yul\":7628:7646   */\n      add\n        /* \"#utility.yul\":7620:7646   */\n      swap1\n      pop\n        /* \"#utility.yul\":7656:7727   */\n      tag_409\n        /* \"#utility.yul\":7724:7725   */\n      0x00\n        /* \"#utility.yul\":7713:7722   */\n      dup4\n        /* \"#utility.yul\":7709:7726   */\n      add\n        /* \"#utility.yul\":7700:7706   */\n      dup6\n        /* \"#utility.yul\":7656:7727   */\n      tag_293\n      jump\t// in\n    tag_409:\n        /* \"#utility.yul\":7737:7809   */\n      tag_410\n        /* \"#utility.yul\":7805:7807   */\n      0x20\n        /* \"#utility.yul\":7794:7803   */\n      dup4\n        /* \"#utility.yul\":7790:7808   */\n      add\n        /* \"#utility.yul\":7781:7787   */\n      dup5\n        /* \"#utility.yul\":7737:7809   */\n      tag_285\n      jump\t// in\n    tag_410:\n        /* \"#utility.yul\":7484:7816   */\n      swap4\n      swap3\n      pop\n      pop\n      pop\n      jump\t// out\n        /* \"#utility.yul\":7822:8375   */\n    tag_89:\n        /* \"#utility.yul\":7999:8003   */\n      0x00\n        /* \"#utility.yul\":8037:8040   */\n      0x80\n        /* \"#utility.yul\":8026:8035   */\n      dup3\n        /* \"#utility.yul\":8022:8041   */\n      add\n        /* \"#utility.yul\":8014:8041   */\n      swap1\n      pop\n        /* \"#utility.yul\":8051:8122   */\n      tag_412\n        /* \"#utility.yul\":8119:8120   */\n      0x00\n        /* \"#utility.yul\":8108:8117   */\n      dup4\n        /* \"#utility.yul\":8104:8121   */\n      add\n        /* \"#utility.yul\":8095:8101   */\n      dup8\n        /* \"#utility.yul\":8051:8122   */\n      tag_293\n      jump\t// in\n    tag_412:\n        /* \"#utility.yul\":8132:8204   */\n      tag_413\n        /* \"#utility.yul\":8200:8202   */\n      0x20\n        /* \"#utility.yul\":8189:8198   */\n      dup4\n        /* \"#utility.yul\":8185:8203   */\n      add\n        /* \"#utility.yul\":8176:8182   */\n      dup7\n        /* \"#utility.yul\":8132:8204   */\n      tag_293\n      jump\t// in\n    tag_413:\n        /* \"#utility.yul\":8214:8286   */\n      tag_414\n        /* \"#utility.yul\":8282:8284   */\n      0x40\n        /* \"#utility.yul\":8271:8280   */\n      dup4\n        /* \"#utility.yul\":8267:8285   */\n      add\n        /* \"#utility.yul\":8258:8264   */\n      dup6\n        /* \"#utility.yul\":8214:8286   */\n      tag_285\n      jump\t// in\n    tag_414:\n        /* \"#utility.yul\":8296:8368   */\n      tag_415\n        /* \"#utility.yul\":8364:8366   */\n      0x60\n        /* \"#utility.yul\":8353:8362   */\n      dup4\n        /* \"#utility.yul\":8349:8367   */\n      add\n        /* \"#utility.yul\":8340:8346   */\n      dup5\n        /* \"#utility.yul\":8296:8368   */\n      tag_285\n      jump\t// in\n    tag_415:\n        /* \"#utility.yul\":7822:8375   */\n      swap6\n      swap5\n      pop\n      pop\n      pop\n      pop\n      pop\n      jump\t// out\n        /* \"#utility.yul\":8381:8561   */\n    tag_304:\n        /* \"#utility.yul\":8429:8506   */\n      0x4e487b7100000000000000000000000000000000000000000000000000000000\n        /* \"#utility.yul\":8426:8427   */\n      0x00\n        /* \"#utility.yul\":8419:8507   */\n      mstore\n        /* \"#utility.yul\":8526:8530   */\n      0x12\n        /* \"#utility.yul\":8523:8524   */\n      0x04\n        /* \"#utility.yul\":8516:8531   */\n      mstore\n        /* \"#utility.yul\":8550:8554   */\n      0x24\n        /* \"#utility.yul\":8547:8548   */\n      0x00\n        /* \"#utility.yul\":8540:8555   */\n      revert\n        /* \"#utility.yul\":8567:8752   */\n    tag_96:\n        /* \"#utility.yul\":8607:8608   */\n      0x00\n        /* \"#utility.yul\":8624:8644   */\n      tag_418\n        /* \"#utility.yul\":8642:8643   */\n      dup3\n        /* \"#utility.yul\":8624:8644   */\n      tag_282\n      jump\t// in\n    tag_418:\n        /* \"#utility.yul\":8619:8644   */\n      swap2\n      pop\n        /* \"#utility.yul\":8658:8678   */\n      tag_419\n        /* \"#utility.yul\":8676:8677   */\n      dup4\n        /* \"#utility.yul\":8658:8678   */\n      tag_282\n      jump\t// in\n    tag_419:\n        /* \"#utility.yul\":8653:8678   */\n      swap3\n      pop\n        /* \"#utility.yul\":8697:8698   */\n      dup3\n        /* \"#utility.yul\":8687:8722   */\n      tag_420\n      jumpi\n        /* \"#utility.yul\":8702:8720   */\n      tag_421\n      tag_304\n      jump\t// in\n    tag_421:\n        /* \"#utility.yul\":8687:8722   */\n    tag_420:\n        /* \"#utility.yul\":8744:8745   */\n      dup3\n        /* \"#utility.yul\":8741:8742   */\n      dup3\n        /* \"#utility.yul\":8737:8746   */\n      div\n        /* \"#utility.yul\":8732:8746   */\n      swap1\n      pop\n        /* \"#utility.yul\":8567:8752   */\n      swap3\n      swap2\n      pop\n      pop\n      jump\t// out\n        /* \"#utility.yul\":8758:8929   */\n    tag_305:\n        /* \"#utility.yul\":8898:8921   */\n      0x496e73756666696369656e742072657365727665730000000000000000000000\n        /* \"#utility.yul\":8894:8895   */\n      0x00\n        /* \"#utility.yul\":8886:8892   */\n      dup3\n        /* \"#utility.yul\":8882:8896   */\n      add\n        /* \"#utility.yul\":8875:8922   */\n      mstore\n        /* \"#utility.yul\":8758:8929   */\n      pop\n      jump\t// out\n        /* \"#utility.yul\":8935:9301   */\n    tag_306:\n        /* \"#utility.yul\":9077:9080   */\n      0x00\n        /* \"#utility.yul\":9098:9165   */\n      tag_424\n        /* \"#utility.yul\":9162:9164   */\n      0x15\n        /* \"#utility.yul\":9157:9160   */\n      dup4\n        /* \"#utility.yul\":9098:9165   */\n      tag_296\n      jump\t// in\n    tag_424:\n        /* \"#utility.yul\":9091:9165   */\n      swap2\n      pop\n        /* \"#utility.yul\":9174:9267   */\n      tag_425\n        /* \"#utility.yul\":9263:9266   */\n      dup3\n        /* \"#utility.yul\":9174:9267   */\n      tag_305\n      jump\t// in\n    tag_425:\n        /* \"#utility.yul\":9292:9294   */\n      0x20\n        /* \"#utility.yul\":9287:9290   */\n      dup3\n        /* \"#utility.yul\":9283:9295   */\n      add\n        /* \"#utility.yul\":9276:9295   */\n      swap1\n      pop\n        /* \"#utility.yul\":8935:9301   */\n      swap2\n      swap1\n      pop\n      jump\t// out\n        /* \"#utility.yul\":9307:9726   */\n    tag_121:\n        /* \"#utility.yul\":9473:9477   */\n      0x00\n        /* \"#utility.yul\":9511:9513   */\n      0x20\n        /* \"#utility.yul\":9500:9509   */\n      dup3\n        /* \"#utility.yul\":9496:9514   */\n      add\n        /* \"#utility.yul\":9488:9514   */\n      swap1\n      pop\n        /* \"#utility.yul\":9560:9569   */\n      dup2\n        /* \"#utility.yul\":9554:9558   */\n      dup2\n        /* \"#utility.yul\":9550:9570   */\n      sub\n        /* \"#utility.yul\":9546:9547   */\n      0x00\n        /* \"#utility.yul\":9535:9544   */\n      dup4\n        /* \"#utility.yul\":9531:9548   */\n      add\n        /* \"#utility.yul\":9524:9571   */\n      mstore\n        /* \"#utility.yul\":9588:9719   */\n      tag_427\n        /* \"#utility.yul\":9714:9718   */\n      dup2\n        /* \"#utility.yul\":9588:9719   */\n      tag_306\n      jump\t// in\n    tag_427:\n        /* \"#utility.yul\":9580:9719   */\n      swap1\n      pop\n        /* \"#utility.yul\":9307:9726   */\n      swap2\n      swap1\n      pop\n      jump\t// out\n        /* \"#utility.yul\":9732:9897   */\n    tag_307:\n        /* \"#utility.yul\":9872:9889   */\n      0x496e76616c696420616d6f756e74730000000000000000000000000000000000\n        /* \"#utility.yul\":9868:9869   */\n      0x00\n        /* \"#utility.yul\":9860:9866   */\n      dup3\n        /* \"#utility.yul\":9856:9870   */\n      add\n        /* \"#utility.yul\":9849:9890   */\n      mstore\n        /* \"#utility.yul\":9732:9897   */\n      pop\n      jump\t// out\n        /* \"#utility.yul\":9903:10269   */\n    tag_308:\n        /* \"#utility.yul\":10045:10048   */\n      0x00\n        /* \"#utility.yul\":10066:10133   */\n      tag_430\n        /* \"#utility.yul\":10130:10132   */\n      0x0f\n        /* \"#utility.yul\":10125:10128   */\n      dup4\n        /* \"#utility.yul\":10066:10133   */\n      tag_296\n      jump\t// in\n    tag_430:\n        /* \"#utility.yul\":10059:10133   */\n      swap2\n      pop\n        /* \"#utility.yul\":10142:10235   */\n      tag_431\n        /* \"#utility.yul\":10231:10234   */\n      dup3\n        /* \"#utility.yul\":10142:10235   */\n      tag_307\n      jump\t// in\n    tag_431:\n        /* \"#utility.yul\":10260:10262   */\n      0x20\n        /* \"#utility.yul\":10255:10258   */\n      dup3\n        /* \"#utility.yul\":10251:10263   */\n      add\n        /* \"#utility.yul\":10244:10263   */\n      swap1\n      pop\n        /* \"#utility.yul\":9903:10269   */\n      swap2\n      swap1\n      pop\n      jump\t// out\n        /* \"#utility.yul\":10275:10694   */\n    tag_136:\n        /* \"#utility.yul\":10441:10445   */\n      0x00\n        /* \"#utility.yul\":10479:10481   */\n      0x20\n        /* \"#utility.yul\":10468:10477   */\n      dup3\n        /* \"#utility.yul\":10464:10482   */\n      add\n        /* \"#utility.yul\":10456:10482   */\n      swap1\n      pop\n        /* \"#utility.yul\":10528:10537   */\n      dup2\n        /* \"#utility.yul\":10522:10526   */\n      dup2\n        /* \"#utility.yul\":10518:10538   */\n      sub\n        /* \"#utility.yul\":10514:10515   */\n      0x00\n        /* \"#utility.yul\":10503:10512   */\n      dup4\n        /* \"#utility.yul\":10499:10516   */\n      add\n        /* \"#utility.yul\":10492:10539   */\n      mstore\n        /* \"#utility.yul\":10556:10687   */\n      tag_433\n        /* \"#utility.yul\":10682:10686   */\n      dup2\n        /* \"#utility.yul\":10556:10687   */\n      tag_308\n      jump\t// in\n    tag_433:\n        /* \"#utility.yul\":10548:10687   */\n      swap1\n      pop\n        /* \"#utility.yul\":10275:10694   */\n      swap2\n      swap1\n      pop\n      jump\t// out\n        /* \"#utility.yul\":10700:10870   */\n    tag_309:\n        /* \"#utility.yul\":10840:10862   */\n      0x506f6f6c204e6f7420496e697469616c697a6564000000000000000000000000\n        /* \"#utility.yul\":10836:10837   */\n      0x00\n        /* \"#utility.yul\":10828:10834   */\n      dup3\n        /* \"#utility.yul\":10824:10838   */\n      add\n        /* \"#utility.yul\":10817:10863   */\n      mstore\n        /* \"#utility.yul\":10700:10870   */\n      pop\n      jump\t// out\n        /* \"#utility.yul\":10876:11242   */\n    tag_310:\n        /* \"#utility.yul\":11018:11021   */\n      0x00\n        /* \"#utility.yul\":11039:11106   */\n      tag_436\n        /* \"#utility.yul\":11103:11105   */\n      0x14\n        /* \"#utility.yul\":11098:11101   */\n      dup4\n        /* \"#utility.yul\":11039:11106   */\n      tag_296\n      jump\t// in\n    tag_436:\n        /* \"#utility.yul\":11032:11106   */\n      swap2\n      pop\n        /* \"#utility.yul\":11115:11208   */\n      tag_437\n        /* \"#utility.yul\":11204:11207   */\n      dup3\n        /* \"#utility.yul\":11115:11208   */\n      tag_309\n      jump\t// in\n    tag_437:\n        /* \"#utility.yul\":11233:11235   */\n      0x20\n        /* \"#utility.yul\":11228:11231   */\n      dup3\n        /* \"#utility.yul\":11224:11236   */\n      add\n        /* \"#utility.yul\":11217:11236   */\n      swap1\n      pop\n        /* \"#utility.yul\":10876:11242   */\n      swap2\n      swap1\n      pop\n      jump\t// out\n        /* \"#utility.yul\":11248:11667   */\n    tag_148:\n        /* \"#utility.yul\":11414:11418   */\n      0x00\n        /* \"#utility.yul\":11452:11454   */\n      0x20\n        /* \"#utility.yul\":11441:11450   */\n      dup3\n        /* \"#utility.yul\":11437:11455   */\n      add\n        /* \"#utility.yul\":11429:11455   */\n      swap1\n      pop\n        /* \"#utility.yul\":11501:11510   */\n      dup2\n        /* \"#utility.yul\":11495:11499   */\n      dup2\n        /* \"#utility.yul\":11491:11511   */\n      sub\n        /* \"#utility.yul\":11487:11488   */\n      0x00\n        /* \"#utility.yul\":11476:11485   */\n      dup4\n        /* \"#utility.yul\":11472:11489   */\n      add\n        /* \"#utility.yul\":11465:11512   */\n      mstore\n        /* \"#utility.yul\":11529:11660   */\n      tag_439\n        /* \"#utility.yul\":11655:11659   */\n      dup2\n        /* \"#utility.yul\":11529:11660   */\n      tag_310\n      jump\t// in\n    tag_439:\n        /* \"#utility.yul\":11521:11660   */\n      swap1\n      pop\n        /* \"#utility.yul\":11248:11667   */\n      swap2\n      swap1\n      pop\n      jump\t// out\n        /* \"#utility.yul\":11673:11846   */\n    tag_311:\n        /* \"#utility.yul\":11813:11838   */\n      0x496e76616c6964206c697175696469747920726174696f000000000000000000\n        /* \"#utility.yul\":11809:11810   */\n      0x00\n        /* \"#utility.yul\":11801:11807   */\n      dup3\n        /* \"#utility.yul\":11797:11811   */\n      add\n        /* \"#utility.yul\":11790:11839   */\n      mstore\n        /* \"#utility.yul\":11673:11846   */\n      pop\n      jump\t// out\n        /* \"#utility.yul\":11852:12218   */\n    tag_312:\n        /* \"#utility.yul\":11994:11997   */\n      0x00\n        /* \"#utility.yul\":12015:12082   */\n      tag_442\n        /* \"#utility.yul\":12079:12081   */\n      0x17\n        /* \"#utility.yul\":12074:12077   */\n      dup4\n        /* \"#utility.yul\":12015:12082   */\n      tag_296\n      jump\t// in\n    tag_442:\n        /* \"#utility.yul\":12008:12082   */\n      swap2\n      pop\n        /* \"#utility.yul\":12091:12184   */\n      tag_443\n        /* \"#utility.yul\":12180:12183   */\n      dup3\n        /* \"#utility.yul\":12091:12184   */\n      tag_311\n      jump\t// in\n    tag_443:\n        /* \"#utility.yul\":12209:12211   */\n      0x20\n        /* \"#utility.yul\":12204:12207   */\n      dup3\n        /* \"#utility.yul\":12200:12212   */\n      add\n        /* \"#utility.yul\":12193:12212   */\n      swap1\n      pop\n        /* \"#utility.yul\":11852:12218   */\n      swap2\n      swap1\n      pop\n      jump\t// out\n        /* \"#utility.yul\":12224:12643   */\n    tag_174:\n        /* \"#utility.yul\":12390:12394   */\n      0x00\n        /* \"#utility.yul\":12428:12430   */\n      0x20\n        /* \"#utility.yul\":12417:12426   */\n      dup3\n        /* \"#utility.yul\":12413:12431   */\n      add\n        /* \"#utility.yul\":12405:12431   */\n      swap1\n      pop\n        /* \"#utility.yul\":12477:12486   */\n      dup2\n        /* \"#utility.yul\":12471:12475   */\n      dup2\n        /* \"#utility.yul\":12467:12487   */\n      sub\n        /* \"#utility.yul\":12463:12464   */\n      0x00\n        /* \"#utility.yul\":12452:12461   */\n      dup4\n        /* \"#utility.yul\":12448:12465   */\n      add\n        /* \"#utility.yul\":12441:12488   */\n      mstore\n        /* \"#utility.yul\":12505:12636   */\n      tag_445\n        /* \"#utility.yul\":12631:12635   */\n      dup2\n        /* \"#utility.yul\":12505:12636   */\n      tag_312\n      jump\t// in\n    tag_445:\n        /* \"#utility.yul\":12497:12636   */\n      swap1\n      pop\n        /* \"#utility.yul\":12224:12643   */\n      swap2\n      swap1\n      pop\n      jump\t// out\n        /* \"#utility.yul\":12649:12875   */\n    tag_313:\n        /* \"#utility.yul\":12789:12823   */\n      0x496e76616c696420726174696f3a20546f6b656e42206d757374206265203478\n        /* \"#utility.yul\":12785:12786   */\n      0x00\n        /* \"#utility.yul\":12777:12783   */\n      dup3\n        /* \"#utility.yul\":12773:12787   */\n      add\n        /* \"#utility.yul\":12766:12824   */\n      mstore\n        /* \"#utility.yul\":12858:12867   */\n      0x20546f6b656e4100000000000000000000000000000000000000000000000000\n        /* \"#utility.yul\":12853:12855   */\n      0x20\n        /* \"#utility.yul\":12845:12851   */\n      dup3\n        /* \"#utility.yul\":12841:12856   */\n      add\n        /* \"#utility.yul\":12834:12868   */\n      mstore\n        /* \"#utility.yul\":12649:12875   */\n      pop\n      jump\t// out\n        /* \"#utility.yul\":12881:13247   */\n    tag_314:\n        /* \"#utility.yul\":13023:13026   */\n      0x00\n        /* \"#utility.yul\":13044:13111   */\n      tag_448\n        /* \"#utility.yul\":13108:13110   */\n      0x27\n        /* \"#utility.yul\":13103:13106   */\n      dup4\n        /* \"#utility.yul\":13044:13111   */\n      tag_296\n      jump\t// in\n    tag_448:\n        /* \"#utility.yul\":13037:13111   */\n      swap2\n      pop\n        /* \"#utility.yul\":13120:13213   */\n      tag_449\n        /* \"#utility.yul\":13209:13212   */\n      dup3\n        /* \"#utility.yul\":13120:13213   */\n      tag_313\n      jump\t// in\n    tag_449:\n        /* \"#utility.yul\":13238:13240   */\n      0x40\n        /* \"#utility.yul\":13233:13236   */\n      dup3\n        /* \"#utility.yul\":13229:13241   */\n      add\n        /* \"#utility.yul\":13222:13241   */\n      swap1\n      pop\n        /* \"#utility.yul\":12881:13247   */\n      swap2\n      swap1\n      pop\n      jump\t// out\n        /* \"#utility.yul\":13253:13672   */\n    tag_235:\n        /* \"#utility.yul\":13419:13423   */\n      0x00\n        /* \"#utility.yul\":13457:13459   */\n      0x20\n        /* \"#utility.yul\":13446:13455   */\n      dup3\n        /* \"#utility.yul\":13442:13460   */\n      add\n        /* \"#utility.yul\":13434:13460   */\n      swap1\n      pop\n        /* \"#utility.yul\":13506:13515   */\n      dup2\n        /* \"#utility.yul\":13500:13504   */\n      dup2\n        /* \"#utility.yul\":13496:13516   */\n      sub\n        /* \"#utility.yul\":13492:13493   */\n      0x00\n        /* \"#utility.yul\":13481:13490   */\n      dup4\n        /* \"#utility.yul\":13477:13494   */\n      add\n        /* \"#utility.yul\":13470:13517   */\n      mstore\n        /* \"#utility.yul\":13534:13665   */\n      tag_451\n        /* \"#utility.yul\":13660:13664   */\n      dup2\n        /* \"#utility.yul\":13534:13665   */\n      tag_314\n      jump\t// in\n    tag_451:\n        /* \"#utility.yul\":13526:13665   */\n      swap1\n      pop\n        /* \"#utility.yul\":13253:13672   */\n      swap2\n      swap1\n      pop\n      jump\t// out\n        /* \"#utility.yul\":13678:13851   */\n    tag_315:\n        /* \"#utility.yul\":13818:13843   */\n      0x546f6b656e2041207472616e73666572206661696c6564000000000000000000\n        /* \"#utility.yul\":13814:13815   */\n      0x00\n        /* \"#utility.yul\":13806:13812   */\n      dup3\n        /* \"#utility.yul\":13802:13816   */\n      add\n        /* \"#utility.yul\":13795:13844   */\n      mstore\n        /* \"#utility.yul\":13678:13851   */\n      pop\n      jump\t// out\n        /* \"#utility.yul\":13857:14223   */\n    tag_316:\n        /* \"#utility.yul\":13999:14002   */\n      0x00\n        /* \"#utility.yul\":14020:14087   */\n      tag_454\n        /* \"#utility.yul\":14084:14086   */\n      0x17\n        /* \"#utility.yul\":14079:14082   */\n      dup4\n        /* \"#utility.yul\":14020:14087   */\n      tag_296\n      jump\t// in\n    tag_454:\n        /* \"#utility.yul\":14013:14087   */\n      swap2\n      pop\n        /* \"#utility.yul\":14096:14189   */\n      tag_455\n        /* \"#utility.yul\":14185:14188   */\n      dup3\n        /* \"#utility.yul\":14096:14189   */\n      tag_315\n      jump\t// in\n    tag_455:\n        /* \"#utility.yul\":14214:14216   */\n      0x20\n        /* \"#utility.yul\":14209:14212   */\n      dup3\n        /* \"#utility.yul\":14205:14217   */\n      add\n        /* \"#utility.yul\":14198:14217   */\n      swap1\n      pop\n        /* \"#utility.yul\":13857:14223   */\n      swap2\n      swap1\n      pop\n      jump\t// out\n        /* \"#utility.yul\":14229:14648   */\n    tag_243:\n        /* \"#utility.yul\":14395:14399   */\n      0x00\n        /* \"#utility.yul\":14433:14435   */\n      0x20\n        /* \"#utility.yul\":14422:14431   */\n      dup3\n        /* \"#utility.yul\":14418:14436   */\n      add\n        /* \"#utility.yul\":14410:14436   */\n      swap1\n      pop\n        /* \"#utility.yul\":14482:14491   */\n      dup2\n        /* \"#utility.yul\":14476:14480   */\n      dup2\n        /* \"#utility.yul\":14472:14492   */\n      sub\n        /* \"#utility.yul\":14468:14469   */\n      0x00\n        /* \"#utility.yul\":14457:14466   */\n      dup4\n        /* \"#utility.yul\":14453:14470   */\n      add\n        /* \"#utility.yul\":14446:14493   */\n      mstore\n        /* \"#utility.yul\":14510:14641   */\n      tag_457\n        /* \"#utility.yul\":14636:14640   */\n      dup2\n        /* \"#utility.yul\":14510:14641   */\n      tag_316\n      jump\t// in\n    tag_457:\n        /* \"#utility.yul\":14502:14641   */\n      swap1\n      pop\n        /* \"#utility.yul\":14229:14648   */\n      swap2\n      swap1\n      pop\n      jump\t// out\n        /* \"#utility.yul\":14654:14827   */\n    tag_317:\n        /* \"#utility.yul\":14794:14819   */\n      0x546f6b656e2042207472616e73666572206661696c6564000000000000000000\n        /* \"#utility.yul\":14790:14791   */\n      0x00\n        /* \"#utility.yul\":14782:14788   */\n      dup3\n        /* \"#utility.yul\":14778:14792   */\n      add\n        /* \"#utility.yul\":14771:14820   */\n      mstore\n        /* \"#utility.yul\":14654:14827   */\n      pop\n      jump\t// out\n        /* \"#utility.yul\":14833:15199   */\n    tag_318:\n        /* \"#utility.yul\":14975:14978   */\n      0x00\n        /* \"#utility.yul\":14996:15063   */\n      tag_460\n        /* \"#utility.yul\":15060:15062   */\n      0x17\n        /* \"#utility.yul\":15055:15058   */\n      dup4\n        /* \"#utility.yul\":14996:15063   */\n      tag_296\n      jump\t// in\n    tag_460:\n        /* \"#utility.yul\":14989:15063   */\n      swap2\n      pop\n        /* \"#utility.yul\":15072:15165   */\n      tag_461\n        /* \"#utility.yul\":15161:15164   */\n      dup3\n        /* \"#utility.yul\":15072:15165   */\n      tag_317\n      jump\t// in\n    tag_461:\n        /* \"#utility.yul\":15190:15192   */\n      0x20\n        /* \"#utility.yul\":15185:15188   */\n      dup3\n        /* \"#utility.yul\":15181:15193   */\n      add\n        /* \"#utility.yul\":15174:15193   */\n      swap1\n      pop\n        /* \"#utility.yul\":14833:15199   */\n      swap2\n      swap1\n      pop\n      jump\t// out\n        /* \"#utility.yul\":15205:15624   */\n    tag_251:\n        /* \"#utility.yul\":15371:15375   */\n      0x00\n        /* \"#utility.yul\":15409:15411   */\n      0x20\n        /* \"#utility.yul\":15398:15407   */\n      dup3\n        /* \"#utility.yul\":15394:15412   */\n      add\n        /* \"#utility.yul\":15386:15412   */\n      swap1\n      pop\n        /* \"#utility.yul\":15458:15467   */\n      dup2\n        /* \"#utility.yul\":15452:15456   */\n      dup2\n        /* \"#utility.yul\":15448:15468   */\n      sub\n        /* \"#utility.yul\":15444:15445   */\n      0x00\n        /* \"#utility.yul\":15433:15442   */\n      dup4\n        /* \"#utility.yul\":15429:15446   */\n      add\n        /* \"#utility.yul\":15422:15469   */\n      mstore\n        /* \"#utility.yul\":15486:15617   */\n      tag_463\n        /* \"#utility.yul\":15612:15616   */\n      dup2\n        /* \"#utility.yul\":15486:15617   */\n      tag_318\n      jump\t// in\n    tag_463:\n        /* \"#utility.yul\":15478:15617   */\n      swap1\n      pop\n        /* \"#utility.yul\":15205:15624   */\n      swap2\n      swap1\n      pop\n      jump\t// out\n        /* \"#utility.yul\":15630:15796   */\n    tag_319:\n        /* \"#utility.yul\":15770:15788   */\n      0x496e76616c696420726573657276657300000000000000000000000000000000\n        /* \"#utility.yul\":15766:15767   */\n      0x00\n        /* \"#utility.yul\":15758:15764   */\n      dup3\n        /* \"#utility.yul\":15754:15768   */\n      add\n        /* \"#utility.yul\":15747:15789   */\n      mstore\n        /* \"#utility.yul\":15630:15796   */\n      pop\n      jump\t// out\n        /* \"#utility.yul\":15802:16168   */\n    tag_320:\n        /* \"#utility.yul\":15944:15947   */\n      0x00\n        /* \"#utility.yul\":15965:16032   */\n      tag_466\n        /* \"#utility.yul\":16029:16031   */\n      0x10\n        /* \"#utility.yul\":16024:16027   */\n      dup4\n        /* \"#utility.yul\":15965:16032   */\n      tag_296\n      jump\t// in\n    tag_466:\n        /* \"#utility.yul\":15958:16032   */\n      swap2\n      pop\n        /* \"#utility.yul\":16041:16134   */\n      tag_467\n        /* \"#utility.yul\":16130:16133   */\n      dup3\n        /* \"#utility.yul\":16041:16134   */\n      tag_319\n      jump\t// in\n    tag_467:\n        /* \"#utility.yul\":16159:16161   */\n      0x20\n        /* \"#utility.yul\":16154:16157   */\n      dup3\n        /* \"#utility.yul\":16150:16162   */\n      add\n        /* \"#utility.yul\":16143:16162   */\n      swap1\n      pop\n        /* \"#utility.yul\":15802:16168   */\n      swap2\n      swap1\n      pop\n      jump\t// out\n        /* \"#utility.yul\":16174:16593   */\n    tag_265:\n        /* \"#utility.yul\":16340:16344   */\n      0x00\n        /* \"#utility.yul\":16378:16380   */\n      0x20\n        /* \"#utility.yul\":16367:16376   */\n      dup3\n        /* \"#utility.yul\":16363:16381   */\n      add\n        /* \"#utility.yul\":16355:16381   */\n      swap1\n      pop\n        /* \"#utility.yul\":16427:16436   */\n      dup2\n        /* \"#utility.yul\":16421:16425   */\n      dup2\n        /* \"#utility.yul\":16417:16437   */\n      sub\n        /* \"#utility.yul\":16413:16414   */\n      0x00\n        /* \"#utility.yul\":16402:16411   */\n      dup4\n        /* \"#utility.yul\":16398:16415   */\n      add\n        /* \"#utility.yul\":16391:16438   */\n      mstore\n        /* \"#utility.yul\":16455:16586   */\n      tag_469\n        /* \"#utility.yul\":16581:16585   */\n      dup2\n        /* \"#utility.yul\":16455:16586   */\n      tag_320\n      jump\t// in\n    tag_469:\n        /* \"#utility.yul\":16447:16586   */\n      swap1\n      pop\n        /* \"#utility.yul\":16174:16593   */\n      swap2\n      swap1\n      pop\n      jump\t// out\n        /* \"#utility.yul\":16599:16790   */\n    tag_267:\n        /* \"#utility.yul\":16639:16642   */\n      0x00\n        /* \"#utility.yul\":16658:16678   */\n      tag_471\n        /* \"#utility.yul\":16676:16677   */\n      dup3\n        /* \"#utility.yul\":16658:16678   */\n      tag_282\n      jump\t// in\n    tag_471:\n        /* \"#utility.yul\":16653:16678   */\n      swap2\n      pop\n        /* \"#utility.yul\":16692:16712   */\n      tag_472\n        /* \"#utility.yul\":16710:16711   */\n      dup4\n        /* \"#utility.yul\":16692:16712   */\n      tag_282\n      jump\t// in\n    tag_472:\n        /* \"#utility.yul\":16687:16712   */\n      swap3\n      pop\n        /* \"#utility.yul\":16735:16736   */\n      dup3\n        /* \"#utility.yul\":16732:16733   */\n      dup3\n        /* \"#utility.yul\":16728:16737   */\n      add\n        /* \"#utility.yul\":16721:16737   */\n      swap1\n      pop\n        /* \"#utility.yul\":16756:16759   */\n      dup1\n        /* \"#utility.yul\":16753:16754   */\n      dup3\n        /* \"#utility.yul\":16750:16760   */\n      gt\n        /* \"#utility.yul\":16747:16783   */\n      iszero\n      tag_473\n      jumpi\n        /* \"#utility.yul\":16763:16781   */\n      tag_474\n      tag_300\n      jump\t// in\n    tag_474:\n        /* \"#utility.yul\":16747:16783   */\n    tag_473:\n        /* \"#utility.yul\":16599:16790   */\n      swap3\n      swap2\n      pop\n      pop\n      jump\t// out\n\n    auxdata: 0xa2646970667358221220c06f52873aa5b489e53e03b7fdefdd72606248723efa06781b80beff0fc1bb3d64736f6c634300081a0033\n}\n",
				"bytecode": {
					"linkReferences": {},
					"object": "608060405234801561000f575f80fd5b506040516125f33803806125f383398181016040528101906100319190610258565b335f73ffffffffffffffffffffffffffffffffffffffff168173ffffffffffffffffffffffffffffffffffffffff16036100a2575f6040517f1e4fbdf700000000000000000000000000000000000000000000000000000000815260040161009991906102a5565b60405180910390fd5b6100b18161013960201b60201c565b508160015f6101000a81548173ffffffffffffffffffffffffffffffffffffffff021916908373ffffffffffffffffffffffffffffffffffffffff1602179055508060025f6101000a81548173ffffffffffffffffffffffffffffffffffffffff021916908373ffffffffffffffffffffffffffffffffffffffff16021790555050506102be565b5f805f9054906101000a900473ffffffffffffffffffffffffffffffffffffffff169050815f806101000a81548173ffffffffffffffffffffffffffffffffffffffff021916908373ffffffffffffffffffffffffffffffffffffffff1602179055508173ffffffffffffffffffffffffffffffffffffffff168173ffffffffffffffffffffffffffffffffffffffff167f8be0079c531659141344cd1fd0a4f28419497f9722a3daafe3b4186f6b6457e060405160405180910390a35050565b5f80fd5b5f73ffffffffffffffffffffffffffffffffffffffff82169050919050565b5f610227826101fe565b9050919050565b6102378161021d565b8114610241575f80fd5b50565b5f815190506102528161022e565b92915050565b5f806040838503121561026e5761026d6101fa565b5b5f61027b85828601610244565b925050602061028c85828601610244565b9150509250929050565b61029f8161021d565b82525050565b5f6020820190506102b85f830184610296565b92915050565b612328806102cb5f395ff3fe608060405234801561000f575f80fd5b50600436106100b2575f3560e01c806398d5fdca1161006f57806398d5fdca146101555780639cd441da146101745780639d7de6b314610190578063e619a498146101ac578063f11e2562146101c8578063f2fde38b146101e4576100b2565b806303102091146100b65780630902f1ac146100d25780630fc63d10146100f15780635f64b55b1461010f578063715018a61461012d5780638da5cb5b14610137575b5f80fd5b6100d060048036038101906100cb9190611b18565b610200565b005b6100da6105ac565b6040516100e8929190611b52565b60405180910390f35b6100f961070e565b6040516101069190611bf3565b60405180910390f35b610117610733565b6040516101249190611bf3565b60405180910390f35b610135610758565b005b61013f61076b565b60405161014c9190611c2c565b60405180910390f35b61015d610792565b60405161016b929190611b52565b60405180910390f35b61018e60048036038101906101899190611c45565b61099f565b005b6101aa60048036038101906101a59190611c45565b611057565b005b6101c660048036038101906101c19190611b18565b611239565b005b6101e260048036038101906101dd9190611c45565b6115e5565b005b6101fe60048036038101906101f99190611cad565b611895565b005b5f8111610242576040517f08c379a000000000000000000000000000000000000000000000000000000000815260040161023990611d32565b60405180910390fd5b5f60015f9054906101000a900473ffffffffffffffffffffffffffffffffffffffff1673ffffffffffffffffffffffffffffffffffffffff166370a08231306040518263ffffffff1660e01b815260040161029d9190611c2c565b602060405180830381865afa1580156102b8573d5f803e3d5ffd5b505050506040513d601f19601f820116820180604052508101906102dc9190611d64565b90505f60025f9054906101000a900473ffffffffffffffffffffffffffffffffffffffff1673ffffffffffffffffffffffffffffffffffffffff166370a08231306040518263ffffffff1660e01b81526004016103399190611c2c565b602060405180830381865afa158015610354573d5f803e3d5ffd5b505050506040513d601f19601f820116820180604052508101906103789190611d64565b90505f610386848484611919565b905060015f9054906101000a900473ffffffffffffffffffffffffffffffffffffffff1673ffffffffffffffffffffffffffffffffffffffff166323b872dd3330670de0b6b3a7640000886103db9190611dbc565b6040518463ffffffff1660e01b81526004016103f993929190611dfd565b6020604051808303815f875af1158015610415573d5f803e3d5ffd5b505050506040513d601f19601f820116820180604052508101906104399190611e67565b5060025f9054906101000a900473ffffffffffffffffffffffffffffffffffffffff1673ffffffffffffffffffffffffffffffffffffffff1663a9059cbb33670de0b6b3a76400008461048c9190611dbc565b6040518363ffffffff1660e01b81526004016104a9929190611e92565b6020604051808303815f875af11580156104c5573d5f803e3d5ffd5b505050506040513d601f19601f820116820180604052508101906104e99190611e67565b503373ffffffffffffffffffffffffffffffffffffffff167fcd3829a3813dc3cdd188fd3d01dcf3268c16be2fdd2dd21d0665418816e4606260015f9054906101000a900473ffffffffffffffffffffffffffffffffffffffff1660025f9054906101000a900473ffffffffffffffffffffffffffffffffffffffff16670de0b6b3a76400008861057a9190611dbc565b670de0b6b3a76400008661058e9190611dbc565b60405161059e9493929190611eb9565b60405180910390a250505050565b5f80670de0b6b3a764000060015f9054906101000a900473ffffffffffffffffffffffffffffffffffffffff1673ffffffffffffffffffffffffffffffffffffffff166370a08231306040518263ffffffff1660e01b81526004016106119190611c2c565b602060405180830381865afa15801561062c573d5f803e3d5ffd5b505050506040513d601f19601f820116820180604052508101906106509190611d64565b61065a9190611f29565b670de0b6b3a764000060025f9054906101000a900473ffffffffffffffffffffffffffffffffffffffff1673ffffffffffffffffffffffffffffffffffffffff166370a08231306040518263ffffffff1660e01b81526004016106bd9190611c2c565b602060405180830381865afa1580156106d8573d5f803e3d5ffd5b505050506040513d601f19601f820116820180604052508101906106fc9190611d64565b6107069190611f29565b915091509091565b60015f9054906101000a900473ffffffffffffffffffffffffffffffffffffffff1681565b60025f9054906101000a900473ffffffffffffffffffffffffffffffffffffffff1681565b610760611992565b6107695f611a19565b565b5f805f9054906101000a900473ffffffffffffffffffffffffffffffffffffffff16905090565b5f805f60015f9054906101000a900473ffffffffffffffffffffffffffffffffffffffff1673ffffffffffffffffffffffffffffffffffffffff166370a08231306040518263ffffffff1660e01b81526004016107ef9190611c2c565b602060405180830381865afa15801561080a573d5f803e3d5ffd5b505050506040513d601f19601f8201168201806040525081019061082e9190611d64565b90505f60025f9054906101000a900473ffffffffffffffffffffffffffffffffffffffff1673ffffffffffffffffffffffffffffffffffffffff166370a08231306040518263ffffffff1660e01b815260040161088b9190611c2c565b602060405180830381865afa1580156108a6573d5f803e3d5ffd5b505050506040513d601f19601f820116820180604052508101906108ca9190611d64565b90505f821180156108da57505f81115b610919576040517f08c379a000000000000000000000000000000000000000000000000000000000815260040161091090611fa3565b60405180910390fd5b6064670de0b6b3a764000082670de0b6b3a7640000856109399190611dbc565b6109439190611f29565b61094d9190611f29565b6109579190611dbc565b6064670de0b6b3a764000084670de0b6b3a7640000856109779190611dbc565b6109819190611f29565b61098b9190611f29565b6109959190611dbc565b9350935050509091565b6109a7611992565b5f821180156109b557505f81115b6109f4576040517f08c379a00000000000000000000000000000000000000000000000000000000081526004016109eb9061200b565b60405180910390fd5b5f60025f9054906101000a900473ffffffffffffffffffffffffffffffffffffffff1673ffffffffffffffffffffffffffffffffffffffff166370a08231306040518263ffffffff1660e01b8152600401610a4f9190611c2c565b602060405180830381865afa158015610a6a573d5f803e3d5ffd5b505050506040513d601f19601f82011682018060405250810190610a8e9190611d64565b118015610b3257505f60015f9054906101000a900473ffffffffffffffffffffffffffffffffffffffff1673ffffffffffffffffffffffffffffffffffffffff166370a08231306040518263ffffffff1660e01b8152600401610af19190611c2c565b602060405180830381865afa158015610b0c573d5f803e3d5ffd5b505050506040513d601f19601f82011682018060405250810190610b309190611d64565b115b610b71576040517f08c379a0000000000000000000000000000000000000000000000000000000008152600401610b6890612073565b60405180910390fd5b5f60025f9054906101000a900473ffffffffffffffffffffffffffffffffffffffff1673ffffffffffffffffffffffffffffffffffffffff166370a08231306040518263ffffffff1660e01b8152600401610bcc9190611c2c565b602060405180830381865afa158015610be7573d5f803e3d5ffd5b505050506040513d601f19601f82011682018060405250810190610c0b9190611d64565b670de0b6b3a764000060015f9054906101000a900473ffffffffffffffffffffffffffffffffffffffff1673ffffffffffffffffffffffffffffffffffffffff166370a08231306040518263ffffffff1660e01b8152600401610c6e9190611c2c565b602060405180830381865afa158015610c89573d5f803e3d5ffd5b505050506040513d601f19601f82011682018060405250810190610cad9190611d64565b610cb79190611dbc565b610cc19190611f29565b90505f60015f9054906101000a900473ffffffffffffffffffffffffffffffffffffffff1673ffffffffffffffffffffffffffffffffffffffff166370a08231306040518263ffffffff1660e01b8152600401610d1e9190611c2c565b602060405180830381865afa158015610d39573d5f803e3d5ffd5b505050506040513d601f19601f82011682018060405250810190610d5d9190611d64565b670de0b6b3a764000060025f9054906101000a900473ffffffffffffffffffffffffffffffffffffffff1673ffffffffffffffffffffffffffffffffffffffff166370a08231306040518263ffffffff1660e01b8152600401610dc09190611c2c565b602060405180830381865afa158015610ddb573d5f803e3d5ffd5b505050506040513d601f19601f82011682018060405250810190610dff9190611d64565b610e099190611dbc565b610e139190611f29565b9050818385610e229190611f29565b1480610e385750808484610e369190611f29565b145b610e77576040517f08c379a0000000000000000000000000000000000000000000000000000000008152600401610e6e906120db565b60405180910390fd5b60015f9054906101000a900473ffffffffffffffffffffffffffffffffffffffff1673ffffffffffffffffffffffffffffffffffffffff166323b872dd3330670de0b6b3a764000088610eca9190611dbc565b6040518463ffffffff1660e01b8152600401610ee893929190611dfd565b6020604051808303815f875af1158015610f04573d5f803e3d5ffd5b505050506040513d601f19601f82011682018060405250810190610f289190611e67565b5060025f9054906101000a900473ffffffffffffffffffffffffffffffffffffffff1673ffffffffffffffffffffffffffffffffffffffff166323b872dd3330670de0b6b3a764000087610f7c9190611dbc565b6040518463ffffffff1660e01b8152600401610f9a93929190611dfd565b6020604051808303815f875af1158015610fb6573d5f803e3d5ffd5b505050506040513d601f19601f82011682018060405250810190610fda9190611e67565b503373ffffffffffffffffffffffffffffffffffffffff167fac1d76749e5447b7b16f5ab61447e1bd502f3bb4807af3b28e620d1700a6ee45670de0b6b3a7640000866110279190611dbc565b670de0b6b3a76400008661103b9190611dbc565b604051611049929190611b52565b60405180910390a250505050565b61105f611992565b60015f9054906101000a900473ffffffffffffffffffffffffffffffffffffffff1673ffffffffffffffffffffffffffffffffffffffff1663a9059cbb33670de0b6b3a7640000856110b19190611dbc565b6040518363ffffffff1660e01b81526004016110ce929190611e92565b6020604051808303815f875af11580156110ea573d5f803e3d5ffd5b505050506040513d601f19601f8201168201806040525081019061110e9190611e67565b5060025f9054906101000a900473ffffffffffffffffffffffffffffffffffffffff1673ffffffffffffffffffffffffffffffffffffffff1663a9059cbb33670de0b6b3a7640000846111619190611dbc565b6040518363ffffffff1660e01b815260040161117e929190611e92565b6020604051808303815f875af115801561119a573d5f803e3d5ffd5b505050506040513d601f19601f820116820180604052508101906111be9190611e67565b503373ffffffffffffffffffffffffffffffffffffffff167f96cd817c6329656790ef8fba7675405193677d39619571282f5e21f3a98cd059670de0b6b3a76400008461120b9190611dbc565b670de0b6b3a76400008461121f9190611dbc565b60405161122d929190611b52565b60405180910390a25050565b5f811161127b576040517f08c379a000000000000000000000000000000000000000000000000000000000815260040161127290611d32565b60405180910390fd5b5f60015f9054906101000a900473ffffffffffffffffffffffffffffffffffffffff1673ffffffffffffffffffffffffffffffffffffffff166370a08231306040518263ffffffff1660e01b81526004016112d69190611c2c565b602060405180830381865afa1580156112f1573d5f803e3d5ffd5b505050506040513d601f19601f820116820180604052508101906113159190611d64565b90505f60025f9054906101000a900473ffffffffffffffffffffffffffffffffffffffff1673ffffffffffffffffffffffffffffffffffffffff166370a08231306040518263ffffffff1660e01b81526004016113729190611c2c565b602060405180830381865afa15801561138d573d5f803e3d5ffd5b505050506040513d601f19601f820116820180604052508101906113b19190611d64565b90505f6113bf848385611919565b905060025f9054906101000a900473ffffffffffffffffffffffffffffffffffffffff1673ffffffffffffffffffffffffffffffffffffffff166323b872dd3330670de0b6b3a7640000886114149190611dbc565b6040518463ffffffff1660e01b815260040161143293929190611dfd565b6020604051808303815f875af115801561144e573d5f803e3d5ffd5b505050506040513d601f19601f820116820180604052508101906114729190611e67565b5060015f9054906101000a900473ffffffffffffffffffffffffffffffffffffffff1673ffffffffffffffffffffffffffffffffffffffff1663a9059cbb33670de0b6b3a7640000846114c59190611dbc565b6040518363ffffffff1660e01b81526004016114e2929190611e92565b6020604051808303815f875af11580156114fe573d5f803e3d5ffd5b505050506040513d601f19601f820116820180604052508101906115229190611e67565b503373ffffffffffffffffffffffffffffffffffffffff167fcd3829a3813dc3cdd188fd3d01dcf3268c16be2fdd2dd21d0665418816e4606260025f9054906101000a900473ffffffffffffffffffffffffffffffffffffffff1660015f9054906101000a900473ffffffffffffffffffffffffffffffffffffffff16670de0b6b3a7640000886115b39190611dbc565b670de0b6b3a7640000866115c79190611dbc565b6040516115d79493929190611eb9565b60405180910390a250505050565b6115ed611992565b6004826115fa9190611dbc565b811461163b576040517f08c379a000000000000000000000000000000000000000000000000000000000815260040161163290612169565b60405180910390fd5b60015f9054906101000a900473ffffffffffffffffffffffffffffffffffffffff1673ffffffffffffffffffffffffffffffffffffffff166323b872dd3330670de0b6b3a76400008661168e9190611dbc565b6040518463ffffffff1660e01b81526004016116ac93929190611dfd565b6020604051808303815f875af11580156116c8573d5f803e3d5ffd5b505050506040513d601f19601f820116820180604052508101906116ec9190611e67565b61172b576040517f08c379a0000000000000000000000000000000000000000000000000000000008152600401611722906121d1565b60405180910390fd5b60025f9054906101000a900473ffffffffffffffffffffffffffffffffffffffff1673ffffffffffffffffffffffffffffffffffffffff166323b872dd3330670de0b6b3a76400008561177e9190611dbc565b6040518463ffffffff1660e01b815260040161179c93929190611dfd565b6020604051808303815f875af11580156117b8573d5f803e3d5ffd5b505050506040513d601f19601f820116820180604052508101906117dc9190611e67565b61181b576040517f08c379a000000000000000000000000000000000000000000000000000000000815260040161181290612239565b60405180910390fd5b3373ffffffffffffffffffffffffffffffffffffffff167f997f3e422a7446ccf056e7a989c8a281f20af906a7ac6ad0e6f9fea0edd6055c670de0b6b3a7640000846118679190611dbc565b670de0b6b3a76400008461187b9190611dbc565b604051611889929190611b52565b60405180910390a25050565b61189d611992565b5f73ffffffffffffffffffffffffffffffffffffffff168173ffffffffffffffffffffffffffffffffffffffff160361190d575f6040517f1e4fbdf70000000000000000000000000000000000000000000000000000000081526004016119049190611c2c565b60405180910390fd5b61191681611a19565b50565b5f808311801561192857505f82115b611967576040517f08c379a000000000000000000000000000000000000000000000000000000000815260040161195e906122a1565b60405180910390fd5b838361197391906122bf565b828561197f9190611dbc565b6119899190611f29565b90509392505050565b61199a611ada565b73ffffffffffffffffffffffffffffffffffffffff166119b861076b565b73ffffffffffffffffffffffffffffffffffffffff1614611a17576119db611ada565b6040517f118cdaa7000000000000000000000000000000000000000000000000000000008152600401611a0e9190611c2c565b60405180910390fd5b565b5f805f9054906101000a900473ffffffffffffffffffffffffffffffffffffffff169050815f806101000a81548173ffffffffffffffffffffffffffffffffffffffff021916908373ffffffffffffffffffffffffffffffffffffffff1602179055508173ffffffffffffffffffffffffffffffffffffffff168173ffffffffffffffffffffffffffffffffffffffff167f8be0079c531659141344cd1fd0a4f28419497f9722a3daafe3b4186f6b6457e060405160405180910390a35050565b5f33905090565b5f80fd5b5f819050919050565b611af781611ae5565b8114611b01575f80fd5b50565b5f81359050611b1281611aee565b92915050565b5f60208284031215611b2d57611b2c611ae1565b5b5f611b3a84828501611b04565b91505092915050565b611b4c81611ae5565b82525050565b5f604082019050611b655f830185611b43565b611b726020830184611b43565b9392505050565b5f73ffffffffffffffffffffffffffffffffffffffff82169050919050565b5f819050919050565b5f611bbb611bb6611bb184611b79565b611b98565b611b79565b9050919050565b5f611bcc82611ba1565b9050919050565b5f611bdd82611bc2565b9050919050565b611bed81611bd3565b82525050565b5f602082019050611c065f830184611be4565b92915050565b5f611c1682611b79565b9050919050565b611c2681611c0c565b82525050565b5f602082019050611c3f5f830184611c1d565b92915050565b5f8060408385031215611c5b57611c5a611ae1565b5b5f611c6885828601611b04565b9250506020611c7985828601611b04565b9150509250929050565b611c8c81611c0c565b8114611c96575f80fd5b50565b5f81359050611ca781611c83565b92915050565b5f60208284031215611cc257611cc1611ae1565b5b5f611ccf84828501611c99565b91505092915050565b5f82825260208201905092915050565b7f496e76616c696420616d6f756e740000000000000000000000000000000000005f82015250565b5f611d1c600e83611cd8565b9150611d2782611ce8565b602082019050919050565b5f6020820190508181035f830152611d4981611d10565b9050919050565b5f81519050611d5e81611aee565b92915050565b5f60208284031215611d7957611d78611ae1565b5b5f611d8684828501611d50565b91505092915050565b7f4e487b71000000000000000000000000000000000000000000000000000000005f52601160045260245ffd5b5f611dc682611ae5565b9150611dd183611ae5565b9250828202611ddf81611ae5565b91508282048414831517611df657611df5611d8f565b5b5092915050565b5f606082019050611e105f830186611c1d565b611e1d6020830185611c1d565b611e2a6040830184611b43565b949350505050565b5f8115159050919050565b611e4681611e32565b8114611e50575f80fd5b50565b5f81519050611e6181611e3d565b92915050565b5f60208284031215611e7c57611e7b611ae1565b5b5f611e8984828501611e53565b91505092915050565b5f604082019050611ea55f830185611c1d565b611eb26020830184611b43565b9392505050565b5f608082019050611ecc5f830187611c1d565b611ed96020830186611c1d565b611ee66040830185611b43565b611ef36060830184611b43565b95945050505050565b7f4e487b71000000000000000000000000000000000000000000000000000000005f52601260045260245ffd5b5f611f3382611ae5565b9150611f3e83611ae5565b925082611f4e57611f4d611efc565b5b828204905092915050565b7f496e73756666696369656e7420726573657276657300000000000000000000005f82015250565b5f611f8d601583611cd8565b9150611f9882611f59565b602082019050919050565b5f6020820190508181035f830152611fba81611f81565b9050919050565b7f496e76616c696420616d6f756e747300000000000000000000000000000000005f82015250565b5f611ff5600f83611cd8565b915061200082611fc1565b602082019050919050565b5f6020820190508181035f83015261202281611fe9565b9050919050565b7f506f6f6c204e6f7420496e697469616c697a65640000000000000000000000005f82015250565b5f61205d601483611cd8565b915061206882612029565b602082019050919050565b5f6020820190508181035f83015261208a81612051565b9050919050565b7f496e76616c6964206c697175696469747920726174696f0000000000000000005f82015250565b5f6120c5601783611cd8565b91506120d082612091565b602082019050919050565b5f6020820190508181035f8301526120f2816120b9565b9050919050565b7f496e76616c696420726174696f3a20546f6b656e42206d7573742062652034785f8201527f20546f6b656e4100000000000000000000000000000000000000000000000000602082015250565b5f612153602783611cd8565b915061215e826120f9565b604082019050919050565b5f6020820190508181035f83015261218081612147565b9050919050565b7f546f6b656e2041207472616e73666572206661696c65640000000000000000005f82015250565b5f6121bb601783611cd8565b91506121c682612187565b602082019050919050565b5f6020820190508181035f8301526121e8816121af565b9050919050565b7f546f6b656e2042207472616e73666572206661696c65640000000000000000005f82015250565b5f612223601783611cd8565b915061222e826121ef565b602082019050919050565b5f6020820190508181035f83015261225081612217565b9050919050565b7f496e76616c6964207265736572766573000000000000000000000000000000005f82015250565b5f61228b601083611cd8565b915061229682612257565b602082019050919050565b5f6020820190508181035f8301526122b88161227f565b9050919050565b5f6122c982611ae5565b91506122d483611ae5565b92508282019050808211156122ec576122eb611d8f565b5b9291505056fea2646970667358221220c06f52873aa5b489e53e03b7fdefdd72606248723efa06781b80beff0fc1bb3d64736f6c634300081a0033",
					"opcodes": "PUSH1 0x80 PUSH1 0x40 MSTORE CALLVALUE DUP1 ISZERO PUSH2 0xF JUMPI PUSH0 DUP1 REVERT JUMPDEST POP PUSH1 0x40 MLOAD PUSH2 0x25F3 CODESIZE SUB DUP1 PUSH2 0x25F3 DUP4 CODECOPY DUP2 DUP2 ADD PUSH1 0x40 MSTORE DUP2 ADD SWAP1 PUSH2 0x31 SWAP2 SWAP1 PUSH2 0x258 JUMP JUMPDEST CALLER PUSH0 PUSH20 0xFFFFFFFFFFFFFFFFFFFFFFFFFFFFFFFFFFFFFFFF AND DUP2 PUSH20 0xFFFFFFFFFFFFFFFFFFFFFFFFFFFFFFFFFFFFFFFF AND SUB PUSH2 0xA2 JUMPI PUSH0 PUSH1 0x40 MLOAD PUSH32 0x1E4FBDF700000000000000000000000000000000000000000000000000000000 DUP2 MSTORE PUSH1 0x4 ADD PUSH2 0x99 SWAP2 SWAP1 PUSH2 0x2A5 JUMP JUMPDEST PUSH1 0x40 MLOAD DUP1 SWAP2 SUB SWAP1 REVERT JUMPDEST PUSH2 0xB1 DUP2 PUSH2 0x139 PUSH1 0x20 SHL PUSH1 0x20 SHR JUMP JUMPDEST POP DUP2 PUSH1 0x1 PUSH0 PUSH2 0x100 EXP DUP2 SLOAD DUP2 PUSH20 0xFFFFFFFFFFFFFFFFFFFFFFFFFFFFFFFFFFFFFFFF MUL NOT AND SWAP1 DUP4 PUSH20 0xFFFFFFFFFFFFFFFFFFFFFFFFFFFFFFFFFFFFFFFF AND MUL OR SWAP1 SSTORE POP DUP1 PUSH1 0x2 PUSH0 PUSH2 0x100 EXP DUP2 SLOAD DUP2 PUSH20 0xFFFFFFFFFFFFFFFFFFFFFFFFFFFFFFFFFFFFFFFF MUL NOT AND SWAP1 DUP4 PUSH20 0xFFFFFFFFFFFFFFFFFFFFFFFFFFFFFFFFFFFFFFFF AND MUL OR SWAP1 SSTORE POP POP POP PUSH2 0x2BE JUMP JUMPDEST PUSH0 DUP1 PUSH0 SWAP1 SLOAD SWAP1 PUSH2 0x100 EXP SWAP1 DIV PUSH20 0xFFFFFFFFFFFFFFFFFFFFFFFFFFFFFFFFFFFFFFFF AND SWAP1 POP DUP2 PUSH0 DUP1 PUSH2 0x100 EXP DUP2 SLOAD DUP2 PUSH20 0xFFFFFFFFFFFFFFFFFFFFFFFFFFFFFFFFFFFFFFFF MUL NOT AND SWAP1 DUP4 PUSH20 0xFFFFFFFFFFFFFFFFFFFFFFFFFFFFFFFFFFFFFFFF AND MUL OR SWAP1 SSTORE POP DUP2 PUSH20 0xFFFFFFFFFFFFFFFFFFFFFFFFFFFFFFFFFFFFFFFF AND DUP2 PUSH20 0xFFFFFFFFFFFFFFFFFFFFFFFFFFFFFFFFFFFFFFFF AND PUSH32 0x8BE0079C531659141344CD1FD0A4F28419497F9722A3DAAFE3B4186F6B6457E0 PUSH1 0x40 MLOAD PUSH1 0x40 MLOAD DUP1 SWAP2 SUB SWAP1 LOG3 POP POP JUMP JUMPDEST PUSH0 DUP1 REVERT JUMPDEST PUSH0 PUSH20 0xFFFFFFFFFFFFFFFFFFFFFFFFFFFFFFFFFFFFFFFF DUP3 AND SWAP1 POP SWAP2 SWAP1 POP JUMP JUMPDEST PUSH0 PUSH2 0x227 DUP3 PUSH2 0x1FE JUMP JUMPDEST SWAP1 POP SWAP2 SWAP1 POP JUMP JUMPDEST PUSH2 0x237 DUP2 PUSH2 0x21D JUMP JUMPDEST DUP2 EQ PUSH2 0x241 JUMPI PUSH0 DUP1 REVERT JUMPDEST POP JUMP JUMPDEST PUSH0 DUP2 MLOAD SWAP1 POP PUSH2 0x252 DUP2 PUSH2 0x22E JUMP JUMPDEST SWAP3 SWAP2 POP POP JUMP JUMPDEST PUSH0 DUP1 PUSH1 0x40 DUP4 DUP6 SUB SLT ISZERO PUSH2 0x26E JUMPI PUSH2 0x26D PUSH2 0x1FA JUMP JUMPDEST JUMPDEST PUSH0 PUSH2 0x27B DUP6 DUP3 DUP7 ADD PUSH2 0x244 JUMP JUMPDEST SWAP3 POP POP PUSH1 0x20 PUSH2 0x28C DUP6 DUP3 DUP7 ADD PUSH2 0x244 JUMP JUMPDEST SWAP2 POP POP SWAP3 POP SWAP3 SWAP1 POP JUMP JUMPDEST PUSH2 0x29F DUP2 PUSH2 0x21D JUMP JUMPDEST DUP3 MSTORE POP POP JUMP JUMPDEST PUSH0 PUSH1 0x20 DUP3 ADD SWAP1 POP PUSH2 0x2B8 PUSH0 DUP4 ADD DUP5 PUSH2 0x296 JUMP JUMPDEST SWAP3 SWAP2 POP POP JUMP JUMPDEST PUSH2 0x2328 DUP1 PUSH2 0x2CB PUSH0 CODECOPY PUSH0 RETURN INVALID PUSH1 0x80 PUSH1 0x40 MSTORE CALLVALUE DUP1 ISZERO PUSH2 0xF JUMPI PUSH0 DUP1 REVERT JUMPDEST POP PUSH1 0x4 CALLDATASIZE LT PUSH2 0xB2 JUMPI PUSH0 CALLDATALOAD PUSH1 0xE0 SHR DUP1 PUSH4 0x98D5FDCA GT PUSH2 0x6F JUMPI DUP1 PUSH4 0x98D5FDCA EQ PUSH2 0x155 JUMPI DUP1 PUSH4 0x9CD441DA EQ PUSH2 0x174 JUMPI DUP1 PUSH4 0x9D7DE6B3 EQ PUSH2 0x190 JUMPI DUP1 PUSH4 0xE619A498 EQ PUSH2 0x1AC JUMPI DUP1 PUSH4 0xF11E2562 EQ PUSH2 0x1C8 JUMPI DUP1 PUSH4 0xF2FDE38B EQ PUSH2 0x1E4 JUMPI PUSH2 0xB2 JUMP JUMPDEST DUP1 PUSH4 0x3102091 EQ PUSH2 0xB6 JUMPI DUP1 PUSH4 0x902F1AC EQ PUSH2 0xD2 JUMPI DUP1 PUSH4 0xFC63D10 EQ PUSH2 0xF1 JUMPI DUP1 PUSH4 0x5F64B55B EQ PUSH2 0x10F JUMPI DUP1 PUSH4 0x715018A6 EQ PUSH2 0x12D JUMPI DUP1 PUSH4 0x8DA5CB5B EQ PUSH2 0x137 JUMPI JUMPDEST PUSH0 DUP1 REVERT JUMPDEST PUSH2 0xD0 PUSH1 0x4 DUP1 CALLDATASIZE SUB DUP2 ADD SWAP1 PUSH2 0xCB SWAP2 SWAP1 PUSH2 0x1B18 JUMP JUMPDEST PUSH2 0x200 JUMP JUMPDEST STOP JUMPDEST PUSH2 0xDA PUSH2 0x5AC JUMP JUMPDEST PUSH1 0x40 MLOAD PUSH2 0xE8 SWAP3 SWAP2 SWAP1 PUSH2 0x1B52 JUMP JUMPDEST PUSH1 0x40 MLOAD DUP1 SWAP2 SUB SWAP1 RETURN JUMPDEST PUSH2 0xF9 PUSH2 0x70E JUMP JUMPDEST PUSH1 0x40 MLOAD PUSH2 0x106 SWAP2 SWAP1 PUSH2 0x1BF3 JUMP JUMPDEST PUSH1 0x40 MLOAD DUP1 SWAP2 SUB SWAP1 RETURN JUMPDEST PUSH2 0x117 PUSH2 0x733 JUMP JUMPDEST PUSH1 0x40 MLOAD PUSH2 0x124 SWAP2 SWAP1 PUSH2 0x1BF3 JUMP JUMPDEST PUSH1 0x40 MLOAD DUP1 SWAP2 SUB SWAP1 RETURN JUMPDEST PUSH2 0x135 PUSH2 0x758 JUMP JUMPDEST STOP JUMPDEST PUSH2 0x13F PUSH2 0x76B JUMP JUMPDEST PUSH1 0x40 MLOAD PUSH2 0x14C SWAP2 SWAP1 PUSH2 0x1C2C JUMP JUMPDEST PUSH1 0x40 MLOAD DUP1 SWAP2 SUB SWAP1 RETURN JUMPDEST PUSH2 0x15D PUSH2 0x792 JUMP JUMPDEST PUSH1 0x40 MLOAD PUSH2 0x16B SWAP3 SWAP2 SWAP1 PUSH2 0x1B52 JUMP JUMPDEST PUSH1 0x40 MLOAD DUP1 SWAP2 SUB SWAP1 RETURN JUMPDEST PUSH2 0x18E PUSH1 0x4 DUP1 CALLDATASIZE SUB DUP2 ADD SWAP1 PUSH2 0x189 SWAP2 SWAP1 PUSH2 0x1C45 JUMP JUMPDEST PUSH2 0x99F JUMP JUMPDEST STOP JUMPDEST PUSH2 0x1AA PUSH1 0x4 DUP1 CALLDATASIZE SUB DUP2 ADD SWAP1 PUSH2 0x1A5 SWAP2 SWAP1 PUSH2 0x1C45 JUMP JUMPDEST PUSH2 0x1057 JUMP JUMPDEST STOP JUMPDEST PUSH2 0x1C6 PUSH1 0x4 DUP1 CALLDATASIZE SUB DUP2 ADD SWAP1 PUSH2 0x1C1 SWAP2 SWAP1 PUSH2 0x1B18 JUMP JUMPDEST PUSH2 0x1239 JUMP JUMPDEST STOP JUMPDEST PUSH2 0x1E2 PUSH1 0x4 DUP1 CALLDATASIZE SUB DUP2 ADD SWAP1 PUSH2 0x1DD SWAP2 SWAP1 PUSH2 0x1C45 JUMP JUMPDEST PUSH2 0x15E5 JUMP JUMPDEST STOP JUMPDEST PUSH2 0x1FE PUSH1 0x4 DUP1 CALLDATASIZE SUB DUP2 ADD SWAP1 PUSH2 0x1F9 SWAP2 SWAP1 PUSH2 0x1CAD JUMP JUMPDEST PUSH2 0x1895 JUMP JUMPDEST STOP JUMPDEST PUSH0 DUP2 GT PUSH2 0x242 JUMPI PUSH1 0x40 MLOAD PUSH32 0x8C379A000000000000000000000000000000000000000000000000000000000 DUP2 MSTORE PUSH1 0x4 ADD PUSH2 0x239 SWAP1 PUSH2 0x1D32 JUMP JUMPDEST PUSH1 0x40 MLOAD DUP1 SWAP2 SUB SWAP1 REVERT JUMPDEST PUSH0 PUSH1 0x1 PUSH0 SWAP1 SLOAD SWAP1 PUSH2 0x100 EXP SWAP1 DIV PUSH20 0xFFFFFFFFFFFFFFFFFFFFFFFFFFFFFFFFFFFFFFFF AND PUSH20 0xFFFFFFFFFFFFFFFFFFFFFFFFFFFFFFFFFFFFFFFF AND PUSH4 0x70A08231 ADDRESS PUSH1 0x40 MLOAD DUP3 PUSH4 0xFFFFFFFF AND PUSH1 0xE0 SHL DUP2 MSTORE PUSH1 0x4 ADD PUSH2 0x29D SWAP2 SWAP1 PUSH2 0x1C2C JUMP JUMPDEST PUSH1 0x20 PUSH1 0x40 MLOAD DUP1 DUP4 SUB DUP2 DUP7 GAS STATICCALL ISZERO DUP1 ISZERO PUSH2 0x2B8 JUMPI RETURNDATASIZE PUSH0 DUP1 RETURNDATACOPY RETURNDATASIZE PUSH0 REVERT JUMPDEST POP POP POP POP PUSH1 0x40 MLOAD RETURNDATASIZE PUSH1 0x1F NOT PUSH1 0x1F DUP3 ADD AND DUP3 ADD DUP1 PUSH1 0x40 MSTORE POP DUP2 ADD SWAP1 PUSH2 0x2DC SWAP2 SWAP1 PUSH2 0x1D64 JUMP JUMPDEST SWAP1 POP PUSH0 PUSH1 0x2 PUSH0 SWAP1 SLOAD SWAP1 PUSH2 0x100 EXP SWAP1 DIV PUSH20 0xFFFFFFFFFFFFFFFFFFFFFFFFFFFFFFFFFFFFFFFF AND PUSH20 0xFFFFFFFFFFFFFFFFFFFFFFFFFFFFFFFFFFFFFFFF AND PUSH4 0x70A08231 ADDRESS PUSH1 0x40 MLOAD DUP3 PUSH4 0xFFFFFFFF AND PUSH1 0xE0 SHL DUP2 MSTORE PUSH1 0x4 ADD PUSH2 0x339 SWAP2 SWAP1 PUSH2 0x1C2C JUMP JUMPDEST PUSH1 0x20 PUSH1 0x40 MLOAD DUP1 DUP4 SUB DUP2 DUP7 GAS STATICCALL ISZERO DUP1 ISZERO PUSH2 0x354 JUMPI RETURNDATASIZE PUSH0 DUP1 RETURNDATACOPY RETURNDATASIZE PUSH0 REVERT JUMPDEST POP POP POP POP PUSH1 0x40 MLOAD RETURNDATASIZE PUSH1 0x1F NOT PUSH1 0x1F DUP3 ADD AND DUP3 ADD DUP1 PUSH1 0x40 MSTORE POP DUP2 ADD SWAP1 PUSH2 0x378 SWAP2 SWAP1 PUSH2 0x1D64 JUMP JUMPDEST SWAP1 POP PUSH0 PUSH2 0x386 DUP5 DUP5 DUP5 PUSH2 0x1919 JUMP JUMPDEST SWAP1 POP PUSH1 0x1 PUSH0 SWAP1 SLOAD SWAP1 PUSH2 0x100 EXP SWAP1 DIV PUSH20 0xFFFFFFFFFFFFFFFFFFFFFFFFFFFFFFFFFFFFFFFF AND PUSH20 0xFFFFFFFFFFFFFFFFFFFFFFFFFFFFFFFFFFFFFFFF AND PUSH4 0x23B872DD CALLER ADDRESS PUSH8 0xDE0B6B3A7640000 DUP9 PUSH2 0x3DB SWAP2 SWAP1 PUSH2 0x1DBC JUMP JUMPDEST PUSH1 0x40 MLOAD DUP5 PUSH4 0xFFFFFFFF AND PUSH1 0xE0 SHL DUP2 MSTORE PUSH1 0x4 ADD PUSH2 0x3F9 SWAP4 SWAP3 SWAP2 SWAP1 PUSH2 0x1DFD JUMP JUMPDEST PUSH1 0x20 PUSH1 0x40 MLOAD DUP1 DUP4 SUB DUP2 PUSH0 DUP8 GAS CALL ISZERO DUP1 ISZERO PUSH2 0x415 JUMPI RETURNDATASIZE PUSH0 DUP1 RETURNDATACOPY RETURNDATASIZE PUSH0 REVERT JUMPDEST POP POP POP POP PUSH1 0x40 MLOAD RETURNDATASIZE PUSH1 0x1F NOT PUSH1 0x1F DUP3 ADD AND DUP3 ADD DUP1 PUSH1 0x40 MSTORE POP DUP2 ADD SWAP1 PUSH2 0x439 SWAP2 SWAP1 PUSH2 0x1E67 JUMP JUMPDEST POP PUSH1 0x2 PUSH0 SWAP1 SLOAD SWAP1 PUSH2 0x100 EXP SWAP1 DIV PUSH20 0xFFFFFFFFFFFFFFFFFFFFFFFFFFFFFFFFFFFFFFFF AND PUSH20 0xFFFFFFFFFFFFFFFFFFFFFFFFFFFFFFFFFFFFFFFF AND PUSH4 0xA9059CBB CALLER PUSH8 0xDE0B6B3A7640000 DUP5 PUSH2 0x48C SWAP2 SWAP1 PUSH2 0x1DBC JUMP JUMPDEST PUSH1 0x40 MLOAD DUP4 PUSH4 0xFFFFFFFF AND PUSH1 0xE0 SHL DUP2 MSTORE PUSH1 0x4 ADD PUSH2 0x4A9 SWAP3 SWAP2 SWAP1 PUSH2 0x1E92 JUMP JUMPDEST PUSH1 0x20 PUSH1 0x40 MLOAD DUP1 DUP4 SUB DUP2 PUSH0 DUP8 GAS CALL ISZERO DUP1 ISZERO PUSH2 0x4C5 JUMPI RETURNDATASIZE PUSH0 DUP1 RETURNDATACOPY RETURNDATASIZE PUSH0 REVERT JUMPDEST POP POP POP POP PUSH1 0x40 MLOAD RETURNDATASIZE PUSH1 0x1F NOT PUSH1 0x1F DUP3 ADD AND DUP3 ADD DUP1 PUSH1 0x40 MSTORE POP DUP2 ADD SWAP1 PUSH2 0x4E9 SWAP2 SWAP1 PUSH2 0x1E67 JUMP JUMPDEST POP CALLER PUSH20 0xFFFFFFFFFFFFFFFFFFFFFFFFFFFFFFFFFFFFFFFF AND PUSH32 0xCD3829A3813DC3CDD188FD3D01DCF3268C16BE2FDD2DD21D0665418816E46062 PUSH1 0x1 PUSH0 SWAP1 SLOAD SWAP1 PUSH2 0x100 EXP SWAP1 DIV PUSH20 0xFFFFFFFFFFFFFFFFFFFFFFFFFFFFFFFFFFFFFFFF AND PUSH1 0x2 PUSH0 SWAP1 SLOAD SWAP1 PUSH2 0x100 EXP SWAP1 DIV PUSH20 0xFFFFFFFFFFFFFFFFFFFFFFFFFFFFFFFFFFFFFFFF AND PUSH8 0xDE0B6B3A7640000 DUP9 PUSH2 0x57A SWAP2 SWAP1 PUSH2 0x1DBC JUMP JUMPDEST PUSH8 0xDE0B6B3A7640000 DUP7 PUSH2 0x58E SWAP2 SWAP1 PUSH2 0x1DBC JUMP JUMPDEST PUSH1 0x40 MLOAD PUSH2 0x59E SWAP5 SWAP4 SWAP3 SWAP2 SWAP1 PUSH2 0x1EB9 JUMP JUMPDEST PUSH1 0x40 MLOAD DUP1 SWAP2 SUB SWAP1 LOG2 POP POP POP POP JUMP JUMPDEST PUSH0 DUP1 PUSH8 0xDE0B6B3A7640000 PUSH1 0x1 PUSH0 SWAP1 SLOAD SWAP1 PUSH2 0x100 EXP SWAP1 DIV PUSH20 0xFFFFFFFFFFFFFFFFFFFFFFFFFFFFFFFFFFFFFFFF AND PUSH20 0xFFFFFFFFFFFFFFFFFFFFFFFFFFFFFFFFFFFFFFFF AND PUSH4 0x70A08231 ADDRESS PUSH1 0x40 MLOAD DUP3 PUSH4 0xFFFFFFFF AND PUSH1 0xE0 SHL DUP2 MSTORE PUSH1 0x4 ADD PUSH2 0x611 SWAP2 SWAP1 PUSH2 0x1C2C JUMP JUMPDEST PUSH1 0x20 PUSH1 0x40 MLOAD DUP1 DUP4 SUB DUP2 DUP7 GAS STATICCALL ISZERO DUP1 ISZERO PUSH2 0x62C JUMPI RETURNDATASIZE PUSH0 DUP1 RETURNDATACOPY RETURNDATASIZE PUSH0 REVERT JUMPDEST POP POP POP POP PUSH1 0x40 MLOAD RETURNDATASIZE PUSH1 0x1F NOT PUSH1 0x1F DUP3 ADD AND DUP3 ADD DUP1 PUSH1 0x40 MSTORE POP DUP2 ADD SWAP1 PUSH2 0x650 SWAP2 SWAP1 PUSH2 0x1D64 JUMP JUMPDEST PUSH2 0x65A SWAP2 SWAP1 PUSH2 0x1F29 JUMP JUMPDEST PUSH8 0xDE0B6B3A7640000 PUSH1 0x2 PUSH0 SWAP1 SLOAD SWAP1 PUSH2 0x100 EXP SWAP1 DIV PUSH20 0xFFFFFFFFFFFFFFFFFFFFFFFFFFFFFFFFFFFFFFFF AND PUSH20 0xFFFFFFFFFFFFFFFFFFFFFFFFFFFFFFFFFFFFFFFF AND PUSH4 0x70A08231 ADDRESS PUSH1 0x40 MLOAD DUP3 PUSH4 0xFFFFFFFF AND PUSH1 0xE0 SHL DUP2 MSTORE PUSH1 0x4 ADD PUSH2 0x6BD SWAP2 SWAP1 PUSH2 0x1C2C JUMP JUMPDEST PUSH1 0x20 PUSH1 0x40 MLOAD DUP1 DUP4 SUB DUP2 DUP7 GAS STATICCALL ISZERO DUP1 ISZERO PUSH2 0x6D8 JUMPI RETURNDATASIZE PUSH0 DUP1 RETURNDATACOPY RETURNDATASIZE PUSH0 REVERT JUMPDEST POP POP POP POP PUSH1 0x40 MLOAD RETURNDATASIZE PUSH1 0x1F NOT PUSH1 0x1F DUP3 ADD AND DUP3 ADD DUP1 PUSH1 0x40 MSTORE POP DUP2 ADD SWAP1 PUSH2 0x6FC SWAP2 SWAP1 PUSH2 0x1D64 JUMP JUMPDEST PUSH2 0x706 SWAP2 SWAP1 PUSH2 0x1F29 JUMP JUMPDEST SWAP2 POP SWAP2 POP SWAP1 SWAP2 JUMP JUMPDEST PUSH1 0x1 PUSH0 SWAP1 SLOAD SWAP1 PUSH2 0x100 EXP SWAP1 DIV PUSH20 0xFFFFFFFFFFFFFFFFFFFFFFFFFFFFFFFFFFFFFFFF AND DUP2 JUMP JUMPDEST PUSH1 0x2 PUSH0 SWAP1 SLOAD SWAP1 PUSH2 0x100 EXP SWAP1 DIV PUSH20 0xFFFFFFFFFFFFFFFFFFFFFFFFFFFFFFFFFFFFFFFF AND DUP2 JUMP JUMPDEST PUSH2 0x760 PUSH2 0x1992 JUMP JUMPDEST PUSH2 0x769 PUSH0 PUSH2 0x1A19 JUMP JUMPDEST JUMP JUMPDEST PUSH0 DUP1 PUSH0 SWAP1 SLOAD SWAP1 PUSH2 0x100 EXP SWAP1 DIV PUSH20 0xFFFFFFFFFFFFFFFFFFFFFFFFFFFFFFFFFFFFFFFF AND SWAP1 POP SWAP1 JUMP JUMPDEST PUSH0 DUP1 PUSH0 PUSH1 0x1 PUSH0 SWAP1 SLOAD SWAP1 PUSH2 0x100 EXP SWAP1 DIV PUSH20 0xFFFFFFFFFFFFFFFFFFFFFFFFFFFFFFFFFFFFFFFF AND PUSH20 0xFFFFFFFFFFFFFFFFFFFFFFFFFFFFFFFFFFFFFFFF AND PUSH4 0x70A08231 ADDRESS PUSH1 0x40 MLOAD DUP3 PUSH4 0xFFFFFFFF AND PUSH1 0xE0 SHL DUP2 MSTORE PUSH1 0x4 ADD PUSH2 0x7EF SWAP2 SWAP1 PUSH2 0x1C2C JUMP JUMPDEST PUSH1 0x20 PUSH1 0x40 MLOAD DUP1 DUP4 SUB DUP2 DUP7 GAS STATICCALL ISZERO DUP1 ISZERO PUSH2 0x80A JUMPI RETURNDATASIZE PUSH0 DUP1 RETURNDATACOPY RETURNDATASIZE PUSH0 REVERT JUMPDEST POP POP POP POP PUSH1 0x40 MLOAD RETURNDATASIZE PUSH1 0x1F NOT PUSH1 0x1F DUP3 ADD AND DUP3 ADD DUP1 PUSH1 0x40 MSTORE POP DUP2 ADD SWAP1 PUSH2 0x82E SWAP2 SWAP1 PUSH2 0x1D64 JUMP JUMPDEST SWAP1 POP PUSH0 PUSH1 0x2 PUSH0 SWAP1 SLOAD SWAP1 PUSH2 0x100 EXP SWAP1 DIV PUSH20 0xFFFFFFFFFFFFFFFFFFFFFFFFFFFFFFFFFFFFFFFF AND PUSH20 0xFFFFFFFFFFFFFFFFFFFFFFFFFFFFFFFFFFFFFFFF AND PUSH4 0x70A08231 ADDRESS PUSH1 0x40 MLOAD DUP3 PUSH4 0xFFFFFFFF AND PUSH1 0xE0 SHL DUP2 MSTORE PUSH1 0x4 ADD PUSH2 0x88B SWAP2 SWAP1 PUSH2 0x1C2C JUMP JUMPDEST PUSH1 0x20 PUSH1 0x40 MLOAD DUP1 DUP4 SUB DUP2 DUP7 GAS STATICCALL ISZERO DUP1 ISZERO PUSH2 0x8A6 JUMPI RETURNDATASIZE PUSH0 DUP1 RETURNDATACOPY RETURNDATASIZE PUSH0 REVERT JUMPDEST POP POP POP POP PUSH1 0x40 MLOAD RETURNDATASIZE PUSH1 0x1F NOT PUSH1 0x1F DUP3 ADD AND DUP3 ADD DUP1 PUSH1 0x40 MSTORE POP DUP2 ADD SWAP1 PUSH2 0x8CA SWAP2 SWAP1 PUSH2 0x1D64 JUMP JUMPDEST SWAP1 POP PUSH0 DUP3 GT DUP1 ISZERO PUSH2 0x8DA JUMPI POP PUSH0 DUP2 GT JUMPDEST PUSH2 0x919 JUMPI PUSH1 0x40 MLOAD PUSH32 0x8C379A000000000000000000000000000000000000000000000000000000000 DUP2 MSTORE PUSH1 0x4 ADD PUSH2 0x910 SWAP1 PUSH2 0x1FA3 JUMP JUMPDEST PUSH1 0x40 MLOAD DUP1 SWAP2 SUB SWAP1 REVERT JUMPDEST PUSH1 0x64 PUSH8 0xDE0B6B3A7640000 DUP3 PUSH8 0xDE0B6B3A7640000 DUP6 PUSH2 0x939 SWAP2 SWAP1 PUSH2 0x1DBC JUMP JUMPDEST PUSH2 0x943 SWAP2 SWAP1 PUSH2 0x1F29 JUMP JUMPDEST PUSH2 0x94D SWAP2 SWAP1 PUSH2 0x1F29 JUMP JUMPDEST PUSH2 0x957 SWAP2 SWAP1 PUSH2 0x1DBC JUMP JUMPDEST PUSH1 0x64 PUSH8 0xDE0B6B3A7640000 DUP5 PUSH8 0xDE0B6B3A7640000 DUP6 PUSH2 0x977 SWAP2 SWAP1 PUSH2 0x1DBC JUMP JUMPDEST PUSH2 0x981 SWAP2 SWAP1 PUSH2 0x1F29 JUMP JUMPDEST PUSH2 0x98B SWAP2 SWAP1 PUSH2 0x1F29 JUMP JUMPDEST PUSH2 0x995 SWAP2 SWAP1 PUSH2 0x1DBC JUMP JUMPDEST SWAP4 POP SWAP4 POP POP POP SWAP1 SWAP2 JUMP JUMPDEST PUSH2 0x9A7 PUSH2 0x1992 JUMP JUMPDEST PUSH0 DUP3 GT DUP1 ISZERO PUSH2 0x9B5 JUMPI POP PUSH0 DUP2 GT JUMPDEST PUSH2 0x9F4 JUMPI PUSH1 0x40 MLOAD PUSH32 0x8C379A000000000000000000000000000000000000000000000000000000000 DUP2 MSTORE PUSH1 0x4 ADD PUSH2 0x9EB SWAP1 PUSH2 0x200B JUMP JUMPDEST PUSH1 0x40 MLOAD DUP1 SWAP2 SUB SWAP1 REVERT JUMPDEST PUSH0 PUSH1 0x2 PUSH0 SWAP1 SLOAD SWAP1 PUSH2 0x100 EXP SWAP1 DIV PUSH20 0xFFFFFFFFFFFFFFFFFFFFFFFFFFFFFFFFFFFFFFFF AND PUSH20 0xFFFFFFFFFFFFFFFFFFFFFFFFFFFFFFFFFFFFFFFF AND PUSH4 0x70A08231 ADDRESS PUSH1 0x40 MLOAD DUP3 PUSH4 0xFFFFFFFF AND PUSH1 0xE0 SHL DUP2 MSTORE PUSH1 0x4 ADD PUSH2 0xA4F SWAP2 SWAP1 PUSH2 0x1C2C JUMP JUMPDEST PUSH1 0x20 PUSH1 0x40 MLOAD DUP1 DUP4 SUB DUP2 DUP7 GAS STATICCALL ISZERO DUP1 ISZERO PUSH2 0xA6A JUMPI RETURNDATASIZE PUSH0 DUP1 RETURNDATACOPY RETURNDATASIZE PUSH0 REVERT JUMPDEST POP POP POP POP PUSH1 0x40 MLOAD RETURNDATASIZE PUSH1 0x1F NOT PUSH1 0x1F DUP3 ADD AND DUP3 ADD DUP1 PUSH1 0x40 MSTORE POP DUP2 ADD SWAP1 PUSH2 0xA8E SWAP2 SWAP1 PUSH2 0x1D64 JUMP JUMPDEST GT DUP1 ISZERO PUSH2 0xB32 JUMPI POP PUSH0 PUSH1 0x1 PUSH0 SWAP1 SLOAD SWAP1 PUSH2 0x100 EXP SWAP1 DIV PUSH20 0xFFFFFFFFFFFFFFFFFFFFFFFFFFFFFFFFFFFFFFFF AND PUSH20 0xFFFFFFFFFFFFFFFFFFFFFFFFFFFFFFFFFFFFFFFF AND PUSH4 0x70A08231 ADDRESS PUSH1 0x40 MLOAD DUP3 PUSH4 0xFFFFFFFF AND PUSH1 0xE0 SHL DUP2 MSTORE PUSH1 0x4 ADD PUSH2 0xAF1 SWAP2 SWAP1 PUSH2 0x1C2C JUMP JUMPDEST PUSH1 0x20 PUSH1 0x40 MLOAD DUP1 DUP4 SUB DUP2 DUP7 GAS STATICCALL ISZERO DUP1 ISZERO PUSH2 0xB0C JUMPI RETURNDATASIZE PUSH0 DUP1 RETURNDATACOPY RETURNDATASIZE PUSH0 REVERT JUMPDEST POP POP POP POP PUSH1 0x40 MLOAD RETURNDATASIZE PUSH1 0x1F NOT PUSH1 0x1F DUP3 ADD AND DUP3 ADD DUP1 PUSH1 0x40 MSTORE POP DUP2 ADD SWAP1 PUSH2 0xB30 SWAP2 SWAP1 PUSH2 0x1D64 JUMP JUMPDEST GT JUMPDEST PUSH2 0xB71 JUMPI PUSH1 0x40 MLOAD PUSH32 0x8C379A000000000000000000000000000000000000000000000000000000000 DUP2 MSTORE PUSH1 0x4 ADD PUSH2 0xB68 SWAP1 PUSH2 0x2073 JUMP JUMPDEST PUSH1 0x40 MLOAD DUP1 SWAP2 SUB SWAP1 REVERT JUMPDEST PUSH0 PUSH1 0x2 PUSH0 SWAP1 SLOAD SWAP1 PUSH2 0x100 EXP SWAP1 DIV PUSH20 0xFFFFFFFFFFFFFFFFFFFFFFFFFFFFFFFFFFFFFFFF AND PUSH20 0xFFFFFFFFFFFFFFFFFFFFFFFFFFFFFFFFFFFFFFFF AND PUSH4 0x70A08231 ADDRESS PUSH1 0x40 MLOAD DUP3 PUSH4 0xFFFFFFFF AND PUSH1 0xE0 SHL DUP2 MSTORE PUSH1 0x4 ADD PUSH2 0xBCC SWAP2 SWAP1 PUSH2 0x1C2C JUMP JUMPDEST PUSH1 0x20 PUSH1 0x40 MLOAD DUP1 DUP4 SUB DUP2 DUP7 GAS STATICCALL ISZERO DUP1 ISZERO PUSH2 0xBE7 JUMPI RETURNDATASIZE PUSH0 DUP1 RETURNDATACOPY RETURNDATASIZE PUSH0 REVERT JUMPDEST POP POP POP POP PUSH1 0x40 MLOAD RETURNDATASIZE PUSH1 0x1F NOT PUSH1 0x1F DUP3 ADD AND DUP3 ADD DUP1 PUSH1 0x40 MSTORE POP DUP2 ADD SWAP1 PUSH2 0xC0B SWAP2 SWAP1 PUSH2 0x1D64 JUMP JUMPDEST PUSH8 0xDE0B6B3A7640000 PUSH1 0x1 PUSH0 SWAP1 SLOAD SWAP1 PUSH2 0x100 EXP SWAP1 DIV PUSH20 0xFFFFFFFFFFFFFFFFFFFFFFFFFFFFFFFFFFFFFFFF AND PUSH20 0xFFFFFFFFFFFFFFFFFFFFFFFFFFFFFFFFFFFFFFFF AND PUSH4 0x70A08231 ADDRESS PUSH1 0x40 MLOAD DUP3 PUSH4 0xFFFFFFFF AND PUSH1 0xE0 SHL DUP2 MSTORE PUSH1 0x4 ADD PUSH2 0xC6E SWAP2 SWAP1 PUSH2 0x1C2C JUMP JUMPDEST PUSH1 0x20 PUSH1 0x40 MLOAD DUP1 DUP4 SUB DUP2 DUP7 GAS STATICCALL ISZERO DUP1 ISZERO PUSH2 0xC89 JUMPI RETURNDATASIZE PUSH0 DUP1 RETURNDATACOPY RETURNDATASIZE PUSH0 REVERT JUMPDEST POP POP POP POP PUSH1 0x40 MLOAD RETURNDATASIZE PUSH1 0x1F NOT PUSH1 0x1F DUP3 ADD AND DUP3 ADD DUP1 PUSH1 0x40 MSTORE POP DUP2 ADD SWAP1 PUSH2 0xCAD SWAP2 SWAP1 PUSH2 0x1D64 JUMP JUMPDEST PUSH2 0xCB7 SWAP2 SWAP1 PUSH2 0x1DBC JUMP JUMPDEST PUSH2 0xCC1 SWAP2 SWAP1 PUSH2 0x1F29 JUMP JUMPDEST SWAP1 POP PUSH0 PUSH1 0x1 PUSH0 SWAP1 SLOAD SWAP1 PUSH2 0x100 EXP SWAP1 DIV PUSH20 0xFFFFFFFFFFFFFFFFFFFFFFFFFFFFFFFFFFFFFFFF AND PUSH20 0xFFFFFFFFFFFFFFFFFFFFFFFFFFFFFFFFFFFFFFFF AND PUSH4 0x70A08231 ADDRESS PUSH1 0x40 MLOAD DUP3 PUSH4 0xFFFFFFFF AND PUSH1 0xE0 SHL DUP2 MSTORE PUSH1 0x4 ADD PUSH2 0xD1E SWAP2 SWAP1 PUSH2 0x1C2C JUMP JUMPDEST PUSH1 0x20 PUSH1 0x40 MLOAD DUP1 DUP4 SUB DUP2 DUP7 GAS STATICCALL ISZERO DUP1 ISZERO PUSH2 0xD39 JUMPI RETURNDATASIZE PUSH0 DUP1 RETURNDATACOPY RETURNDATASIZE PUSH0 REVERT JUMPDEST POP POP POP POP PUSH1 0x40 MLOAD RETURNDATASIZE PUSH1 0x1F NOT PUSH1 0x1F DUP3 ADD AND DUP3 ADD DUP1 PUSH1 0x40 MSTORE POP DUP2 ADD SWAP1 PUSH2 0xD5D SWAP2 SWAP1 PUSH2 0x1D64 JUMP JUMPDEST PUSH8 0xDE0B6B3A7640000 PUSH1 0x2 PUSH0 SWAP1 SLOAD SWAP1 PUSH2 0x100 EXP SWAP1 DIV PUSH20 0xFFFFFFFFFFFFFFFFFFFFFFFFFFFFFFFFFFFFFFFF AND PUSH20 0xFFFFFFFFFFFFFFFFFFFFFFFFFFFFFFFFFFFFFFFF AND PUSH4 0x70A08231 ADDRESS PUSH1 0x40 MLOAD DUP3 PUSH4 0xFFFFFFFF AND PUSH1 0xE0 SHL DUP2 MSTORE PUSH1 0x4 ADD PUSH2 0xDC0 SWAP2 SWAP1 PUSH2 0x1C2C JUMP JUMPDEST PUSH1 0x20 PUSH1 0x40 MLOAD DUP1 DUP4 SUB DUP2 DUP7 GAS STATICCALL ISZERO DUP1 ISZERO PUSH2 0xDDB JUMPI RETURNDATASIZE PUSH0 DUP1 RETURNDATACOPY RETURNDATASIZE PUSH0 REVERT JUMPDEST POP POP POP POP PUSH1 0x40 MLOAD RETURNDATASIZE PUSH1 0x1F NOT PUSH1 0x1F DUP3 ADD AND DUP3 ADD DUP1 PUSH1 0x40 MSTORE POP DUP2 ADD SWAP1 PUSH2 0xDFF SWAP2 SWAP1 PUSH2 0x1D64 JUMP JUMPDEST PUSH2 0xE09 SWAP2 SWAP1 PUSH2 0x1DBC JUMP JUMPDEST PUSH2 0xE13 SWAP2 SWAP1 PUSH2 0x1F29 JUMP JUMPDEST SWAP1 POP DUP2 DUP4 DUP6 PUSH2 0xE22 SWAP2 SWAP1 PUSH2 0x1F29 JUMP JUMPDEST EQ DUP1 PUSH2 0xE38 JUMPI POP DUP1 DUP5 DUP5 PUSH2 0xE36 SWAP2 SWAP1 PUSH2 0x1F29 JUMP JUMPDEST EQ JUMPDEST PUSH2 0xE77 JUMPI PUSH1 0x40 MLOAD PUSH32 0x8C379A000000000000000000000000000000000000000000000000000000000 DUP2 MSTORE PUSH1 0x4 ADD PUSH2 0xE6E SWAP1 PUSH2 0x20DB JUMP JUMPDEST PUSH1 0x40 MLOAD DUP1 SWAP2 SUB SWAP1 REVERT JUMPDEST PUSH1 0x1 PUSH0 SWAP1 SLOAD SWAP1 PUSH2 0x100 EXP SWAP1 DIV PUSH20 0xFFFFFFFFFFFFFFFFFFFFFFFFFFFFFFFFFFFFFFFF AND PUSH20 0xFFFFFFFFFFFFFFFFFFFFFFFFFFFFFFFFFFFFFFFF AND PUSH4 0x23B872DD CALLER ADDRESS PUSH8 0xDE0B6B3A7640000 DUP9 PUSH2 0xECA SWAP2 SWAP1 PUSH2 0x1DBC JUMP JUMPDEST PUSH1 0x40 MLOAD DUP5 PUSH4 0xFFFFFFFF AND PUSH1 0xE0 SHL DUP2 MSTORE PUSH1 0x4 ADD PUSH2 0xEE8 SWAP4 SWAP3 SWAP2 SWAP1 PUSH2 0x1DFD JUMP JUMPDEST PUSH1 0x20 PUSH1 0x40 MLOAD DUP1 DUP4 SUB DUP2 PUSH0 DUP8 GAS CALL ISZERO DUP1 ISZERO PUSH2 0xF04 JUMPI RETURNDATASIZE PUSH0 DUP1 RETURNDATACOPY RETURNDATASIZE PUSH0 REVERT JUMPDEST POP POP POP POP PUSH1 0x40 MLOAD RETURNDATASIZE PUSH1 0x1F NOT PUSH1 0x1F DUP3 ADD AND DUP3 ADD DUP1 PUSH1 0x40 MSTORE POP DUP2 ADD SWAP1 PUSH2 0xF28 SWAP2 SWAP1 PUSH2 0x1E67 JUMP JUMPDEST POP PUSH1 0x2 PUSH0 SWAP1 SLOAD SWAP1 PUSH2 0x100 EXP SWAP1 DIV PUSH20 0xFFFFFFFFFFFFFFFFFFFFFFFFFFFFFFFFFFFFFFFF AND PUSH20 0xFFFFFFFFFFFFFFFFFFFFFFFFFFFFFFFFFFFFFFFF AND PUSH4 0x23B872DD CALLER ADDRESS PUSH8 0xDE0B6B3A7640000 DUP8 PUSH2 0xF7C SWAP2 SWAP1 PUSH2 0x1DBC JUMP JUMPDEST PUSH1 0x40 MLOAD DUP5 PUSH4 0xFFFFFFFF AND PUSH1 0xE0 SHL DUP2 MSTORE PUSH1 0x4 ADD PUSH2 0xF9A SWAP4 SWAP3 SWAP2 SWAP1 PUSH2 0x1DFD JUMP JUMPDEST PUSH1 0x20 PUSH1 0x40 MLOAD DUP1 DUP4 SUB DUP2 PUSH0 DUP8 GAS CALL ISZERO DUP1 ISZERO PUSH2 0xFB6 JUMPI RETURNDATASIZE PUSH0 DUP1 RETURNDATACOPY RETURNDATASIZE PUSH0 REVERT JUMPDEST POP POP POP POP PUSH1 0x40 MLOAD RETURNDATASIZE PUSH1 0x1F NOT PUSH1 0x1F DUP3 ADD AND DUP3 ADD DUP1 PUSH1 0x40 MSTORE POP DUP2 ADD SWAP1 PUSH2 0xFDA SWAP2 SWAP1 PUSH2 0x1E67 JUMP JUMPDEST POP CALLER PUSH20 0xFFFFFFFFFFFFFFFFFFFFFFFFFFFFFFFFFFFFFFFF AND PUSH32 0xAC1D76749E5447B7B16F5AB61447E1BD502F3BB4807AF3B28E620D1700A6EE45 PUSH8 0xDE0B6B3A7640000 DUP7 PUSH2 0x1027 SWAP2 SWAP1 PUSH2 0x1DBC JUMP JUMPDEST PUSH8 0xDE0B6B3A7640000 DUP7 PUSH2 0x103B SWAP2 SWAP1 PUSH2 0x1DBC JUMP JUMPDEST PUSH1 0x40 MLOAD PUSH2 0x1049 SWAP3 SWAP2 SWAP1 PUSH2 0x1B52 JUMP JUMPDEST PUSH1 0x40 MLOAD DUP1 SWAP2 SUB SWAP1 LOG2 POP POP POP POP JUMP JUMPDEST PUSH2 0x105F PUSH2 0x1992 JUMP JUMPDEST PUSH1 0x1 PUSH0 SWAP1 SLOAD SWAP1 PUSH2 0x100 EXP SWAP1 DIV PUSH20 0xFFFFFFFFFFFFFFFFFFFFFFFFFFFFFFFFFFFFFFFF AND PUSH20 0xFFFFFFFFFFFFFFFFFFFFFFFFFFFFFFFFFFFFFFFF AND PUSH4 0xA9059CBB CALLER PUSH8 0xDE0B6B3A7640000 DUP6 PUSH2 0x10B1 SWAP2 SWAP1 PUSH2 0x1DBC JUMP JUMPDEST PUSH1 0x40 MLOAD DUP4 PUSH4 0xFFFFFFFF AND PUSH1 0xE0 SHL DUP2 MSTORE PUSH1 0x4 ADD PUSH2 0x10CE SWAP3 SWAP2 SWAP1 PUSH2 0x1E92 JUMP JUMPDEST PUSH1 0x20 PUSH1 0x40 MLOAD DUP1 DUP4 SUB DUP2 PUSH0 DUP8 GAS CALL ISZERO DUP1 ISZERO PUSH2 0x10EA JUMPI RETURNDATASIZE PUSH0 DUP1 RETURNDATACOPY RETURNDATASIZE PUSH0 REVERT JUMPDEST POP POP POP POP PUSH1 0x40 MLOAD RETURNDATASIZE PUSH1 0x1F NOT PUSH1 0x1F DUP3 ADD AND DUP3 ADD DUP1 PUSH1 0x40 MSTORE POP DUP2 ADD SWAP1 PUSH2 0x110E SWAP2 SWAP1 PUSH2 0x1E67 JUMP JUMPDEST POP PUSH1 0x2 PUSH0 SWAP1 SLOAD SWAP1 PUSH2 0x100 EXP SWAP1 DIV PUSH20 0xFFFFFFFFFFFFFFFFFFFFFFFFFFFFFFFFFFFFFFFF AND PUSH20 0xFFFFFFFFFFFFFFFFFFFFFFFFFFFFFFFFFFFFFFFF AND PUSH4 0xA9059CBB CALLER PUSH8 0xDE0B6B3A7640000 DUP5 PUSH2 0x1161 SWAP2 SWAP1 PUSH2 0x1DBC JUMP JUMPDEST PUSH1 0x40 MLOAD DUP4 PUSH4 0xFFFFFFFF AND PUSH1 0xE0 SHL DUP2 MSTORE PUSH1 0x4 ADD PUSH2 0x117E SWAP3 SWAP2 SWAP1 PUSH2 0x1E92 JUMP JUMPDEST PUSH1 0x20 PUSH1 0x40 MLOAD DUP1 DUP4 SUB DUP2 PUSH0 DUP8 GAS CALL ISZERO DUP1 ISZERO PUSH2 0x119A JUMPI RETURNDATASIZE PUSH0 DUP1 RETURNDATACOPY RETURNDATASIZE PUSH0 REVERT JUMPDEST POP POP POP POP PUSH1 0x40 MLOAD RETURNDATASIZE PUSH1 0x1F NOT PUSH1 0x1F DUP3 ADD AND DUP3 ADD DUP1 PUSH1 0x40 MSTORE POP DUP2 ADD SWAP1 PUSH2 0x11BE SWAP2 SWAP1 PUSH2 0x1E67 JUMP JUMPDEST POP CALLER PUSH20 0xFFFFFFFFFFFFFFFFFFFFFFFFFFFFFFFFFFFFFFFF AND PUSH32 0x96CD817C6329656790EF8FBA7675405193677D39619571282F5E21F3A98CD059 PUSH8 0xDE0B6B3A7640000 DUP5 PUSH2 0x120B SWAP2 SWAP1 PUSH2 0x1DBC JUMP JUMPDEST PUSH8 0xDE0B6B3A7640000 DUP5 PUSH2 0x121F SWAP2 SWAP1 PUSH2 0x1DBC JUMP JUMPDEST PUSH1 0x40 MLOAD PUSH2 0x122D SWAP3 SWAP2 SWAP1 PUSH2 0x1B52 JUMP JUMPDEST PUSH1 0x40 MLOAD DUP1 SWAP2 SUB SWAP1 LOG2 POP POP JUMP JUMPDEST PUSH0 DUP2 GT PUSH2 0x127B JUMPI PUSH1 0x40 MLOAD PUSH32 0x8C379A000000000000000000000000000000000000000000000000000000000 DUP2 MSTORE PUSH1 0x4 ADD PUSH2 0x1272 SWAP1 PUSH2 0x1D32 JUMP JUMPDEST PUSH1 0x40 MLOAD DUP1 SWAP2 SUB SWAP1 REVERT JUMPDEST PUSH0 PUSH1 0x1 PUSH0 SWAP1 SLOAD SWAP1 PUSH2 0x100 EXP SWAP1 DIV PUSH20 0xFFFFFFFFFFFFFFFFFFFFFFFFFFFFFFFFFFFFFFFF AND PUSH20 0xFFFFFFFFFFFFFFFFFFFFFFFFFFFFFFFFFFFFFFFF AND PUSH4 0x70A08231 ADDRESS PUSH1 0x40 MLOAD DUP3 PUSH4 0xFFFFFFFF AND PUSH1 0xE0 SHL DUP2 MSTORE PUSH1 0x4 ADD PUSH2 0x12D6 SWAP2 SWAP1 PUSH2 0x1C2C JUMP JUMPDEST PUSH1 0x20 PUSH1 0x40 MLOAD DUP1 DUP4 SUB DUP2 DUP7 GAS STATICCALL ISZERO DUP1 ISZERO PUSH2 0x12F1 JUMPI RETURNDATASIZE PUSH0 DUP1 RETURNDATACOPY RETURNDATASIZE PUSH0 REVERT JUMPDEST POP POP POP POP PUSH1 0x40 MLOAD RETURNDATASIZE PUSH1 0x1F NOT PUSH1 0x1F DUP3 ADD AND DUP3 ADD DUP1 PUSH1 0x40 MSTORE POP DUP2 ADD SWAP1 PUSH2 0x1315 SWAP2 SWAP1 PUSH2 0x1D64 JUMP JUMPDEST SWAP1 POP PUSH0 PUSH1 0x2 PUSH0 SWAP1 SLOAD SWAP1 PUSH2 0x100 EXP SWAP1 DIV PUSH20 0xFFFFFFFFFFFFFFFFFFFFFFFFFFFFFFFFFFFFFFFF AND PUSH20 0xFFFFFFFFFFFFFFFFFFFFFFFFFFFFFFFFFFFFFFFF AND PUSH4 0x70A08231 ADDRESS PUSH1 0x40 MLOAD DUP3 PUSH4 0xFFFFFFFF AND PUSH1 0xE0 SHL DUP2 MSTORE PUSH1 0x4 ADD PUSH2 0x1372 SWAP2 SWAP1 PUSH2 0x1C2C JUMP JUMPDEST PUSH1 0x20 PUSH1 0x40 MLOAD DUP1 DUP4 SUB DUP2 DUP7 GAS STATICCALL ISZERO DUP1 ISZERO PUSH2 0x138D JUMPI RETURNDATASIZE PUSH0 DUP1 RETURNDATACOPY RETURNDATASIZE PUSH0 REVERT JUMPDEST POP POP POP POP PUSH1 0x40 MLOAD RETURNDATASIZE PUSH1 0x1F NOT PUSH1 0x1F DUP3 ADD AND DUP3 ADD DUP1 PUSH1 0x40 MSTORE POP DUP2 ADD SWAP1 PUSH2 0x13B1 SWAP2 SWAP1 PUSH2 0x1D64 JUMP JUMPDEST SWAP1 POP PUSH0 PUSH2 0x13BF DUP5 DUP4 DUP6 PUSH2 0x1919 JUMP JUMPDEST SWAP1 POP PUSH1 0x2 PUSH0 SWAP1 SLOAD SWAP1 PUSH2 0x100 EXP SWAP1 DIV PUSH20 0xFFFFFFFFFFFFFFFFFFFFFFFFFFFFFFFFFFFFFFFF AND PUSH20 0xFFFFFFFFFFFFFFFFFFFFFFFFFFFFFFFFFFFFFFFF AND PUSH4 0x23B872DD CALLER ADDRESS PUSH8 0xDE0B6B3A7640000 DUP9 PUSH2 0x1414 SWAP2 SWAP1 PUSH2 0x1DBC JUMP JUMPDEST PUSH1 0x40 MLOAD DUP5 PUSH4 0xFFFFFFFF AND PUSH1 0xE0 SHL DUP2 MSTORE PUSH1 0x4 ADD PUSH2 0x1432 SWAP4 SWAP3 SWAP2 SWAP1 PUSH2 0x1DFD JUMP JUMPDEST PUSH1 0x20 PUSH1 0x40 MLOAD DUP1 DUP4 SUB DUP2 PUSH0 DUP8 GAS CALL ISZERO DUP1 ISZERO PUSH2 0x144E JUMPI RETURNDATASIZE PUSH0 DUP1 RETURNDATACOPY RETURNDATASIZE PUSH0 REVERT JUMPDEST POP POP POP POP PUSH1 0x40 MLOAD RETURNDATASIZE PUSH1 0x1F NOT PUSH1 0x1F DUP3 ADD AND DUP3 ADD DUP1 PUSH1 0x40 MSTORE POP DUP2 ADD SWAP1 PUSH2 0x1472 SWAP2 SWAP1 PUSH2 0x1E67 JUMP JUMPDEST POP PUSH1 0x1 PUSH0 SWAP1 SLOAD SWAP1 PUSH2 0x100 EXP SWAP1 DIV PUSH20 0xFFFFFFFFFFFFFFFFFFFFFFFFFFFFFFFFFFFFFFFF AND PUSH20 0xFFFFFFFFFFFFFFFFFFFFFFFFFFFFFFFFFFFFFFFF AND PUSH4 0xA9059CBB CALLER PUSH8 0xDE0B6B3A7640000 DUP5 PUSH2 0x14C5 SWAP2 SWAP1 PUSH2 0x1DBC JUMP JUMPDEST PUSH1 0x40 MLOAD DUP4 PUSH4 0xFFFFFFFF AND PUSH1 0xE0 SHL DUP2 MSTORE PUSH1 0x4 ADD PUSH2 0x14E2 SWAP3 SWAP2 SWAP1 PUSH2 0x1E92 JUMP JUMPDEST PUSH1 0x20 PUSH1 0x40 MLOAD DUP1 DUP4 SUB DUP2 PUSH0 DUP8 GAS CALL ISZERO DUP1 ISZERO PUSH2 0x14FE JUMPI RETURNDATASIZE PUSH0 DUP1 RETURNDATACOPY RETURNDATASIZE PUSH0 REVERT JUMPDEST POP POP POP POP PUSH1 0x40 MLOAD RETURNDATASIZE PUSH1 0x1F NOT PUSH1 0x1F DUP3 ADD AND DUP3 ADD DUP1 PUSH1 0x40 MSTORE POP DUP2 ADD SWAP1 PUSH2 0x1522 SWAP2 SWAP1 PUSH2 0x1E67 JUMP JUMPDEST POP CALLER PUSH20 0xFFFFFFFFFFFFFFFFFFFFFFFFFFFFFFFFFFFFFFFF AND PUSH32 0xCD3829A3813DC3CDD188FD3D01DCF3268C16BE2FDD2DD21D0665418816E46062 PUSH1 0x2 PUSH0 SWAP1 SLOAD SWAP1 PUSH2 0x100 EXP SWAP1 DIV PUSH20 0xFFFFFFFFFFFFFFFFFFFFFFFFFFFFFFFFFFFFFFFF AND PUSH1 0x1 PUSH0 SWAP1 SLOAD SWAP1 PUSH2 0x100 EXP SWAP1 DIV PUSH20 0xFFFFFFFFFFFFFFFFFFFFFFFFFFFFFFFFFFFFFFFF AND PUSH8 0xDE0B6B3A7640000 DUP9 PUSH2 0x15B3 SWAP2 SWAP1 PUSH2 0x1DBC JUMP JUMPDEST PUSH8 0xDE0B6B3A7640000 DUP7 PUSH2 0x15C7 SWAP2 SWAP1 PUSH2 0x1DBC JUMP JUMPDEST PUSH1 0x40 MLOAD PUSH2 0x15D7 SWAP5 SWAP4 SWAP3 SWAP2 SWAP1 PUSH2 0x1EB9 JUMP JUMPDEST PUSH1 0x40 MLOAD DUP1 SWAP2 SUB SWAP1 LOG2 POP POP POP POP JUMP JUMPDEST PUSH2 0x15ED PUSH2 0x1992 JUMP JUMPDEST PUSH1 0x4 DUP3 PUSH2 0x15FA SWAP2 SWAP1 PUSH2 0x1DBC JUMP JUMPDEST DUP2 EQ PUSH2 0x163B JUMPI PUSH1 0x40 MLOAD PUSH32 0x8C379A000000000000000000000000000000000000000000000000000000000 DUP2 MSTORE PUSH1 0x4 ADD PUSH2 0x1632 SWAP1 PUSH2 0x2169 JUMP JUMPDEST PUSH1 0x40 MLOAD DUP1 SWAP2 SUB SWAP1 REVERT JUMPDEST PUSH1 0x1 PUSH0 SWAP1 SLOAD SWAP1 PUSH2 0x100 EXP SWAP1 DIV PUSH20 0xFFFFFFFFFFFFFFFFFFFFFFFFFFFFFFFFFFFFFFFF AND PUSH20 0xFFFFFFFFFFFFFFFFFFFFFFFFFFFFFFFFFFFFFFFF AND PUSH4 0x23B872DD CALLER ADDRESS PUSH8 0xDE0B6B3A7640000 DUP7 PUSH2 0x168E SWAP2 SWAP1 PUSH2 0x1DBC JUMP JUMPDEST PUSH1 0x40 MLOAD DUP5 PUSH4 0xFFFFFFFF AND PUSH1 0xE0 SHL DUP2 MSTORE PUSH1 0x4 ADD PUSH2 0x16AC SWAP4 SWAP3 SWAP2 SWAP1 PUSH2 0x1DFD JUMP JUMPDEST PUSH1 0x20 PUSH1 0x40 MLOAD DUP1 DUP4 SUB DUP2 PUSH0 DUP8 GAS CALL ISZERO DUP1 ISZERO PUSH2 0x16C8 JUMPI RETURNDATASIZE PUSH0 DUP1 RETURNDATACOPY RETURNDATASIZE PUSH0 REVERT JUMPDEST POP POP POP POP PUSH1 0x40 MLOAD RETURNDATASIZE PUSH1 0x1F NOT PUSH1 0x1F DUP3 ADD AND DUP3 ADD DUP1 PUSH1 0x40 MSTORE POP DUP2 ADD SWAP1 PUSH2 0x16EC SWAP2 SWAP1 PUSH2 0x1E67 JUMP JUMPDEST PUSH2 0x172B JUMPI PUSH1 0x40 MLOAD PUSH32 0x8C379A000000000000000000000000000000000000000000000000000000000 DUP2 MSTORE PUSH1 0x4 ADD PUSH2 0x1722 SWAP1 PUSH2 0x21D1 JUMP JUMPDEST PUSH1 0x40 MLOAD DUP1 SWAP2 SUB SWAP1 REVERT JUMPDEST PUSH1 0x2 PUSH0 SWAP1 SLOAD SWAP1 PUSH2 0x100 EXP SWAP1 DIV PUSH20 0xFFFFFFFFFFFFFFFFFFFFFFFFFFFFFFFFFFFFFFFF AND PUSH20 0xFFFFFFFFFFFFFFFFFFFFFFFFFFFFFFFFFFFFFFFF AND PUSH4 0x23B872DD CALLER ADDRESS PUSH8 0xDE0B6B3A7640000 DUP6 PUSH2 0x177E SWAP2 SWAP1 PUSH2 0x1DBC JUMP JUMPDEST PUSH1 0x40 MLOAD DUP5 PUSH4 0xFFFFFFFF AND PUSH1 0xE0 SHL DUP2 MSTORE PUSH1 0x4 ADD PUSH2 0x179C SWAP4 SWAP3 SWAP2 SWAP1 PUSH2 0x1DFD JUMP JUMPDEST PUSH1 0x20 PUSH1 0x40 MLOAD DUP1 DUP4 SUB DUP2 PUSH0 DUP8 GAS CALL ISZERO DUP1 ISZERO PUSH2 0x17B8 JUMPI RETURNDATASIZE PUSH0 DUP1 RETURNDATACOPY RETURNDATASIZE PUSH0 REVERT JUMPDEST POP POP POP POP PUSH1 0x40 MLOAD RETURNDATASIZE PUSH1 0x1F NOT PUSH1 0x1F DUP3 ADD AND DUP3 ADD DUP1 PUSH1 0x40 MSTORE POP DUP2 ADD SWAP1 PUSH2 0x17DC SWAP2 SWAP1 PUSH2 0x1E67 JUMP JUMPDEST PUSH2 0x181B JUMPI PUSH1 0x40 MLOAD PUSH32 0x8C379A000000000000000000000000000000000000000000000000000000000 DUP2 MSTORE PUSH1 0x4 ADD PUSH2 0x1812 SWAP1 PUSH2 0x2239 JUMP JUMPDEST PUSH1 0x40 MLOAD DUP1 SWAP2 SUB SWAP1 REVERT JUMPDEST CALLER PUSH20 0xFFFFFFFFFFFFFFFFFFFFFFFFFFFFFFFFFFFFFFFF AND PUSH32 0x997F3E422A7446CCF056E7A989C8A281F20AF906A7AC6AD0E6F9FEA0EDD6055C PUSH8 0xDE0B6B3A7640000 DUP5 PUSH2 0x1867 SWAP2 SWAP1 PUSH2 0x1DBC JUMP JUMPDEST PUSH8 0xDE0B6B3A7640000 DUP5 PUSH2 0x187B SWAP2 SWAP1 PUSH2 0x1DBC JUMP JUMPDEST PUSH1 0x40 MLOAD PUSH2 0x1889 SWAP3 SWAP2 SWAP1 PUSH2 0x1B52 JUMP JUMPDEST PUSH1 0x40 MLOAD DUP1 SWAP2 SUB SWAP1 LOG2 POP POP JUMP JUMPDEST PUSH2 0x189D PUSH2 0x1992 JUMP JUMPDEST PUSH0 PUSH20 0xFFFFFFFFFFFFFFFFFFFFFFFFFFFFFFFFFFFFFFFF AND DUP2 PUSH20 0xFFFFFFFFFFFFFFFFFFFFFFFFFFFFFFFFFFFFFFFF AND SUB PUSH2 0x190D JUMPI PUSH0 PUSH1 0x40 MLOAD PUSH32 0x1E4FBDF700000000000000000000000000000000000000000000000000000000 DUP2 MSTORE PUSH1 0x4 ADD PUSH2 0x1904 SWAP2 SWAP1 PUSH2 0x1C2C JUMP JUMPDEST PUSH1 0x40 MLOAD DUP1 SWAP2 SUB SWAP1 REVERT JUMPDEST PUSH2 0x1916 DUP2 PUSH2 0x1A19 JUMP JUMPDEST POP JUMP JUMPDEST PUSH0 DUP1 DUP4 GT DUP1 ISZERO PUSH2 0x1928 JUMPI POP PUSH0 DUP3 GT JUMPDEST PUSH2 0x1967 JUMPI PUSH1 0x40 MLOAD PUSH32 0x8C379A000000000000000000000000000000000000000000000000000000000 DUP2 MSTORE PUSH1 0x4 ADD PUSH2 0x195E SWAP1 PUSH2 0x22A1 JUMP JUMPDEST PUSH1 0x40 MLOAD DUP1 SWAP2 SUB SWAP1 REVERT JUMPDEST DUP4 DUP4 PUSH2 0x1973 SWAP2 SWAP1 PUSH2 0x22BF JUMP JUMPDEST DUP3 DUP6 PUSH2 0x197F SWAP2 SWAP1 PUSH2 0x1DBC JUMP JUMPDEST PUSH2 0x1989 SWAP2 SWAP1 PUSH2 0x1F29 JUMP JUMPDEST SWAP1 POP SWAP4 SWAP3 POP POP POP JUMP JUMPDEST PUSH2 0x199A PUSH2 0x1ADA JUMP JUMPDEST PUSH20 0xFFFFFFFFFFFFFFFFFFFFFFFFFFFFFFFFFFFFFFFF AND PUSH2 0x19B8 PUSH2 0x76B JUMP JUMPDEST PUSH20 0xFFFFFFFFFFFFFFFFFFFFFFFFFFFFFFFFFFFFFFFF AND EQ PUSH2 0x1A17 JUMPI PUSH2 0x19DB PUSH2 0x1ADA JUMP JUMPDEST PUSH1 0x40 MLOAD PUSH32 0x118CDAA700000000000000000000000000000000000000000000000000000000 DUP2 MSTORE PUSH1 0x4 ADD PUSH2 0x1A0E SWAP2 SWAP1 PUSH2 0x1C2C JUMP JUMPDEST PUSH1 0x40 MLOAD DUP1 SWAP2 SUB SWAP1 REVERT JUMPDEST JUMP JUMPDEST PUSH0 DUP1 PUSH0 SWAP1 SLOAD SWAP1 PUSH2 0x100 EXP SWAP1 DIV PUSH20 0xFFFFFFFFFFFFFFFFFFFFFFFFFFFFFFFFFFFFFFFF AND SWAP1 POP DUP2 PUSH0 DUP1 PUSH2 0x100 EXP DUP2 SLOAD DUP2 PUSH20 0xFFFFFFFFFFFFFFFFFFFFFFFFFFFFFFFFFFFFFFFF MUL NOT AND SWAP1 DUP4 PUSH20 0xFFFFFFFFFFFFFFFFFFFFFFFFFFFFFFFFFFFFFFFF AND MUL OR SWAP1 SSTORE POP DUP2 PUSH20 0xFFFFFFFFFFFFFFFFFFFFFFFFFFFFFFFFFFFFFFFF AND DUP2 PUSH20 0xFFFFFFFFFFFFFFFFFFFFFFFFFFFFFFFFFFFFFFFF AND PUSH32 0x8BE0079C531659141344CD1FD0A4F28419497F9722A3DAAFE3B4186F6B6457E0 PUSH1 0x40 MLOAD PUSH1 0x40 MLOAD DUP1 SWAP2 SUB SWAP1 LOG3 POP POP JUMP JUMPDEST PUSH0 CALLER SWAP1 POP SWAP1 JUMP JUMPDEST PUSH0 DUP1 REVERT JUMPDEST PUSH0 DUP2 SWAP1 POP SWAP2 SWAP1 POP JUMP JUMPDEST PUSH2 0x1AF7 DUP2 PUSH2 0x1AE5 JUMP JUMPDEST DUP2 EQ PUSH2 0x1B01 JUMPI PUSH0 DUP1 REVERT JUMPDEST POP JUMP JUMPDEST PUSH0 DUP2 CALLDATALOAD SWAP1 POP PUSH2 0x1B12 DUP2 PUSH2 0x1AEE JUMP JUMPDEST SWAP3 SWAP2 POP POP JUMP JUMPDEST PUSH0 PUSH1 0x20 DUP3 DUP5 SUB SLT ISZERO PUSH2 0x1B2D JUMPI PUSH2 0x1B2C PUSH2 0x1AE1 JUMP JUMPDEST JUMPDEST PUSH0 PUSH2 0x1B3A DUP5 DUP3 DUP6 ADD PUSH2 0x1B04 JUMP JUMPDEST SWAP2 POP POP SWAP3 SWAP2 POP POP JUMP JUMPDEST PUSH2 0x1B4C DUP2 PUSH2 0x1AE5 JUMP JUMPDEST DUP3 MSTORE POP POP JUMP JUMPDEST PUSH0 PUSH1 0x40 DUP3 ADD SWAP1 POP PUSH2 0x1B65 PUSH0 DUP4 ADD DUP6 PUSH2 0x1B43 JUMP JUMPDEST PUSH2 0x1B72 PUSH1 0x20 DUP4 ADD DUP5 PUSH2 0x1B43 JUMP JUMPDEST SWAP4 SWAP3 POP POP POP JUMP JUMPDEST PUSH0 PUSH20 0xFFFFFFFFFFFFFFFFFFFFFFFFFFFFFFFFFFFFFFFF DUP3 AND SWAP1 POP SWAP2 SWAP1 POP JUMP JUMPDEST PUSH0 DUP2 SWAP1 POP SWAP2 SWAP1 POP JUMP JUMPDEST PUSH0 PUSH2 0x1BBB PUSH2 0x1BB6 PUSH2 0x1BB1 DUP5 PUSH2 0x1B79 JUMP JUMPDEST PUSH2 0x1B98 JUMP JUMPDEST PUSH2 0x1B79 JUMP JUMPDEST SWAP1 POP SWAP2 SWAP1 POP JUMP JUMPDEST PUSH0 PUSH2 0x1BCC DUP3 PUSH2 0x1BA1 JUMP JUMPDEST SWAP1 POP SWAP2 SWAP1 POP JUMP JUMPDEST PUSH0 PUSH2 0x1BDD DUP3 PUSH2 0x1BC2 JUMP JUMPDEST SWAP1 POP SWAP2 SWAP1 POP JUMP JUMPDEST PUSH2 0x1BED DUP2 PUSH2 0x1BD3 JUMP JUMPDEST DUP3 MSTORE POP POP JUMP JUMPDEST PUSH0 PUSH1 0x20 DUP3 ADD SWAP1 POP PUSH2 0x1C06 PUSH0 DUP4 ADD DUP5 PUSH2 0x1BE4 JUMP JUMPDEST SWAP3 SWAP2 POP POP JUMP JUMPDEST PUSH0 PUSH2 0x1C16 DUP3 PUSH2 0x1B79 JUMP JUMPDEST SWAP1 POP SWAP2 SWAP1 POP JUMP JUMPDEST PUSH2 0x1C26 DUP2 PUSH2 0x1C0C JUMP JUMPDEST DUP3 MSTORE POP POP JUMP JUMPDEST PUSH0 PUSH1 0x20 DUP3 ADD SWAP1 POP PUSH2 0x1C3F PUSH0 DUP4 ADD DUP5 PUSH2 0x1C1D JUMP JUMPDEST SWAP3 SWAP2 POP POP JUMP JUMPDEST PUSH0 DUP1 PUSH1 0x40 DUP4 DUP6 SUB SLT ISZERO PUSH2 0x1C5B JUMPI PUSH2 0x1C5A PUSH2 0x1AE1 JUMP JUMPDEST JUMPDEST PUSH0 PUSH2 0x1C68 DUP6 DUP3 DUP7 ADD PUSH2 0x1B04 JUMP JUMPDEST SWAP3 POP POP PUSH1 0x20 PUSH2 0x1C79 DUP6 DUP3 DUP7 ADD PUSH2 0x1B04 JUMP JUMPDEST SWAP2 POP POP SWAP3 POP SWAP3 SWAP1 POP JUMP JUMPDEST PUSH2 0x1C8C DUP2 PUSH2 0x1C0C JUMP JUMPDEST DUP2 EQ PUSH2 0x1C96 JUMPI PUSH0 DUP1 REVERT JUMPDEST POP JUMP JUMPDEST PUSH0 DUP2 CALLDATALOAD SWAP1 POP PUSH2 0x1CA7 DUP2 PUSH2 0x1C83 JUMP JUMPDEST SWAP3 SWAP2 POP POP JUMP JUMPDEST PUSH0 PUSH1 0x20 DUP3 DUP5 SUB SLT ISZERO PUSH2 0x1CC2 JUMPI PUSH2 0x1CC1 PUSH2 0x1AE1 JUMP JUMPDEST JUMPDEST PUSH0 PUSH2 0x1CCF DUP5 DUP3 DUP6 ADD PUSH2 0x1C99 JUMP JUMPDEST SWAP2 POP POP SWAP3 SWAP2 POP POP JUMP JUMPDEST PUSH0 DUP3 DUP3 MSTORE PUSH1 0x20 DUP3 ADD SWAP1 POP SWAP3 SWAP2 POP POP JUMP JUMPDEST PUSH32 0x496E76616C696420616D6F756E74000000000000000000000000000000000000 PUSH0 DUP3 ADD MSTORE POP JUMP JUMPDEST PUSH0 PUSH2 0x1D1C PUSH1 0xE DUP4 PUSH2 0x1CD8 JUMP JUMPDEST SWAP2 POP PUSH2 0x1D27 DUP3 PUSH2 0x1CE8 JUMP JUMPDEST PUSH1 0x20 DUP3 ADD SWAP1 POP SWAP2 SWAP1 POP JUMP JUMPDEST PUSH0 PUSH1 0x20 DUP3 ADD SWAP1 POP DUP2 DUP2 SUB PUSH0 DUP4 ADD MSTORE PUSH2 0x1D49 DUP2 PUSH2 0x1D10 JUMP JUMPDEST SWAP1 POP SWAP2 SWAP1 POP JUMP JUMPDEST PUSH0 DUP2 MLOAD SWAP1 POP PUSH2 0x1D5E DUP2 PUSH2 0x1AEE JUMP JUMPDEST SWAP3 SWAP2 POP POP JUMP JUMPDEST PUSH0 PUSH1 0x20 DUP3 DUP5 SUB SLT ISZERO PUSH2 0x1D79 JUMPI PUSH2 0x1D78 PUSH2 0x1AE1 JUMP JUMPDEST JUMPDEST PUSH0 PUSH2 0x1D86 DUP5 DUP3 DUP6 ADD PUSH2 0x1D50 JUMP JUMPDEST SWAP2 POP POP SWAP3 SWAP2 POP POP JUMP JUMPDEST PUSH32 0x4E487B7100000000000000000000000000000000000000000000000000000000 PUSH0 MSTORE PUSH1 0x11 PUSH1 0x4 MSTORE PUSH1 0x24 PUSH0 REVERT JUMPDEST PUSH0 PUSH2 0x1DC6 DUP3 PUSH2 0x1AE5 JUMP JUMPDEST SWAP2 POP PUSH2 0x1DD1 DUP4 PUSH2 0x1AE5 JUMP JUMPDEST SWAP3 POP DUP3 DUP3 MUL PUSH2 0x1DDF DUP2 PUSH2 0x1AE5 JUMP JUMPDEST SWAP2 POP DUP3 DUP3 DIV DUP5 EQ DUP4 ISZERO OR PUSH2 0x1DF6 JUMPI PUSH2 0x1DF5 PUSH2 0x1D8F JUMP JUMPDEST JUMPDEST POP SWAP3 SWAP2 POP POP JUMP JUMPDEST PUSH0 PUSH1 0x60 DUP3 ADD SWAP1 POP PUSH2 0x1E10 PUSH0 DUP4 ADD DUP7 PUSH2 0x1C1D JUMP JUMPDEST PUSH2 0x1E1D PUSH1 0x20 DUP4 ADD DUP6 PUSH2 0x1C1D JUMP JUMPDEST PUSH2 0x1E2A PUSH1 0x40 DUP4 ADD DUP5 PUSH2 0x1B43 JUMP JUMPDEST SWAP5 SWAP4 POP POP POP POP JUMP JUMPDEST PUSH0 DUP2 ISZERO ISZERO SWAP1 POP SWAP2 SWAP1 POP JUMP JUMPDEST PUSH2 0x1E46 DUP2 PUSH2 0x1E32 JUMP JUMPDEST DUP2 EQ PUSH2 0x1E50 JUMPI PUSH0 DUP1 REVERT JUMPDEST POP JUMP JUMPDEST PUSH0 DUP2 MLOAD SWAP1 POP PUSH2 0x1E61 DUP2 PUSH2 0x1E3D JUMP JUMPDEST SWAP3 SWAP2 POP POP JUMP JUMPDEST PUSH0 PUSH1 0x20 DUP3 DUP5 SUB SLT ISZERO PUSH2 0x1E7C JUMPI PUSH2 0x1E7B PUSH2 0x1AE1 JUMP JUMPDEST JUMPDEST PUSH0 PUSH2 0x1E89 DUP5 DUP3 DUP6 ADD PUSH2 0x1E53 JUMP JUMPDEST SWAP2 POP POP SWAP3 SWAP2 POP POP JUMP JUMPDEST PUSH0 PUSH1 0x40 DUP3 ADD SWAP1 POP PUSH2 0x1EA5 PUSH0 DUP4 ADD DUP6 PUSH2 0x1C1D JUMP JUMPDEST PUSH2 0x1EB2 PUSH1 0x20 DUP4 ADD DUP5 PUSH2 0x1B43 JUMP JUMPDEST SWAP4 SWAP3 POP POP POP JUMP JUMPDEST PUSH0 PUSH1 0x80 DUP3 ADD SWAP1 POP PUSH2 0x1ECC PUSH0 DUP4 ADD DUP8 PUSH2 0x1C1D JUMP JUMPDEST PUSH2 0x1ED9 PUSH1 0x20 DUP4 ADD DUP7 PUSH2 0x1C1D JUMP JUMPDEST PUSH2 0x1EE6 PUSH1 0x40 DUP4 ADD DUP6 PUSH2 0x1B43 JUMP JUMPDEST PUSH2 0x1EF3 PUSH1 0x60 DUP4 ADD DUP5 PUSH2 0x1B43 JUMP JUMPDEST SWAP6 SWAP5 POP POP POP POP POP JUMP JUMPDEST PUSH32 0x4E487B7100000000000000000000000000000000000000000000000000000000 PUSH0 MSTORE PUSH1 0x12 PUSH1 0x4 MSTORE PUSH1 0x24 PUSH0 REVERT JUMPDEST PUSH0 PUSH2 0x1F33 DUP3 PUSH2 0x1AE5 JUMP JUMPDEST SWAP2 POP PUSH2 0x1F3E DUP4 PUSH2 0x1AE5 JUMP JUMPDEST SWAP3 POP DUP3 PUSH2 0x1F4E JUMPI PUSH2 0x1F4D PUSH2 0x1EFC JUMP JUMPDEST JUMPDEST DUP3 DUP3 DIV SWAP1 POP SWAP3 SWAP2 POP POP JUMP JUMPDEST PUSH32 0x496E73756666696369656E742072657365727665730000000000000000000000 PUSH0 DUP3 ADD MSTORE POP JUMP JUMPDEST PUSH0 PUSH2 0x1F8D PUSH1 0x15 DUP4 PUSH2 0x1CD8 JUMP JUMPDEST SWAP2 POP PUSH2 0x1F98 DUP3 PUSH2 0x1F59 JUMP JUMPDEST PUSH1 0x20 DUP3 ADD SWAP1 POP SWAP2 SWAP1 POP JUMP JUMPDEST PUSH0 PUSH1 0x20 DUP3 ADD SWAP1 POP DUP2 DUP2 SUB PUSH0 DUP4 ADD MSTORE PUSH2 0x1FBA DUP2 PUSH2 0x1F81 JUMP JUMPDEST SWAP1 POP SWAP2 SWAP1 POP JUMP JUMPDEST PUSH32 0x496E76616C696420616D6F756E74730000000000000000000000000000000000 PUSH0 DUP3 ADD MSTORE POP JUMP JUMPDEST PUSH0 PUSH2 0x1FF5 PUSH1 0xF DUP4 PUSH2 0x1CD8 JUMP JUMPDEST SWAP2 POP PUSH2 0x2000 DUP3 PUSH2 0x1FC1 JUMP JUMPDEST PUSH1 0x20 DUP3 ADD SWAP1 POP SWAP2 SWAP1 POP JUMP JUMPDEST PUSH0 PUSH1 0x20 DUP3 ADD SWAP1 POP DUP2 DUP2 SUB PUSH0 DUP4 ADD MSTORE PUSH2 0x2022 DUP2 PUSH2 0x1FE9 JUMP JUMPDEST SWAP1 POP SWAP2 SWAP1 POP JUMP JUMPDEST PUSH32 0x506F6F6C204E6F7420496E697469616C697A6564000000000000000000000000 PUSH0 DUP3 ADD MSTORE POP JUMP JUMPDEST PUSH0 PUSH2 0x205D PUSH1 0x14 DUP4 PUSH2 0x1CD8 JUMP JUMPDEST SWAP2 POP PUSH2 0x2068 DUP3 PUSH2 0x2029 JUMP JUMPDEST PUSH1 0x20 DUP3 ADD SWAP1 POP SWAP2 SWAP1 POP JUMP JUMPDEST PUSH0 PUSH1 0x20 DUP3 ADD SWAP1 POP DUP2 DUP2 SUB PUSH0 DUP4 ADD MSTORE PUSH2 0x208A DUP2 PUSH2 0x2051 JUMP JUMPDEST SWAP1 POP SWAP2 SWAP1 POP JUMP JUMPDEST PUSH32 0x496E76616C6964206C697175696469747920726174696F000000000000000000 PUSH0 DUP3 ADD MSTORE POP JUMP JUMPDEST PUSH0 PUSH2 0x20C5 PUSH1 0x17 DUP4 PUSH2 0x1CD8 JUMP JUMPDEST SWAP2 POP PUSH2 0x20D0 DUP3 PUSH2 0x2091 JUMP JUMPDEST PUSH1 0x20 DUP3 ADD SWAP1 POP SWAP2 SWAP1 POP JUMP JUMPDEST PUSH0 PUSH1 0x20 DUP3 ADD SWAP1 POP DUP2 DUP2 SUB PUSH0 DUP4 ADD MSTORE PUSH2 0x20F2 DUP2 PUSH2 0x20B9 JUMP JUMPDEST SWAP1 POP SWAP2 SWAP1 POP JUMP JUMPDEST PUSH32 0x496E76616C696420726174696F3A20546F6B656E42206D757374206265203478 PUSH0 DUP3 ADD MSTORE PUSH32 0x20546F6B656E4100000000000000000000000000000000000000000000000000 PUSH1 0x20 DUP3 ADD MSTORE POP JUMP JUMPDEST PUSH0 PUSH2 0x2153 PUSH1 0x27 DUP4 PUSH2 0x1CD8 JUMP JUMPDEST SWAP2 POP PUSH2 0x215E DUP3 PUSH2 0x20F9 JUMP JUMPDEST PUSH1 0x40 DUP3 ADD SWAP1 POP SWAP2 SWAP1 POP JUMP JUMPDEST PUSH0 PUSH1 0x20 DUP3 ADD SWAP1 POP DUP2 DUP2 SUB PUSH0 DUP4 ADD MSTORE PUSH2 0x2180 DUP2 PUSH2 0x2147 JUMP JUMPDEST SWAP1 POP SWAP2 SWAP1 POP JUMP JUMPDEST PUSH32 0x546F6B656E2041207472616E73666572206661696C6564000000000000000000 PUSH0 DUP3 ADD MSTORE POP JUMP JUMPDEST PUSH0 PUSH2 0x21BB PUSH1 0x17 DUP4 PUSH2 0x1CD8 JUMP JUMPDEST SWAP2 POP PUSH2 0x21C6 DUP3 PUSH2 0x2187 JUMP JUMPDEST PUSH1 0x20 DUP3 ADD SWAP1 POP SWAP2 SWAP1 POP JUMP JUMPDEST PUSH0 PUSH1 0x20 DUP3 ADD SWAP1 POP DUP2 DUP2 SUB PUSH0 DUP4 ADD MSTORE PUSH2 0x21E8 DUP2 PUSH2 0x21AF JUMP JUMPDEST SWAP1 POP SWAP2 SWAP1 POP JUMP JUMPDEST PUSH32 0x546F6B656E2042207472616E73666572206661696C6564000000000000000000 PUSH0 DUP3 ADD MSTORE POP JUMP JUMPDEST PUSH0 PUSH2 0x2223 PUSH1 0x17 DUP4 PUSH2 0x1CD8 JUMP JUMPDEST SWAP2 POP PUSH2 0x222E DUP3 PUSH2 0x21EF JUMP JUMPDEST PUSH1 0x20 DUP3 ADD SWAP1 POP SWAP2 SWAP1 POP JUMP JUMPDEST PUSH0 PUSH1 0x20 DUP3 ADD SWAP1 POP DUP2 DUP2 SUB PUSH0 DUP4 ADD MSTORE PUSH2 0x2250 DUP2 PUSH2 0x2217 JUMP JUMPDEST SWAP1 POP SWAP2 SWAP1 POP JUMP JUMPDEST PUSH32 0x496E76616C696420726573657276657300000000000000000000000000000000 PUSH0 DUP3 ADD MSTORE POP JUMP JUMPDEST PUSH0 PUSH2 0x228B PUSH1 0x10 DUP4 PUSH2 0x1CD8 JUMP JUMPDEST SWAP2 POP PUSH2 0x2296 DUP3 PUSH2 0x2257 JUMP JUMPDEST PUSH1 0x20 DUP3 ADD SWAP1 POP SWAP2 SWAP1 POP JUMP JUMPDEST PUSH0 PUSH1 0x20 DUP3 ADD SWAP1 POP DUP2 DUP2 SUB PUSH0 DUP4 ADD MSTORE PUSH2 0x22B8 DUP2 PUSH2 0x227F JUMP JUMPDEST SWAP1 POP SWAP2 SWAP1 POP JUMP JUMPDEST PUSH0 PUSH2 0x22C9 DUP3 PUSH2 0x1AE5 JUMP JUMPDEST SWAP2 POP PUSH2 0x22D4 DUP4 PUSH2 0x1AE5 JUMP JUMPDEST SWAP3 POP DUP3 DUP3 ADD SWAP1 POP DUP1 DUP3 GT ISZERO PUSH2 0x22EC JUMPI PUSH2 0x22EB PUSH2 0x1D8F JUMP JUMPDEST JUMPDEST SWAP3 SWAP2 POP POP JUMP INVALID LOG2 PUSH5 0x6970667358 0x22 SLT KECCAK256 0xC0 PUSH16 0x52873AA5B489E53E03B7FDEFDD726062 BASEFEE PUSH19 0x3EFA06781B80BEFF0FC1BB3D64736F6C634300 ADDMOD BYTE STOP CALLER "
				},
				"gasEstimates": {
					"creation": {
						"codeDepositCost": "1800000",
						"executionCost": "infinite",
						"totalCost": "infinite"
					},
					"external": {
						"addLiquidity(uint256,uint256)": "infinite",
						"getPrice()": "infinite",
						"getReserves()": "infinite",
						"initializePool(uint256,uint256)": "infinite",
						"owner()": "2626",
						"removeLiquidity(uint256,uint256)": "infinite",
						"renounceOwnership()": "infinite",
						"swapAForB(uint256)": "infinite",
						"swapBForA(uint256)": "infinite",
						"tokenA()": "infinite",
						"tokenB()": "infinite",
						"transferOwnership(address)": "infinite"
					},
					"internal": {
						"getAmountOut(uint256,uint256,uint256)": "infinite"
					}
				},
				"methodIdentifiers": {
					"addLiquidity(uint256,uint256)": "9cd441da",
					"getPrice()": "98d5fdca",
					"getReserves()": "0902f1ac",
					"initializePool(uint256,uint256)": "f11e2562",
					"owner()": "8da5cb5b",
					"removeLiquidity(uint256,uint256)": "9d7de6b3",
					"renounceOwnership()": "715018a6",
					"swapAForB(uint256)": "03102091",
					"swapBForA(uint256)": "e619a498",
					"tokenA()": "0fc63d10",
					"tokenB()": "5f64b55b",
					"transferOwnership(address)": "f2fde38b"
				}
			},
			"storageLayout": {
				"storage": [
					{
						"astId": 8,
						"contract": "SimpleDex.sol:SimpleDEX",
						"label": "_owner",
						"offset": 0,
						"slot": "0",
						"type": "t_address"
					},
					{
						"astId": 265,
						"contract": "SimpleDex.sol:SimpleDEX",
						"label": "tokenA",
						"offset": 0,
						"slot": "1",
						"type": "t_contract(IERC20)225"
					},
					{
						"astId": 268,
						"contract": "SimpleDex.sol:SimpleDEX",
						"label": "tokenB",
						"offset": 0,
						"slot": "2",
						"type": "t_contract(IERC20)225"
					}
				],
				"types": {
					"t_address": {
						"encoding": "inplace",
						"label": "address",
						"numberOfBytes": "20"
					},
					"t_contract(IERC20)225": {
						"encoding": "inplace",
						"label": "contract IERC20",
						"numberOfBytes": "20"
					}
				}
			},
			"userdoc": {
				"kind": "user",
				"methods": {},
				"version": 1
			}
		}
	}
}