{
	"Auction.sol": {
		"Auction": {
			"abi": [
				{
					"inputs": [],
					"stateMutability": "nonpayable",
					"type": "constructor"
				},
				{
					"anonymous": false,
					"inputs": [
						{
							"indexed": false,
							"internalType": "uint256",
							"name": "newTimeframe",
							"type": "uint256"
						}
					],
					"name": "AuctionExtended",
					"type": "event"
				},
				{
					"anonymous": false,
					"inputs": [
						{
							"indexed": false,
							"internalType": "string",
							"name": "text",
							"type": "string"
						}
					],
					"name": "EndAuction",
					"type": "event"
				},
				{
					"anonymous": false,
					"inputs": [
						{
							"indexed": true,
							"internalType": "address",
							"name": "bidder",
							"type": "address"
						},
						{
							"indexed": false,
							"internalType": "uint256",
							"name": "amount",
							"type": "uint256"
						}
					],
					"name": "NewBid",
					"type": "event"
				},
				{
					"anonymous": false,
					"inputs": [
						{
							"indexed": true,
							"internalType": "address",
							"name": "bidder",
							"type": "address"
						},
						{
							"indexed": false,
							"internalType": "uint256",
							"name": "amount",
							"type": "uint256"
						}
					],
					"name": "Withdraw",
					"type": "event"
				},
				{
					"inputs": [],
					"name": "AuctionEnded",
					"outputs": [],
					"stateMutability": "nonpayable",
					"type": "function"
				},
				{
					"inputs": [],
					"name": "claimItem",
					"outputs": [],
					"stateMutability": "nonpayable",
					"type": "function"
				},
				{
					"inputs": [],
					"name": "estado",
					"outputs": [
						{
							"internalType": "enum Auction.Estado",
							"name": "",
							"type": "uint8"
						}
					],
					"stateMutability": "view",
					"type": "function"
				},
				{
					"inputs": [],
					"name": "finalizeWithdrawals",
					"outputs": [],
					"stateMutability": "nonpayable",
					"type": "function"
				},
				{
					"inputs": [],
					"name": "getExcess",
					"outputs": [
						{
							"internalType": "uint256",
							"name": "",
							"type": "uint256"
						}
					],
					"stateMutability": "view",
					"type": "function"
				},
				{
					"inputs": [],
					"name": "getTimeLeft",
					"outputs": [
						{
							"internalType": "uint256",
							"name": "_days",
							"type": "uint256"
						},
						{
							"internalType": "uint256",
							"name": "_hours",
							"type": "uint256"
						},
						{
							"internalType": "uint256",
							"name": "_minutes",
							"type": "uint256"
						}
					],
					"stateMutability": "view",
					"type": "function"
				},
				{
					"inputs": [],
					"name": "getWinnerAmount",
					"outputs": [
						{
							"internalType": "uint256",
							"name": "",
							"type": "uint256"
						}
					],
					"stateMutability": "view",
					"type": "function"
				},
				{
					"inputs": [],
					"name": "getWinnerOffer",
					"outputs": [
						{
							"internalType": "address",
							"name": "",
							"type": "address"
						}
					],
					"stateMutability": "view",
					"type": "function"
				},
				{
					"inputs": [],
					"name": "manualWithdraw",
					"outputs": [],
					"stateMutability": "nonpayable",
					"type": "function"
				},
				{
					"inputs": [],
					"name": "offerWinAddress",
					"outputs": [
						{
							"internalType": "address",
							"name": "",
							"type": "address"
						}
					],
					"stateMutability": "view",
					"type": "function"
				},
				{
					"inputs": [],
					"name": "offerWinAmount",
					"outputs": [
						{
							"internalType": "uint256",
							"name": "",
							"type": "uint256"
						}
					],
					"stateMutability": "view",
					"type": "function"
				},
				{
					"inputs": [],
					"name": "setOffer",
					"outputs": [],
					"stateMutability": "payable",
					"type": "function"
				},
				{
					"inputs": [],
					"name": "showOffers",
					"outputs": [
						{
							"internalType": "address[]",
							"name": "",
							"type": "address[]"
						},
						{
							"internalType": "uint256[]",
							"name": "",
							"type": "uint256[]"
						}
					],
					"stateMutability": "view",
					"type": "function"
				},
				{
					"inputs": [],
					"name": "withdrawExcess",
					"outputs": [],
					"stateMutability": "payable",
					"type": "function"
				}
			],
			"devdoc": {
				"kind": "dev",
				"methods": {},
				"version": 1
			},
			"evm": {
				"assembly": "    /* \"Auction.sol\":121:7743  contract Auction  { ... */\n  mstore(0x40, 0x80)\n    /* \"Auction.sol\":869:1080  constructor () {... */\n  callvalue\n  dup1\n  iszero\n  tag_1\n  jumpi\n  0x00\n  dup1\n  revert\ntag_1:\n  pop\n    /* \"Auction.sol\":908:915  10 gwei */\n  0x02540be400\n    /* \"Auction.sol\":895:905  FloorValue */\n  0x00\n    /* \"Auction.sol\":895:915  FloorValue = 10 gwei */\n  dup2\n  swap1\n  sstore\n  pop\n    /* \"Auction.sol\":938:953  block.timestamp */\n  timestamp\n    /* \"Auction.sol\":926:935  StartDate */\n  0x01\n    /* \"Auction.sol\":926:953  StartDate = block.timestamp */\n  dup2\n  swap1\n  sstore\n  pop\n    /* \"Auction.sol\":988:994  7 days */\n  0x093a80\n    /* \"Auction.sol\":976:985  StartDate */\n  sload(0x01)\n    /* \"Auction.sol\":976:994  StartDate + 7 days */\n  tag_4\n  swap2\n  swap1\n  tag_5\n  jump\t// in\ntag_4:\n    /* \"Auction.sol\":964:973  Timeframe */\n  0x02\n    /* \"Auction.sol\":964:994  Timeframe = StartDate + 7 days */\n  dup2\n  swap1\n  sstore\n  pop\n    /* \"Auction.sol\":1021:1031  msg.sender */\n  caller\n    /* \"Auction.sol\":1013:1018  owner */\n  0x05\n  0x00\n    /* \"Auction.sol\":1013:1031  owner = msg.sender */\n  0x0100\n  exp\n  dup2\n  sload\n  dup2\n  0xffffffffffffffffffffffffffffffffffffffff\n  mul\n  not\n  and\n  swap1\n  dup4\n  0xffffffffffffffffffffffffffffffffffffffff\n  and\n  mul\n  or\n  swap1\n  sstore\n  pop\n    /* \"Auction.sol\":1051:1064  Estado.Activa */\n  0x00\n    /* \"Auction.sol\":1042:1048  estado */\n  0x05\n  0x14\n    /* \"Auction.sol\":1042:1064  estado = Estado.Activa */\n  0x0100\n  exp\n  dup2\n  sload\n  dup2\n  0xff\n  mul\n  not\n  and\n  swap1\n  dup4\n  0x02\n  dup2\n  gt\n  iszero\n  tag_6\n  jumpi\n  tag_7\n  tag_8\n  jump\t// in\ntag_7:\ntag_6:\n  mul\n  or\n  swap1\n  sstore\n  pop\n    /* \"Auction.sol\":121:7743  contract Auction  { ... */\n  jump(tag_9)\n    /* \"#utility.yul\":7:84   */\ntag_10:\n    /* \"#utility.yul\":44:51   */\n  0x00\n    /* \"#utility.yul\":73:78   */\n  dup2\n    /* \"#utility.yul\":62:78   */\n  swap1\n  pop\n    /* \"#utility.yul\":7:84   */\n  swap2\n  swap1\n  pop\n  jump\t// out\n    /* \"#utility.yul\":90:270   */\ntag_11:\n    /* \"#utility.yul\":138:215   */\n  0x4e487b7100000000000000000000000000000000000000000000000000000000\n    /* \"#utility.yul\":135:136   */\n  0x00\n    /* \"#utility.yul\":128:216   */\n  mstore\n    /* \"#utility.yul\":235:239   */\n  0x11\n    /* \"#utility.yul\":232:233   */\n  0x04\n    /* \"#utility.yul\":225:240   */\n  mstore\n    /* \"#utility.yul\":259:263   */\n  0x24\n    /* \"#utility.yul\":256:257   */\n  0x00\n    /* \"#utility.yul\":249:264   */\n  revert\n    /* \"#utility.yul\":276:467   */\ntag_5:\n    /* \"#utility.yul\":316:319   */\n  0x00\n    /* \"#utility.yul\":335:355   */\n  tag_16\n    /* \"#utility.yul\":353:354   */\n  dup3\n    /* \"#utility.yul\":335:355   */\n  tag_10\n  jump\t// in\ntag_16:\n    /* \"#utility.yul\":330:355   */\n  swap2\n  pop\n    /* \"#utility.yul\":369:389   */\n  tag_17\n    /* \"#utility.yul\":387:388   */\n  dup4\n    /* \"#utility.yul\":369:389   */\n  tag_10\n  jump\t// in\ntag_17:\n    /* \"#utility.yul\":364:389   */\n  swap3\n  pop\n    /* \"#utility.yul\":412:413   */\n  dup3\n    /* \"#utility.yul\":409:410   */\n  dup3\n    /* \"#utility.yul\":405:414   */\n  add\n    /* \"#utility.yul\":398:414   */\n  swap1\n  pop\n    /* \"#utility.yul\":433:436   */\n  dup1\n    /* \"#utility.yul\":430:431   */\n  dup3\n    /* \"#utility.yul\":427:437   */\n  gt\n    /* \"#utility.yul\":424:460   */\n  iszero\n  tag_18\n  jumpi\n    /* \"#utility.yul\":440:458   */\n  tag_19\n  tag_11\n  jump\t// in\ntag_19:\n    /* \"#utility.yul\":424:460   */\ntag_18:\n    /* \"#utility.yul\":276:467   */\n  swap3\n  swap2\n  pop\n  pop\n  jump\t// out\n    /* \"#utility.yul\":473:653   */\ntag_8:\n    /* \"#utility.yul\":521:598   */\n  0x4e487b7100000000000000000000000000000000000000000000000000000000\n    /* \"#utility.yul\":518:519   */\n  0x00\n    /* \"#utility.yul\":511:599   */\n  mstore\n    /* \"#utility.yul\":618:622   */\n  0x21\n    /* \"#utility.yul\":615:616   */\n  0x04\n    /* \"#utility.yul\":608:623   */\n  mstore\n    /* \"#utility.yul\":642:646   */\n  0x24\n    /* \"#utility.yul\":639:640   */\n  0x00\n    /* \"#utility.yul\":632:647   */\n  revert\n    /* \"Auction.sol\":121:7743  contract Auction  { ... */\ntag_9:\n  dataSize(sub_0)\n  dup1\n  dataOffset(sub_0)\n  0x00\n  codecopy\n  0x00\n  return\nstop\n\nsub_0: assembly {\n        /* \"Auction.sol\":121:7743  contract Auction  { ... */\n      mstore(0x40, 0x80)\n      jumpi(tag_1, lt(calldatasize, 0x04))\n      shr(0xe0, calldataload(0x00))\n      dup1\n      0x689567d5\n      gt\n      tag_16\n      jumpi\n      dup1\n      0xc264a063\n      gt\n      tag_17\n      jumpi\n      dup1\n      0xc264a063\n      eq\n      tag_12\n      jumpi\n      dup1\n      0xc7e284b8\n      eq\n      tag_13\n      jumpi\n      dup1\n      0xd54c564e\n      eq\n      tag_14\n      jumpi\n      dup1\n      0xd95608e2\n      eq\n      tag_15\n      jumpi\n      jump(tag_1)\n    tag_17:\n      dup1\n      0x689567d5\n      eq\n      tag_9\n      jumpi\n      dup1\n      0x961045dc\n      eq\n      tag_10\n      jumpi\n      dup1\n      0xa0e92984\n      eq\n      tag_11\n      jumpi\n      jump(tag_1)\n    tag_16:\n      dup1\n      0x534823bf\n      gt\n      tag_18\n      jumpi\n      dup1\n      0x534823bf\n      eq\n      tag_5\n      jumpi\n      dup1\n      0x62e546f9\n      eq\n      tag_6\n      jumpi\n      dup1\n      0x6733430a\n      eq\n      tag_7\n      jumpi\n      dup1\n      0x688e3467\n      eq\n      tag_8\n      jumpi\n      jump(tag_1)\n    tag_18:\n      dup1\n      0x05c414ad\n      eq\n      tag_2\n      jumpi\n      dup1\n      0x154d3126\n      eq\n      tag_3\n      jumpi\n      dup1\n      0x4f595bc5\n      eq\n      tag_4\n      jumpi\n    tag_1:\n      0x00\n      dup1\n      revert\n        /* \"Auction.sol\":448:479  address  public offerWinAddress */\n    tag_2:\n      callvalue\n      dup1\n      iszero\n      tag_19\n      jumpi\n      0x00\n      dup1\n      revert\n    tag_19:\n      pop\n      tag_20\n      tag_21\n      jump\t// in\n    tag_20:\n      mload(0x40)\n      tag_22\n      swap2\n      swap1\n      tag_23\n      jump\t// in\n    tag_22:\n      mload(0x40)\n      dup1\n      swap2\n      sub\n      swap1\n      return\n        /* \"Auction.sol\":7230:7509  function claimItem() external onlyWinner onlyAfterAuction {... */\n    tag_3:\n      callvalue\n      dup1\n      iszero\n      tag_24\n      jumpi\n      0x00\n      dup1\n      revert\n    tag_24:\n      pop\n      tag_25\n      tag_26\n      jump\t// in\n    tag_25:\n      stop\n        /* \"Auction.sol\":275:302  uint public  offerWinAmount */\n    tag_4:\n      callvalue\n      dup1\n      iszero\n      tag_27\n      jumpi\n      0x00\n      dup1\n      revert\n    tag_27:\n      pop\n      tag_28\n      tag_29\n      jump\t// in\n    tag_28:\n      mload(0x40)\n      tag_30\n      swap2\n      swap1\n      tag_31\n      jump\t// in\n    tag_30:\n      mload(0x40)\n      dup1\n      swap2\n      sub\n      swap1\n      return\n        /* \"Auction.sol\":5529:6011  function showOffers () external view returns(address[] memory, uint[] memory){... */\n    tag_5:\n      callvalue\n      dup1\n      iszero\n      tag_32\n      jumpi\n      0x00\n      dup1\n      revert\n    tag_32:\n      pop\n      tag_33\n      tag_34\n      jump\t// in\n    tag_33:\n      mload(0x40)\n      tag_35\n      swap3\n      swap2\n      swap1\n      tag_36\n      jump\t// in\n    tag_35:\n      mload(0x40)\n      dup1\n      swap2\n      sub\n      swap1\n      return\n        /* \"Auction.sol\":2599:3029  function manualWithdraw() external  onlyAfterAuction withinWithdrawalWindow(Timeframe + 30 days) onlyNotWinner {... */\n    tag_6:\n      callvalue\n      dup1\n      iszero\n      tag_37\n      jumpi\n      0x00\n      dup1\n      revert\n    tag_37:\n      pop\n      tag_38\n      tag_39\n      jump\t// in\n    tag_38:\n      stop\n        /* \"Auction.sol\":5311:5409  function getWinnerOffer() external view returns(address) {... */\n    tag_7:\n      callvalue\n      dup1\n      iszero\n      tag_40\n      jumpi\n      0x00\n      dup1\n      revert\n    tag_40:\n      pop\n      tag_41\n      tag_42\n      jump\t// in\n    tag_41:\n      mload(0x40)\n      tag_43\n      swap2\n      swap1\n      tag_23\n      jump\t// in\n    tag_43:\n      mload(0x40)\n      dup1\n      swap2\n      sub\n      swap1\n      return\n        /* \"Auction.sol\":570:590  Estado public estado */\n    tag_8:\n      callvalue\n      dup1\n      iszero\n      tag_44\n      jumpi\n      0x00\n      dup1\n      revert\n    tag_44:\n      pop\n      tag_45\n      tag_46\n      jump\t// in\n    tag_45:\n      mload(0x40)\n      tag_47\n      swap2\n      swap1\n      tag_48\n      jump\t// in\n    tag_47:\n      mload(0x40)\n      dup1\n      swap2\n      sub\n      swap1\n      return\n        /* \"Auction.sol\":3968:5299  function setOffer () external payable extendAuctionIfNeeded onlyActive {              ... */\n    tag_9:\n      tag_49\n      tag_50\n      jump\t// in\n    tag_49:\n      stop\n        /* \"Auction.sol\":7515:7719  function finalizeWithdrawals() external  onlyOwner onlyAfterAuction  {... */\n    tag_10:\n      callvalue\n      dup1\n      iszero\n      tag_51\n      jumpi\n      0x00\n      dup1\n      revert\n    tag_51:\n      pop\n      tag_52\n      tag_53\n      jump\t// in\n    tag_52:\n      stop\n        /* \"Auction.sol\":3729:3950  function AuctionEnded() external onlyOwner {... */\n    tag_11:\n      callvalue\n      dup1\n      iszero\n      tag_54\n      jumpi\n      0x00\n      dup1\n      revert\n    tag_54:\n      pop\n      tag_55\n      tag_56\n      jump\t// in\n    tag_55:\n      stop\n        /* \"Auction.sol\":6019:6331  function withdrawExcess() external payable {... */\n    tag_12:\n      tag_57\n      tag_58\n      jump\t// in\n    tag_57:\n      stop\n        /* \"Auction.sol\":6461:7222  function getTimeLeft() public view returns (uint _days, uint _hours, uint _minutes) {... */\n    tag_13:\n      callvalue\n      dup1\n      iszero\n      tag_59\n      jumpi\n      0x00\n      dup1\n      revert\n    tag_59:\n      pop\n      tag_60\n      tag_61\n      jump\t// in\n    tag_60:\n      mload(0x40)\n      tag_62\n      swap4\n      swap3\n      swap2\n      swap1\n      tag_63\n      jump\t// in\n    tag_62:\n      mload(0x40)\n      dup1\n      swap2\n      sub\n      swap1\n      return\n        /* \"Auction.sol\":6337:6455  function getExcess() external view  returns(uint){... */\n    tag_14:\n      callvalue\n      dup1\n      iszero\n      tag_64\n      jumpi\n      0x00\n      dup1\n      revert\n    tag_64:\n      pop\n      tag_65\n      tag_66\n      jump\t// in\n    tag_65:\n      mload(0x40)\n      tag_67\n      swap2\n      swap1\n      tag_31\n      jump\t// in\n    tag_67:\n      mload(0x40)\n      dup1\n      swap2\n      sub\n      swap1\n      return\n        /* \"Auction.sol\":5421:5516  function getWinnerAmount() external view returns(uint) {... */\n    tag_15:\n      callvalue\n      dup1\n      iszero\n      tag_68\n      jumpi\n      0x00\n      dup1\n      revert\n    tag_68:\n      pop\n      tag_69\n      tag_70\n      jump\t// in\n    tag_69:\n      mload(0x40)\n      tag_71\n      swap2\n      swap1\n      tag_31\n      jump\t// in\n    tag_71:\n      mload(0x40)\n      dup1\n      swap2\n      sub\n      swap1\n      return\n        /* \"Auction.sol\":448:479  address  public offerWinAddress */\n    tag_21:\n      0x04\n      0x00\n      swap1\n      sload\n      swap1\n      0x0100\n      exp\n      swap1\n      div\n      0xffffffffffffffffffffffffffffffffffffffff\n      and\n      dup2\n      jump\t// out\n        /* \"Auction.sol\":7230:7509  function claimItem() external onlyWinner onlyAfterAuction {... */\n    tag_26:\n        /* \"Auction.sol\":1889:1904  offerWinAddress */\n      0x04\n      0x00\n      swap1\n      sload\n      swap1\n      0x0100\n      exp\n      swap1\n      div\n      0xffffffffffffffffffffffffffffffffffffffff\n      and\n        /* \"Auction.sol\":1875:1904  msg.sender == offerWinAddress */\n      0xffffffffffffffffffffffffffffffffffffffff\n      and\n        /* \"Auction.sol\":1875:1885  msg.sender */\n      caller\n        /* \"Auction.sol\":1875:1904  msg.sender == offerWinAddress */\n      0xffffffffffffffffffffffffffffffffffffffff\n      and\n      eq\n        /* \"Auction.sol\":1867:1963  require(msg.sender == offerWinAddress, \"No gano la subasta no puede claimear el item subastado\") */\n      tag_73\n      jumpi\n      mload(0x40)\n      0x08c379a000000000000000000000000000000000000000000000000000000000\n      dup2\n      mstore\n      0x04\n      add\n      tag_74\n      swap1\n      tag_75\n      jump\t// in\n    tag_74:\n      mload(0x40)\n      dup1\n      swap2\n      sub\n      swap1\n      revert\n    tag_73:\n        /* \"Auction.sol\":1658:1667  Timeframe */\n      sload(0x02)\n        /* \"Auction.sol\":1639:1654  block.timestamp */\n      timestamp\n        /* \"Auction.sol\":1639:1667  block.timestamp >= Timeframe */\n      lt\n      iszero\n        /* \"Auction.sol\":1631:1696  require(block.timestamp >= Timeframe, \"La subasta sigue vigente\") */\n      tag_77\n      jumpi\n      mload(0x40)\n      0x08c379a000000000000000000000000000000000000000000000000000000000\n      dup2\n      mstore\n      0x04\n      add\n      tag_78\n      swap1\n      tag_79\n      jump\t// in\n    tag_78:\n      mload(0x40)\n      dup1\n      swap2\n      sub\n      swap1\n      revert\n    tag_77:\n        /* \"Auction.sol\":7317:7331  Estado.Cerrada */\n      0x01\n        /* \"Auction.sol\":7307:7331  estado == Estado.Cerrada */\n      0x02\n      dup2\n      gt\n      iszero\n      tag_81\n      jumpi\n      tag_82\n      tag_83\n      jump\t// in\n    tag_82:\n    tag_81:\n        /* \"Auction.sol\":7307:7313  estado */\n      0x05\n      0x14\n      swap1\n      sload\n      swap1\n      0x0100\n      exp\n      swap1\n      div\n      0xff\n      and\n        /* \"Auction.sol\":7307:7331  estado == Estado.Cerrada */\n      0x02\n      dup2\n      gt\n      iszero\n      tag_84\n      jumpi\n      tag_85\n      tag_83\n      jump\t// in\n    tag_85:\n    tag_84:\n      eq\n        /* \"Auction.sol\":7299:7363  require(estado == Estado.Cerrada, \"La subasta no ha finalizado\") */\n      tag_86\n      jumpi\n      mload(0x40)\n      0x08c379a000000000000000000000000000000000000000000000000000000000\n      dup2\n      mstore\n      0x04\n      add\n      tag_87\n      swap1\n      tag_88\n      jump\t// in\n    tag_87:\n      mload(0x40)\n      dup1\n      swap2\n      sub\n      swap1\n      revert\n    tag_86:\n        /* \"Auction.sol\":7461:7501  EndAuction(\"El ganador reclamo el item\") */\n      0xb70b873adccc41a4fdc0b8fe6d3d21b4449270a44e8a431952703e2e654cbfdb\n      mload(0x40)\n      tag_89\n      swap1\n      tag_90\n      jump\t// in\n    tag_89:\n      mload(0x40)\n      dup1\n      swap2\n      sub\n      swap1\n      log1\n        /* \"Auction.sol\":7230:7509  function claimItem() external onlyWinner onlyAfterAuction {... */\n      jump\t// out\n        /* \"Auction.sol\":275:302  uint public  offerWinAmount */\n    tag_29:\n      sload(0x03)\n      dup2\n      jump\t// out\n        /* \"Auction.sol\":5529:6011  function showOffers () external view returns(address[] memory, uint[] memory){... */\n    tag_34:\n        /* \"Auction.sol\":5574:5590  address[] memory */\n      0x60\n        /* \"Auction.sol\":5592:5605  uint[] memory */\n      dup1\n        /* \"Auction.sol\":5617:5642  address[] memory offerors */\n      0x00\n        /* \"Auction.sol\":5659:5673  offerAddresses */\n      0x06\n        /* \"Auction.sol\":5659:5680  offerAddresses.length */\n      dup1\n      sload\n      swap1\n      pop\n        /* \"Auction.sol\":5645:5681  new address[](offerAddresses.length) */\n      0xffffffffffffffff\n      dup2\n      gt\n      iszero\n      tag_92\n      jumpi\n      tag_93\n      tag_94\n      jump\t// in\n    tag_93:\n    tag_92:\n      mload(0x40)\n      swap1\n      dup1\n      dup3\n      mstore\n      dup1\n      0x20\n      mul\n      0x20\n      add\n      dup3\n      add\n      0x40\n      mstore\n      dup1\n      iszero\n      tag_95\n      jumpi\n      dup2\n      0x20\n      add\n      0x20\n      dup3\n      mul\n      dup1\n      calldatasize\n      dup4\n      calldatacopy\n      dup1\n      dup3\n      add\n      swap2\n      pop\n      pop\n      swap1\n      pop\n    tag_95:\n      pop\n        /* \"Auction.sol\":5617:5681  address[] memory offerors = new address[](offerAddresses.length) */\n      swap1\n      pop\n        /* \"Auction.sol\":5692:5713  uint[] memory amounts */\n      0x00\n        /* \"Auction.sol\":5727:5741  offerAddresses */\n      0x06\n        /* \"Auction.sol\":5727:5748  offerAddresses.length */\n      dup1\n      sload\n      swap1\n      pop\n        /* \"Auction.sol\":5716:5749  new uint[](offerAddresses.length) */\n      0xffffffffffffffff\n      dup2\n      gt\n      iszero\n      tag_96\n      jumpi\n      tag_97\n      tag_94\n      jump\t// in\n    tag_97:\n    tag_96:\n      mload(0x40)\n      swap1\n      dup1\n      dup3\n      mstore\n      dup1\n      0x20\n      mul\n      0x20\n      add\n      dup3\n      add\n      0x40\n      mstore\n      dup1\n      iszero\n      tag_98\n      jumpi\n      dup2\n      0x20\n      add\n      0x20\n      dup3\n      mul\n      dup1\n      calldatasize\n      dup4\n      calldatacopy\n      dup1\n      dup3\n      add\n      swap2\n      pop\n      pop\n      swap1\n      pop\n    tag_98:\n      pop\n        /* \"Auction.sol\":5692:5749  uint[] memory amounts = new uint[](offerAddresses.length) */\n      swap1\n      pop\n        /* \"Auction.sol\":5765:5771  uint i */\n      0x00\n        /* \"Auction.sol\":5760:5962  for (uint i = 0; i < offerAddresses.length; i++) {... */\n    tag_99:\n        /* \"Auction.sol\":5781:5795  offerAddresses */\n      0x06\n        /* \"Auction.sol\":5781:5802  offerAddresses.length */\n      dup1\n      sload\n      swap1\n      pop\n        /* \"Auction.sol\":5777:5778  i */\n      dup2\n        /* \"Auction.sol\":5777:5802  i < offerAddresses.length */\n      lt\n        /* \"Auction.sol\":5760:5962  for (uint i = 0; i < offerAddresses.length; i++) {... */\n      iszero\n      tag_100\n      jumpi\n        /* \"Auction.sol\":5824:5839  address offeror */\n      0x00\n        /* \"Auction.sol\":5842:5856  offerAddresses */\n      0x06\n        /* \"Auction.sol\":5857:5858  i */\n      dup3\n        /* \"Auction.sol\":5842:5859  offerAddresses[i] */\n      dup2\n      sload\n      dup2\n      lt\n      tag_102\n      jumpi\n      tag_103\n      tag_104\n      jump\t// in\n    tag_103:\n    tag_102:\n      swap1\n      0x00\n      mstore\n      keccak256(0x00, 0x20)\n      add\n      0x00\n      swap1\n      sload\n      swap1\n      0x0100\n      exp\n      swap1\n      div\n      0xffffffffffffffffffffffffffffffffffffffff\n      and\n        /* \"Auction.sol\":5824:5859  address offeror = offerAddresses[i] */\n      swap1\n      pop\n        /* \"Auction.sol\":5888:5895  offeror */\n      dup1\n        /* \"Auction.sol\":5874:5882  offerors */\n      dup5\n        /* \"Auction.sol\":5883:5884  i */\n      dup4\n        /* \"Auction.sol\":5874:5885  offerors[i] */\n      dup2\n      mload\n      dup2\n      lt\n      tag_106\n      jumpi\n      tag_107\n      tag_104\n      jump\t// in\n    tag_107:\n    tag_106:\n      0x20\n      mul\n      0x20\n      add\n      add\n        /* \"Auction.sol\":5874:5895  offerors[i] = offeror */\n      swap1\n      0xffffffffffffffffffffffffffffffffffffffff\n      and\n      swap1\n      dup2\n      0xffffffffffffffffffffffffffffffffffffffff\n      and\n      dup2\n      mstore\n      pop\n      pop\n        /* \"Auction.sol\":5923:5929  offers */\n      0x07\n        /* \"Auction.sol\":5923:5938  offers[offeror] */\n      0x00\n        /* \"Auction.sol\":5930:5937  offeror */\n      dup3\n        /* \"Auction.sol\":5923:5938  offers[offeror] */\n      0xffffffffffffffffffffffffffffffffffffffff\n      and\n      0xffffffffffffffffffffffffffffffffffffffff\n      and\n      dup2\n      mstore\n      0x20\n      add\n      swap1\n      dup2\n      mstore\n      0x20\n      add\n      0x00\n      keccak256\n        /* \"Auction.sol\":5923:5950  offers[offeror].offerAmount */\n      0x01\n      add\n      sload\n        /* \"Auction.sol\":5910:5917  amounts */\n      dup4\n        /* \"Auction.sol\":5918:5919  i */\n      dup4\n        /* \"Auction.sol\":5910:5920  amounts[i] */\n      dup2\n      mload\n      dup2\n      lt\n      tag_108\n      jumpi\n      tag_109\n      tag_104\n      jump\t// in\n    tag_109:\n    tag_108:\n      0x20\n      mul\n      0x20\n      add\n      add\n        /* \"Auction.sol\":5910:5950  amounts[i] = offers[offeror].offerAmount */\n      dup2\n      dup2\n      mstore\n      pop\n      pop\n        /* \"Auction.sol\":5809:5962  {... */\n      pop\n        /* \"Auction.sol\":5804:5807  i++ */\n      dup1\n      dup1\n      0x01\n      add\n      swap2\n      pop\n      pop\n        /* \"Auction.sol\":5760:5962  for (uint i = 0; i < offerAddresses.length; i++) {... */\n      jump(tag_99)\n    tag_100:\n      pop\n        /* \"Auction.sol\":5984:5992  offerors */\n      dup2\n        /* \"Auction.sol\":5994:6001  amounts */\n      dup2\n        /* \"Auction.sol\":5976:6002  return (offerors, amounts) */\n      swap4\n      pop\n      swap4\n      pop\n      pop\n      pop\n        /* \"Auction.sol\":5529:6011  function showOffers () external view returns(address[] memory, uint[] memory){... */\n      swap1\n      swap2\n      jump\t// out\n        /* \"Auction.sol\":2599:3029  function manualWithdraw() external  onlyAfterAuction withinWithdrawalWindow(Timeframe + 30 days) onlyNotWinner {... */\n    tag_39:\n        /* \"Auction.sol\":1658:1667  Timeframe */\n      sload(0x02)\n        /* \"Auction.sol\":1639:1654  block.timestamp */\n      timestamp\n        /* \"Auction.sol\":1639:1667  block.timestamp >= Timeframe */\n      lt\n      iszero\n        /* \"Auction.sol\":1631:1696  require(block.timestamp >= Timeframe, \"La subasta sigue vigente\") */\n      tag_111\n      jumpi\n      mload(0x40)\n      0x08c379a000000000000000000000000000000000000000000000000000000000\n      dup2\n      mstore\n      0x04\n      add\n      tag_112\n      swap1\n      tag_79\n      jump\t// in\n    tag_112:\n      mload(0x40)\n      dup1\n      swap2\n      sub\n      swap1\n      revert\n    tag_111:\n        /* \"Auction.sol\":2687:2694  30 days */\n      0x278d00\n        /* \"Auction.sol\":2675:2684  Timeframe */\n      sload(0x02)\n        /* \"Auction.sol\":2675:2694  Timeframe + 30 days */\n      tag_113\n      swap2\n      swap1\n      tag_114\n      jump\t// in\n    tag_113:\n        /* \"Auction.sol\":1485:1494  _deadline */\n      dup1\n        /* \"Auction.sol\":1466:1481  block.timestamp */\n      timestamp\n        /* \"Auction.sol\":1466:1494  block.timestamp <= _deadline */\n      gt\n      iszero\n        /* \"Auction.sol\":1458:1537  require(block.timestamp <= _deadline, \"El tiempo de retiro manual ha expirado\") */\n      tag_116\n      jumpi\n      mload(0x40)\n      0x08c379a000000000000000000000000000000000000000000000000000000000\n      dup2\n      mstore\n      0x04\n      add\n      tag_117\n      swap1\n      tag_118\n      jump\t// in\n    tag_117:\n      mload(0x40)\n      dup1\n      swap2\n      sub\n      swap1\n      revert\n    tag_116:\n        /* \"Auction.sol\":2048:2063  offerWinAddress */\n      0x04\n      0x00\n      swap1\n      sload\n      swap1\n      0x0100\n      exp\n      swap1\n      div\n      0xffffffffffffffffffffffffffffffffffffffff\n      and\n        /* \"Auction.sol\":2034:2063  msg.sender != offerWinAddress */\n      0xffffffffffffffffffffffffffffffffffffffff\n      and\n        /* \"Auction.sol\":2034:2044  msg.sender */\n      caller\n        /* \"Auction.sol\":2034:2063  msg.sender != offerWinAddress */\n      0xffffffffffffffffffffffffffffffffffffffff\n      and\n      sub\n        /* \"Auction.sol\":2026:2110  require(msg.sender != offerWinAddress, \"Gano la subasta no puede retirar la oferta\") */\n      tag_120\n      jumpi\n      mload(0x40)\n      0x08c379a000000000000000000000000000000000000000000000000000000000\n      dup2\n      mstore\n      0x04\n      add\n      tag_121\n      swap1\n      tag_122\n      jump\t// in\n    tag_121:\n      mload(0x40)\n      dup1\n      swap2\n      sub\n      swap1\n      revert\n    tag_120:\n        /* \"Auction.sol\":2721:2732  uint amount */\n      0x00\n        /* \"Auction.sol\":2735:2741  offers */\n      0x07\n        /* \"Auction.sol\":2735:2753  offers[msg.sender] */\n      0x00\n        /* \"Auction.sol\":2742:2752  msg.sender */\n      caller\n        /* \"Auction.sol\":2735:2753  offers[msg.sender] */\n      0xffffffffffffffffffffffffffffffffffffffff\n      and\n      0xffffffffffffffffffffffffffffffffffffffff\n      and\n      dup2\n      mstore\n      0x20\n      add\n      swap1\n      dup2\n      mstore\n      0x20\n      add\n      0x00\n      keccak256\n        /* \"Auction.sol\":2735:2765  offers[msg.sender].offerAmount */\n      0x01\n      add\n      sload\n        /* \"Auction.sol\":2721:2765  uint amount = offers[msg.sender].offerAmount */\n      swap1\n      pop\n        /* \"Auction.sol\":2793:2794  0 */\n      0x00\n        /* \"Auction.sol\":2784:2790  amount */\n      dup2\n        /* \"Auction.sol\":2784:2794  amount > 0 */\n      gt\n        /* \"Auction.sol\":2776:2824  require(amount > 0, \"No tienes monto a retirar\") */\n      tag_124\n      jumpi\n      mload(0x40)\n      0x08c379a000000000000000000000000000000000000000000000000000000000\n      dup2\n      mstore\n      0x04\n      add\n      tag_125\n      swap1\n      tag_126\n      jump\t// in\n    tag_125:\n      mload(0x40)\n      dup1\n      swap2\n      sub\n      swap1\n      revert\n    tag_124:\n        /* \"Auction.sol\":2868:2869  0 */\n      0x00\n        /* \"Auction.sol\":2835:2841  offers */\n      0x07\n        /* \"Auction.sol\":2835:2853  offers[msg.sender] */\n      0x00\n        /* \"Auction.sol\":2842:2852  msg.sender */\n      caller\n        /* \"Auction.sol\":2835:2853  offers[msg.sender] */\n      0xffffffffffffffffffffffffffffffffffffffff\n      and\n      0xffffffffffffffffffffffffffffffffffffffff\n      and\n      dup2\n      mstore\n      0x20\n      add\n      swap1\n      dup2\n      mstore\n      0x20\n      add\n      0x00\n      keccak256\n        /* \"Auction.sol\":2835:2865  offers[msg.sender].offerAmount */\n      0x01\n      add\n        /* \"Auction.sol\":2835:2869  offers[msg.sender].offerAmount = 0 */\n      dup2\n      swap1\n      sstore\n      pop\n        /* \"Auction.sol\":2882:2899  uint refundAmount */\n      0x00\n        /* \"Auction.sol\":2916:2919  100 */\n      0x64\n        /* \"Auction.sol\":2911:2913  98 */\n      0x62\n        /* \"Auction.sol\":2902:2908  amount */\n      dup4\n        /* \"Auction.sol\":2902:2913  amount * 98 */\n      tag_127\n      swap2\n      swap1\n      tag_128\n      jump\t// in\n    tag_127:\n        /* \"Auction.sol\":2902:2919  amount * 98 / 100 */\n      tag_129\n      swap2\n      swap1\n      tag_130\n      jump\t// in\n    tag_129:\n        /* \"Auction.sol\":2882:2919  uint refundAmount = amount * 98 / 100 */\n      swap1\n      pop\n        /* \"Auction.sol\":2938:2948  msg.sender */\n      caller\n        /* \"Auction.sol\":2930:2958  payable(msg.sender).transfer */\n      0xffffffffffffffffffffffffffffffffffffffff\n      and\n        /* \"Auction.sol\":2930:2972  payable(msg.sender).transfer(refundAmount) */\n      0x08fc\n        /* \"Auction.sol\":2959:2971  refundAmount */\n      dup3\n        /* \"Auction.sol\":2930:2972  payable(msg.sender).transfer(refundAmount) */\n      swap1\n      dup2\n      iszero\n      mul\n      swap1\n      mload(0x40)\n      0x00\n      mload(0x40)\n      dup1\n      dup4\n      sub\n      dup2\n      dup6\n      dup9\n      dup9\n      call\n      swap4\n      pop\n      pop\n      pop\n      pop\n      iszero\n      dup1\n      iszero\n      tag_132\n      jumpi\n      returndatasize\n      0x00\n      dup1\n      returndatacopy\n      revert(0x00, returndatasize)\n    tag_132:\n      pop\n        /* \"Auction.sol\":2997:3007  msg.sender */\n      caller\n        /* \"Auction.sol\":2988:3021  Withdraw(msg.sender,refundAmount) */\n      0xffffffffffffffffffffffffffffffffffffffff\n      and\n      0x884edad9ce6fa2440d8a54cc123490eb96d2768479d49ff9c7366125a9424364\n        /* \"Auction.sol\":3008:3020  refundAmount */\n      dup3\n        /* \"Auction.sol\":2988:3021  Withdraw(msg.sender,refundAmount) */\n      mload(0x40)\n      tag_133\n      swap2\n      swap1\n      tag_31\n      jump\t// in\n    tag_133:\n      mload(0x40)\n      dup1\n      swap2\n      sub\n      swap1\n      log2\n        /* \"Auction.sol\":2710:3029  {... */\n      pop\n      pop\n        /* \"Auction.sol\":1703:1704  _ */\n      pop\n        /* \"Auction.sol\":2599:3029  function manualWithdraw() external  onlyAfterAuction withinWithdrawalWindow(Timeframe + 30 days) onlyNotWinner {... */\n      jump\t// out\n        /* \"Auction.sol\":5311:5409  function getWinnerOffer() external view returns(address) {... */\n    tag_42:\n        /* \"Auction.sol\":5359:5366  address */\n      0x00\n        /* \"Auction.sol\":5386:5401  offerWinAddress */\n      0x04\n      0x00\n      swap1\n      sload\n      swap1\n      0x0100\n      exp\n      swap1\n      div\n      0xffffffffffffffffffffffffffffffffffffffff\n      and\n        /* \"Auction.sol\":5379:5401  return offerWinAddress */\n      swap1\n      pop\n        /* \"Auction.sol\":5311:5409  function getWinnerOffer() external view returns(address) {... */\n      swap1\n      jump\t// out\n        /* \"Auction.sol\":570:590  Estado public estado */\n    tag_46:\n      0x05\n      0x14\n      swap1\n      sload\n      swap1\n      0x0100\n      exp\n      swap1\n      div\n      0xff\n      and\n      dup2\n      jump\t// out\n        /* \"Auction.sol\":3968:5299  function setOffer () external payable extendAuctionIfNeeded onlyActive {              ... */\n    tag_50:\n        /* \"Auction.sol\":2411:2421  10 minutes */\n      0x0258\n        /* \"Auction.sol\":2399:2408  Timeframe */\n      sload(0x02)\n        /* \"Auction.sol\":2399:2421  Timeframe - 10 minutes */\n      tag_136\n      swap2\n      swap1\n      tag_137\n      jump\t// in\n    tag_136:\n        /* \"Auction.sol\":2380:2395  block.timestamp */\n      timestamp\n        /* \"Auction.sol\":2380:2421  block.timestamp >= Timeframe - 10 minutes */\n      lt\n        /* \"Auction.sol\":2376:2523  if (block.timestamp >= Timeframe - 10 minutes) {... */\n      tag_138\n      jumpi\n        /* \"Auction.sol\":2451:2461  10 minutes */\n      0x0258\n        /* \"Auction.sol\":2438:2447  Timeframe */\n      0x02\n      0x00\n        /* \"Auction.sol\":2438:2461  Timeframe += 10 minutes */\n      dup3\n      dup3\n      sload\n      tag_139\n      swap2\n      swap1\n      tag_114\n      jump\t// in\n    tag_139:\n      swap3\n      pop\n      pop\n      dup2\n      swap1\n      sstore\n      pop\n        /* \"Auction.sol\":2483:2509  AuctionExtended(Timeframe) */\n      0xc2b459809119087ca9d2bc10dea53a51b7d848b1a11075db037bdca58292c3e8\n        /* \"Auction.sol\":2499:2508  Timeframe */\n      sload(0x02)\n        /* \"Auction.sol\":2483:2509  AuctionExtended(Timeframe) */\n      mload(0x40)\n      tag_140\n      swap2\n      swap1\n      tag_31\n      jump\t// in\n    tag_140:\n      mload(0x40)\n      dup1\n      swap2\n      sub\n      swap1\n      log1\n        /* \"Auction.sol\":2376:2523  if (block.timestamp >= Timeframe - 10 minutes) {... */\n    tag_138:\n        /* \"Auction.sol\":2197:2210  Estado.Activa */\n      0x00\n        /* \"Auction.sol\":2187:2210  estado == Estado.Activa */\n      0x02\n      dup2\n      gt\n      iszero\n      tag_142\n      jumpi\n      tag_143\n      tag_83\n      jump\t// in\n    tag_143:\n    tag_142:\n        /* \"Auction.sol\":2187:2193  estado */\n      0x05\n      0x14\n      swap1\n      sload\n      swap1\n      0x0100\n      exp\n      swap1\n      div\n      0xff\n      and\n        /* \"Auction.sol\":2187:2210  estado == Estado.Activa */\n      0x02\n      dup2\n      gt\n      iszero\n      tag_144\n      jumpi\n      tag_145\n      tag_83\n      jump\t// in\n    tag_145:\n    tag_144:\n      eq\n        /* \"Auction.sol\":2179:2261  require(estado == Estado.Activa, \"La subasta ha terminado o se encuentra pausada\") */\n      tag_146\n      jumpi\n      mload(0x40)\n      0x08c379a000000000000000000000000000000000000000000000000000000000\n      dup2\n      mstore\n      0x04\n      add\n      tag_147\n      swap1\n      tag_148\n      jump\t// in\n    tag_147:\n      mload(0x40)\n      dup1\n      swap2\n      sub\n      swap1\n      revert\n    tag_146:\n        /* \"Auction.sol\":4084:4089  owner */\n      0x05\n      0x00\n      swap1\n      sload\n      swap1\n      0x0100\n      exp\n      swap1\n      div\n      0xffffffffffffffffffffffffffffffffffffffff\n      and\n        /* \"Auction.sol\":4070:4089  msg.sender != owner */\n      0xffffffffffffffffffffffffffffffffffffffff\n      and\n        /* \"Auction.sol\":4070:4080  msg.sender */\n      caller\n        /* \"Auction.sol\":4070:4089  msg.sender != owner */\n      0xffffffffffffffffffffffffffffffffffffffff\n      and\n      sub\n        /* \"Auction.sol\":4062:4146  require(msg.sender != owner, \"El propietario no puede ofertar en su propia subasta\") */\n      tag_150\n      jumpi\n      mload(0x40)\n      0x08c379a000000000000000000000000000000000000000000000000000000000\n      dup2\n      mstore\n      0x04\n      add\n      tag_151\n      swap1\n      tag_152\n      jump\t// in\n    tag_151:\n      mload(0x40)\n      dup1\n      swap2\n      sub\n      swap1\n      revert\n    tag_150:\n        /* \"Auction.sol\":4193:4194  0 */\n      0x00\n        /* \"Auction.sol\":4159:4165  offers */\n      0x07\n        /* \"Auction.sol\":4159:4177  offers[msg.sender] */\n      0x00\n        /* \"Auction.sol\":4166:4176  msg.sender */\n      caller\n        /* \"Auction.sol\":4159:4177  offers[msg.sender] */\n      0xffffffffffffffffffffffffffffffffffffffff\n      and\n      0xffffffffffffffffffffffffffffffffffffffff\n      and\n      dup2\n      mstore\n      0x20\n      add\n      swap1\n      dup2\n      mstore\n      0x20\n      add\n      0x00\n      keccak256\n        /* \"Auction.sol\":4159:4189  offers[msg.sender].offerAmount */\n      0x01\n      add\n      sload\n        /* \"Auction.sol\":4159:4194  offers[msg.sender].offerAmount == 0 */\n      sub\n        /* \"Auction.sol\":4155:4471  if (offers[msg.sender].offerAmount == 0) {    //Verifico si ya realizo una oferta esa address... */\n      tag_153\n      jumpi\n        /* \"Auction.sol\":4262:4276  offerAddresses */\n      0x06\n        /* \"Auction.sol\":4282:4292  msg.sender */\n      caller\n        /* \"Auction.sol\":4262:4293  offerAddresses.push(msg.sender) */\n      swap1\n      dup1\n      0x01\n      dup2\n      sload\n      add\n      dup1\n      dup3\n      sstore\n      dup1\n      swap2\n      pop\n      pop\n      0x01\n      swap1\n      sub\n      swap1\n      0x00\n      mstore\n      keccak256(0x00, 0x20)\n      add\n      0x00\n      swap1\n      swap2\n      swap1\n      swap2\n      swap1\n      swap2\n      0x0100\n      exp\n      dup2\n      sload\n      dup2\n      0xffffffffffffffffffffffffffffffffffffffff\n      mul\n      not\n      and\n      swap1\n      dup4\n      0xffffffffffffffffffffffffffffffffffffffff\n      and\n      mul\n      or\n      swap1\n      sstore\n      pop\n        /* \"Auction.sol\":4155:4471  if (offers[msg.sender].offerAmount == 0) {    //Verifico si ya realizo una oferta esa address... */\n      jump(tag_155)\n    tag_153:\n        /* \"Auction.sol\":4412:4427  offerWinAddress */\n      0x04\n      0x00\n      swap1\n      sload\n      swap1\n      0x0100\n      exp\n      swap1\n      div\n      0xffffffffffffffffffffffffffffffffffffffff\n      and\n        /* \"Auction.sol\":4398:4427  msg.sender != offerWinAddress */\n      0xffffffffffffffffffffffffffffffffffffffff\n      and\n        /* \"Auction.sol\":4398:4408  msg.sender */\n      caller\n        /* \"Auction.sol\":4398:4427  msg.sender != offerWinAddress */\n      0xffffffffffffffffffffffffffffffffffffffff\n      and\n      sub\n        /* \"Auction.sol\":4390:4461  require(msg.sender != offerWinAddress , \"Ya tienes la oferta mas alta\") */\n      tag_156\n      jumpi\n      mload(0x40)\n      0x08c379a000000000000000000000000000000000000000000000000000000000\n      dup2\n      mstore\n      0x04\n      add\n      tag_157\n      swap1\n      tag_158\n      jump\t// in\n    tag_157:\n      mload(0x40)\n      dup1\n      swap2\n      sub\n      swap1\n      revert\n    tag_156:\n        /* \"Auction.sol\":4155:4471  if (offers[msg.sender].offerAmount == 0) {    //Verifico si ya realizo una oferta esa address... */\n    tag_155:\n        /* \"Auction.sol\":4520:4523  100 */\n      0x64\n        /* \"Auction.sol\":4516:4519  105 */\n      0x69\n        /* \"Auction.sol\":4500:4514  offerWinAmount */\n      sload(0x03)\n        /* \"Auction.sol\":4500:4519  offerWinAmount *105 */\n      tag_159\n      swap2\n      swap1\n      tag_128\n      jump\t// in\n    tag_159:\n        /* \"Auction.sol\":4500:4523  offerWinAmount *105/100 */\n      tag_160\n      swap2\n      swap1\n      tag_130\n      jump\t// in\n    tag_160:\n        /* \"Auction.sol\":4487:4496  msg.value */\n      callvalue\n        /* \"Auction.sol\":4487:4523  msg.value >= offerWinAmount *105/100 */\n      lt\n      iszero\n        /* \"Auction.sol\":4479:4570  require(msg.value >= offerWinAmount *105/100, \"La oferta debe ser superior al menos en 5%\") */\n      tag_161\n      jumpi\n      mload(0x40)\n      0x08c379a000000000000000000000000000000000000000000000000000000000\n      dup2\n      mstore\n      0x04\n      add\n      tag_162\n      swap1\n      tag_163\n      jump\t// in\n    tag_162:\n      mload(0x40)\n      dup1\n      swap2\n      sub\n      swap1\n      revert\n    tag_161:\n        /* \"Auction.sol\":4638:4863  Offer({... */\n      mload(0x40)\n      dup1\n      0x60\n      add\n      0x40\n      mstore\n      dup1\n        /* \"Auction.sol\":4665:4680  block.timestamp */\n      timestamp\n        /* \"Auction.sol\":4638:4863  Offer({... */\n      dup2\n      mstore\n      0x20\n      add\n        /* \"Auction.sol\":4708:4717  msg.value */\n      callvalue\n        /* \"Auction.sol\":4638:4863  Offer({... */\n      dup2\n      mstore\n      0x20\n      add\n        /* \"Auction.sol\":4779:4780  0 */\n      0x00\n        /* \"Auction.sol\":4746:4752  offers */\n      0x07\n        /* \"Auction.sol\":4746:4764  offers[msg.sender] */\n      0x00\n        /* \"Auction.sol\":4753:4763  msg.sender */\n      caller\n        /* \"Auction.sol\":4746:4764  offers[msg.sender] */\n      0xffffffffffffffffffffffffffffffffffffffff\n      and\n      0xffffffffffffffffffffffffffffffffffffffff\n      and\n      dup2\n      mstore\n      0x20\n      add\n      swap1\n      dup2\n      mstore\n      0x20\n      add\n      0x00\n      keccak256\n        /* \"Auction.sol\":4746:4776  offers[msg.sender].offerAmount */\n      0x01\n      add\n      sload\n        /* \"Auction.sol\":4746:4780  offers[msg.sender].offerAmount > 0 */\n      gt\n        /* \"Auction.sol\":4746:4851  offers[msg.sender].offerAmount > 0 ? offers[msg.sender].excessAmount + offers[msg.sender].offerAmount : 0 */\n      tag_164\n      jumpi\n        /* \"Auction.sol\":4850:4851  0 */\n      0x00\n        /* \"Auction.sol\":4746:4851  offers[msg.sender].offerAmount > 0 ? offers[msg.sender].excessAmount + offers[msg.sender].offerAmount : 0 */\n      jump(tag_165)\n    tag_164:\n        /* \"Auction.sol\":4817:4823  offers */\n      0x07\n        /* \"Auction.sol\":4817:4835  offers[msg.sender] */\n      0x00\n        /* \"Auction.sol\":4824:4834  msg.sender */\n      caller\n        /* \"Auction.sol\":4817:4835  offers[msg.sender] */\n      0xffffffffffffffffffffffffffffffffffffffff\n      and\n      0xffffffffffffffffffffffffffffffffffffffff\n      and\n      dup2\n      mstore\n      0x20\n      add\n      swap1\n      dup2\n      mstore\n      0x20\n      add\n      0x00\n      keccak256\n        /* \"Auction.sol\":4817:4847  offers[msg.sender].offerAmount */\n      0x01\n      add\n      sload\n        /* \"Auction.sol\":4783:4789  offers */\n      0x07\n        /* \"Auction.sol\":4783:4801  offers[msg.sender] */\n      0x00\n        /* \"Auction.sol\":4790:4800  msg.sender */\n      caller\n        /* \"Auction.sol\":4783:4801  offers[msg.sender] */\n      0xffffffffffffffffffffffffffffffffffffffff\n      and\n      0xffffffffffffffffffffffffffffffffffffffff\n      and\n      dup2\n      mstore\n      0x20\n      add\n      swap1\n      dup2\n      mstore\n      0x20\n      add\n      0x00\n      keccak256\n        /* \"Auction.sol\":4783:4814  offers[msg.sender].excessAmount */\n      0x02\n      add\n      sload\n        /* \"Auction.sol\":4783:4847  offers[msg.sender].excessAmount + offers[msg.sender].offerAmount */\n      tag_166\n      swap2\n      swap1\n      tag_114\n      jump\t// in\n    tag_166:\n        /* \"Auction.sol\":4746:4851  offers[msg.sender].offerAmount > 0 ? offers[msg.sender].excessAmount + offers[msg.sender].offerAmount : 0 */\n    tag_165:\n        /* \"Auction.sol\":4638:4863  Offer({... */\n      dup2\n      mstore\n      pop\n        /* \"Auction.sol\":4617:4623  offers */\n      0x07\n        /* \"Auction.sol\":4617:4635  offers[msg.sender] */\n      0x00\n        /* \"Auction.sol\":4624:4634  msg.sender */\n      caller\n        /* \"Auction.sol\":4617:4635  offers[msg.sender] */\n      0xffffffffffffffffffffffffffffffffffffffff\n      and\n      0xffffffffffffffffffffffffffffffffffffffff\n      and\n      dup2\n      mstore\n      0x20\n      add\n      swap1\n      dup2\n      mstore\n      0x20\n      add\n      0x00\n      keccak256\n        /* \"Auction.sol\":4617:4863  offers[msg.sender] = Offer({... */\n      0x00\n      dup3\n      add\n      mload\n      dup2\n      0x00\n      add\n      sstore\n      0x20\n      dup3\n      add\n      mload\n      dup2\n      0x01\n      add\n      sstore\n      0x40\n      dup3\n      add\n      mload\n      dup2\n      0x02\n      add\n      sstore\n      swap1\n      pop\n      pop\n        /* \"Auction.sol\":4985:4994  msg.value */\n      callvalue\n        /* \"Auction.sol\":4968:4982  offerWinAmount */\n      0x03\n        /* \"Auction.sol\":4968:4994  offerWinAmount = msg.value */\n      dup2\n      swap1\n      sstore\n      pop\n        /* \"Auction.sol\":5106:5116  msg.sender */\n      caller\n        /* \"Auction.sol\":5088:5103  offerWinAddress */\n      0x04\n      0x00\n        /* \"Auction.sol\":5088:5116  offerWinAddress = msg.sender */\n      0x0100\n      exp\n      dup2\n      sload\n      dup2\n      0xffffffffffffffffffffffffffffffffffffffff\n      mul\n      not\n      and\n      swap1\n      dup4\n      0xffffffffffffffffffffffffffffffffffffffff\n      and\n      mul\n      or\n      swap1\n      sstore\n      pop\n        /* \"Auction.sol\":5259:5269  msg.sender */\n      caller\n        /* \"Auction.sol\":5252:5281  NewBid(msg.sender, msg.value) */\n      0xffffffffffffffffffffffffffffffffffffffff\n      and\n      0xdd0b6c6a77960e2066c96171b4d7ac9e8b4c184011f38544afa36a5bb63ec59f\n        /* \"Auction.sol\":5271:5280  msg.value */\n      callvalue\n        /* \"Auction.sol\":5252:5281  NewBid(msg.sender, msg.value) */\n      mload(0x40)\n      tag_167\n      swap2\n      swap1\n      tag_31\n      jump\t// in\n    tag_167:\n      mload(0x40)\n      dup1\n      swap2\n      sub\n      swap1\n      log2\n        /* \"Auction.sol\":3968:5299  function setOffer () external payable extendAuctionIfNeeded onlyActive {              ... */\n      jump\t// out\n        /* \"Auction.sol\":7515:7719  function finalizeWithdrawals() external  onlyOwner onlyAfterAuction  {... */\n    tag_53:\n        /* \"Auction.sol\":1773:1778  owner */\n      0x05\n      0x00\n      swap1\n      sload\n      swap1\n      0x0100\n      exp\n      swap1\n      div\n      0xffffffffffffffffffffffffffffffffffffffff\n      and\n        /* \"Auction.sol\":1759:1778  msg.sender == owner */\n      0xffffffffffffffffffffffffffffffffffffffff\n      and\n        /* \"Auction.sol\":1759:1769  msg.sender */\n      caller\n        /* \"Auction.sol\":1759:1778  msg.sender == owner */\n      0xffffffffffffffffffffffffffffffffffffffff\n      and\n      eq\n        /* \"Auction.sol\":1751:1806  require(msg.sender == owner, \"Usted no tiene permisos\") */\n      tag_169\n      jumpi\n      mload(0x40)\n      0x08c379a000000000000000000000000000000000000000000000000000000000\n      dup2\n      mstore\n      0x04\n      add\n      tag_170\n      swap1\n      tag_171\n      jump\t// in\n    tag_170:\n      mload(0x40)\n      dup1\n      swap2\n      sub\n      swap1\n      revert\n    tag_169:\n        /* \"Auction.sol\":1658:1667  Timeframe */\n      sload(0x02)\n        /* \"Auction.sol\":1639:1654  block.timestamp */\n      timestamp\n        /* \"Auction.sol\":1639:1667  block.timestamp >= Timeframe */\n      lt\n      iszero\n        /* \"Auction.sol\":1631:1696  require(block.timestamp >= Timeframe, \"La subasta sigue vigente\") */\n      tag_173\n      jumpi\n      mload(0x40)\n      0x08c379a000000000000000000000000000000000000000000000000000000000\n      dup2\n      mstore\n      0x04\n      add\n      tag_174\n      swap1\n      tag_79\n      jump\t// in\n    tag_174:\n      mload(0x40)\n      dup1\n      swap2\n      sub\n      swap1\n      revert\n    tag_173:\n        /* \"Auction.sol\":7633:7640  30 days */\n      0x278d00\n        /* \"Auction.sol\":7621:7630  Timeframe */\n      sload(0x02)\n        /* \"Auction.sol\":7621:7640  Timeframe + 30 days */\n      tag_176\n      swap2\n      swap1\n      tag_114\n      jump\t// in\n    tag_176:\n        /* \"Auction.sol\":7603:7618  block.timestamp */\n      timestamp\n        /* \"Auction.sol\":7603:7640  block.timestamp > Timeframe + 30 days */\n      gt\n        /* \"Auction.sol\":7595:7685  require(block.timestamp > Timeframe + 30 days, \"Todavia esta habilitado el retiro manual\") */\n      tag_177\n      jumpi\n      mload(0x40)\n      0x08c379a000000000000000000000000000000000000000000000000000000000\n      dup2\n      mstore\n      0x04\n      add\n      tag_178\n      swap1\n      tag_179\n      jump\t// in\n    tag_178:\n      mload(0x40)\n      dup1\n      swap2\n      sub\n      swap1\n      revert\n    tag_177:\n        /* \"Auction.sol\":7696:7710  bulkWithdraw() */\n      tag_180\n        /* \"Auction.sol\":7696:7708  bulkWithdraw */\n      tag_181\n        /* \"Auction.sol\":7696:7710  bulkWithdraw() */\n      jump\t// in\n    tag_180:\n        /* \"Auction.sol\":7515:7719  function finalizeWithdrawals() external  onlyOwner onlyAfterAuction  {... */\n      jump\t// out\n        /* \"Auction.sol\":3729:3950  function AuctionEnded() external onlyOwner {... */\n    tag_56:\n        /* \"Auction.sol\":1773:1778  owner */\n      0x05\n      0x00\n      swap1\n      sload\n      swap1\n      0x0100\n      exp\n      swap1\n      div\n      0xffffffffffffffffffffffffffffffffffffffff\n      and\n        /* \"Auction.sol\":1759:1778  msg.sender == owner */\n      0xffffffffffffffffffffffffffffffffffffffff\n      and\n        /* \"Auction.sol\":1759:1769  msg.sender */\n      caller\n        /* \"Auction.sol\":1759:1778  msg.sender == owner */\n      0xffffffffffffffffffffffffffffffffffffffff\n      and\n      eq\n        /* \"Auction.sol\":1751:1806  require(msg.sender == owner, \"Usted no tiene permisos\") */\n      tag_183\n      jumpi\n      mload(0x40)\n      0x08c379a000000000000000000000000000000000000000000000000000000000\n      dup2\n      mstore\n      0x04\n      add\n      tag_184\n      swap1\n      tag_171\n      jump\t// in\n    tag_184:\n      mload(0x40)\n      dup1\n      swap2\n      sub\n      swap1\n      revert\n    tag_183:\n        /* \"Auction.sol\":3810:3819  Timeframe */\n      sload(0x02)\n        /* \"Auction.sol\":3791:3806  block.timestamp */\n      timestamp\n        /* \"Auction.sol\":3791:3819  block.timestamp >= Timeframe */\n      lt\n      iszero\n        /* \"Auction.sol\":3783:3848  require(block.timestamp >= Timeframe, \"La subasta sigue vigente\") */\n      tag_186\n      jumpi\n      mload(0x40)\n      0x08c379a000000000000000000000000000000000000000000000000000000000\n      dup2\n      mstore\n      0x04\n      add\n      tag_187\n      swap1\n      tag_79\n      jump\t// in\n    tag_187:\n      mload(0x40)\n      dup1\n      swap2\n      sub\n      swap1\n      revert\n    tag_186:\n        /* \"Auction.sol\":3875:3889  Estado.Cerrada */\n      0x01\n        /* \"Auction.sol\":3866:3872  estado */\n      0x05\n      0x14\n        /* \"Auction.sol\":3866:3889  estado = Estado.Cerrada */\n      0x0100\n      exp\n      dup2\n      sload\n      dup2\n      0xff\n      mul\n      not\n      and\n      swap1\n      dup4\n      0x02\n      dup2\n      gt\n      iszero\n      tag_188\n      jumpi\n      tag_189\n      tag_83\n      jump\t// in\n    tag_189:\n    tag_188:\n      mul\n      or\n      swap1\n      sstore\n      pop\n        /* \"Auction.sol\":3905:3942  EndAuction(\"La subasta ha terminado\") */\n      0xb70b873adccc41a4fdc0b8fe6d3d21b4449270a44e8a431952703e2e654cbfdb\n      mload(0x40)\n      tag_190\n      swap1\n      tag_191\n      jump\t// in\n    tag_190:\n      mload(0x40)\n      dup1\n      swap2\n      sub\n      swap1\n      log1\n        /* \"Auction.sol\":3729:3950  function AuctionEnded() external onlyOwner {... */\n      jump\t// out\n        /* \"Auction.sol\":6019:6331  function withdrawExcess() external payable {... */\n    tag_58:\n        /* \"Auction.sol\":6073:6084  uint amount */\n      0x00\n        /* \"Auction.sol\":6087:6093  offers */\n      0x07\n        /* \"Auction.sol\":6087:6105  offers[msg.sender] */\n      0x00\n        /* \"Auction.sol\":6094:6104  msg.sender */\n      caller\n        /* \"Auction.sol\":6087:6105  offers[msg.sender] */\n      0xffffffffffffffffffffffffffffffffffffffff\n      and\n      0xffffffffffffffffffffffffffffffffffffffff\n      and\n      dup2\n      mstore\n      0x20\n      add\n      swap1\n      dup2\n      mstore\n      0x20\n      add\n      0x00\n      keccak256\n        /* \"Auction.sol\":6087:6118  offers[msg.sender].excessAmount */\n      0x02\n      add\n      sload\n        /* \"Auction.sol\":6073:6118  uint amount = offers[msg.sender].excessAmount */\n      swap1\n      pop\n        /* \"Auction.sol\":6144:6145  0 */\n      0x00\n        /* \"Auction.sol\":6137:6143  amount */\n      dup2\n        /* \"Auction.sol\":6137:6145  amount>0 */\n      gt\n        /* \"Auction.sol\":6129:6187  require(amount>0,\"No tiene suficiente saldo para retirar\") */\n      tag_193\n      jumpi\n      mload(0x40)\n      0x08c379a000000000000000000000000000000000000000000000000000000000\n      dup2\n      mstore\n      0x04\n      add\n      tag_194\n      swap1\n      tag_195\n      jump\t// in\n    tag_194:\n      mload(0x40)\n      dup1\n      swap2\n      sub\n      swap1\n      revert\n    tag_193:\n        /* \"Auction.sol\":6232:6233  0 */\n      0x00\n        /* \"Auction.sol\":6198:6204  offers */\n      0x07\n        /* \"Auction.sol\":6198:6216  offers[msg.sender] */\n      0x00\n        /* \"Auction.sol\":6205:6215  msg.sender */\n      caller\n        /* \"Auction.sol\":6198:6216  offers[msg.sender] */\n      0xffffffffffffffffffffffffffffffffffffffff\n      and\n      0xffffffffffffffffffffffffffffffffffffffff\n      and\n      dup2\n      mstore\n      0x20\n      add\n      swap1\n      dup2\n      mstore\n      0x20\n      add\n      0x00\n      keccak256\n        /* \"Auction.sol\":6198:6229  offers[msg.sender].excessAmount */\n      0x02\n      add\n        /* \"Auction.sol\":6198:6233  offers[msg.sender].excessAmount = 0 */\n      dup2\n      swap1\n      sstore\n      pop\n        /* \"Auction.sol\":6252:6262  msg.sender */\n      caller\n        /* \"Auction.sol\":6244:6272  payable(msg.sender).transfer */\n      0xffffffffffffffffffffffffffffffffffffffff\n      and\n        /* \"Auction.sol\":6244:6280  payable(msg.sender).transfer(amount) */\n      0x08fc\n        /* \"Auction.sol\":6273:6279  amount */\n      dup3\n        /* \"Auction.sol\":6244:6280  payable(msg.sender).transfer(amount) */\n      swap1\n      dup2\n      iszero\n      mul\n      swap1\n      mload(0x40)\n      0x00\n      mload(0x40)\n      dup1\n      dup4\n      sub\n      dup2\n      dup6\n      dup9\n      dup9\n      call\n      swap4\n      pop\n      pop\n      pop\n      pop\n      iszero\n      dup1\n      iszero\n      tag_197\n      jumpi\n      returndatasize\n      0x00\n      dup1\n      returndatacopy\n      revert(0x00, returndatasize)\n    tag_197:\n      pop\n        /* \"Auction.sol\":6305:6315  msg.sender */\n      caller\n        /* \"Auction.sol\":6296:6323  Withdraw(msg.sender,amount) */\n      0xffffffffffffffffffffffffffffffffffffffff\n      and\n      0x884edad9ce6fa2440d8a54cc123490eb96d2768479d49ff9c7366125a9424364\n        /* \"Auction.sol\":6316:6322  amount */\n      dup3\n        /* \"Auction.sol\":6296:6323  Withdraw(msg.sender,amount) */\n      mload(0x40)\n      tag_198\n      swap2\n      swap1\n      tag_31\n      jump\t// in\n    tag_198:\n      mload(0x40)\n      dup1\n      swap2\n      sub\n      swap1\n      log2\n        /* \"Auction.sol\":6062:6331  {... */\n      pop\n        /* \"Auction.sol\":6019:6331  function withdrawExcess() external payable {... */\n      jump\t// out\n        /* \"Auction.sol\":6461:7222  function getTimeLeft() public view returns (uint _days, uint _hours, uint _minutes) {... */\n    tag_61:\n        /* \"Auction.sol\":6505:6515  uint _days */\n      0x00\n        /* \"Auction.sol\":6517:6528  uint _hours */\n      dup1\n        /* \"Auction.sol\":6530:6543  uint _minutes */\n      0x00\n        /* \"Auction.sol\":6579:6588  Timeframe */\n      sload(0x02)\n        /* \"Auction.sol\":6560:6575  block.timestamp */\n      timestamp\n        /* \"Auction.sol\":6560:6588  block.timestamp >= Timeframe */\n      lt\n        /* \"Auction.sol\":6556:6656  if (block.timestamp >= Timeframe) {... */\n      tag_200\n      jumpi\n        /* \"Auction.sol\":6613:6614  0 */\n      0x00\n        /* \"Auction.sol\":6616:6617  0 */\n      dup1\n        /* \"Auction.sol\":6619:6620  0 */\n      0x00\n        /* \"Auction.sol\":6605:6621  return (0, 0, 0) */\n      swap3\n      pop\n      swap3\n      pop\n      swap3\n      pop\n      jump(tag_199)\n        /* \"Auction.sol\":6556:6656  if (block.timestamp >= Timeframe) {... */\n    tag_200:\n        /* \"Auction.sol\":6668:6681  uint timeLeft */\n      0x00\n        /* \"Auction.sol\":6696:6711  block.timestamp */\n      timestamp\n        /* \"Auction.sol\":6684:6693  Timeframe */\n      sload(0x02)\n        /* \"Auction.sol\":6684:6711  Timeframe - block.timestamp */\n      tag_201\n      swap2\n      swap1\n      tag_137\n      jump\t// in\n    tag_201:\n        /* \"Auction.sol\":6668:6711  uint timeLeft = Timeframe - block.timestamp */\n      swap1\n      pop\n        /* \"Auction.sol\":6743:6748  86400 */\n      0x015180\n        /* \"Auction.sol\":6732:6740  timeLeft */\n      dup2\n        /* \"Auction.sol\":6732:6748  timeLeft / 86400 */\n      tag_202\n      swap2\n      swap1\n      tag_130\n      jump\t// in\n    tag_202:\n        /* \"Auction.sol\":6724:6748  _days = timeLeft / 86400 */\n      swap4\n      pop\n        /* \"Auction.sol\":6827:6832  86400 */\n      0x015180\n        /* \"Auction.sol\":6815:6832  timeLeft %= 86400 */\n      dup2\n      tag_203\n      swap2\n      swap1\n      tag_204\n      jump\t// in\n    tag_203:\n      swap1\n      pop\n        /* \"Auction.sol\":6944:6948  3600 */\n      0x0e10\n        /* \"Auction.sol\":6933:6941  timeLeft */\n      dup2\n        /* \"Auction.sol\":6933:6948  timeLeft / 3600 */\n      tag_205\n      swap2\n      swap1\n      tag_130\n      jump\t// in\n    tag_205:\n        /* \"Auction.sol\":6924:6948  _hours = timeLeft / 3600 */\n      swap3\n      pop\n        /* \"Auction.sol\":7028:7032  3600 */\n      0x0e10\n        /* \"Auction.sol\":7016:7032  timeLeft %= 3600 */\n      dup2\n      tag_206\n      swap2\n      swap1\n      tag_204\n      jump\t// in\n    tag_206:\n      swap1\n      pop\n        /* \"Auction.sol\":7147:7149  60 */\n      0x3c\n        /* \"Auction.sol\":7136:7144  timeLeft */\n      dup2\n        /* \"Auction.sol\":7136:7149  timeLeft / 60 */\n      tag_207\n      swap2\n      swap1\n      tag_130\n      jump\t// in\n    tag_207:\n        /* \"Auction.sol\":7125:7149  _minutes = timeLeft / 60 */\n      swap2\n      pop\n        /* \"Auction.sol\":6545:7222  {... */\n      pop\n        /* \"Auction.sol\":6461:7222  function getTimeLeft() public view returns (uint _days, uint _hours, uint _minutes) {... */\n    tag_199:\n      swap1\n      swap2\n      swap3\n      jump\t// out\n        /* \"Auction.sol\":6337:6455  function getExcess() external view  returns(uint){... */\n    tag_66:\n        /* \"Auction.sol\":6381:6385  uint */\n      0x00\n        /* \"Auction.sol\":6405:6411  offers */\n      0x07\n        /* \"Auction.sol\":6405:6423  offers[msg.sender] */\n      0x00\n        /* \"Auction.sol\":6412:6422  msg.sender */\n      caller\n        /* \"Auction.sol\":6405:6423  offers[msg.sender] */\n      0xffffffffffffffffffffffffffffffffffffffff\n      and\n      0xffffffffffffffffffffffffffffffffffffffff\n      and\n      dup2\n      mstore\n      0x20\n      add\n      swap1\n      dup2\n      mstore\n      0x20\n      add\n      0x00\n      keccak256\n        /* \"Auction.sol\":6405:6436  offers[msg.sender].excessAmount */\n      0x02\n      add\n      sload\n        /* \"Auction.sol\":6397:6437  return (offers[msg.sender].excessAmount) */\n      swap1\n      pop\n        /* \"Auction.sol\":6337:6455  function getExcess() external view  returns(uint){... */\n      swap1\n      jump\t// out\n        /* \"Auction.sol\":5421:5516  function getWinnerAmount() external view returns(uint) {... */\n    tag_70:\n        /* \"Auction.sol\":5470:5474  uint */\n      0x00\n        /* \"Auction.sol\":5494:5508  offerWinAmount */\n      sload(0x03)\n        /* \"Auction.sol\":5487:5508  return offerWinAmount */\n      swap1\n      pop\n        /* \"Auction.sol\":5421:5516  function getWinnerAmount() external view returns(uint) {... */\n      swap1\n      jump\t// out\n        /* \"Auction.sol\":3037:3719  function bulkWithdraw() internal onlyAfterAuction onlyOwner  { //devuelvo los retiros sin reclamar pasado los x dias definidos para retiro manual... */\n    tag_181:\n        /* \"Auction.sol\":1658:1667  Timeframe */\n      sload(0x02)\n        /* \"Auction.sol\":1639:1654  block.timestamp */\n      timestamp\n        /* \"Auction.sol\":1639:1667  block.timestamp >= Timeframe */\n      lt\n      iszero\n        /* \"Auction.sol\":1631:1696  require(block.timestamp >= Timeframe, \"La subasta sigue vigente\") */\n      tag_211\n      jumpi\n      mload(0x40)\n      0x08c379a000000000000000000000000000000000000000000000000000000000\n      dup2\n      mstore\n      0x04\n      add\n      tag_212\n      swap1\n      tag_79\n      jump\t// in\n    tag_212:\n      mload(0x40)\n      dup1\n      swap2\n      sub\n      swap1\n      revert\n    tag_211:\n        /* \"Auction.sol\":1773:1778  owner */\n      0x05\n      0x00\n      swap1\n      sload\n      swap1\n      0x0100\n      exp\n      swap1\n      div\n      0xffffffffffffffffffffffffffffffffffffffff\n      and\n        /* \"Auction.sol\":1759:1778  msg.sender == owner */\n      0xffffffffffffffffffffffffffffffffffffffff\n      and\n        /* \"Auction.sol\":1759:1769  msg.sender */\n      caller\n        /* \"Auction.sol\":1759:1778  msg.sender == owner */\n      0xffffffffffffffffffffffffffffffffffffffff\n      and\n      eq\n        /* \"Auction.sol\":1751:1806  require(msg.sender == owner, \"Usted no tiene permisos\") */\n      tag_214\n      jumpi\n      mload(0x40)\n      0x08c379a000000000000000000000000000000000000000000000000000000000\n      dup2\n      mstore\n      0x04\n      add\n      tag_215\n      swap1\n      tag_171\n      jump\t// in\n    tag_215:\n      mload(0x40)\n      dup1\n      swap2\n      sub\n      swap1\n      revert\n    tag_214:\n        /* \"Auction.sol\":3197:3203  uint i */\n      0x00\n        /* \"Auction.sol\":3192:3634  for (uint i = 0; i < offerAddresses.length; i++) {... */\n    tag_217:\n        /* \"Auction.sol\":3213:3227  offerAddresses */\n      0x06\n        /* \"Auction.sol\":3213:3234  offerAddresses.length */\n      dup1\n      sload\n      swap1\n      pop\n        /* \"Auction.sol\":3209:3210  i */\n      dup2\n        /* \"Auction.sol\":3209:3234  i < offerAddresses.length */\n      lt\n        /* \"Auction.sol\":3192:3634  for (uint i = 0; i < offerAddresses.length; i++) {... */\n      iszero\n      tag_218\n      jumpi\n        /* \"Auction.sol\":3256:3276  address addresReturn */\n      0x00\n        /* \"Auction.sol\":3279:3293  offerAddresses */\n      0x06\n        /* \"Auction.sol\":3294:3295  i */\n      dup3\n        /* \"Auction.sol\":3279:3296  offerAddresses[i] */\n      dup2\n      sload\n      dup2\n      lt\n      tag_220\n      jumpi\n      tag_221\n      tag_104\n      jump\t// in\n    tag_221:\n    tag_220:\n      swap1\n      0x00\n      mstore\n      keccak256(0x00, 0x20)\n      add\n      0x00\n      swap1\n      sload\n      swap1\n      0x0100\n      exp\n      swap1\n      div\n      0xffffffffffffffffffffffffffffffffffffffff\n      and\n        /* \"Auction.sol\":3256:3296  address addresReturn = offerAddresses[i] */\n      swap1\n      pop\n        /* \"Auction.sol\":3311:3322  uint amount */\n      0x00\n        /* \"Auction.sol\":3325:3331  offers */\n      0x07\n        /* \"Auction.sol\":3325:3345  offers[addresReturn] */\n      0x00\n        /* \"Auction.sol\":3332:3344  addresReturn */\n      dup4\n        /* \"Auction.sol\":3325:3345  offers[addresReturn] */\n      0xffffffffffffffffffffffffffffffffffffffff\n      and\n      0xffffffffffffffffffffffffffffffffffffffff\n      and\n      dup2\n      mstore\n      0x20\n      add\n      swap1\n      dup2\n      mstore\n      0x20\n      add\n      0x00\n      keccak256\n        /* \"Auction.sol\":3325:3357  offers[addresReturn].offerAmount */\n      0x01\n      add\n      sload\n        /* \"Auction.sol\":3311:3357  uint amount = offers[addresReturn].offerAmount */\n      swap1\n      pop\n        /* \"Auction.sol\":3393:3394  0 */\n      0x00\n        /* \"Auction.sol\":3384:3390  amount */\n      dup2\n        /* \"Auction.sol\":3384:3394  amount > 0 */\n      gt\n        /* \"Auction.sol\":3384:3429  amount > 0 && offerWinAddress != addresReturn */\n      dup1\n      iszero\n      tag_223\n      jumpi\n      pop\n        /* \"Auction.sol\":3417:3429  addresReturn */\n      dup2\n        /* \"Auction.sol\":3398:3429  offerWinAddress != addresReturn */\n      0xffffffffffffffffffffffffffffffffffffffff\n      and\n        /* \"Auction.sol\":3398:3413  offerWinAddress */\n      0x04\n      0x00\n      swap1\n      sload\n      swap1\n      0x0100\n      exp\n      swap1\n      div\n      0xffffffffffffffffffffffffffffffffffffffff\n      and\n        /* \"Auction.sol\":3398:3429  offerWinAddress != addresReturn */\n      0xffffffffffffffffffffffffffffffffffffffff\n      and\n      eq\n      iszero\n        /* \"Auction.sol\":3384:3429  amount > 0 && offerWinAddress != addresReturn */\n    tag_223:\n        /* \"Auction.sol\":3380:3623  if (amount > 0 && offerWinAddress != addresReturn) {... */\n      iszero\n      tag_224\n      jumpi\n        /* \"Auction.sol\":3485:3486  0 */\n      0x00\n        /* \"Auction.sol\":3450:3456  offers */\n      0x07\n        /* \"Auction.sol\":3450:3470  offers[addresReturn] */\n      0x00\n        /* \"Auction.sol\":3457:3469  addresReturn */\n      dup5\n        /* \"Auction.sol\":3450:3470  offers[addresReturn] */\n      0xffffffffffffffffffffffffffffffffffffffff\n      and\n      0xffffffffffffffffffffffffffffffffffffffff\n      and\n      dup2\n      mstore\n      0x20\n      add\n      swap1\n      dup2\n      mstore\n      0x20\n      add\n      0x00\n      keccak256\n        /* \"Auction.sol\":3450:3482  offers[addresReturn].offerAmount */\n      0x01\n      add\n        /* \"Auction.sol\":3450:3486  offers[addresReturn].offerAmount = 0 */\n      dup2\n      swap1\n      sstore\n      pop\n        /* \"Auction.sol\":3507:3524  uint refundAmount */\n      0x00\n        /* \"Auction.sol\":3541:3544  100 */\n      0x64\n        /* \"Auction.sol\":3536:3538  98 */\n      0x62\n        /* \"Auction.sol\":3527:3533  amount */\n      dup4\n        /* \"Auction.sol\":3527:3538  amount * 98 */\n      tag_225\n      swap2\n      swap1\n      tag_128\n      jump\t// in\n    tag_225:\n        /* \"Auction.sol\":3527:3544  amount * 98 / 100 */\n      tag_226\n      swap2\n      swap1\n      tag_130\n      jump\t// in\n    tag_226:\n        /* \"Auction.sol\":3507:3544  uint refundAmount = amount * 98 / 100 */\n      swap1\n      pop\n        /* \"Auction.sol\":3571:3583  addresReturn */\n      dup3\n        /* \"Auction.sol\":3563:3593  payable(addresReturn).transfer */\n      0xffffffffffffffffffffffffffffffffffffffff\n      and\n        /* \"Auction.sol\":3563:3607  payable(addresReturn).transfer(refundAmount) */\n      0x08fc\n        /* \"Auction.sol\":3594:3606  refundAmount */\n      dup3\n        /* \"Auction.sol\":3563:3607  payable(addresReturn).transfer(refundAmount) */\n      swap1\n      dup2\n      iszero\n      mul\n      swap1\n      mload(0x40)\n      0x00\n      mload(0x40)\n      dup1\n      dup4\n      sub\n      dup2\n      dup6\n      dup9\n      dup9\n      call\n      swap4\n      pop\n      pop\n      pop\n      pop\n      iszero\n      dup1\n      iszero\n      tag_228\n      jumpi\n      returndatasize\n      0x00\n      dup1\n      returndatacopy\n      revert(0x00, returndatasize)\n    tag_228:\n      pop\n        /* \"Auction.sol\":3431:3623  {... */\n      pop\n        /* \"Auction.sol\":3380:3623  if (amount > 0 && offerWinAddress != addresReturn) {... */\n    tag_224:\n        /* \"Auction.sol\":3241:3634  {... */\n      pop\n      pop\n        /* \"Auction.sol\":3236:3239  i++ */\n      dup1\n      dup1\n      0x01\n      add\n      swap2\n      pop\n      pop\n        /* \"Auction.sol\":3192:3634  for (uint i = 0; i < offerAddresses.length; i++) {... */\n      jump(tag_217)\n    tag_218:\n      pop\n        /* \"Auction.sol\":3649:3711  EndAuction(\"La subasta termino devuelvo retiro sin reclamar.\") */\n      0xb70b873adccc41a4fdc0b8fe6d3d21b4449270a44e8a431952703e2e654cbfdb\n      mload(0x40)\n      tag_229\n      swap1\n      tag_230\n      jump\t// in\n    tag_229:\n      mload(0x40)\n      dup1\n      swap2\n      sub\n      swap1\n      log1\n        /* \"Auction.sol\":3037:3719  function bulkWithdraw() internal onlyAfterAuction onlyOwner  { //devuelvo los retiros sin reclamar pasado los x dias definidos para retiro manual... */\n      jump\t// out\n        /* \"#utility.yul\":7:133   */\n    tag_231:\n        /* \"#utility.yul\":44:51   */\n      0x00\n        /* \"#utility.yul\":84:126   */\n      0xffffffffffffffffffffffffffffffffffffffff\n        /* \"#utility.yul\":77:82   */\n      dup3\n        /* \"#utility.yul\":73:127   */\n      and\n        /* \"#utility.yul\":62:127   */\n      swap1\n      pop\n        /* \"#utility.yul\":7:133   */\n      swap2\n      swap1\n      pop\n      jump\t// out\n        /* \"#utility.yul\":139:235   */\n    tag_232:\n        /* \"#utility.yul\":176:183   */\n      0x00\n        /* \"#utility.yul\":205:229   */\n      tag_292\n        /* \"#utility.yul\":223:228   */\n      dup3\n        /* \"#utility.yul\":205:229   */\n      tag_231\n      jump\t// in\n    tag_292:\n        /* \"#utility.yul\":194:229   */\n      swap1\n      pop\n        /* \"#utility.yul\":139:235   */\n      swap2\n      swap1\n      pop\n      jump\t// out\n        /* \"#utility.yul\":241:359   */\n    tag_233:\n        /* \"#utility.yul\":328:352   */\n      tag_294\n        /* \"#utility.yul\":346:351   */\n      dup2\n        /* \"#utility.yul\":328:352   */\n      tag_232\n      jump\t// in\n    tag_294:\n        /* \"#utility.yul\":323:326   */\n      dup3\n        /* \"#utility.yul\":316:353   */\n      mstore\n        /* \"#utility.yul\":241:359   */\n      pop\n      pop\n      jump\t// out\n        /* \"#utility.yul\":365:587   */\n    tag_23:\n        /* \"#utility.yul\":458:462   */\n      0x00\n        /* \"#utility.yul\":496:498   */\n      0x20\n        /* \"#utility.yul\":485:494   */\n      dup3\n        /* \"#utility.yul\":481:499   */\n      add\n        /* \"#utility.yul\":473:499   */\n      swap1\n      pop\n        /* \"#utility.yul\":509:580   */\n      tag_296\n        /* \"#utility.yul\":577:578   */\n      0x00\n        /* \"#utility.yul\":566:575   */\n      dup4\n        /* \"#utility.yul\":562:579   */\n      add\n        /* \"#utility.yul\":553:559   */\n      dup5\n        /* \"#utility.yul\":509:580   */\n      tag_233\n      jump\t// in\n    tag_296:\n        /* \"#utility.yul\":365:587   */\n      swap3\n      swap2\n      pop\n      pop\n      jump\t// out\n        /* \"#utility.yul\":593:670   */\n    tag_234:\n        /* \"#utility.yul\":630:637   */\n      0x00\n        /* \"#utility.yul\":659:664   */\n      dup2\n        /* \"#utility.yul\":648:664   */\n      swap1\n      pop\n        /* \"#utility.yul\":593:670   */\n      swap2\n      swap1\n      pop\n      jump\t// out\n        /* \"#utility.yul\":676:794   */\n    tag_235:\n        /* \"#utility.yul\":763:787   */\n      tag_299\n        /* \"#utility.yul\":781:786   */\n      dup2\n        /* \"#utility.yul\":763:787   */\n      tag_234\n      jump\t// in\n    tag_299:\n        /* \"#utility.yul\":758:761   */\n      dup3\n        /* \"#utility.yul\":751:788   */\n      mstore\n        /* \"#utility.yul\":676:794   */\n      pop\n      pop\n      jump\t// out\n        /* \"#utility.yul\":800:1022   */\n    tag_31:\n        /* \"#utility.yul\":893:897   */\n      0x00\n        /* \"#utility.yul\":931:933   */\n      0x20\n        /* \"#utility.yul\":920:929   */\n      dup3\n        /* \"#utility.yul\":916:934   */\n      add\n        /* \"#utility.yul\":908:934   */\n      swap1\n      pop\n        /* \"#utility.yul\":944:1015   */\n      tag_301\n        /* \"#utility.yul\":1012:1013   */\n      0x00\n        /* \"#utility.yul\":1001:1010   */\n      dup4\n        /* \"#utility.yul\":997:1014   */\n      add\n        /* \"#utility.yul\":988:994   */\n      dup5\n        /* \"#utility.yul\":944:1015   */\n      tag_235\n      jump\t// in\n    tag_301:\n        /* \"#utility.yul\":800:1022   */\n      swap3\n      swap2\n      pop\n      pop\n      jump\t// out\n        /* \"#utility.yul\":1028:1142   */\n    tag_236:\n        /* \"#utility.yul\":1095:1101   */\n      0x00\n        /* \"#utility.yul\":1129:1134   */\n      dup2\n        /* \"#utility.yul\":1123:1135   */\n      mload\n        /* \"#utility.yul\":1113:1135   */\n      swap1\n      pop\n        /* \"#utility.yul\":1028:1142   */\n      swap2\n      swap1\n      pop\n      jump\t// out\n        /* \"#utility.yul\":1148:1332   */\n    tag_237:\n        /* \"#utility.yul\":1247:1258   */\n      0x00\n        /* \"#utility.yul\":1281:1287   */\n      dup3\n        /* \"#utility.yul\":1276:1279   */\n      dup3\n        /* \"#utility.yul\":1269:1288   */\n      mstore\n        /* \"#utility.yul\":1321:1325   */\n      0x20\n        /* \"#utility.yul\":1316:1319   */\n      dup3\n        /* \"#utility.yul\":1312:1326   */\n      add\n        /* \"#utility.yul\":1297:1326   */\n      swap1\n      pop\n        /* \"#utility.yul\":1148:1332   */\n      swap3\n      swap2\n      pop\n      pop\n      jump\t// out\n        /* \"#utility.yul\":1338:1470   */\n    tag_238:\n        /* \"#utility.yul\":1405:1409   */\n      0x00\n        /* \"#utility.yul\":1428:1431   */\n      dup2\n        /* \"#utility.yul\":1420:1431   */\n      swap1\n      pop\n        /* \"#utility.yul\":1458:1462   */\n      0x20\n        /* \"#utility.yul\":1453:1456   */\n      dup3\n        /* \"#utility.yul\":1449:1463   */\n      add\n        /* \"#utility.yul\":1441:1463   */\n      swap1\n      pop\n        /* \"#utility.yul\":1338:1470   */\n      swap2\n      swap1\n      pop\n      jump\t// out\n        /* \"#utility.yul\":1476:1584   */\n    tag_239:\n        /* \"#utility.yul\":1553:1577   */\n      tag_306\n        /* \"#utility.yul\":1571:1576   */\n      dup2\n        /* \"#utility.yul\":1553:1577   */\n      tag_232\n      jump\t// in\n    tag_306:\n        /* \"#utility.yul\":1548:1551   */\n      dup3\n        /* \"#utility.yul\":1541:1578   */\n      mstore\n        /* \"#utility.yul\":1476:1584   */\n      pop\n      pop\n      jump\t// out\n        /* \"#utility.yul\":1590:1769   */\n    tag_240:\n        /* \"#utility.yul\":1659:1669   */\n      0x00\n        /* \"#utility.yul\":1680:1726   */\n      tag_308\n        /* \"#utility.yul\":1722:1725   */\n      dup4\n        /* \"#utility.yul\":1714:1720   */\n      dup4\n        /* \"#utility.yul\":1680:1726   */\n      tag_239\n      jump\t// in\n    tag_308:\n        /* \"#utility.yul\":1758:1762   */\n      0x20\n        /* \"#utility.yul\":1753:1756   */\n      dup4\n        /* \"#utility.yul\":1749:1763   */\n      add\n        /* \"#utility.yul\":1735:1763   */\n      swap1\n      pop\n        /* \"#utility.yul\":1590:1769   */\n      swap3\n      swap2\n      pop\n      pop\n      jump\t// out\n        /* \"#utility.yul\":1775:1888   */\n    tag_241:\n        /* \"#utility.yul\":1845:1849   */\n      0x00\n        /* \"#utility.yul\":1877:1881   */\n      0x20\n        /* \"#utility.yul\":1872:1875   */\n      dup3\n        /* \"#utility.yul\":1868:1882   */\n      add\n        /* \"#utility.yul\":1860:1882   */\n      swap1\n      pop\n        /* \"#utility.yul\":1775:1888   */\n      swap2\n      swap1\n      pop\n      jump\t// out\n        /* \"#utility.yul\":1924:2656   */\n    tag_242:\n        /* \"#utility.yul\":2043:2046   */\n      0x00\n        /* \"#utility.yul\":2072:2126   */\n      tag_311\n        /* \"#utility.yul\":2120:2125   */\n      dup3\n        /* \"#utility.yul\":2072:2126   */\n      tag_236\n      jump\t// in\n    tag_311:\n        /* \"#utility.yul\":2142:2228   */\n      tag_312\n        /* \"#utility.yul\":2221:2227   */\n      dup2\n        /* \"#utility.yul\":2216:2219   */\n      dup6\n        /* \"#utility.yul\":2142:2228   */\n      tag_237\n      jump\t// in\n    tag_312:\n        /* \"#utility.yul\":2135:2228   */\n      swap4\n      pop\n        /* \"#utility.yul\":2252:2308   */\n      tag_313\n        /* \"#utility.yul\":2302:2307   */\n      dup4\n        /* \"#utility.yul\":2252:2308   */\n      tag_238\n      jump\t// in\n    tag_313:\n        /* \"#utility.yul\":2331:2338   */\n      dup1\n        /* \"#utility.yul\":2362:2363   */\n      0x00\n        /* \"#utility.yul\":2347:2631   */\n    tag_314:\n        /* \"#utility.yul\":2372:2378   */\n      dup4\n        /* \"#utility.yul\":2369:2370   */\n      dup2\n        /* \"#utility.yul\":2366:2379   */\n      lt\n        /* \"#utility.yul\":2347:2631   */\n      iszero\n      tag_316\n      jumpi\n        /* \"#utility.yul\":2448:2454   */\n      dup2\n        /* \"#utility.yul\":2442:2455   */\n      mload\n        /* \"#utility.yul\":2475:2538   */\n      tag_317\n        /* \"#utility.yul\":2534:2537   */\n      dup9\n        /* \"#utility.yul\":2519:2532   */\n      dup3\n        /* \"#utility.yul\":2475:2538   */\n      tag_240\n      jump\t// in\n    tag_317:\n        /* \"#utility.yul\":2468:2538   */\n      swap8\n      pop\n        /* \"#utility.yul\":2561:2621   */\n      tag_318\n        /* \"#utility.yul\":2614:2620   */\n      dup4\n        /* \"#utility.yul\":2561:2621   */\n      tag_241\n      jump\t// in\n    tag_318:\n        /* \"#utility.yul\":2551:2621   */\n      swap3\n      pop\n        /* \"#utility.yul\":2407:2631   */\n      pop\n        /* \"#utility.yul\":2394:2395   */\n      0x01\n        /* \"#utility.yul\":2391:2392   */\n      dup2\n        /* \"#utility.yul\":2387:2396   */\n      add\n        /* \"#utility.yul\":2382:2396   */\n      swap1\n      pop\n        /* \"#utility.yul\":2347:2631   */\n      jump(tag_314)\n    tag_316:\n        /* \"#utility.yul\":2351:2365   */\n      pop\n        /* \"#utility.yul\":2647:2650   */\n      dup6\n        /* \"#utility.yul\":2640:2650   */\n      swap4\n      pop\n        /* \"#utility.yul\":2048:2656   */\n      pop\n      pop\n      pop\n        /* \"#utility.yul\":1924:2656   */\n      swap3\n      swap2\n      pop\n      pop\n      jump\t// out\n        /* \"#utility.yul\":2662:2776   */\n    tag_243:\n        /* \"#utility.yul\":2729:2735   */\n      0x00\n        /* \"#utility.yul\":2763:2768   */\n      dup2\n        /* \"#utility.yul\":2757:2769   */\n      mload\n        /* \"#utility.yul\":2747:2769   */\n      swap1\n      pop\n        /* \"#utility.yul\":2662:2776   */\n      swap2\n      swap1\n      pop\n      jump\t// out\n        /* \"#utility.yul\":2782:2966   */\n    tag_244:\n        /* \"#utility.yul\":2881:2892   */\n      0x00\n        /* \"#utility.yul\":2915:2921   */\n      dup3\n        /* \"#utility.yul\":2910:2913   */\n      dup3\n        /* \"#utility.yul\":2903:2922   */\n      mstore\n        /* \"#utility.yul\":2955:2959   */\n      0x20\n        /* \"#utility.yul\":2950:2953   */\n      dup3\n        /* \"#utility.yul\":2946:2960   */\n      add\n        /* \"#utility.yul\":2931:2960   */\n      swap1\n      pop\n        /* \"#utility.yul\":2782:2966   */\n      swap3\n      swap2\n      pop\n      pop\n      jump\t// out\n        /* \"#utility.yul\":2972:3104   */\n    tag_245:\n        /* \"#utility.yul\":3039:3043   */\n      0x00\n        /* \"#utility.yul\":3062:3065   */\n      dup2\n        /* \"#utility.yul\":3054:3065   */\n      swap1\n      pop\n        /* \"#utility.yul\":3092:3096   */\n      0x20\n        /* \"#utility.yul\":3087:3090   */\n      dup3\n        /* \"#utility.yul\":3083:3097   */\n      add\n        /* \"#utility.yul\":3075:3097   */\n      swap1\n      pop\n        /* \"#utility.yul\":2972:3104   */\n      swap2\n      swap1\n      pop\n      jump\t// out\n        /* \"#utility.yul\":3110:3218   */\n    tag_246:\n        /* \"#utility.yul\":3187:3211   */\n      tag_323\n        /* \"#utility.yul\":3205:3210   */\n      dup2\n        /* \"#utility.yul\":3187:3211   */\n      tag_234\n      jump\t// in\n    tag_323:\n        /* \"#utility.yul\":3182:3185   */\n      dup3\n        /* \"#utility.yul\":3175:3212   */\n      mstore\n        /* \"#utility.yul\":3110:3218   */\n      pop\n      pop\n      jump\t// out\n        /* \"#utility.yul\":3224:3403   */\n    tag_247:\n        /* \"#utility.yul\":3293:3303   */\n      0x00\n        /* \"#utility.yul\":3314:3360   */\n      tag_325\n        /* \"#utility.yul\":3356:3359   */\n      dup4\n        /* \"#utility.yul\":3348:3354   */\n      dup4\n        /* \"#utility.yul\":3314:3360   */\n      tag_246\n      jump\t// in\n    tag_325:\n        /* \"#utility.yul\":3392:3396   */\n      0x20\n        /* \"#utility.yul\":3387:3390   */\n      dup4\n        /* \"#utility.yul\":3383:3397   */\n      add\n        /* \"#utility.yul\":3369:3397   */\n      swap1\n      pop\n        /* \"#utility.yul\":3224:3403   */\n      swap3\n      swap2\n      pop\n      pop\n      jump\t// out\n        /* \"#utility.yul\":3409:3522   */\n    tag_248:\n        /* \"#utility.yul\":3479:3483   */\n      0x00\n        /* \"#utility.yul\":3511:3515   */\n      0x20\n        /* \"#utility.yul\":3506:3509   */\n      dup3\n        /* \"#utility.yul\":3502:3516   */\n      add\n        /* \"#utility.yul\":3494:3516   */\n      swap1\n      pop\n        /* \"#utility.yul\":3409:3522   */\n      swap2\n      swap1\n      pop\n      jump\t// out\n        /* \"#utility.yul\":3558:4290   */\n    tag_249:\n        /* \"#utility.yul\":3677:3680   */\n      0x00\n        /* \"#utility.yul\":3706:3760   */\n      tag_328\n        /* \"#utility.yul\":3754:3759   */\n      dup3\n        /* \"#utility.yul\":3706:3760   */\n      tag_243\n      jump\t// in\n    tag_328:\n        /* \"#utility.yul\":3776:3862   */\n      tag_329\n        /* \"#utility.yul\":3855:3861   */\n      dup2\n        /* \"#utility.yul\":3850:3853   */\n      dup6\n        /* \"#utility.yul\":3776:3862   */\n      tag_244\n      jump\t// in\n    tag_329:\n        /* \"#utility.yul\":3769:3862   */\n      swap4\n      pop\n        /* \"#utility.yul\":3886:3942   */\n      tag_330\n        /* \"#utility.yul\":3936:3941   */\n      dup4\n        /* \"#utility.yul\":3886:3942   */\n      tag_245\n      jump\t// in\n    tag_330:\n        /* \"#utility.yul\":3965:3972   */\n      dup1\n        /* \"#utility.yul\":3996:3997   */\n      0x00\n        /* \"#utility.yul\":3981:4265   */\n    tag_331:\n        /* \"#utility.yul\":4006:4012   */\n      dup4\n        /* \"#utility.yul\":4003:4004   */\n      dup2\n        /* \"#utility.yul\":4000:4013   */\n      lt\n        /* \"#utility.yul\":3981:4265   */\n      iszero\n      tag_333\n      jumpi\n        /* \"#utility.yul\":4082:4088   */\n      dup2\n        /* \"#utility.yul\":4076:4089   */\n      mload\n        /* \"#utility.yul\":4109:4172   */\n      tag_334\n        /* \"#utility.yul\":4168:4171   */\n      dup9\n        /* \"#utility.yul\":4153:4166   */\n      dup3\n        /* \"#utility.yul\":4109:4172   */\n      tag_247\n      jump\t// in\n    tag_334:\n        /* \"#utility.yul\":4102:4172   */\n      swap8\n      pop\n        /* \"#utility.yul\":4195:4255   */\n      tag_335\n        /* \"#utility.yul\":4248:4254   */\n      dup4\n        /* \"#utility.yul\":4195:4255   */\n      tag_248\n      jump\t// in\n    tag_335:\n        /* \"#utility.yul\":4185:4255   */\n      swap3\n      pop\n        /* \"#utility.yul\":4041:4265   */\n      pop\n        /* \"#utility.yul\":4028:4029   */\n      0x01\n        /* \"#utility.yul\":4025:4026   */\n      dup2\n        /* \"#utility.yul\":4021:4030   */\n      add\n        /* \"#utility.yul\":4016:4030   */\n      swap1\n      pop\n        /* \"#utility.yul\":3981:4265   */\n      jump(tag_331)\n    tag_333:\n        /* \"#utility.yul\":3985:3999   */\n      pop\n        /* \"#utility.yul\":4281:4284   */\n      dup6\n        /* \"#utility.yul\":4274:4284   */\n      swap4\n      pop\n        /* \"#utility.yul\":3682:4290   */\n      pop\n      pop\n      pop\n        /* \"#utility.yul\":3558:4290   */\n      swap3\n      swap2\n      pop\n      pop\n      jump\t// out\n        /* \"#utility.yul\":4296:4930   */\n    tag_36:\n        /* \"#utility.yul\":4517:4521   */\n      0x00\n        /* \"#utility.yul\":4555:4557   */\n      0x40\n        /* \"#utility.yul\":4544:4553   */\n      dup3\n        /* \"#utility.yul\":4540:4558   */\n      add\n        /* \"#utility.yul\":4532:4558   */\n      swap1\n      pop\n        /* \"#utility.yul\":4604:4613   */\n      dup2\n        /* \"#utility.yul\":4598:4602   */\n      dup2\n        /* \"#utility.yul\":4594:4614   */\n      sub\n        /* \"#utility.yul\":4590:4591   */\n      0x00\n        /* \"#utility.yul\":4579:4588   */\n      dup4\n        /* \"#utility.yul\":4575:4592   */\n      add\n        /* \"#utility.yul\":4568:4615   */\n      mstore\n        /* \"#utility.yul\":4632:4740   */\n      tag_337\n        /* \"#utility.yul\":4735:4739   */\n      dup2\n        /* \"#utility.yul\":4726:4732   */\n      dup6\n        /* \"#utility.yul\":4632:4740   */\n      tag_242\n      jump\t// in\n    tag_337:\n        /* \"#utility.yul\":4624:4740   */\n      swap1\n      pop\n        /* \"#utility.yul\":4787:4796   */\n      dup2\n        /* \"#utility.yul\":4781:4785   */\n      dup2\n        /* \"#utility.yul\":4777:4797   */\n      sub\n        /* \"#utility.yul\":4772:4774   */\n      0x20\n        /* \"#utility.yul\":4761:4770   */\n      dup4\n        /* \"#utility.yul\":4757:4775   */\n      add\n        /* \"#utility.yul\":4750:4798   */\n      mstore\n        /* \"#utility.yul\":4815:4923   */\n      tag_338\n        /* \"#utility.yul\":4918:4922   */\n      dup2\n        /* \"#utility.yul\":4909:4915   */\n      dup5\n        /* \"#utility.yul\":4815:4923   */\n      tag_249\n      jump\t// in\n    tag_338:\n        /* \"#utility.yul\":4807:4923   */\n      swap1\n      pop\n        /* \"#utility.yul\":4296:4930   */\n      swap4\n      swap3\n      pop\n      pop\n      pop\n      jump\t// out\n        /* \"#utility.yul\":4936:5116   */\n    tag_83:\n        /* \"#utility.yul\":4984:5061   */\n      0x4e487b7100000000000000000000000000000000000000000000000000000000\n        /* \"#utility.yul\":4981:4982   */\n      0x00\n        /* \"#utility.yul\":4974:5062   */\n      mstore\n        /* \"#utility.yul\":5081:5085   */\n      0x21\n        /* \"#utility.yul\":5078:5079   */\n      0x04\n        /* \"#utility.yul\":5071:5086   */\n      mstore\n        /* \"#utility.yul\":5105:5109   */\n      0x24\n        /* \"#utility.yul\":5102:5103   */\n      0x00\n        /* \"#utility.yul\":5095:5110   */\n      revert\n        /* \"#utility.yul\":5122:5236   */\n    tag_250:\n        /* \"#utility.yul\":5204:5205   */\n      0x03\n        /* \"#utility.yul\":5197:5202   */\n      dup2\n        /* \"#utility.yul\":5194:5206   */\n      lt\n        /* \"#utility.yul\":5184:5230   */\n      tag_341\n      jumpi\n        /* \"#utility.yul\":5210:5228   */\n      tag_342\n      tag_83\n      jump\t// in\n    tag_342:\n        /* \"#utility.yul\":5184:5230   */\n    tag_341:\n        /* \"#utility.yul\":5122:5236   */\n      pop\n      jump\t// out\n        /* \"#utility.yul\":5242:5371   */\n    tag_251:\n        /* \"#utility.yul\":5288:5295   */\n      0x00\n        /* \"#utility.yul\":5317:5322   */\n      dup2\n        /* \"#utility.yul\":5306:5322   */\n      swap1\n      pop\n        /* \"#utility.yul\":5323:5365   */\n      tag_344\n        /* \"#utility.yul\":5359:5364   */\n      dup3\n        /* \"#utility.yul\":5323:5365   */\n      tag_250\n      jump\t// in\n    tag_344:\n        /* \"#utility.yul\":5242:5371   */\n      swap2\n      swap1\n      pop\n      jump\t// out\n        /* \"#utility.yul\":5377:5506   */\n    tag_252:\n        /* \"#utility.yul\":5434:5443   */\n      0x00\n        /* \"#utility.yul\":5467:5500   */\n      tag_346\n        /* \"#utility.yul\":5494:5499   */\n      dup3\n        /* \"#utility.yul\":5467:5500   */\n      tag_251\n      jump\t// in\n    tag_346:\n        /* \"#utility.yul\":5454:5500   */\n      swap1\n      pop\n        /* \"#utility.yul\":5377:5506   */\n      swap2\n      swap1\n      pop\n      jump\t// out\n        /* \"#utility.yul\":5512:5657   */\n    tag_253:\n        /* \"#utility.yul\":5606:5650   */\n      tag_348\n        /* \"#utility.yul\":5644:5649   */\n      dup2\n        /* \"#utility.yul\":5606:5650   */\n      tag_252\n      jump\t// in\n    tag_348:\n        /* \"#utility.yul\":5601:5604   */\n      dup3\n        /* \"#utility.yul\":5594:5651   */\n      mstore\n        /* \"#utility.yul\":5512:5657   */\n      pop\n      pop\n      jump\t// out\n        /* \"#utility.yul\":5663:5899   */\n    tag_48:\n        /* \"#utility.yul\":5763:5767   */\n      0x00\n        /* \"#utility.yul\":5801:5803   */\n      0x20\n        /* \"#utility.yul\":5790:5799   */\n      dup3\n        /* \"#utility.yul\":5786:5804   */\n      add\n        /* \"#utility.yul\":5778:5804   */\n      swap1\n      pop\n        /* \"#utility.yul\":5814:5892   */\n      tag_350\n        /* \"#utility.yul\":5889:5890   */\n      0x00\n        /* \"#utility.yul\":5878:5887   */\n      dup4\n        /* \"#utility.yul\":5874:5891   */\n      add\n        /* \"#utility.yul\":5865:5871   */\n      dup5\n        /* \"#utility.yul\":5814:5892   */\n      tag_253\n      jump\t// in\n    tag_350:\n        /* \"#utility.yul\":5663:5899   */\n      swap3\n      swap2\n      pop\n      pop\n      jump\t// out\n        /* \"#utility.yul\":5905:6347   */\n    tag_63:\n        /* \"#utility.yul\":6054:6058   */\n      0x00\n        /* \"#utility.yul\":6092:6094   */\n      0x60\n        /* \"#utility.yul\":6081:6090   */\n      dup3\n        /* \"#utility.yul\":6077:6095   */\n      add\n        /* \"#utility.yul\":6069:6095   */\n      swap1\n      pop\n        /* \"#utility.yul\":6105:6176   */\n      tag_352\n        /* \"#utility.yul\":6173:6174   */\n      0x00\n        /* \"#utility.yul\":6162:6171   */\n      dup4\n        /* \"#utility.yul\":6158:6175   */\n      add\n        /* \"#utility.yul\":6149:6155   */\n      dup7\n        /* \"#utility.yul\":6105:6176   */\n      tag_235\n      jump\t// in\n    tag_352:\n        /* \"#utility.yul\":6186:6258   */\n      tag_353\n        /* \"#utility.yul\":6254:6256   */\n      0x20\n        /* \"#utility.yul\":6243:6252   */\n      dup4\n        /* \"#utility.yul\":6239:6257   */\n      add\n        /* \"#utility.yul\":6230:6236   */\n      dup6\n        /* \"#utility.yul\":6186:6258   */\n      tag_235\n      jump\t// in\n    tag_353:\n        /* \"#utility.yul\":6268:6340   */\n      tag_354\n        /* \"#utility.yul\":6336:6338   */\n      0x40\n        /* \"#utility.yul\":6325:6334   */\n      dup4\n        /* \"#utility.yul\":6321:6339   */\n      add\n        /* \"#utility.yul\":6312:6318   */\n      dup5\n        /* \"#utility.yul\":6268:6340   */\n      tag_235\n      jump\t// in\n    tag_354:\n        /* \"#utility.yul\":5905:6347   */\n      swap5\n      swap4\n      pop\n      pop\n      pop\n      pop\n      jump\t// out\n        /* \"#utility.yul\":6353:6522   */\n    tag_254:\n        /* \"#utility.yul\":6437:6448   */\n      0x00\n        /* \"#utility.yul\":6471:6477   */\n      dup3\n        /* \"#utility.yul\":6466:6469   */\n      dup3\n        /* \"#utility.yul\":6459:6478   */\n      mstore\n        /* \"#utility.yul\":6511:6515   */\n      0x20\n        /* \"#utility.yul\":6506:6509   */\n      dup3\n        /* \"#utility.yul\":6502:6516   */\n      add\n        /* \"#utility.yul\":6487:6516   */\n      swap1\n      pop\n        /* \"#utility.yul\":6353:6522   */\n      swap3\n      swap2\n      pop\n      pop\n      jump\t// out\n        /* \"#utility.yul\":6528:6769   */\n    tag_255:\n        /* \"#utility.yul\":6668:6702   */\n      0x4e6f2067616e6f206c612073756261737461206e6f20707565646520636c6169\n        /* \"#utility.yul\":6664:6665   */\n      0x00\n        /* \"#utility.yul\":6656:6662   */\n      dup3\n        /* \"#utility.yul\":6652:6666   */\n      add\n        /* \"#utility.yul\":6645:6703   */\n      mstore\n        /* \"#utility.yul\":6737:6761   */\n      0x6d65617220656c206974656d2073756261737461646f00000000000000000000\n        /* \"#utility.yul\":6732:6734   */\n      0x20\n        /* \"#utility.yul\":6724:6730   */\n      dup3\n        /* \"#utility.yul\":6720:6735   */\n      add\n        /* \"#utility.yul\":6713:6762   */\n      mstore\n        /* \"#utility.yul\":6528:6769   */\n      pop\n      jump\t// out\n        /* \"#utility.yul\":6775:7141   */\n    tag_256:\n        /* \"#utility.yul\":6917:6920   */\n      0x00\n        /* \"#utility.yul\":6938:7005   */\n      tag_358\n        /* \"#utility.yul\":7002:7004   */\n      0x36\n        /* \"#utility.yul\":6997:7000   */\n      dup4\n        /* \"#utility.yul\":6938:7005   */\n      tag_254\n      jump\t// in\n    tag_358:\n        /* \"#utility.yul\":6931:7005   */\n      swap2\n      pop\n        /* \"#utility.yul\":7014:7107   */\n      tag_359\n        /* \"#utility.yul\":7103:7106   */\n      dup3\n        /* \"#utility.yul\":7014:7107   */\n      tag_255\n      jump\t// in\n    tag_359:\n        /* \"#utility.yul\":7132:7134   */\n      0x40\n        /* \"#utility.yul\":7127:7130   */\n      dup3\n        /* \"#utility.yul\":7123:7135   */\n      add\n        /* \"#utility.yul\":7116:7135   */\n      swap1\n      pop\n        /* \"#utility.yul\":6775:7141   */\n      swap2\n      swap1\n      pop\n      jump\t// out\n        /* \"#utility.yul\":7147:7566   */\n    tag_75:\n        /* \"#utility.yul\":7313:7317   */\n      0x00\n        /* \"#utility.yul\":7351:7353   */\n      0x20\n        /* \"#utility.yul\":7340:7349   */\n      dup3\n        /* \"#utility.yul\":7336:7354   */\n      add\n        /* \"#utility.yul\":7328:7354   */\n      swap1\n      pop\n        /* \"#utility.yul\":7400:7409   */\n      dup2\n        /* \"#utility.yul\":7394:7398   */\n      dup2\n        /* \"#utility.yul\":7390:7410   */\n      sub\n        /* \"#utility.yul\":7386:7387   */\n      0x00\n        /* \"#utility.yul\":7375:7384   */\n      dup4\n        /* \"#utility.yul\":7371:7388   */\n      add\n        /* \"#utility.yul\":7364:7411   */\n      mstore\n        /* \"#utility.yul\":7428:7559   */\n      tag_361\n        /* \"#utility.yul\":7554:7558   */\n      dup2\n        /* \"#utility.yul\":7428:7559   */\n      tag_256\n      jump\t// in\n    tag_361:\n        /* \"#utility.yul\":7420:7559   */\n      swap1\n      pop\n        /* \"#utility.yul\":7147:7566   */\n      swap2\n      swap1\n      pop\n      jump\t// out\n        /* \"#utility.yul\":7572:7746   */\n    tag_257:\n        /* \"#utility.yul\":7712:7738   */\n      0x4c61207375626173746120736967756520766967656e74650000000000000000\n        /* \"#utility.yul\":7708:7709   */\n      0x00\n        /* \"#utility.yul\":7700:7706   */\n      dup3\n        /* \"#utility.yul\":7696:7710   */\n      add\n        /* \"#utility.yul\":7689:7739   */\n      mstore\n        /* \"#utility.yul\":7572:7746   */\n      pop\n      jump\t// out\n        /* \"#utility.yul\":7752:8118   */\n    tag_258:\n        /* \"#utility.yul\":7894:7897   */\n      0x00\n        /* \"#utility.yul\":7915:7982   */\n      tag_364\n        /* \"#utility.yul\":7979:7981   */\n      0x18\n        /* \"#utility.yul\":7974:7977   */\n      dup4\n        /* \"#utility.yul\":7915:7982   */\n      tag_254\n      jump\t// in\n    tag_364:\n        /* \"#utility.yul\":7908:7982   */\n      swap2\n      pop\n        /* \"#utility.yul\":7991:8084   */\n      tag_365\n        /* \"#utility.yul\":8080:8083   */\n      dup3\n        /* \"#utility.yul\":7991:8084   */\n      tag_257\n      jump\t// in\n    tag_365:\n        /* \"#utility.yul\":8109:8111   */\n      0x20\n        /* \"#utility.yul\":8104:8107   */\n      dup3\n        /* \"#utility.yul\":8100:8112   */\n      add\n        /* \"#utility.yul\":8093:8112   */\n      swap1\n      pop\n        /* \"#utility.yul\":7752:8118   */\n      swap2\n      swap1\n      pop\n      jump\t// out\n        /* \"#utility.yul\":8124:8543   */\n    tag_79:\n        /* \"#utility.yul\":8290:8294   */\n      0x00\n        /* \"#utility.yul\":8328:8330   */\n      0x20\n        /* \"#utility.yul\":8317:8326   */\n      dup3\n        /* \"#utility.yul\":8313:8331   */\n      add\n        /* \"#utility.yul\":8305:8331   */\n      swap1\n      pop\n        /* \"#utility.yul\":8377:8386   */\n      dup2\n        /* \"#utility.yul\":8371:8375   */\n      dup2\n        /* \"#utility.yul\":8367:8387   */\n      sub\n        /* \"#utility.yul\":8363:8364   */\n      0x00\n        /* \"#utility.yul\":8352:8361   */\n      dup4\n        /* \"#utility.yul\":8348:8365   */\n      add\n        /* \"#utility.yul\":8341:8388   */\n      mstore\n        /* \"#utility.yul\":8405:8536   */\n      tag_367\n        /* \"#utility.yul\":8531:8535   */\n      dup2\n        /* \"#utility.yul\":8405:8536   */\n      tag_258\n      jump\t// in\n    tag_367:\n        /* \"#utility.yul\":8397:8536   */\n      swap1\n      pop\n        /* \"#utility.yul\":8124:8543   */\n      swap2\n      swap1\n      pop\n      jump\t// out\n        /* \"#utility.yul\":8549:8726   */\n    tag_259:\n        /* \"#utility.yul\":8689:8718   */\n      0x4c612073756261737461206e6f2068612066696e616c697a61646f0000000000\n        /* \"#utility.yul\":8685:8686   */\n      0x00\n        /* \"#utility.yul\":8677:8683   */\n      dup3\n        /* \"#utility.yul\":8673:8687   */\n      add\n        /* \"#utility.yul\":8666:8719   */\n      mstore\n        /* \"#utility.yul\":8549:8726   */\n      pop\n      jump\t// out\n        /* \"#utility.yul\":8732:9098   */\n    tag_260:\n        /* \"#utility.yul\":8874:8877   */\n      0x00\n        /* \"#utility.yul\":8895:8962   */\n      tag_370\n        /* \"#utility.yul\":8959:8961   */\n      0x1b\n        /* \"#utility.yul\":8954:8957   */\n      dup4\n        /* \"#utility.yul\":8895:8962   */\n      tag_254\n      jump\t// in\n    tag_370:\n        /* \"#utility.yul\":8888:8962   */\n      swap2\n      pop\n        /* \"#utility.yul\":8971:9064   */\n      tag_371\n        /* \"#utility.yul\":9060:9063   */\n      dup3\n        /* \"#utility.yul\":8971:9064   */\n      tag_259\n      jump\t// in\n    tag_371:\n        /* \"#utility.yul\":9089:9091   */\n      0x20\n        /* \"#utility.yul\":9084:9087   */\n      dup3\n        /* \"#utility.yul\":9080:9092   */\n      add\n        /* \"#utility.yul\":9073:9092   */\n      swap1\n      pop\n        /* \"#utility.yul\":8732:9098   */\n      swap2\n      swap1\n      pop\n      jump\t// out\n        /* \"#utility.yul\":9104:9523   */\n    tag_88:\n        /* \"#utility.yul\":9270:9274   */\n      0x00\n        /* \"#utility.yul\":9308:9310   */\n      0x20\n        /* \"#utility.yul\":9297:9306   */\n      dup3\n        /* \"#utility.yul\":9293:9311   */\n      add\n        /* \"#utility.yul\":9285:9311   */\n      swap1\n      pop\n        /* \"#utility.yul\":9357:9366   */\n      dup2\n        /* \"#utility.yul\":9351:9355   */\n      dup2\n        /* \"#utility.yul\":9347:9367   */\n      sub\n        /* \"#utility.yul\":9343:9344   */\n      0x00\n        /* \"#utility.yul\":9332:9341   */\n      dup4\n        /* \"#utility.yul\":9328:9345   */\n      add\n        /* \"#utility.yul\":9321:9368   */\n      mstore\n        /* \"#utility.yul\":9385:9516   */\n      tag_373\n        /* \"#utility.yul\":9511:9515   */\n      dup2\n        /* \"#utility.yul\":9385:9516   */\n      tag_260\n      jump\t// in\n    tag_373:\n        /* \"#utility.yul\":9377:9516   */\n      swap1\n      pop\n        /* \"#utility.yul\":9104:9523   */\n      swap2\n      swap1\n      pop\n      jump\t// out\n        /* \"#utility.yul\":9529:9705   */\n    tag_261:\n        /* \"#utility.yul\":9669:9697   */\n      0x456c2067616e61646f72207265636c616d6f20656c206974656d000000000000\n        /* \"#utility.yul\":9665:9666   */\n      0x00\n        /* \"#utility.yul\":9657:9663   */\n      dup3\n        /* \"#utility.yul\":9653:9667   */\n      add\n        /* \"#utility.yul\":9646:9698   */\n      mstore\n        /* \"#utility.yul\":9529:9705   */\n      pop\n      jump\t// out\n        /* \"#utility.yul\":9711:10077   */\n    tag_262:\n        /* \"#utility.yul\":9853:9856   */\n      0x00\n        /* \"#utility.yul\":9874:9941   */\n      tag_376\n        /* \"#utility.yul\":9938:9940   */\n      0x1a\n        /* \"#utility.yul\":9933:9936   */\n      dup4\n        /* \"#utility.yul\":9874:9941   */\n      tag_254\n      jump\t// in\n    tag_376:\n        /* \"#utility.yul\":9867:9941   */\n      swap2\n      pop\n        /* \"#utility.yul\":9950:10043   */\n      tag_377\n        /* \"#utility.yul\":10039:10042   */\n      dup3\n        /* \"#utility.yul\":9950:10043   */\n      tag_261\n      jump\t// in\n    tag_377:\n        /* \"#utility.yul\":10068:10070   */\n      0x20\n        /* \"#utility.yul\":10063:10066   */\n      dup3\n        /* \"#utility.yul\":10059:10071   */\n      add\n        /* \"#utility.yul\":10052:10071   */\n      swap1\n      pop\n        /* \"#utility.yul\":9711:10077   */\n      swap2\n      swap1\n      pop\n      jump\t// out\n        /* \"#utility.yul\":10083:10502   */\n    tag_90:\n        /* \"#utility.yul\":10249:10253   */\n      0x00\n        /* \"#utility.yul\":10287:10289   */\n      0x20\n        /* \"#utility.yul\":10276:10285   */\n      dup3\n        /* \"#utility.yul\":10272:10290   */\n      add\n        /* \"#utility.yul\":10264:10290   */\n      swap1\n      pop\n        /* \"#utility.yul\":10336:10345   */\n      dup2\n        /* \"#utility.yul\":10330:10334   */\n      dup2\n        /* \"#utility.yul\":10326:10346   */\n      sub\n        /* \"#utility.yul\":10322:10323   */\n      0x00\n        /* \"#utility.yul\":10311:10320   */\n      dup4\n        /* \"#utility.yul\":10307:10324   */\n      add\n        /* \"#utility.yul\":10300:10347   */\n      mstore\n        /* \"#utility.yul\":10364:10495   */\n      tag_379\n        /* \"#utility.yul\":10490:10494   */\n      dup2\n        /* \"#utility.yul\":10364:10495   */\n      tag_262\n      jump\t// in\n    tag_379:\n        /* \"#utility.yul\":10356:10495   */\n      swap1\n      pop\n        /* \"#utility.yul\":10083:10502   */\n      swap2\n      swap1\n      pop\n      jump\t// out\n        /* \"#utility.yul\":10508:10688   */\n    tag_94:\n        /* \"#utility.yul\":10556:10633   */\n      0x4e487b7100000000000000000000000000000000000000000000000000000000\n        /* \"#utility.yul\":10553:10554   */\n      0x00\n        /* \"#utility.yul\":10546:10634   */\n      mstore\n        /* \"#utility.yul\":10653:10657   */\n      0x41\n        /* \"#utility.yul\":10650:10651   */\n      0x04\n        /* \"#utility.yul\":10643:10658   */\n      mstore\n        /* \"#utility.yul\":10677:10681   */\n      0x24\n        /* \"#utility.yul\":10674:10675   */\n      0x00\n        /* \"#utility.yul\":10667:10682   */\n      revert\n        /* \"#utility.yul\":10694:10874   */\n    tag_104:\n        /* \"#utility.yul\":10742:10819   */\n      0x4e487b7100000000000000000000000000000000000000000000000000000000\n        /* \"#utility.yul\":10739:10740   */\n      0x00\n        /* \"#utility.yul\":10732:10820   */\n      mstore\n        /* \"#utility.yul\":10839:10843   */\n      0x32\n        /* \"#utility.yul\":10836:10837   */\n      0x04\n        /* \"#utility.yul\":10829:10844   */\n      mstore\n        /* \"#utility.yul\":10863:10867   */\n      0x24\n        /* \"#utility.yul\":10860:10861   */\n      0x00\n        /* \"#utility.yul\":10853:10868   */\n      revert\n        /* \"#utility.yul\":10880:11060   */\n    tag_263:\n        /* \"#utility.yul\":10928:11005   */\n      0x4e487b7100000000000000000000000000000000000000000000000000000000\n        /* \"#utility.yul\":10925:10926   */\n      0x00\n        /* \"#utility.yul\":10918:11006   */\n      mstore\n        /* \"#utility.yul\":11025:11029   */\n      0x11\n        /* \"#utility.yul\":11022:11023   */\n      0x04\n        /* \"#utility.yul\":11015:11030   */\n      mstore\n        /* \"#utility.yul\":11049:11053   */\n      0x24\n        /* \"#utility.yul\":11046:11047   */\n      0x00\n        /* \"#utility.yul\":11039:11054   */\n      revert\n        /* \"#utility.yul\":11066:11257   */\n    tag_114:\n        /* \"#utility.yul\":11106:11109   */\n      0x00\n        /* \"#utility.yul\":11125:11145   */\n      tag_384\n        /* \"#utility.yul\":11143:11144   */\n      dup3\n        /* \"#utility.yul\":11125:11145   */\n      tag_234\n      jump\t// in\n    tag_384:\n        /* \"#utility.yul\":11120:11145   */\n      swap2\n      pop\n        /* \"#utility.yul\":11159:11179   */\n      tag_385\n        /* \"#utility.yul\":11177:11178   */\n      dup4\n        /* \"#utility.yul\":11159:11179   */\n      tag_234\n      jump\t// in\n    tag_385:\n        /* \"#utility.yul\":11154:11179   */\n      swap3\n      pop\n        /* \"#utility.yul\":11202:11203   */\n      dup3\n        /* \"#utility.yul\":11199:11200   */\n      dup3\n        /* \"#utility.yul\":11195:11204   */\n      add\n        /* \"#utility.yul\":11188:11204   */\n      swap1\n      pop\n        /* \"#utility.yul\":11223:11226   */\n      dup1\n        /* \"#utility.yul\":11220:11221   */\n      dup3\n        /* \"#utility.yul\":11217:11227   */\n      gt\n        /* \"#utility.yul\":11214:11250   */\n      iszero\n      tag_386\n      jumpi\n        /* \"#utility.yul\":11230:11248   */\n      tag_387\n      tag_263\n      jump\t// in\n    tag_387:\n        /* \"#utility.yul\":11214:11250   */\n    tag_386:\n        /* \"#utility.yul\":11066:11257   */\n      swap3\n      swap2\n      pop\n      pop\n      jump\t// out\n        /* \"#utility.yul\":11263:11488   */\n    tag_264:\n        /* \"#utility.yul\":11403:11437   */\n      0x456c207469656d706f2064652072657469726f206d616e75616c206861206578\n        /* \"#utility.yul\":11399:11400   */\n      0x00\n        /* \"#utility.yul\":11391:11397   */\n      dup3\n        /* \"#utility.yul\":11387:11401   */\n      add\n        /* \"#utility.yul\":11380:11438   */\n      mstore\n        /* \"#utility.yul\":11472:11480   */\n      0x70697261646f0000000000000000000000000000000000000000000000000000\n        /* \"#utility.yul\":11467:11469   */\n      0x20\n        /* \"#utility.yul\":11459:11465   */\n      dup3\n        /* \"#utility.yul\":11455:11470   */\n      add\n        /* \"#utility.yul\":11448:11481   */\n      mstore\n        /* \"#utility.yul\":11263:11488   */\n      pop\n      jump\t// out\n        /* \"#utility.yul\":11494:11860   */\n    tag_265:\n        /* \"#utility.yul\":11636:11639   */\n      0x00\n        /* \"#utility.yul\":11657:11724   */\n      tag_390\n        /* \"#utility.yul\":11721:11723   */\n      0x26\n        /* \"#utility.yul\":11716:11719   */\n      dup4\n        /* \"#utility.yul\":11657:11724   */\n      tag_254\n      jump\t// in\n    tag_390:\n        /* \"#utility.yul\":11650:11724   */\n      swap2\n      pop\n        /* \"#utility.yul\":11733:11826   */\n      tag_391\n        /* \"#utility.yul\":11822:11825   */\n      dup3\n        /* \"#utility.yul\":11733:11826   */\n      tag_264\n      jump\t// in\n    tag_391:\n        /* \"#utility.yul\":11851:11853   */\n      0x40\n        /* \"#utility.yul\":11846:11849   */\n      dup3\n        /* \"#utility.yul\":11842:11854   */\n      add\n        /* \"#utility.yul\":11835:11854   */\n      swap1\n      pop\n        /* \"#utility.yul\":11494:11860   */\n      swap2\n      swap1\n      pop\n      jump\t// out\n        /* \"#utility.yul\":11866:12285   */\n    tag_118:\n        /* \"#utility.yul\":12032:12036   */\n      0x00\n        /* \"#utility.yul\":12070:12072   */\n      0x20\n        /* \"#utility.yul\":12059:12068   */\n      dup3\n        /* \"#utility.yul\":12055:12073   */\n      add\n        /* \"#utility.yul\":12047:12073   */\n      swap1\n      pop\n        /* \"#utility.yul\":12119:12128   */\n      dup2\n        /* \"#utility.yul\":12113:12117   */\n      dup2\n        /* \"#utility.yul\":12109:12129   */\n      sub\n        /* \"#utility.yul\":12105:12106   */\n      0x00\n        /* \"#utility.yul\":12094:12103   */\n      dup4\n        /* \"#utility.yul\":12090:12107   */\n      add\n        /* \"#utility.yul\":12083:12130   */\n      mstore\n        /* \"#utility.yul\":12147:12278   */\n      tag_393\n        /* \"#utility.yul\":12273:12277   */\n      dup2\n        /* \"#utility.yul\":12147:12278   */\n      tag_265\n      jump\t// in\n    tag_393:\n        /* \"#utility.yul\":12139:12278   */\n      swap1\n      pop\n        /* \"#utility.yul\":11866:12285   */\n      swap2\n      swap1\n      pop\n      jump\t// out\n        /* \"#utility.yul\":12291:12520   */\n    tag_266:\n        /* \"#utility.yul\":12431:12465   */\n      0x47616e6f206c612073756261737461206e6f2070756564652072657469726172\n        /* \"#utility.yul\":12427:12428   */\n      0x00\n        /* \"#utility.yul\":12419:12425   */\n      dup3\n        /* \"#utility.yul\":12415:12429   */\n      add\n        /* \"#utility.yul\":12408:12466   */\n      mstore\n        /* \"#utility.yul\":12500:12512   */\n      0x206c61206f666572746100000000000000000000000000000000000000000000\n        /* \"#utility.yul\":12495:12497   */\n      0x20\n        /* \"#utility.yul\":12487:12493   */\n      dup3\n        /* \"#utility.yul\":12483:12498   */\n      add\n        /* \"#utility.yul\":12476:12513   */\n      mstore\n        /* \"#utility.yul\":12291:12520   */\n      pop\n      jump\t// out\n        /* \"#utility.yul\":12526:12892   */\n    tag_267:\n        /* \"#utility.yul\":12668:12671   */\n      0x00\n        /* \"#utility.yul\":12689:12756   */\n      tag_396\n        /* \"#utility.yul\":12753:12755   */\n      0x2a\n        /* \"#utility.yul\":12748:12751   */\n      dup4\n        /* \"#utility.yul\":12689:12756   */\n      tag_254\n      jump\t// in\n    tag_396:\n        /* \"#utility.yul\":12682:12756   */\n      swap2\n      pop\n        /* \"#utility.yul\":12765:12858   */\n      tag_397\n        /* \"#utility.yul\":12854:12857   */\n      dup3\n        /* \"#utility.yul\":12765:12858   */\n      tag_266\n      jump\t// in\n    tag_397:\n        /* \"#utility.yul\":12883:12885   */\n      0x40\n        /* \"#utility.yul\":12878:12881   */\n      dup3\n        /* \"#utility.yul\":12874:12886   */\n      add\n        /* \"#utility.yul\":12867:12886   */\n      swap1\n      pop\n        /* \"#utility.yul\":12526:12892   */\n      swap2\n      swap1\n      pop\n      jump\t// out\n        /* \"#utility.yul\":12898:13317   */\n    tag_122:\n        /* \"#utility.yul\":13064:13068   */\n      0x00\n        /* \"#utility.yul\":13102:13104   */\n      0x20\n        /* \"#utility.yul\":13091:13100   */\n      dup3\n        /* \"#utility.yul\":13087:13105   */\n      add\n        /* \"#utility.yul\":13079:13105   */\n      swap1\n      pop\n        /* \"#utility.yul\":13151:13160   */\n      dup2\n        /* \"#utility.yul\":13145:13149   */\n      dup2\n        /* \"#utility.yul\":13141:13161   */\n      sub\n        /* \"#utility.yul\":13137:13138   */\n      0x00\n        /* \"#utility.yul\":13126:13135   */\n      dup4\n        /* \"#utility.yul\":13122:13139   */\n      add\n        /* \"#utility.yul\":13115:13162   */\n      mstore\n        /* \"#utility.yul\":13179:13310   */\n      tag_399\n        /* \"#utility.yul\":13305:13309   */\n      dup2\n        /* \"#utility.yul\":13179:13310   */\n      tag_267\n      jump\t// in\n    tag_399:\n        /* \"#utility.yul\":13171:13310   */\n      swap1\n      pop\n        /* \"#utility.yul\":12898:13317   */\n      swap2\n      swap1\n      pop\n      jump\t// out\n        /* \"#utility.yul\":13323:13498   */\n    tag_268:\n        /* \"#utility.yul\":13463:13490   */\n      0x4e6f207469656e6573206d6f6e746f2061207265746972617200000000000000\n        /* \"#utility.yul\":13459:13460   */\n      0x00\n        /* \"#utility.yul\":13451:13457   */\n      dup3\n        /* \"#utility.yul\":13447:13461   */\n      add\n        /* \"#utility.yul\":13440:13491   */\n      mstore\n        /* \"#utility.yul\":13323:13498   */\n      pop\n      jump\t// out\n        /* \"#utility.yul\":13504:13870   */\n    tag_269:\n        /* \"#utility.yul\":13646:13649   */\n      0x00\n        /* \"#utility.yul\":13667:13734   */\n      tag_402\n        /* \"#utility.yul\":13731:13733   */\n      0x19\n        /* \"#utility.yul\":13726:13729   */\n      dup4\n        /* \"#utility.yul\":13667:13734   */\n      tag_254\n      jump\t// in\n    tag_402:\n        /* \"#utility.yul\":13660:13734   */\n      swap2\n      pop\n        /* \"#utility.yul\":13743:13836   */\n      tag_403\n        /* \"#utility.yul\":13832:13835   */\n      dup3\n        /* \"#utility.yul\":13743:13836   */\n      tag_268\n      jump\t// in\n    tag_403:\n        /* \"#utility.yul\":13861:13863   */\n      0x20\n        /* \"#utility.yul\":13856:13859   */\n      dup3\n        /* \"#utility.yul\":13852:13864   */\n      add\n        /* \"#utility.yul\":13845:13864   */\n      swap1\n      pop\n        /* \"#utility.yul\":13504:13870   */\n      swap2\n      swap1\n      pop\n      jump\t// out\n        /* \"#utility.yul\":13876:14295   */\n    tag_126:\n        /* \"#utility.yul\":14042:14046   */\n      0x00\n        /* \"#utility.yul\":14080:14082   */\n      0x20\n        /* \"#utility.yul\":14069:14078   */\n      dup3\n        /* \"#utility.yul\":14065:14083   */\n      add\n        /* \"#utility.yul\":14057:14083   */\n      swap1\n      pop\n        /* \"#utility.yul\":14129:14138   */\n      dup2\n        /* \"#utility.yul\":14123:14127   */\n      dup2\n        /* \"#utility.yul\":14119:14139   */\n      sub\n        /* \"#utility.yul\":14115:14116   */\n      0x00\n        /* \"#utility.yul\":14104:14113   */\n      dup4\n        /* \"#utility.yul\":14100:14117   */\n      add\n        /* \"#utility.yul\":14093:14140   */\n      mstore\n        /* \"#utility.yul\":14157:14288   */\n      tag_405\n        /* \"#utility.yul\":14283:14287   */\n      dup2\n        /* \"#utility.yul\":14157:14288   */\n      tag_269\n      jump\t// in\n    tag_405:\n        /* \"#utility.yul\":14149:14288   */\n      swap1\n      pop\n        /* \"#utility.yul\":13876:14295   */\n      swap2\n      swap1\n      pop\n      jump\t// out\n        /* \"#utility.yul\":14301:14711   */\n    tag_128:\n        /* \"#utility.yul\":14341:14348   */\n      0x00\n        /* \"#utility.yul\":14364:14384   */\n      tag_407\n        /* \"#utility.yul\":14382:14383   */\n      dup3\n        /* \"#utility.yul\":14364:14384   */\n      tag_234\n      jump\t// in\n    tag_407:\n        /* \"#utility.yul\":14359:14384   */\n      swap2\n      pop\n        /* \"#utility.yul\":14398:14418   */\n      tag_408\n        /* \"#utility.yul\":14416:14417   */\n      dup4\n        /* \"#utility.yul\":14398:14418   */\n      tag_234\n      jump\t// in\n    tag_408:\n        /* \"#utility.yul\":14393:14418   */\n      swap3\n      pop\n        /* \"#utility.yul\":14453:14454   */\n      dup3\n        /* \"#utility.yul\":14450:14451   */\n      dup3\n        /* \"#utility.yul\":14446:14455   */\n      mul\n        /* \"#utility.yul\":14475:14505   */\n      tag_409\n        /* \"#utility.yul\":14493:14504   */\n      dup2\n        /* \"#utility.yul\":14475:14505   */\n      tag_234\n      jump\t// in\n    tag_409:\n        /* \"#utility.yul\":14464:14505   */\n      swap2\n      pop\n        /* \"#utility.yul\":14654:14655   */\n      dup3\n        /* \"#utility.yul\":14645:14652   */\n      dup3\n        /* \"#utility.yul\":14641:14656   */\n      div\n        /* \"#utility.yul\":14638:14639   */\n      dup5\n        /* \"#utility.yul\":14635:14657   */\n      eq\n        /* \"#utility.yul\":14615:14616   */\n      dup4\n        /* \"#utility.yul\":14608:14617   */\n      iszero\n        /* \"#utility.yul\":14588:14671   */\n      or\n        /* \"#utility.yul\":14565:14704   */\n      tag_410\n      jumpi\n        /* \"#utility.yul\":14684:14702   */\n      tag_411\n      tag_263\n      jump\t// in\n    tag_411:\n        /* \"#utility.yul\":14565:14704   */\n    tag_410:\n        /* \"#utility.yul\":14349:14711   */\n      pop\n        /* \"#utility.yul\":14301:14711   */\n      swap3\n      swap2\n      pop\n      pop\n      jump\t// out\n        /* \"#utility.yul\":14717:14897   */\n    tag_270:\n        /* \"#utility.yul\":14765:14842   */\n      0x4e487b7100000000000000000000000000000000000000000000000000000000\n        /* \"#utility.yul\":14762:14763   */\n      0x00\n        /* \"#utility.yul\":14755:14843   */\n      mstore\n        /* \"#utility.yul\":14862:14866   */\n      0x12\n        /* \"#utility.yul\":14859:14860   */\n      0x04\n        /* \"#utility.yul\":14852:14867   */\n      mstore\n        /* \"#utility.yul\":14886:14890   */\n      0x24\n        /* \"#utility.yul\":14883:14884   */\n      0x00\n        /* \"#utility.yul\":14876:14891   */\n      revert\n        /* \"#utility.yul\":14903:15088   */\n    tag_130:\n        /* \"#utility.yul\":14943:14944   */\n      0x00\n        /* \"#utility.yul\":14960:14980   */\n      tag_414\n        /* \"#utility.yul\":14978:14979   */\n      dup3\n        /* \"#utility.yul\":14960:14980   */\n      tag_234\n      jump\t// in\n    tag_414:\n        /* \"#utility.yul\":14955:14980   */\n      swap2\n      pop\n        /* \"#utility.yul\":14994:15014   */\n      tag_415\n        /* \"#utility.yul\":15012:15013   */\n      dup4\n        /* \"#utility.yul\":14994:15014   */\n      tag_234\n      jump\t// in\n    tag_415:\n        /* \"#utility.yul\":14989:15014   */\n      swap3\n      pop\n        /* \"#utility.yul\":15033:15034   */\n      dup3\n        /* \"#utility.yul\":15023:15058   */\n      tag_416\n      jumpi\n        /* \"#utility.yul\":15038:15056   */\n      tag_417\n      tag_270\n      jump\t// in\n    tag_417:\n        /* \"#utility.yul\":15023:15058   */\n    tag_416:\n        /* \"#utility.yul\":15080:15081   */\n      dup3\n        /* \"#utility.yul\":15077:15078   */\n      dup3\n        /* \"#utility.yul\":15073:15082   */\n      div\n        /* \"#utility.yul\":15068:15082   */\n      swap1\n      pop\n        /* \"#utility.yul\":14903:15088   */\n      swap3\n      swap2\n      pop\n      pop\n      jump\t// out\n        /* \"#utility.yul\":15094:15288   */\n    tag_137:\n        /* \"#utility.yul\":15134:15138   */\n      0x00\n        /* \"#utility.yul\":15154:15174   */\n      tag_419\n        /* \"#utility.yul\":15172:15173   */\n      dup3\n        /* \"#utility.yul\":15154:15174   */\n      tag_234\n      jump\t// in\n    tag_419:\n        /* \"#utility.yul\":15149:15174   */\n      swap2\n      pop\n        /* \"#utility.yul\":15188:15208   */\n      tag_420\n        /* \"#utility.yul\":15206:15207   */\n      dup4\n        /* \"#utility.yul\":15188:15208   */\n      tag_234\n      jump\t// in\n    tag_420:\n        /* \"#utility.yul\":15183:15208   */\n      swap3\n      pop\n        /* \"#utility.yul\":15232:15233   */\n      dup3\n        /* \"#utility.yul\":15229:15230   */\n      dup3\n        /* \"#utility.yul\":15225:15234   */\n      sub\n        /* \"#utility.yul\":15217:15234   */\n      swap1\n      pop\n        /* \"#utility.yul\":15256:15257   */\n      dup2\n        /* \"#utility.yul\":15250:15254   */\n      dup2\n        /* \"#utility.yul\":15247:15258   */\n      gt\n        /* \"#utility.yul\":15244:15281   */\n      iszero\n      tag_421\n      jumpi\n        /* \"#utility.yul\":15261:15279   */\n      tag_422\n      tag_263\n      jump\t// in\n    tag_422:\n        /* \"#utility.yul\":15244:15281   */\n    tag_421:\n        /* \"#utility.yul\":15094:15288   */\n      swap3\n      swap2\n      pop\n      pop\n      jump\t// out\n        /* \"#utility.yul\":15294:15527   */\n    tag_271:\n        /* \"#utility.yul\":15434:15468   */\n      0x4c612073756261737461206861207465726d696e61646f206f20736520656e63\n        /* \"#utility.yul\":15430:15431   */\n      0x00\n        /* \"#utility.yul\":15422:15428   */\n      dup3\n        /* \"#utility.yul\":15418:15432   */\n      add\n        /* \"#utility.yul\":15411:15469   */\n      mstore\n        /* \"#utility.yul\":15503:15519   */\n      0x75656e7472612070617573616461000000000000000000000000000000000000\n        /* \"#utility.yul\":15498:15500   */\n      0x20\n        /* \"#utility.yul\":15490:15496   */\n      dup3\n        /* \"#utility.yul\":15486:15501   */\n      add\n        /* \"#utility.yul\":15479:15520   */\n      mstore\n        /* \"#utility.yul\":15294:15527   */\n      pop\n      jump\t// out\n        /* \"#utility.yul\":15533:15899   */\n    tag_272:\n        /* \"#utility.yul\":15675:15678   */\n      0x00\n        /* \"#utility.yul\":15696:15763   */\n      tag_425\n        /* \"#utility.yul\":15760:15762   */\n      0x2e\n        /* \"#utility.yul\":15755:15758   */\n      dup4\n        /* \"#utility.yul\":15696:15763   */\n      tag_254\n      jump\t// in\n    tag_425:\n        /* \"#utility.yul\":15689:15763   */\n      swap2\n      pop\n        /* \"#utility.yul\":15772:15865   */\n      tag_426\n        /* \"#utility.yul\":15861:15864   */\n      dup3\n        /* \"#utility.yul\":15772:15865   */\n      tag_271\n      jump\t// in\n    tag_426:\n        /* \"#utility.yul\":15890:15892   */\n      0x40\n        /* \"#utility.yul\":15885:15888   */\n      dup3\n        /* \"#utility.yul\":15881:15893   */\n      add\n        /* \"#utility.yul\":15874:15893   */\n      swap1\n      pop\n        /* \"#utility.yul\":15533:15899   */\n      swap2\n      swap1\n      pop\n      jump\t// out\n        /* \"#utility.yul\":15905:16324   */\n    tag_148:\n        /* \"#utility.yul\":16071:16075   */\n      0x00\n        /* \"#utility.yul\":16109:16111   */\n      0x20\n        /* \"#utility.yul\":16098:16107   */\n      dup3\n        /* \"#utility.yul\":16094:16112   */\n      add\n        /* \"#utility.yul\":16086:16112   */\n      swap1\n      pop\n        /* \"#utility.yul\":16158:16167   */\n      dup2\n        /* \"#utility.yul\":16152:16156   */\n      dup2\n        /* \"#utility.yul\":16148:16168   */\n      sub\n        /* \"#utility.yul\":16144:16145   */\n      0x00\n        /* \"#utility.yul\":16133:16142   */\n      dup4\n        /* \"#utility.yul\":16129:16146   */\n      add\n        /* \"#utility.yul\":16122:16169   */\n      mstore\n        /* \"#utility.yul\":16186:16317   */\n      tag_428\n        /* \"#utility.yul\":16312:16316   */\n      dup2\n        /* \"#utility.yul\":16186:16317   */\n      tag_272\n      jump\t// in\n    tag_428:\n        /* \"#utility.yul\":16178:16317   */\n      swap1\n      pop\n        /* \"#utility.yul\":15905:16324   */\n      swap2\n      swap1\n      pop\n      jump\t// out\n        /* \"#utility.yul\":16330:16569   */\n    tag_273:\n        /* \"#utility.yul\":16470:16504   */\n      0x456c2070726f706965746172696f206e6f207075656465206f66657274617220\n        /* \"#utility.yul\":16466:16467   */\n      0x00\n        /* \"#utility.yul\":16458:16464   */\n      dup3\n        /* \"#utility.yul\":16454:16468   */\n      add\n        /* \"#utility.yul\":16447:16505   */\n      mstore\n        /* \"#utility.yul\":16539:16561   */\n      0x656e2073752070726f7069612073756261737461000000000000000000000000\n        /* \"#utility.yul\":16534:16536   */\n      0x20\n        /* \"#utility.yul\":16526:16532   */\n      dup3\n        /* \"#utility.yul\":16522:16537   */\n      add\n        /* \"#utility.yul\":16515:16562   */\n      mstore\n        /* \"#utility.yul\":16330:16569   */\n      pop\n      jump\t// out\n        /* \"#utility.yul\":16575:16941   */\n    tag_274:\n        /* \"#utility.yul\":16717:16720   */\n      0x00\n        /* \"#utility.yul\":16738:16805   */\n      tag_431\n        /* \"#utility.yul\":16802:16804   */\n      0x34\n        /* \"#utility.yul\":16797:16800   */\n      dup4\n        /* \"#utility.yul\":16738:16805   */\n      tag_254\n      jump\t// in\n    tag_431:\n        /* \"#utility.yul\":16731:16805   */\n      swap2\n      pop\n        /* \"#utility.yul\":16814:16907   */\n      tag_432\n        /* \"#utility.yul\":16903:16906   */\n      dup3\n        /* \"#utility.yul\":16814:16907   */\n      tag_273\n      jump\t// in\n    tag_432:\n        /* \"#utility.yul\":16932:16934   */\n      0x40\n        /* \"#utility.yul\":16927:16930   */\n      dup3\n        /* \"#utility.yul\":16923:16935   */\n      add\n        /* \"#utility.yul\":16916:16935   */\n      swap1\n      pop\n        /* \"#utility.yul\":16575:16941   */\n      swap2\n      swap1\n      pop\n      jump\t// out\n        /* \"#utility.yul\":16947:17366   */\n    tag_152:\n        /* \"#utility.yul\":17113:17117   */\n      0x00\n        /* \"#utility.yul\":17151:17153   */\n      0x20\n        /* \"#utility.yul\":17140:17149   */\n      dup3\n        /* \"#utility.yul\":17136:17154   */\n      add\n        /* \"#utility.yul\":17128:17154   */\n      swap1\n      pop\n        /* \"#utility.yul\":17200:17209   */\n      dup2\n        /* \"#utility.yul\":17194:17198   */\n      dup2\n        /* \"#utility.yul\":17190:17210   */\n      sub\n        /* \"#utility.yul\":17186:17187   */\n      0x00\n        /* \"#utility.yul\":17175:17184   */\n      dup4\n        /* \"#utility.yul\":17171:17188   */\n      add\n        /* \"#utility.yul\":17164:17211   */\n      mstore\n        /* \"#utility.yul\":17228:17359   */\n      tag_434\n        /* \"#utility.yul\":17354:17358   */\n      dup2\n        /* \"#utility.yul\":17228:17359   */\n      tag_274\n      jump\t// in\n    tag_434:\n        /* \"#utility.yul\":17220:17359   */\n      swap1\n      pop\n        /* \"#utility.yul\":16947:17366   */\n      swap2\n      swap1\n      pop\n      jump\t// out\n        /* \"#utility.yul\":17372:17550   */\n    tag_275:\n        /* \"#utility.yul\":17512:17542   */\n      0x5961207469656e6573206c61206f6665727461206d617320616c746100000000\n        /* \"#utility.yul\":17508:17509   */\n      0x00\n        /* \"#utility.yul\":17500:17506   */\n      dup3\n        /* \"#utility.yul\":17496:17510   */\n      add\n        /* \"#utility.yul\":17489:17543   */\n      mstore\n        /* \"#utility.yul\":17372:17550   */\n      pop\n      jump\t// out\n        /* \"#utility.yul\":17556:17922   */\n    tag_276:\n        /* \"#utility.yul\":17698:17701   */\n      0x00\n        /* \"#utility.yul\":17719:17786   */\n      tag_437\n        /* \"#utility.yul\":17783:17785   */\n      0x1c\n        /* \"#utility.yul\":17778:17781   */\n      dup4\n        /* \"#utility.yul\":17719:17786   */\n      tag_254\n      jump\t// in\n    tag_437:\n        /* \"#utility.yul\":17712:17786   */\n      swap2\n      pop\n        /* \"#utility.yul\":17795:17888   */\n      tag_438\n        /* \"#utility.yul\":17884:17887   */\n      dup3\n        /* \"#utility.yul\":17795:17888   */\n      tag_275\n      jump\t// in\n    tag_438:\n        /* \"#utility.yul\":17913:17915   */\n      0x20\n        /* \"#utility.yul\":17908:17911   */\n      dup3\n        /* \"#utility.yul\":17904:17916   */\n      add\n        /* \"#utility.yul\":17897:17916   */\n      swap1\n      pop\n        /* \"#utility.yul\":17556:17922   */\n      swap2\n      swap1\n      pop\n      jump\t// out\n        /* \"#utility.yul\":17928:18347   */\n    tag_158:\n        /* \"#utility.yul\":18094:18098   */\n      0x00\n        /* \"#utility.yul\":18132:18134   */\n      0x20\n        /* \"#utility.yul\":18121:18130   */\n      dup3\n        /* \"#utility.yul\":18117:18135   */\n      add\n        /* \"#utility.yul\":18109:18135   */\n      swap1\n      pop\n        /* \"#utility.yul\":18181:18190   */\n      dup2\n        /* \"#utility.yul\":18175:18179   */\n      dup2\n        /* \"#utility.yul\":18171:18191   */\n      sub\n        /* \"#utility.yul\":18167:18168   */\n      0x00\n        /* \"#utility.yul\":18156:18165   */\n      dup4\n        /* \"#utility.yul\":18152:18169   */\n      add\n        /* \"#utility.yul\":18145:18192   */\n      mstore\n        /* \"#utility.yul\":18209:18340   */\n      tag_440\n        /* \"#utility.yul\":18335:18339   */\n      dup2\n        /* \"#utility.yul\":18209:18340   */\n      tag_276\n      jump\t// in\n    tag_440:\n        /* \"#utility.yul\":18201:18340   */\n      swap1\n      pop\n        /* \"#utility.yul\":17928:18347   */\n      swap2\n      swap1\n      pop\n      jump\t// out\n        /* \"#utility.yul\":18353:18582   */\n    tag_277:\n        /* \"#utility.yul\":18493:18527   */\n      0x4c61206f6665727461206465626520736572207375706572696f7220616c206d\n        /* \"#utility.yul\":18489:18490   */\n      0x00\n        /* \"#utility.yul\":18481:18487   */\n      dup3\n        /* \"#utility.yul\":18477:18491   */\n      add\n        /* \"#utility.yul\":18470:18528   */\n      mstore\n        /* \"#utility.yul\":18562:18574   */\n      0x656e6f7320656e20352500000000000000000000000000000000000000000000\n        /* \"#utility.yul\":18557:18559   */\n      0x20\n        /* \"#utility.yul\":18549:18555   */\n      dup3\n        /* \"#utility.yul\":18545:18560   */\n      add\n        /* \"#utility.yul\":18538:18575   */\n      mstore\n        /* \"#utility.yul\":18353:18582   */\n      pop\n      jump\t// out\n        /* \"#utility.yul\":18588:18954   */\n    tag_278:\n        /* \"#utility.yul\":18730:18733   */\n      0x00\n        /* \"#utility.yul\":18751:18818   */\n      tag_443\n        /* \"#utility.yul\":18815:18817   */\n      0x2a\n        /* \"#utility.yul\":18810:18813   */\n      dup4\n        /* \"#utility.yul\":18751:18818   */\n      tag_254\n      jump\t// in\n    tag_443:\n        /* \"#utility.yul\":18744:18818   */\n      swap2\n      pop\n        /* \"#utility.yul\":18827:18920   */\n      tag_444\n        /* \"#utility.yul\":18916:18919   */\n      dup3\n        /* \"#utility.yul\":18827:18920   */\n      tag_277\n      jump\t// in\n    tag_444:\n        /* \"#utility.yul\":18945:18947   */\n      0x40\n        /* \"#utility.yul\":18940:18943   */\n      dup3\n        /* \"#utility.yul\":18936:18948   */\n      add\n        /* \"#utility.yul\":18929:18948   */\n      swap1\n      pop\n        /* \"#utility.yul\":18588:18954   */\n      swap2\n      swap1\n      pop\n      jump\t// out\n        /* \"#utility.yul\":18960:19379   */\n    tag_163:\n        /* \"#utility.yul\":19126:19130   */\n      0x00\n        /* \"#utility.yul\":19164:19166   */\n      0x20\n        /* \"#utility.yul\":19153:19162   */\n      dup3\n        /* \"#utility.yul\":19149:19167   */\n      add\n        /* \"#utility.yul\":19141:19167   */\n      swap1\n      pop\n        /* \"#utility.yul\":19213:19222   */\n      dup2\n        /* \"#utility.yul\":19207:19211   */\n      dup2\n        /* \"#utility.yul\":19203:19223   */\n      sub\n        /* \"#utility.yul\":19199:19200   */\n      0x00\n        /* \"#utility.yul\":19188:19197   */\n      dup4\n        /* \"#utility.yul\":19184:19201   */\n      add\n        /* \"#utility.yul\":19177:19224   */\n      mstore\n        /* \"#utility.yul\":19241:19372   */\n      tag_446\n        /* \"#utility.yul\":19367:19371   */\n      dup2\n        /* \"#utility.yul\":19241:19372   */\n      tag_278\n      jump\t// in\n    tag_446:\n        /* \"#utility.yul\":19233:19372   */\n      swap1\n      pop\n        /* \"#utility.yul\":18960:19379   */\n      swap2\n      swap1\n      pop\n      jump\t// out\n        /* \"#utility.yul\":19385:19558   */\n    tag_279:\n        /* \"#utility.yul\":19525:19550   */\n      0x5573746564206e6f207469656e65207065726d69736f73000000000000000000\n        /* \"#utility.yul\":19521:19522   */\n      0x00\n        /* \"#utility.yul\":19513:19519   */\n      dup3\n        /* \"#utility.yul\":19509:19523   */\n      add\n        /* \"#utility.yul\":19502:19551   */\n      mstore\n        /* \"#utility.yul\":19385:19558   */\n      pop\n      jump\t// out\n        /* \"#utility.yul\":19564:19930   */\n    tag_280:\n        /* \"#utility.yul\":19706:19709   */\n      0x00\n        /* \"#utility.yul\":19727:19794   */\n      tag_449\n        /* \"#utility.yul\":19791:19793   */\n      0x17\n        /* \"#utility.yul\":19786:19789   */\n      dup4\n        /* \"#utility.yul\":19727:19794   */\n      tag_254\n      jump\t// in\n    tag_449:\n        /* \"#utility.yul\":19720:19794   */\n      swap2\n      pop\n        /* \"#utility.yul\":19803:19896   */\n      tag_450\n        /* \"#utility.yul\":19892:19895   */\n      dup3\n        /* \"#utility.yul\":19803:19896   */\n      tag_279\n      jump\t// in\n    tag_450:\n        /* \"#utility.yul\":19921:19923   */\n      0x20\n        /* \"#utility.yul\":19916:19919   */\n      dup3\n        /* \"#utility.yul\":19912:19924   */\n      add\n        /* \"#utility.yul\":19905:19924   */\n      swap1\n      pop\n        /* \"#utility.yul\":19564:19930   */\n      swap2\n      swap1\n      pop\n      jump\t// out\n        /* \"#utility.yul\":19936:20355   */\n    tag_171:\n        /* \"#utility.yul\":20102:20106   */\n      0x00\n        /* \"#utility.yul\":20140:20142   */\n      0x20\n        /* \"#utility.yul\":20129:20138   */\n      dup3\n        /* \"#utility.yul\":20125:20143   */\n      add\n        /* \"#utility.yul\":20117:20143   */\n      swap1\n      pop\n        /* \"#utility.yul\":20189:20198   */\n      dup2\n        /* \"#utility.yul\":20183:20187   */\n      dup2\n        /* \"#utility.yul\":20179:20199   */\n      sub\n        /* \"#utility.yul\":20175:20176   */\n      0x00\n        /* \"#utility.yul\":20164:20173   */\n      dup4\n        /* \"#utility.yul\":20160:20177   */\n      add\n        /* \"#utility.yul\":20153:20200   */\n      mstore\n        /* \"#utility.yul\":20217:20348   */\n      tag_452\n        /* \"#utility.yul\":20343:20347   */\n      dup2\n        /* \"#utility.yul\":20217:20348   */\n      tag_280\n      jump\t// in\n    tag_452:\n        /* \"#utility.yul\":20209:20348   */\n      swap1\n      pop\n        /* \"#utility.yul\":19936:20355   */\n      swap2\n      swap1\n      pop\n      jump\t// out\n        /* \"#utility.yul\":20361:20588   */\n    tag_281:\n        /* \"#utility.yul\":20501:20535   */\n      0x546f6461766961206573746120686162696c697461646f20656c207265746972\n        /* \"#utility.yul\":20497:20498   */\n      0x00\n        /* \"#utility.yul\":20489:20495   */\n      dup3\n        /* \"#utility.yul\":20485:20499   */\n      add\n        /* \"#utility.yul\":20478:20536   */\n      mstore\n        /* \"#utility.yul\":20570:20580   */\n      0x6f206d616e75616c000000000000000000000000000000000000000000000000\n        /* \"#utility.yul\":20565:20567   */\n      0x20\n        /* \"#utility.yul\":20557:20563   */\n      dup3\n        /* \"#utility.yul\":20553:20568   */\n      add\n        /* \"#utility.yul\":20546:20581   */\n      mstore\n        /* \"#utility.yul\":20361:20588   */\n      pop\n      jump\t// out\n        /* \"#utility.yul\":20594:20960   */\n    tag_282:\n        /* \"#utility.yul\":20736:20739   */\n      0x00\n        /* \"#utility.yul\":20757:20824   */\n      tag_455\n        /* \"#utility.yul\":20821:20823   */\n      0x28\n        /* \"#utility.yul\":20816:20819   */\n      dup4\n        /* \"#utility.yul\":20757:20824   */\n      tag_254\n      jump\t// in\n    tag_455:\n        /* \"#utility.yul\":20750:20824   */\n      swap2\n      pop\n        /* \"#utility.yul\":20833:20926   */\n      tag_456\n        /* \"#utility.yul\":20922:20925   */\n      dup3\n        /* \"#utility.yul\":20833:20926   */\n      tag_281\n      jump\t// in\n    tag_456:\n        /* \"#utility.yul\":20951:20953   */\n      0x40\n        /* \"#utility.yul\":20946:20949   */\n      dup3\n        /* \"#utility.yul\":20942:20954   */\n      add\n        /* \"#utility.yul\":20935:20954   */\n      swap1\n      pop\n        /* \"#utility.yul\":20594:20960   */\n      swap2\n      swap1\n      pop\n      jump\t// out\n        /* \"#utility.yul\":20966:21385   */\n    tag_179:\n        /* \"#utility.yul\":21132:21136   */\n      0x00\n        /* \"#utility.yul\":21170:21172   */\n      0x20\n        /* \"#utility.yul\":21159:21168   */\n      dup3\n        /* \"#utility.yul\":21155:21173   */\n      add\n        /* \"#utility.yul\":21147:21173   */\n      swap1\n      pop\n        /* \"#utility.yul\":21219:21228   */\n      dup2\n        /* \"#utility.yul\":21213:21217   */\n      dup2\n        /* \"#utility.yul\":21209:21229   */\n      sub\n        /* \"#utility.yul\":21205:21206   */\n      0x00\n        /* \"#utility.yul\":21194:21203   */\n      dup4\n        /* \"#utility.yul\":21190:21207   */\n      add\n        /* \"#utility.yul\":21183:21230   */\n      mstore\n        /* \"#utility.yul\":21247:21378   */\n      tag_458\n        /* \"#utility.yul\":21373:21377   */\n      dup2\n        /* \"#utility.yul\":21247:21378   */\n      tag_282\n      jump\t// in\n    tag_458:\n        /* \"#utility.yul\":21239:21378   */\n      swap1\n      pop\n        /* \"#utility.yul\":20966:21385   */\n      swap2\n      swap1\n      pop\n      jump\t// out\n        /* \"#utility.yul\":21391:21564   */\n    tag_283:\n        /* \"#utility.yul\":21531:21556   */\n      0x4c612073756261737461206861207465726d696e61646f000000000000000000\n        /* \"#utility.yul\":21527:21528   */\n      0x00\n        /* \"#utility.yul\":21519:21525   */\n      dup3\n        /* \"#utility.yul\":21515:21529   */\n      add\n        /* \"#utility.yul\":21508:21557   */\n      mstore\n        /* \"#utility.yul\":21391:21564   */\n      pop\n      jump\t// out\n        /* \"#utility.yul\":21570:21936   */\n    tag_284:\n        /* \"#utility.yul\":21712:21715   */\n      0x00\n        /* \"#utility.yul\":21733:21800   */\n      tag_461\n        /* \"#utility.yul\":21797:21799   */\n      0x17\n        /* \"#utility.yul\":21792:21795   */\n      dup4\n        /* \"#utility.yul\":21733:21800   */\n      tag_254\n      jump\t// in\n    tag_461:\n        /* \"#utility.yul\":21726:21800   */\n      swap2\n      pop\n        /* \"#utility.yul\":21809:21902   */\n      tag_462\n        /* \"#utility.yul\":21898:21901   */\n      dup3\n        /* \"#utility.yul\":21809:21902   */\n      tag_283\n      jump\t// in\n    tag_462:\n        /* \"#utility.yul\":21927:21929   */\n      0x20\n        /* \"#utility.yul\":21922:21925   */\n      dup3\n        /* \"#utility.yul\":21918:21930   */\n      add\n        /* \"#utility.yul\":21911:21930   */\n      swap1\n      pop\n        /* \"#utility.yul\":21570:21936   */\n      swap2\n      swap1\n      pop\n      jump\t// out\n        /* \"#utility.yul\":21942:22361   */\n    tag_191:\n        /* \"#utility.yul\":22108:22112   */\n      0x00\n        /* \"#utility.yul\":22146:22148   */\n      0x20\n        /* \"#utility.yul\":22135:22144   */\n      dup3\n        /* \"#utility.yul\":22131:22149   */\n      add\n        /* \"#utility.yul\":22123:22149   */\n      swap1\n      pop\n        /* \"#utility.yul\":22195:22204   */\n      dup2\n        /* \"#utility.yul\":22189:22193   */\n      dup2\n        /* \"#utility.yul\":22185:22205   */\n      sub\n        /* \"#utility.yul\":22181:22182   */\n      0x00\n        /* \"#utility.yul\":22170:22179   */\n      dup4\n        /* \"#utility.yul\":22166:22183   */\n      add\n        /* \"#utility.yul\":22159:22206   */\n      mstore\n        /* \"#utility.yul\":22223:22354   */\n      tag_464\n        /* \"#utility.yul\":22349:22353   */\n      dup2\n        /* \"#utility.yul\":22223:22354   */\n      tag_284\n      jump\t// in\n    tag_464:\n        /* \"#utility.yul\":22215:22354   */\n      swap1\n      pop\n        /* \"#utility.yul\":21942:22361   */\n      swap2\n      swap1\n      pop\n      jump\t// out\n        /* \"#utility.yul\":22367:22592   */\n    tag_285:\n        /* \"#utility.yul\":22507:22541   */\n      0x4e6f207469656e6520737566696369656e74652073616c646f20706172612072\n        /* \"#utility.yul\":22503:22504   */\n      0x00\n        /* \"#utility.yul\":22495:22501   */\n      dup3\n        /* \"#utility.yul\":22491:22505   */\n      add\n        /* \"#utility.yul\":22484:22542   */\n      mstore\n        /* \"#utility.yul\":22576:22584   */\n      0x6574697261720000000000000000000000000000000000000000000000000000\n        /* \"#utility.yul\":22571:22573   */\n      0x20\n        /* \"#utility.yul\":22563:22569   */\n      dup3\n        /* \"#utility.yul\":22559:22574   */\n      add\n        /* \"#utility.yul\":22552:22585   */\n      mstore\n        /* \"#utility.yul\":22367:22592   */\n      pop\n      jump\t// out\n        /* \"#utility.yul\":22598:22964   */\n    tag_286:\n        /* \"#utility.yul\":22740:22743   */\n      0x00\n        /* \"#utility.yul\":22761:22828   */\n      tag_467\n        /* \"#utility.yul\":22825:22827   */\n      0x26\n        /* \"#utility.yul\":22820:22823   */\n      dup4\n        /* \"#utility.yul\":22761:22828   */\n      tag_254\n      jump\t// in\n    tag_467:\n        /* \"#utility.yul\":22754:22828   */\n      swap2\n      pop\n        /* \"#utility.yul\":22837:22930   */\n      tag_468\n        /* \"#utility.yul\":22926:22929   */\n      dup3\n        /* \"#utility.yul\":22837:22930   */\n      tag_285\n      jump\t// in\n    tag_468:\n        /* \"#utility.yul\":22955:22957   */\n      0x40\n        /* \"#utility.yul\":22950:22953   */\n      dup3\n        /* \"#utility.yul\":22946:22958   */\n      add\n        /* \"#utility.yul\":22939:22958   */\n      swap1\n      pop\n        /* \"#utility.yul\":22598:22964   */\n      swap2\n      swap1\n      pop\n      jump\t// out\n        /* \"#utility.yul\":22970:23389   */\n    tag_195:\n        /* \"#utility.yul\":23136:23140   */\n      0x00\n        /* \"#utility.yul\":23174:23176   */\n      0x20\n        /* \"#utility.yul\":23163:23172   */\n      dup3\n        /* \"#utility.yul\":23159:23177   */\n      add\n        /* \"#utility.yul\":23151:23177   */\n      swap1\n      pop\n        /* \"#utility.yul\":23223:23232   */\n      dup2\n        /* \"#utility.yul\":23217:23221   */\n      dup2\n        /* \"#utility.yul\":23213:23233   */\n      sub\n        /* \"#utility.yul\":23209:23210   */\n      0x00\n        /* \"#utility.yul\":23198:23207   */\n      dup4\n        /* \"#utility.yul\":23194:23211   */\n      add\n        /* \"#utility.yul\":23187:23234   */\n      mstore\n        /* \"#utility.yul\":23251:23382   */\n      tag_470\n        /* \"#utility.yul\":23377:23381   */\n      dup2\n        /* \"#utility.yul\":23251:23382   */\n      tag_286\n      jump\t// in\n    tag_470:\n        /* \"#utility.yul\":23243:23382   */\n      swap1\n      pop\n        /* \"#utility.yul\":22970:23389   */\n      swap2\n      swap1\n      pop\n      jump\t// out\n        /* \"#utility.yul\":23395:23571   */\n    tag_204:\n        /* \"#utility.yul\":23427:23428   */\n      0x00\n        /* \"#utility.yul\":23444:23464   */\n      tag_472\n        /* \"#utility.yul\":23462:23463   */\n      dup3\n        /* \"#utility.yul\":23444:23464   */\n      tag_234\n      jump\t// in\n    tag_472:\n        /* \"#utility.yul\":23439:23464   */\n      swap2\n      pop\n        /* \"#utility.yul\":23478:23498   */\n      tag_473\n        /* \"#utility.yul\":23496:23497   */\n      dup4\n        /* \"#utility.yul\":23478:23498   */\n      tag_234\n      jump\t// in\n    tag_473:\n        /* \"#utility.yul\":23473:23498   */\n      swap3\n      pop\n        /* \"#utility.yul\":23517:23518   */\n      dup3\n        /* \"#utility.yul\":23507:23542   */\n      tag_474\n      jumpi\n        /* \"#utility.yul\":23522:23540   */\n      tag_475\n      tag_270\n      jump\t// in\n    tag_475:\n        /* \"#utility.yul\":23507:23542   */\n    tag_474:\n        /* \"#utility.yul\":23563:23564   */\n      dup3\n        /* \"#utility.yul\":23560:23561   */\n      dup3\n        /* \"#utility.yul\":23556:23565   */\n      mod\n        /* \"#utility.yul\":23551:23565   */\n      swap1\n      pop\n        /* \"#utility.yul\":23395:23571   */\n      swap3\n      swap2\n      pop\n      pop\n      jump\t// out\n        /* \"#utility.yul\":23577:23812   */\n    tag_287:\n        /* \"#utility.yul\":23717:23751   */\n      0x4c612073756261737461207465726d696e6f2064657675656c766f2072657469\n        /* \"#utility.yul\":23713:23714   */\n      0x00\n        /* \"#utility.yul\":23705:23711   */\n      dup3\n        /* \"#utility.yul\":23701:23715   */\n      add\n        /* \"#utility.yul\":23694:23752   */\n      mstore\n        /* \"#utility.yul\":23786:23804   */\n      0x726f2073696e207265636c616d61722e00000000000000000000000000000000\n        /* \"#utility.yul\":23781:23783   */\n      0x20\n        /* \"#utility.yul\":23773:23779   */\n      dup3\n        /* \"#utility.yul\":23769:23784   */\n      add\n        /* \"#utility.yul\":23762:23805   */\n      mstore\n        /* \"#utility.yul\":23577:23812   */\n      pop\n      jump\t// out\n        /* \"#utility.yul\":23818:24184   */\n    tag_288:\n        /* \"#utility.yul\":23960:23963   */\n      0x00\n        /* \"#utility.yul\":23981:24048   */\n      tag_478\n        /* \"#utility.yul\":24045:24047   */\n      0x30\n        /* \"#utility.yul\":24040:24043   */\n      dup4\n        /* \"#utility.yul\":23981:24048   */\n      tag_254\n      jump\t// in\n    tag_478:\n        /* \"#utility.yul\":23974:24048   */\n      swap2\n      pop\n        /* \"#utility.yul\":24057:24150   */\n      tag_479\n        /* \"#utility.yul\":24146:24149   */\n      dup3\n        /* \"#utility.yul\":24057:24150   */\n      tag_287\n      jump\t// in\n    tag_479:\n        /* \"#utility.yul\":24175:24177   */\n      0x40\n        /* \"#utility.yul\":24170:24173   */\n      dup3\n        /* \"#utility.yul\":24166:24178   */\n      add\n        /* \"#utility.yul\":24159:24178   */\n      swap1\n      pop\n        /* \"#utility.yul\":23818:24184   */\n      swap2\n      swap1\n      pop\n      jump\t// out\n        /* \"#utility.yul\":24190:24609   */\n    tag_230:\n        /* \"#utility.yul\":24356:24360   */\n      0x00\n        /* \"#utility.yul\":24394:24396   */\n      0x20\n        /* \"#utility.yul\":24383:24392   */\n      dup3\n        /* \"#utility.yul\":24379:24397   */\n      add\n        /* \"#utility.yul\":24371:24397   */\n      swap1\n      pop\n        /* \"#utility.yul\":24443:24452   */\n      dup2\n        /* \"#utility.yul\":24437:24441   */\n      dup2\n        /* \"#utility.yul\":24433:24453   */\n      sub\n        /* \"#utility.yul\":24429:24430   */\n      0x00\n        /* \"#utility.yul\":24418:24427   */\n      dup4\n        /* \"#utility.yul\":24414:24431   */\n      add\n        /* \"#utility.yul\":24407:24454   */\n      mstore\n        /* \"#utility.yul\":24471:24602   */\n      tag_481\n        /* \"#utility.yul\":24597:24601   */\n      dup2\n        /* \"#utility.yul\":24471:24602   */\n      tag_288\n      jump\t// in\n    tag_481:\n        /* \"#utility.yul\":24463:24602   */\n      swap1\n      pop\n        /* \"#utility.yul\":24190:24609   */\n      swap2\n      swap1\n      pop\n      jump\t// out\n\n    auxdata: 0xa26469706673582212204f4203b12d1a4fd56b794139daf7fc4bd66ab3d129e606a5d39dc6b159a2736364736f6c634300081a0033\n}\n",
				"bytecode": {
					"linkReferences": {},
					"object": "608060405234801561000f575f80fd5b506402540be4005f819055504260018190555062093a8060015461003391906100de565b6002819055503360055f6101000a81548173ffffffffffffffffffffffffffffffffffffffff021916908373ffffffffffffffffffffffffffffffffffffffff1602179055505f600560146101000a81548160ff0219169083600281111561009e5761009d610111565b5b021790555061013e565b5f819050919050565b7f4e487b71000000000000000000000000000000000000000000000000000000005f52601160045260245ffd5b5f6100e8826100a8565b91506100f3836100a8565b925082820190508082111561010b5761010a6100b1565b5b92915050565b7f4e487b71000000000000000000000000000000000000000000000000000000005f52602160045260245ffd5b6121e88061014b5f395ff3fe6080604052600436106100dc575f3560e01c8063689567d51161007e578063c264a06311610058578063c264a06314610215578063c7e284b81461021f578063d54c564e1461024b578063d95608e214610275576100dc565b8063689567d5146101df578063961045dc146101e9578063a0e92984146101ff576100dc565b8063534823bf116100ba578063534823bf1461014a57806362e546f9146101755780636733430a1461018b578063688e3467146101b5576100dc565b806305c414ad146100e0578063154d31261461010a5780634f595bc514610120575b5f80fd5b3480156100eb575f80fd5b506100f461029f565b6040516101019190611563565b60405180910390f35b348015610115575f80fd5b5061011e6102c4565b005b34801561012b575f80fd5b50610134610445565b6040516101419190611594565b60405180910390f35b348015610155575f80fd5b5061015e61044b565b60405161016c92919061171b565b60405180910390f35b348015610180575f80fd5b50610189610607565b005b348015610196575f80fd5b5061019f6108ad565b6040516101ac9190611563565b60405180910390f35b3480156101c0575f80fd5b506101c96108d5565b6040516101d691906117c3565b60405180910390f35b6101e76108e8565b005b3480156101f4575f80fd5b506101fd610dd6565b005b34801561020a575f80fd5b50610213610f06565b005b61021d61103c565b005b34801561022a575f80fd5b5061023361119c565b604051610242939291906117dc565b60405180910390f35b348015610256575f80fd5b5061025f61121f565b60405161026c9190611594565b60405180910390f35b348015610280575f80fd5b50610289611266565b6040516102969190611594565b60405180910390f35b60045f9054906101000a900473ffffffffffffffffffffffffffffffffffffffff1681565b60045f9054906101000a900473ffffffffffffffffffffffffffffffffffffffff1673ffffffffffffffffffffffffffffffffffffffff163373ffffffffffffffffffffffffffffffffffffffff1614610353576040517f08c379a000000000000000000000000000000000000000000000000000000000815260040161034a90611891565b60405180910390fd5b600254421015610398576040517f08c379a000000000000000000000000000000000000000000000000000000000815260040161038f906118f9565b60405180910390fd5b600160028111156103ac576103ab611750565b5b600560149054906101000a900460ff1660028111156103ce576103cd611750565b5b1461040e576040517f08c379a000000000000000000000000000000000000000000000000000000000815260040161040590611961565b60405180910390fd5b7fb70b873adccc41a4fdc0b8fe6d3d21b4449270a44e8a431952703e2e654cbfdb60405161043b906119c9565b60405180910390a1565b60035481565b6060805f60068054905067ffffffffffffffff81111561046e5761046d6119e7565b5b60405190808252806020026020018201604052801561049c5781602001602082028036833780820191505090505b5090505f60068054905067ffffffffffffffff8111156104bf576104be6119e7565b5b6040519080825280602002602001820160405280156104ed5781602001602082028036833780820191505090505b5090505f5b6006805490508110156105fa575f6006828154811061051457610513611a14565b5b905f5260205f20015f9054906101000a900473ffffffffffffffffffffffffffffffffffffffff1690508084838151811061055257610551611a14565b5b602002602001019073ffffffffffffffffffffffffffffffffffffffff16908173ffffffffffffffffffffffffffffffffffffffff168152505060075f8273ffffffffffffffffffffffffffffffffffffffff1673ffffffffffffffffffffffffffffffffffffffff1681526020019081526020015f20600101548383815181106105e0576105df611a14565b5b6020026020010181815250505080806001019150506104f2565b5081819350935050509091565b60025442101561064c576040517f08c379a0000000000000000000000000000000000000000000000000000000008152600401610643906118f9565b60405180910390fd5b62278d0060025461065d9190611a6e565b804211156106a0576040517f08c379a000000000000000000000000000000000000000000000000000000000815260040161069790611b11565b60405180910390fd5b60045f9054906101000a900473ffffffffffffffffffffffffffffffffffffffff1673ffffffffffffffffffffffffffffffffffffffff163373ffffffffffffffffffffffffffffffffffffffff160361072f576040517f08c379a000000000000000000000000000000000000000000000000000000000815260040161072690611b9f565b60405180910390fd5b5f60075f3373ffffffffffffffffffffffffffffffffffffffff1673ffffffffffffffffffffffffffffffffffffffff1681526020019081526020015f206001015490505f81116107b5576040517f08c379a00000000000000000000000000000000000000000000000000000000081526004016107ac90611c07565b60405180910390fd5b5f60075f3373ffffffffffffffffffffffffffffffffffffffff1673ffffffffffffffffffffffffffffffffffffffff1681526020019081526020015f20600101819055505f606460628361080a9190611c25565b6108149190611c93565b90503373ffffffffffffffffffffffffffffffffffffffff166108fc8290811502906040515f60405180830381858888f19350505050158015610859573d5f803e3d5ffd5b503373ffffffffffffffffffffffffffffffffffffffff167f884edad9ce6fa2440d8a54cc123490eb96d2768479d49ff9c7366125a9424364826040516108a09190611594565b60405180910390a2505050565b5f60045f9054906101000a900473ffffffffffffffffffffffffffffffffffffffff16905090565b600560149054906101000a900460ff1681565b6102586002546108f89190611cc3565b42106109525761025860025f8282546109119190611a6e565b925050819055507fc2b459809119087ca9d2bc10dea53a51b7d848b1a11075db037bdca58292c3e86002546040516109499190611594565b60405180910390a15b5f600281111561096557610964611750565b5b600560149054906101000a900460ff16600281111561098757610986611750565b5b146109c7576040517f08c379a00000000000000000000000000000000000000000000000000000000081526004016109be90611d66565b60405180910390fd5b60055f9054906101000a900473ffffffffffffffffffffffffffffffffffffffff1673ffffffffffffffffffffffffffffffffffffffff163373ffffffffffffffffffffffffffffffffffffffff1603610a56576040517f08c379a0000000000000000000000000000000000000000000000000000000008152600401610a4d90611df4565b60405180910390fd5b5f60075f3373ffffffffffffffffffffffffffffffffffffffff1673ffffffffffffffffffffffffffffffffffffffff1681526020019081526020015f206001015403610b0257600633908060018154018082558091505060019003905f5260205f20015f9091909190916101000a81548173ffffffffffffffffffffffffffffffffffffffff021916908373ffffffffffffffffffffffffffffffffffffffff160217905550610b92565b60045f9054906101000a900473ffffffffffffffffffffffffffffffffffffffff1673ffffffffffffffffffffffffffffffffffffffff163373ffffffffffffffffffffffffffffffffffffffff1603610b91576040517f08c379a0000000000000000000000000000000000000000000000000000000008152600401610b8890611e5c565b60405180910390fd5b5b60646069600354610ba39190611c25565b610bad9190611c93565b341015610bef576040517f08c379a0000000000000000000000000000000000000000000000000000000008152600401610be690611eea565b60405180910390fd5b60405180606001604052804281526020013481526020015f60075f3373ffffffffffffffffffffffffffffffffffffffff1673ffffffffffffffffffffffffffffffffffffffff1681526020019081526020015f206001015411610c53575f610ce0565b60075f3373ffffffffffffffffffffffffffffffffffffffff1673ffffffffffffffffffffffffffffffffffffffff1681526020019081526020015f206001015460075f3373ffffffffffffffffffffffffffffffffffffffff1673ffffffffffffffffffffffffffffffffffffffff1681526020019081526020015f2060020154610cdf9190611a6e565b5b81525060075f3373ffffffffffffffffffffffffffffffffffffffff1673ffffffffffffffffffffffffffffffffffffffff1681526020019081526020015f205f820151815f01556020820151816001015560408201518160020155905050346003819055503360045f6101000a81548173ffffffffffffffffffffffffffffffffffffffff021916908373ffffffffffffffffffffffffffffffffffffffff1602179055503373ffffffffffffffffffffffffffffffffffffffff167fdd0b6c6a77960e2066c96171b4d7ac9e8b4c184011f38544afa36a5bb63ec59f34604051610dcc9190611594565b60405180910390a2565b60055f9054906101000a900473ffffffffffffffffffffffffffffffffffffffff1673ffffffffffffffffffffffffffffffffffffffff163373ffffffffffffffffffffffffffffffffffffffff1614610e65576040517f08c379a0000000000000000000000000000000000000000000000000000000008152600401610e5c90611f52565b60405180910390fd5b600254421015610eaa576040517f08c379a0000000000000000000000000000000000000000000000000000000008152600401610ea1906118f9565b60405180910390fd5b62278d00600254610ebb9190611a6e565b4211610efc576040517f08c379a0000000000000000000000000000000000000000000000000000000008152600401610ef390611fe0565b60405180910390fd5b610f0461126f565b565b60055f9054906101000a900473ffffffffffffffffffffffffffffffffffffffff1673ffffffffffffffffffffffffffffffffffffffff163373ffffffffffffffffffffffffffffffffffffffff1614610f95576040517f08c379a0000000000000000000000000000000000000000000000000000000008152600401610f8c90611f52565b60405180910390fd5b600254421015610fda576040517f08c379a0000000000000000000000000000000000000000000000000000000008152600401610fd1906118f9565b60405180910390fd5b6001600560146101000a81548160ff0219169083600281111561100057610fff611750565b5b02179055507fb70b873adccc41a4fdc0b8fe6d3d21b4449270a44e8a431952703e2e654cbfdb60405161103290612048565b60405180910390a1565b5f60075f3373ffffffffffffffffffffffffffffffffffffffff1673ffffffffffffffffffffffffffffffffffffffff1681526020019081526020015f206002015490505f81116110c2576040517f08c379a00000000000000000000000000000000000000000000000000000000081526004016110b9906120d6565b60405180910390fd5b5f60075f3373ffffffffffffffffffffffffffffffffffffffff1673ffffffffffffffffffffffffffffffffffffffff1681526020019081526020015f20600201819055503373ffffffffffffffffffffffffffffffffffffffff166108fc8290811502906040515f60405180830381858888f1935050505015801561114a573d5f803e3d5ffd5b503373ffffffffffffffffffffffffffffffffffffffff167f884edad9ce6fa2440d8a54cc123490eb96d2768479d49ff9c7366125a9424364826040516111919190611594565b60405180910390a250565b5f805f60025442106111b6575f805f92509250925061121a565b5f426002546111c59190611cc3565b905062015180816111d69190611c93565b935062015180816111e791906120f4565b9050610e10816111f79190611c93565b9250610e108161120791906120f4565b9050603c816112169190611c93565b9150505b909192565b5f60075f3373ffffffffffffffffffffffffffffffffffffffff1673ffffffffffffffffffffffffffffffffffffffff1681526020019081526020015f2060020154905090565b5f600354905090565b6002544210156112b4576040517f08c379a00000000000000000000000000000000000000000000000000000000081526004016112ab906118f9565b60405180910390fd5b60055f9054906101000a900473ffffffffffffffffffffffffffffffffffffffff1673ffffffffffffffffffffffffffffffffffffffff163373ffffffffffffffffffffffffffffffffffffffff1614611343576040517f08c379a000000000000000000000000000000000000000000000000000000000815260040161133a90611f52565b60405180910390fd5b5f5b6006805490508110156114ec575f6006828154811061136757611366611a14565b5b905f5260205f20015f9054906101000a900473ffffffffffffffffffffffffffffffffffffffff1690505f60075f8373ffffffffffffffffffffffffffffffffffffffff1673ffffffffffffffffffffffffffffffffffffffff1681526020019081526020015f206001015490505f8111801561143157508173ffffffffffffffffffffffffffffffffffffffff1660045f9054906101000a900473ffffffffffffffffffffffffffffffffffffffff1673ffffffffffffffffffffffffffffffffffffffff1614155b156114dd575f60075f8473ffffffffffffffffffffffffffffffffffffffff1673ffffffffffffffffffffffffffffffffffffffff1681526020019081526020015f20600101819055505f606460628361148b9190611c25565b6114959190611c93565b90508273ffffffffffffffffffffffffffffffffffffffff166108fc8290811502906040515f60405180830381858888f193505050501580156114da573d5f803e3d5ffd5b50505b50508080600101915050611345565b507fb70b873adccc41a4fdc0b8fe6d3d21b4449270a44e8a431952703e2e654cbfdb60405161151a90612194565b60405180910390a1565b5f73ffffffffffffffffffffffffffffffffffffffff82169050919050565b5f61154d82611524565b9050919050565b61155d81611543565b82525050565b5f6020820190506115765f830184611554565b92915050565b5f819050919050565b61158e8161157c565b82525050565b5f6020820190506115a75f830184611585565b92915050565b5f81519050919050565b5f82825260208201905092915050565b5f819050602082019050919050565b6115df81611543565b82525050565b5f6115f083836115d6565b60208301905092915050565b5f602082019050919050565b5f611612826115ad565b61161c81856115b7565b9350611627836115c7565b805f5b8381101561165757815161163e88826115e5565b9750611649836115fc565b92505060018101905061162a565b5085935050505092915050565b5f81519050919050565b5f82825260208201905092915050565b5f819050602082019050919050565b6116968161157c565b82525050565b5f6116a7838361168d565b60208301905092915050565b5f602082019050919050565b5f6116c982611664565b6116d3818561166e565b93506116de8361167e565b805f5b8381101561170e5781516116f5888261169c565b9750611700836116b3565b9250506001810190506116e1565b5085935050505092915050565b5f6040820190508181035f8301526117338185611608565b9050818103602083015261174781846116bf565b90509392505050565b7f4e487b71000000000000000000000000000000000000000000000000000000005f52602160045260245ffd5b6003811061178e5761178d611750565b5b50565b5f81905061179e8261177d565b919050565b5f6117ad82611791565b9050919050565b6117bd816117a3565b82525050565b5f6020820190506117d65f8301846117b4565b92915050565b5f6060820190506117ef5f830186611585565b6117fc6020830185611585565b6118096040830184611585565b949350505050565b5f82825260208201905092915050565b7f4e6f2067616e6f206c612073756261737461206e6f20707565646520636c61695f8201527f6d65617220656c206974656d2073756261737461646f00000000000000000000602082015250565b5f61187b603683611811565b915061188682611821565b604082019050919050565b5f6020820190508181035f8301526118a88161186f565b9050919050565b7f4c61207375626173746120736967756520766967656e746500000000000000005f82015250565b5f6118e3601883611811565b91506118ee826118af565b602082019050919050565b5f6020820190508181035f830152611910816118d7565b9050919050565b7f4c612073756261737461206e6f2068612066696e616c697a61646f00000000005f82015250565b5f61194b601b83611811565b915061195682611917565b602082019050919050565b5f6020820190508181035f8301526119788161193f565b9050919050565b7f456c2067616e61646f72207265636c616d6f20656c206974656d0000000000005f82015250565b5f6119b3601a83611811565b91506119be8261197f565b602082019050919050565b5f6020820190508181035f8301526119e0816119a7565b9050919050565b7f4e487b71000000000000000000000000000000000000000000000000000000005f52604160045260245ffd5b7f4e487b71000000000000000000000000000000000000000000000000000000005f52603260045260245ffd5b7f4e487b71000000000000000000000000000000000000000000000000000000005f52601160045260245ffd5b5f611a788261157c565b9150611a838361157c565b9250828201905080821115611a9b57611a9a611a41565b5b92915050565b7f456c207469656d706f2064652072657469726f206d616e75616c2068612065785f8201527f70697261646f0000000000000000000000000000000000000000000000000000602082015250565b5f611afb602683611811565b9150611b0682611aa1565b604082019050919050565b5f6020820190508181035f830152611b2881611aef565b9050919050565b7f47616e6f206c612073756261737461206e6f20707565646520726574697261725f8201527f206c61206f666572746100000000000000000000000000000000000000000000602082015250565b5f611b89602a83611811565b9150611b9482611b2f565b604082019050919050565b5f6020820190508181035f830152611bb681611b7d565b9050919050565b7f4e6f207469656e6573206d6f6e746f20612072657469726172000000000000005f82015250565b5f611bf1601983611811565b9150611bfc82611bbd565b602082019050919050565b5f6020820190508181035f830152611c1e81611be5565b9050919050565b5f611c2f8261157c565b9150611c3a8361157c565b9250828202611c488161157c565b91508282048414831517611c5f57611c5e611a41565b5b5092915050565b7f4e487b71000000000000000000000000000000000000000000000000000000005f52601260045260245ffd5b5f611c9d8261157c565b9150611ca88361157c565b925082611cb857611cb7611c66565b5b828204905092915050565b5f611ccd8261157c565b9150611cd88361157c565b9250828203905081811115611cf057611cef611a41565b5b92915050565b7f4c612073756261737461206861207465726d696e61646f206f20736520656e635f8201527f75656e7472612070617573616461000000000000000000000000000000000000602082015250565b5f611d50602e83611811565b9150611d5b82611cf6565b604082019050919050565b5f6020820190508181035f830152611d7d81611d44565b9050919050565b7f456c2070726f706965746172696f206e6f207075656465206f666572746172205f8201527f656e2073752070726f7069612073756261737461000000000000000000000000602082015250565b5f611dde603483611811565b9150611de982611d84565b604082019050919050565b5f6020820190508181035f830152611e0b81611dd2565b9050919050565b7f5961207469656e6573206c61206f6665727461206d617320616c7461000000005f82015250565b5f611e46601c83611811565b9150611e5182611e12565b602082019050919050565b5f6020820190508181035f830152611e7381611e3a565b9050919050565b7f4c61206f6665727461206465626520736572207375706572696f7220616c206d5f8201527f656e6f7320656e20352500000000000000000000000000000000000000000000602082015250565b5f611ed4602a83611811565b9150611edf82611e7a565b604082019050919050565b5f6020820190508181035f830152611f0181611ec8565b9050919050565b7f5573746564206e6f207469656e65207065726d69736f730000000000000000005f82015250565b5f611f3c601783611811565b9150611f4782611f08565b602082019050919050565b5f6020820190508181035f830152611f6981611f30565b9050919050565b7f546f6461766961206573746120686162696c697461646f20656c2072657469725f8201527f6f206d616e75616c000000000000000000000000000000000000000000000000602082015250565b5f611fca602883611811565b9150611fd582611f70565b604082019050919050565b5f6020820190508181035f830152611ff781611fbe565b9050919050565b7f4c612073756261737461206861207465726d696e61646f0000000000000000005f82015250565b5f612032601783611811565b915061203d82611ffe565b602082019050919050565b5f6020820190508181035f83015261205f81612026565b9050919050565b7f4e6f207469656e6520737566696369656e74652073616c646f207061726120725f8201527f6574697261720000000000000000000000000000000000000000000000000000602082015250565b5f6120c0602683611811565b91506120cb82612066565b604082019050919050565b5f6020820190508181035f8301526120ed816120b4565b9050919050565b5f6120fe8261157c565b91506121098361157c565b92508261211957612118611c66565b5b828206905092915050565b7f4c612073756261737461207465726d696e6f2064657675656c766f20726574695f8201527f726f2073696e207265636c616d61722e00000000000000000000000000000000602082015250565b5f61217e603083611811565b915061218982612124565b604082019050919050565b5f6020820190508181035f8301526121ab81612172565b905091905056fea26469706673582212204f4203b12d1a4fd56b794139daf7fc4bd66ab3d129e606a5d39dc6b159a2736364736f6c634300081a0033",
					"opcodes": "PUSH1 0x80 PUSH1 0x40 MSTORE CALLVALUE DUP1 ISZERO PUSH2 0xF JUMPI PUSH0 DUP1 REVERT JUMPDEST POP PUSH5 0x2540BE400 PUSH0 DUP2 SWAP1 SSTORE POP TIMESTAMP PUSH1 0x1 DUP2 SWAP1 SSTORE POP PUSH3 0x93A80 PUSH1 0x1 SLOAD PUSH2 0x33 SWAP2 SWAP1 PUSH2 0xDE JUMP JUMPDEST PUSH1 0x2 DUP2 SWAP1 SSTORE POP CALLER PUSH1 0x5 PUSH0 PUSH2 0x100 EXP DUP2 SLOAD DUP2 PUSH20 0xFFFFFFFFFFFFFFFFFFFFFFFFFFFFFFFFFFFFFFFF MUL NOT AND SWAP1 DUP4 PUSH20 0xFFFFFFFFFFFFFFFFFFFFFFFFFFFFFFFFFFFFFFFF AND MUL OR SWAP1 SSTORE POP PUSH0 PUSH1 0x5 PUSH1 0x14 PUSH2 0x100 EXP DUP2 SLOAD DUP2 PUSH1 0xFF MUL NOT AND SWAP1 DUP4 PUSH1 0x2 DUP2 GT ISZERO PUSH2 0x9E JUMPI PUSH2 0x9D PUSH2 0x111 JUMP JUMPDEST JUMPDEST MUL OR SWAP1 SSTORE POP PUSH2 0x13E JUMP JUMPDEST PUSH0 DUP2 SWAP1 POP SWAP2 SWAP1 POP JUMP JUMPDEST PUSH32 0x4E487B7100000000000000000000000000000000000000000000000000000000 PUSH0 MSTORE PUSH1 0x11 PUSH1 0x4 MSTORE PUSH1 0x24 PUSH0 REVERT JUMPDEST PUSH0 PUSH2 0xE8 DUP3 PUSH2 0xA8 JUMP JUMPDEST SWAP2 POP PUSH2 0xF3 DUP4 PUSH2 0xA8 JUMP JUMPDEST SWAP3 POP DUP3 DUP3 ADD SWAP1 POP DUP1 DUP3 GT ISZERO PUSH2 0x10B JUMPI PUSH2 0x10A PUSH2 0xB1 JUMP JUMPDEST JUMPDEST SWAP3 SWAP2 POP POP JUMP JUMPDEST PUSH32 0x4E487B7100000000000000000000000000000000000000000000000000000000 PUSH0 MSTORE PUSH1 0x21 PUSH1 0x4 MSTORE PUSH1 0x24 PUSH0 REVERT JUMPDEST PUSH2 0x21E8 DUP1 PUSH2 0x14B PUSH0 CODECOPY PUSH0 RETURN INVALID PUSH1 0x80 PUSH1 0x40 MSTORE PUSH1 0x4 CALLDATASIZE LT PUSH2 0xDC JUMPI PUSH0 CALLDATALOAD PUSH1 0xE0 SHR DUP1 PUSH4 0x689567D5 GT PUSH2 0x7E JUMPI DUP1 PUSH4 0xC264A063 GT PUSH2 0x58 JUMPI DUP1 PUSH4 0xC264A063 EQ PUSH2 0x215 JUMPI DUP1 PUSH4 0xC7E284B8 EQ PUSH2 0x21F JUMPI DUP1 PUSH4 0xD54C564E EQ PUSH2 0x24B JUMPI DUP1 PUSH4 0xD95608E2 EQ PUSH2 0x275 JUMPI PUSH2 0xDC JUMP JUMPDEST DUP1 PUSH4 0x689567D5 EQ PUSH2 0x1DF JUMPI DUP1 PUSH4 0x961045DC EQ PUSH2 0x1E9 JUMPI DUP1 PUSH4 0xA0E92984 EQ PUSH2 0x1FF JUMPI PUSH2 0xDC JUMP JUMPDEST DUP1 PUSH4 0x534823BF GT PUSH2 0xBA JUMPI DUP1 PUSH4 0x534823BF EQ PUSH2 0x14A JUMPI DUP1 PUSH4 0x62E546F9 EQ PUSH2 0x175 JUMPI DUP1 PUSH4 0x6733430A EQ PUSH2 0x18B JUMPI DUP1 PUSH4 0x688E3467 EQ PUSH2 0x1B5 JUMPI PUSH2 0xDC JUMP JUMPDEST DUP1 PUSH4 0x5C414AD EQ PUSH2 0xE0 JUMPI DUP1 PUSH4 0x154D3126 EQ PUSH2 0x10A JUMPI DUP1 PUSH4 0x4F595BC5 EQ PUSH2 0x120 JUMPI JUMPDEST PUSH0 DUP1 REVERT JUMPDEST CALLVALUE DUP1 ISZERO PUSH2 0xEB JUMPI PUSH0 DUP1 REVERT JUMPDEST POP PUSH2 0xF4 PUSH2 0x29F JUMP JUMPDEST PUSH1 0x40 MLOAD PUSH2 0x101 SWAP2 SWAP1 PUSH2 0x1563 JUMP JUMPDEST PUSH1 0x40 MLOAD DUP1 SWAP2 SUB SWAP1 RETURN JUMPDEST CALLVALUE DUP1 ISZERO PUSH2 0x115 JUMPI PUSH0 DUP1 REVERT JUMPDEST POP PUSH2 0x11E PUSH2 0x2C4 JUMP JUMPDEST STOP JUMPDEST CALLVALUE DUP1 ISZERO PUSH2 0x12B JUMPI PUSH0 DUP1 REVERT JUMPDEST POP PUSH2 0x134 PUSH2 0x445 JUMP JUMPDEST PUSH1 0x40 MLOAD PUSH2 0x141 SWAP2 SWAP1 PUSH2 0x1594 JUMP JUMPDEST PUSH1 0x40 MLOAD DUP1 SWAP2 SUB SWAP1 RETURN JUMPDEST CALLVALUE DUP1 ISZERO PUSH2 0x155 JUMPI PUSH0 DUP1 REVERT JUMPDEST POP PUSH2 0x15E PUSH2 0x44B JUMP JUMPDEST PUSH1 0x40 MLOAD PUSH2 0x16C SWAP3 SWAP2 SWAP1 PUSH2 0x171B JUMP JUMPDEST PUSH1 0x40 MLOAD DUP1 SWAP2 SUB SWAP1 RETURN JUMPDEST CALLVALUE DUP1 ISZERO PUSH2 0x180 JUMPI PUSH0 DUP1 REVERT JUMPDEST POP PUSH2 0x189 PUSH2 0x607 JUMP JUMPDEST STOP JUMPDEST CALLVALUE DUP1 ISZERO PUSH2 0x196 JUMPI PUSH0 DUP1 REVERT JUMPDEST POP PUSH2 0x19F PUSH2 0x8AD JUMP JUMPDEST PUSH1 0x40 MLOAD PUSH2 0x1AC SWAP2 SWAP1 PUSH2 0x1563 JUMP JUMPDEST PUSH1 0x40 MLOAD DUP1 SWAP2 SUB SWAP1 RETURN JUMPDEST CALLVALUE DUP1 ISZERO PUSH2 0x1C0 JUMPI PUSH0 DUP1 REVERT JUMPDEST POP PUSH2 0x1C9 PUSH2 0x8D5 JUMP JUMPDEST PUSH1 0x40 MLOAD PUSH2 0x1D6 SWAP2 SWAP1 PUSH2 0x17C3 JUMP JUMPDEST PUSH1 0x40 MLOAD DUP1 SWAP2 SUB SWAP1 RETURN JUMPDEST PUSH2 0x1E7 PUSH2 0x8E8 JUMP JUMPDEST STOP JUMPDEST CALLVALUE DUP1 ISZERO PUSH2 0x1F4 JUMPI PUSH0 DUP1 REVERT JUMPDEST POP PUSH2 0x1FD PUSH2 0xDD6 JUMP JUMPDEST STOP JUMPDEST CALLVALUE DUP1 ISZERO PUSH2 0x20A JUMPI PUSH0 DUP1 REVERT JUMPDEST POP PUSH2 0x213 PUSH2 0xF06 JUMP JUMPDEST STOP JUMPDEST PUSH2 0x21D PUSH2 0x103C JUMP JUMPDEST STOP JUMPDEST CALLVALUE DUP1 ISZERO PUSH2 0x22A JUMPI PUSH0 DUP1 REVERT JUMPDEST POP PUSH2 0x233 PUSH2 0x119C JUMP JUMPDEST PUSH1 0x40 MLOAD PUSH2 0x242 SWAP4 SWAP3 SWAP2 SWAP1 PUSH2 0x17DC JUMP JUMPDEST PUSH1 0x40 MLOAD DUP1 SWAP2 SUB SWAP1 RETURN JUMPDEST CALLVALUE DUP1 ISZERO PUSH2 0x256 JUMPI PUSH0 DUP1 REVERT JUMPDEST POP PUSH2 0x25F PUSH2 0x121F JUMP JUMPDEST PUSH1 0x40 MLOAD PUSH2 0x26C SWAP2 SWAP1 PUSH2 0x1594 JUMP JUMPDEST PUSH1 0x40 MLOAD DUP1 SWAP2 SUB SWAP1 RETURN JUMPDEST CALLVALUE DUP1 ISZERO PUSH2 0x280 JUMPI PUSH0 DUP1 REVERT JUMPDEST POP PUSH2 0x289 PUSH2 0x1266 JUMP JUMPDEST PUSH1 0x40 MLOAD PUSH2 0x296 SWAP2 SWAP1 PUSH2 0x1594 JUMP JUMPDEST PUSH1 0x40 MLOAD DUP1 SWAP2 SUB SWAP1 RETURN JUMPDEST PUSH1 0x4 PUSH0 SWAP1 SLOAD SWAP1 PUSH2 0x100 EXP SWAP1 DIV PUSH20 0xFFFFFFFFFFFFFFFFFFFFFFFFFFFFFFFFFFFFFFFF AND DUP2 JUMP JUMPDEST PUSH1 0x4 PUSH0 SWAP1 SLOAD SWAP1 PUSH2 0x100 EXP SWAP1 DIV PUSH20 0xFFFFFFFFFFFFFFFFFFFFFFFFFFFFFFFFFFFFFFFF AND PUSH20 0xFFFFFFFFFFFFFFFFFFFFFFFFFFFFFFFFFFFFFFFF AND CALLER PUSH20 0xFFFFFFFFFFFFFFFFFFFFFFFFFFFFFFFFFFFFFFFF AND EQ PUSH2 0x353 JUMPI PUSH1 0x40 MLOAD PUSH32 0x8C379A000000000000000000000000000000000000000000000000000000000 DUP2 MSTORE PUSH1 0x4 ADD PUSH2 0x34A SWAP1 PUSH2 0x1891 JUMP JUMPDEST PUSH1 0x40 MLOAD DUP1 SWAP2 SUB SWAP1 REVERT JUMPDEST PUSH1 0x2 SLOAD TIMESTAMP LT ISZERO PUSH2 0x398 JUMPI PUSH1 0x40 MLOAD PUSH32 0x8C379A000000000000000000000000000000000000000000000000000000000 DUP2 MSTORE PUSH1 0x4 ADD PUSH2 0x38F SWAP1 PUSH2 0x18F9 JUMP JUMPDEST PUSH1 0x40 MLOAD DUP1 SWAP2 SUB SWAP1 REVERT JUMPDEST PUSH1 0x1 PUSH1 0x2 DUP2 GT ISZERO PUSH2 0x3AC JUMPI PUSH2 0x3AB PUSH2 0x1750 JUMP JUMPDEST JUMPDEST PUSH1 0x5 PUSH1 0x14 SWAP1 SLOAD SWAP1 PUSH2 0x100 EXP SWAP1 DIV PUSH1 0xFF AND PUSH1 0x2 DUP2 GT ISZERO PUSH2 0x3CE JUMPI PUSH2 0x3CD PUSH2 0x1750 JUMP JUMPDEST JUMPDEST EQ PUSH2 0x40E JUMPI PUSH1 0x40 MLOAD PUSH32 0x8C379A000000000000000000000000000000000000000000000000000000000 DUP2 MSTORE PUSH1 0x4 ADD PUSH2 0x405 SWAP1 PUSH2 0x1961 JUMP JUMPDEST PUSH1 0x40 MLOAD DUP1 SWAP2 SUB SWAP1 REVERT JUMPDEST PUSH32 0xB70B873ADCCC41A4FDC0B8FE6D3D21B4449270A44E8A431952703E2E654CBFDB PUSH1 0x40 MLOAD PUSH2 0x43B SWAP1 PUSH2 0x19C9 JUMP JUMPDEST PUSH1 0x40 MLOAD DUP1 SWAP2 SUB SWAP1 LOG1 JUMP JUMPDEST PUSH1 0x3 SLOAD DUP2 JUMP JUMPDEST PUSH1 0x60 DUP1 PUSH0 PUSH1 0x6 DUP1 SLOAD SWAP1 POP PUSH8 0xFFFFFFFFFFFFFFFF DUP2 GT ISZERO PUSH2 0x46E JUMPI PUSH2 0x46D PUSH2 0x19E7 JUMP JUMPDEST JUMPDEST PUSH1 0x40 MLOAD SWAP1 DUP1 DUP3 MSTORE DUP1 PUSH1 0x20 MUL PUSH1 0x20 ADD DUP3 ADD PUSH1 0x40 MSTORE DUP1 ISZERO PUSH2 0x49C JUMPI DUP2 PUSH1 0x20 ADD PUSH1 0x20 DUP3 MUL DUP1 CALLDATASIZE DUP4 CALLDATACOPY DUP1 DUP3 ADD SWAP2 POP POP SWAP1 POP JUMPDEST POP SWAP1 POP PUSH0 PUSH1 0x6 DUP1 SLOAD SWAP1 POP PUSH8 0xFFFFFFFFFFFFFFFF DUP2 GT ISZERO PUSH2 0x4BF JUMPI PUSH2 0x4BE PUSH2 0x19E7 JUMP JUMPDEST JUMPDEST PUSH1 0x40 MLOAD SWAP1 DUP1 DUP3 MSTORE DUP1 PUSH1 0x20 MUL PUSH1 0x20 ADD DUP3 ADD PUSH1 0x40 MSTORE DUP1 ISZERO PUSH2 0x4ED JUMPI DUP2 PUSH1 0x20 ADD PUSH1 0x20 DUP3 MUL DUP1 CALLDATASIZE DUP4 CALLDATACOPY DUP1 DUP3 ADD SWAP2 POP POP SWAP1 POP JUMPDEST POP SWAP1 POP PUSH0 JUMPDEST PUSH1 0x6 DUP1 SLOAD SWAP1 POP DUP2 LT ISZERO PUSH2 0x5FA JUMPI PUSH0 PUSH1 0x6 DUP3 DUP2 SLOAD DUP2 LT PUSH2 0x514 JUMPI PUSH2 0x513 PUSH2 0x1A14 JUMP JUMPDEST JUMPDEST SWAP1 PUSH0 MSTORE PUSH1 0x20 PUSH0 KECCAK256 ADD PUSH0 SWAP1 SLOAD SWAP1 PUSH2 0x100 EXP SWAP1 DIV PUSH20 0xFFFFFFFFFFFFFFFFFFFFFFFFFFFFFFFFFFFFFFFF AND SWAP1 POP DUP1 DUP5 DUP4 DUP2 MLOAD DUP2 LT PUSH2 0x552 JUMPI PUSH2 0x551 PUSH2 0x1A14 JUMP JUMPDEST JUMPDEST PUSH1 0x20 MUL PUSH1 0x20 ADD ADD SWAP1 PUSH20 0xFFFFFFFFFFFFFFFFFFFFFFFFFFFFFFFFFFFFFFFF AND SWAP1 DUP2 PUSH20 0xFFFFFFFFFFFFFFFFFFFFFFFFFFFFFFFFFFFFFFFF AND DUP2 MSTORE POP POP PUSH1 0x7 PUSH0 DUP3 PUSH20 0xFFFFFFFFFFFFFFFFFFFFFFFFFFFFFFFFFFFFFFFF AND PUSH20 0xFFFFFFFFFFFFFFFFFFFFFFFFFFFFFFFFFFFFFFFF AND DUP2 MSTORE PUSH1 0x20 ADD SWAP1 DUP2 MSTORE PUSH1 0x20 ADD PUSH0 KECCAK256 PUSH1 0x1 ADD SLOAD DUP4 DUP4 DUP2 MLOAD DUP2 LT PUSH2 0x5E0 JUMPI PUSH2 0x5DF PUSH2 0x1A14 JUMP JUMPDEST JUMPDEST PUSH1 0x20 MUL PUSH1 0x20 ADD ADD DUP2 DUP2 MSTORE POP POP POP DUP1 DUP1 PUSH1 0x1 ADD SWAP2 POP POP PUSH2 0x4F2 JUMP JUMPDEST POP DUP2 DUP2 SWAP4 POP SWAP4 POP POP POP SWAP1 SWAP2 JUMP JUMPDEST PUSH1 0x2 SLOAD TIMESTAMP LT ISZERO PUSH2 0x64C JUMPI PUSH1 0x40 MLOAD PUSH32 0x8C379A000000000000000000000000000000000000000000000000000000000 DUP2 MSTORE PUSH1 0x4 ADD PUSH2 0x643 SWAP1 PUSH2 0x18F9 JUMP JUMPDEST PUSH1 0x40 MLOAD DUP1 SWAP2 SUB SWAP1 REVERT JUMPDEST PUSH3 0x278D00 PUSH1 0x2 SLOAD PUSH2 0x65D SWAP2 SWAP1 PUSH2 0x1A6E JUMP JUMPDEST DUP1 TIMESTAMP GT ISZERO PUSH2 0x6A0 JUMPI PUSH1 0x40 MLOAD PUSH32 0x8C379A000000000000000000000000000000000000000000000000000000000 DUP2 MSTORE PUSH1 0x4 ADD PUSH2 0x697 SWAP1 PUSH2 0x1B11 JUMP JUMPDEST PUSH1 0x40 MLOAD DUP1 SWAP2 SUB SWAP1 REVERT JUMPDEST PUSH1 0x4 PUSH0 SWAP1 SLOAD SWAP1 PUSH2 0x100 EXP SWAP1 DIV PUSH20 0xFFFFFFFFFFFFFFFFFFFFFFFFFFFFFFFFFFFFFFFF AND PUSH20 0xFFFFFFFFFFFFFFFFFFFFFFFFFFFFFFFFFFFFFFFF AND CALLER PUSH20 0xFFFFFFFFFFFFFFFFFFFFFFFFFFFFFFFFFFFFFFFF AND SUB PUSH2 0x72F JUMPI PUSH1 0x40 MLOAD PUSH32 0x8C379A000000000000000000000000000000000000000000000000000000000 DUP2 MSTORE PUSH1 0x4 ADD PUSH2 0x726 SWAP1 PUSH2 0x1B9F JUMP JUMPDEST PUSH1 0x40 MLOAD DUP1 SWAP2 SUB SWAP1 REVERT JUMPDEST PUSH0 PUSH1 0x7 PUSH0 CALLER PUSH20 0xFFFFFFFFFFFFFFFFFFFFFFFFFFFFFFFFFFFFFFFF AND PUSH20 0xFFFFFFFFFFFFFFFFFFFFFFFFFFFFFFFFFFFFFFFF AND DUP2 MSTORE PUSH1 0x20 ADD SWAP1 DUP2 MSTORE PUSH1 0x20 ADD PUSH0 KECCAK256 PUSH1 0x1 ADD SLOAD SWAP1 POP PUSH0 DUP2 GT PUSH2 0x7B5 JUMPI PUSH1 0x40 MLOAD PUSH32 0x8C379A000000000000000000000000000000000000000000000000000000000 DUP2 MSTORE PUSH1 0x4 ADD PUSH2 0x7AC SWAP1 PUSH2 0x1C07 JUMP JUMPDEST PUSH1 0x40 MLOAD DUP1 SWAP2 SUB SWAP1 REVERT JUMPDEST PUSH0 PUSH1 0x7 PUSH0 CALLER PUSH20 0xFFFFFFFFFFFFFFFFFFFFFFFFFFFFFFFFFFFFFFFF AND PUSH20 0xFFFFFFFFFFFFFFFFFFFFFFFFFFFFFFFFFFFFFFFF AND DUP2 MSTORE PUSH1 0x20 ADD SWAP1 DUP2 MSTORE PUSH1 0x20 ADD PUSH0 KECCAK256 PUSH1 0x1 ADD DUP2 SWAP1 SSTORE POP PUSH0 PUSH1 0x64 PUSH1 0x62 DUP4 PUSH2 0x80A SWAP2 SWAP1 PUSH2 0x1C25 JUMP JUMPDEST PUSH2 0x814 SWAP2 SWAP1 PUSH2 0x1C93 JUMP JUMPDEST SWAP1 POP CALLER PUSH20 0xFFFFFFFFFFFFFFFFFFFFFFFFFFFFFFFFFFFFFFFF AND PUSH2 0x8FC DUP3 SWAP1 DUP2 ISZERO MUL SWAP1 PUSH1 0x40 MLOAD PUSH0 PUSH1 0x40 MLOAD DUP1 DUP4 SUB DUP2 DUP6 DUP9 DUP9 CALL SWAP4 POP POP POP POP ISZERO DUP1 ISZERO PUSH2 0x859 JUMPI RETURNDATASIZE PUSH0 DUP1 RETURNDATACOPY RETURNDATASIZE PUSH0 REVERT JUMPDEST POP CALLER PUSH20 0xFFFFFFFFFFFFFFFFFFFFFFFFFFFFFFFFFFFFFFFF AND PUSH32 0x884EDAD9CE6FA2440D8A54CC123490EB96D2768479D49FF9C7366125A9424364 DUP3 PUSH1 0x40 MLOAD PUSH2 0x8A0 SWAP2 SWAP1 PUSH2 0x1594 JUMP JUMPDEST PUSH1 0x40 MLOAD DUP1 SWAP2 SUB SWAP1 LOG2 POP POP POP JUMP JUMPDEST PUSH0 PUSH1 0x4 PUSH0 SWAP1 SLOAD SWAP1 PUSH2 0x100 EXP SWAP1 DIV PUSH20 0xFFFFFFFFFFFFFFFFFFFFFFFFFFFFFFFFFFFFFFFF AND SWAP1 POP SWAP1 JUMP JUMPDEST PUSH1 0x5 PUSH1 0x14 SWAP1 SLOAD SWAP1 PUSH2 0x100 EXP SWAP1 DIV PUSH1 0xFF AND DUP2 JUMP JUMPDEST PUSH2 0x258 PUSH1 0x2 SLOAD PUSH2 0x8F8 SWAP2 SWAP1 PUSH2 0x1CC3 JUMP JUMPDEST TIMESTAMP LT PUSH2 0x952 JUMPI PUSH2 0x258 PUSH1 0x2 PUSH0 DUP3 DUP3 SLOAD PUSH2 0x911 SWAP2 SWAP1 PUSH2 0x1A6E JUMP JUMPDEST SWAP3 POP POP DUP2 SWAP1 SSTORE POP PUSH32 0xC2B459809119087CA9D2BC10DEA53A51B7D848B1A11075DB037BDCA58292C3E8 PUSH1 0x2 SLOAD PUSH1 0x40 MLOAD PUSH2 0x949 SWAP2 SWAP1 PUSH2 0x1594 JUMP JUMPDEST PUSH1 0x40 MLOAD DUP1 SWAP2 SUB SWAP1 LOG1 JUMPDEST PUSH0 PUSH1 0x2 DUP2 GT ISZERO PUSH2 0x965 JUMPI PUSH2 0x964 PUSH2 0x1750 JUMP JUMPDEST JUMPDEST PUSH1 0x5 PUSH1 0x14 SWAP1 SLOAD SWAP1 PUSH2 0x100 EXP SWAP1 DIV PUSH1 0xFF AND PUSH1 0x2 DUP2 GT ISZERO PUSH2 0x987 JUMPI PUSH2 0x986 PUSH2 0x1750 JUMP JUMPDEST JUMPDEST EQ PUSH2 0x9C7 JUMPI PUSH1 0x40 MLOAD PUSH32 0x8C379A000000000000000000000000000000000000000000000000000000000 DUP2 MSTORE PUSH1 0x4 ADD PUSH2 0x9BE SWAP1 PUSH2 0x1D66 JUMP JUMPDEST PUSH1 0x40 MLOAD DUP1 SWAP2 SUB SWAP1 REVERT JUMPDEST PUSH1 0x5 PUSH0 SWAP1 SLOAD SWAP1 PUSH2 0x100 EXP SWAP1 DIV PUSH20 0xFFFFFFFFFFFFFFFFFFFFFFFFFFFFFFFFFFFFFFFF AND PUSH20 0xFFFFFFFFFFFFFFFFFFFFFFFFFFFFFFFFFFFFFFFF AND CALLER PUSH20 0xFFFFFFFFFFFFFFFFFFFFFFFFFFFFFFFFFFFFFFFF AND SUB PUSH2 0xA56 JUMPI PUSH1 0x40 MLOAD PUSH32 0x8C379A000000000000000000000000000000000000000000000000000000000 DUP2 MSTORE PUSH1 0x4 ADD PUSH2 0xA4D SWAP1 PUSH2 0x1DF4 JUMP JUMPDEST PUSH1 0x40 MLOAD DUP1 SWAP2 SUB SWAP1 REVERT JUMPDEST PUSH0 PUSH1 0x7 PUSH0 CALLER PUSH20 0xFFFFFFFFFFFFFFFFFFFFFFFFFFFFFFFFFFFFFFFF AND PUSH20 0xFFFFFFFFFFFFFFFFFFFFFFFFFFFFFFFFFFFFFFFF AND DUP2 MSTORE PUSH1 0x20 ADD SWAP1 DUP2 MSTORE PUSH1 0x20 ADD PUSH0 KECCAK256 PUSH1 0x1 ADD SLOAD SUB PUSH2 0xB02 JUMPI PUSH1 0x6 CALLER SWAP1 DUP1 PUSH1 0x1 DUP2 SLOAD ADD DUP1 DUP3 SSTORE DUP1 SWAP2 POP POP PUSH1 0x1 SWAP1 SUB SWAP1 PUSH0 MSTORE PUSH1 0x20 PUSH0 KECCAK256 ADD PUSH0 SWAP1 SWAP2 SWAP1 SWAP2 SWAP1 SWAP2 PUSH2 0x100 EXP DUP2 SLOAD DUP2 PUSH20 0xFFFFFFFFFFFFFFFFFFFFFFFFFFFFFFFFFFFFFFFF MUL NOT AND SWAP1 DUP4 PUSH20 0xFFFFFFFFFFFFFFFFFFFFFFFFFFFFFFFFFFFFFFFF AND MUL OR SWAP1 SSTORE POP PUSH2 0xB92 JUMP JUMPDEST PUSH1 0x4 PUSH0 SWAP1 SLOAD SWAP1 PUSH2 0x100 EXP SWAP1 DIV PUSH20 0xFFFFFFFFFFFFFFFFFFFFFFFFFFFFFFFFFFFFFFFF AND PUSH20 0xFFFFFFFFFFFFFFFFFFFFFFFFFFFFFFFFFFFFFFFF AND CALLER PUSH20 0xFFFFFFFFFFFFFFFFFFFFFFFFFFFFFFFFFFFFFFFF AND SUB PUSH2 0xB91 JUMPI PUSH1 0x40 MLOAD PUSH32 0x8C379A000000000000000000000000000000000000000000000000000000000 DUP2 MSTORE PUSH1 0x4 ADD PUSH2 0xB88 SWAP1 PUSH2 0x1E5C JUMP JUMPDEST PUSH1 0x40 MLOAD DUP1 SWAP2 SUB SWAP1 REVERT JUMPDEST JUMPDEST PUSH1 0x64 PUSH1 0x69 PUSH1 0x3 SLOAD PUSH2 0xBA3 SWAP2 SWAP1 PUSH2 0x1C25 JUMP JUMPDEST PUSH2 0xBAD SWAP2 SWAP1 PUSH2 0x1C93 JUMP JUMPDEST CALLVALUE LT ISZERO PUSH2 0xBEF JUMPI PUSH1 0x40 MLOAD PUSH32 0x8C379A000000000000000000000000000000000000000000000000000000000 DUP2 MSTORE PUSH1 0x4 ADD PUSH2 0xBE6 SWAP1 PUSH2 0x1EEA JUMP JUMPDEST PUSH1 0x40 MLOAD DUP1 SWAP2 SUB SWAP1 REVERT JUMPDEST PUSH1 0x40 MLOAD DUP1 PUSH1 0x60 ADD PUSH1 0x40 MSTORE DUP1 TIMESTAMP DUP2 MSTORE PUSH1 0x20 ADD CALLVALUE DUP2 MSTORE PUSH1 0x20 ADD PUSH0 PUSH1 0x7 PUSH0 CALLER PUSH20 0xFFFFFFFFFFFFFFFFFFFFFFFFFFFFFFFFFFFFFFFF AND PUSH20 0xFFFFFFFFFFFFFFFFFFFFFFFFFFFFFFFFFFFFFFFF AND DUP2 MSTORE PUSH1 0x20 ADD SWAP1 DUP2 MSTORE PUSH1 0x20 ADD PUSH0 KECCAK256 PUSH1 0x1 ADD SLOAD GT PUSH2 0xC53 JUMPI PUSH0 PUSH2 0xCE0 JUMP JUMPDEST PUSH1 0x7 PUSH0 CALLER PUSH20 0xFFFFFFFFFFFFFFFFFFFFFFFFFFFFFFFFFFFFFFFF AND PUSH20 0xFFFFFFFFFFFFFFFFFFFFFFFFFFFFFFFFFFFFFFFF AND DUP2 MSTORE PUSH1 0x20 ADD SWAP1 DUP2 MSTORE PUSH1 0x20 ADD PUSH0 KECCAK256 PUSH1 0x1 ADD SLOAD PUSH1 0x7 PUSH0 CALLER PUSH20 0xFFFFFFFFFFFFFFFFFFFFFFFFFFFFFFFFFFFFFFFF AND PUSH20 0xFFFFFFFFFFFFFFFFFFFFFFFFFFFFFFFFFFFFFFFF AND DUP2 MSTORE PUSH1 0x20 ADD SWAP1 DUP2 MSTORE PUSH1 0x20 ADD PUSH0 KECCAK256 PUSH1 0x2 ADD SLOAD PUSH2 0xCDF SWAP2 SWAP1 PUSH2 0x1A6E JUMP JUMPDEST JUMPDEST DUP2 MSTORE POP PUSH1 0x7 PUSH0 CALLER PUSH20 0xFFFFFFFFFFFFFFFFFFFFFFFFFFFFFFFFFFFFFFFF AND PUSH20 0xFFFFFFFFFFFFFFFFFFFFFFFFFFFFFFFFFFFFFFFF AND DUP2 MSTORE PUSH1 0x20 ADD SWAP1 DUP2 MSTORE PUSH1 0x20 ADD PUSH0 KECCAK256 PUSH0 DUP3 ADD MLOAD DUP2 PUSH0 ADD SSTORE PUSH1 0x20 DUP3 ADD MLOAD DUP2 PUSH1 0x1 ADD SSTORE PUSH1 0x40 DUP3 ADD MLOAD DUP2 PUSH1 0x2 ADD SSTORE SWAP1 POP POP CALLVALUE PUSH1 0x3 DUP2 SWAP1 SSTORE POP CALLER PUSH1 0x4 PUSH0 PUSH2 0x100 EXP DUP2 SLOAD DUP2 PUSH20 0xFFFFFFFFFFFFFFFFFFFFFFFFFFFFFFFFFFFFFFFF MUL NOT AND SWAP1 DUP4 PUSH20 0xFFFFFFFFFFFFFFFFFFFFFFFFFFFFFFFFFFFFFFFF AND MUL OR SWAP1 SSTORE POP CALLER PUSH20 0xFFFFFFFFFFFFFFFFFFFFFFFFFFFFFFFFFFFFFFFF AND PUSH32 0xDD0B6C6A77960E2066C96171B4D7AC9E8B4C184011F38544AFA36A5BB63EC59F CALLVALUE PUSH1 0x40 MLOAD PUSH2 0xDCC SWAP2 SWAP1 PUSH2 0x1594 JUMP JUMPDEST PUSH1 0x40 MLOAD DUP1 SWAP2 SUB SWAP1 LOG2 JUMP JUMPDEST PUSH1 0x5 PUSH0 SWAP1 SLOAD SWAP1 PUSH2 0x100 EXP SWAP1 DIV PUSH20 0xFFFFFFFFFFFFFFFFFFFFFFFFFFFFFFFFFFFFFFFF AND PUSH20 0xFFFFFFFFFFFFFFFFFFFFFFFFFFFFFFFFFFFFFFFF AND CALLER PUSH20 0xFFFFFFFFFFFFFFFFFFFFFFFFFFFFFFFFFFFFFFFF AND EQ PUSH2 0xE65 JUMPI PUSH1 0x40 MLOAD PUSH32 0x8C379A000000000000000000000000000000000000000000000000000000000 DUP2 MSTORE PUSH1 0x4 ADD PUSH2 0xE5C SWAP1 PUSH2 0x1F52 JUMP JUMPDEST PUSH1 0x40 MLOAD DUP1 SWAP2 SUB SWAP1 REVERT JUMPDEST PUSH1 0x2 SLOAD TIMESTAMP LT ISZERO PUSH2 0xEAA JUMPI PUSH1 0x40 MLOAD PUSH32 0x8C379A000000000000000000000000000000000000000000000000000000000 DUP2 MSTORE PUSH1 0x4 ADD PUSH2 0xEA1 SWAP1 PUSH2 0x18F9 JUMP JUMPDEST PUSH1 0x40 MLOAD DUP1 SWAP2 SUB SWAP1 REVERT JUMPDEST PUSH3 0x278D00 PUSH1 0x2 SLOAD PUSH2 0xEBB SWAP2 SWAP1 PUSH2 0x1A6E JUMP JUMPDEST TIMESTAMP GT PUSH2 0xEFC JUMPI PUSH1 0x40 MLOAD PUSH32 0x8C379A000000000000000000000000000000000000000000000000000000000 DUP2 MSTORE PUSH1 0x4 ADD PUSH2 0xEF3 SWAP1 PUSH2 0x1FE0 JUMP JUMPDEST PUSH1 0x40 MLOAD DUP1 SWAP2 SUB SWAP1 REVERT JUMPDEST PUSH2 0xF04 PUSH2 0x126F JUMP JUMPDEST JUMP JUMPDEST PUSH1 0x5 PUSH0 SWAP1 SLOAD SWAP1 PUSH2 0x100 EXP SWAP1 DIV PUSH20 0xFFFFFFFFFFFFFFFFFFFFFFFFFFFFFFFFFFFFFFFF AND PUSH20 0xFFFFFFFFFFFFFFFFFFFFFFFFFFFFFFFFFFFFFFFF AND CALLER PUSH20 0xFFFFFFFFFFFFFFFFFFFFFFFFFFFFFFFFFFFFFFFF AND EQ PUSH2 0xF95 JUMPI PUSH1 0x40 MLOAD PUSH32 0x8C379A000000000000000000000000000000000000000000000000000000000 DUP2 MSTORE PUSH1 0x4 ADD PUSH2 0xF8C SWAP1 PUSH2 0x1F52 JUMP JUMPDEST PUSH1 0x40 MLOAD DUP1 SWAP2 SUB SWAP1 REVERT JUMPDEST PUSH1 0x2 SLOAD TIMESTAMP LT ISZERO PUSH2 0xFDA JUMPI PUSH1 0x40 MLOAD PUSH32 0x8C379A000000000000000000000000000000000000000000000000000000000 DUP2 MSTORE PUSH1 0x4 ADD PUSH2 0xFD1 SWAP1 PUSH2 0x18F9 JUMP JUMPDEST PUSH1 0x40 MLOAD DUP1 SWAP2 SUB SWAP1 REVERT JUMPDEST PUSH1 0x1 PUSH1 0x5 PUSH1 0x14 PUSH2 0x100 EXP DUP2 SLOAD DUP2 PUSH1 0xFF MUL NOT AND SWAP1 DUP4 PUSH1 0x2 DUP2 GT ISZERO PUSH2 0x1000 JUMPI PUSH2 0xFFF PUSH2 0x1750 JUMP JUMPDEST JUMPDEST MUL OR SWAP1 SSTORE POP PUSH32 0xB70B873ADCCC41A4FDC0B8FE6D3D21B4449270A44E8A431952703E2E654CBFDB PUSH1 0x40 MLOAD PUSH2 0x1032 SWAP1 PUSH2 0x2048 JUMP JUMPDEST PUSH1 0x40 MLOAD DUP1 SWAP2 SUB SWAP1 LOG1 JUMP JUMPDEST PUSH0 PUSH1 0x7 PUSH0 CALLER PUSH20 0xFFFFFFFFFFFFFFFFFFFFFFFFFFFFFFFFFFFFFFFF AND PUSH20 0xFFFFFFFFFFFFFFFFFFFFFFFFFFFFFFFFFFFFFFFF AND DUP2 MSTORE PUSH1 0x20 ADD SWAP1 DUP2 MSTORE PUSH1 0x20 ADD PUSH0 KECCAK256 PUSH1 0x2 ADD SLOAD SWAP1 POP PUSH0 DUP2 GT PUSH2 0x10C2 JUMPI PUSH1 0x40 MLOAD PUSH32 0x8C379A000000000000000000000000000000000000000000000000000000000 DUP2 MSTORE PUSH1 0x4 ADD PUSH2 0x10B9 SWAP1 PUSH2 0x20D6 JUMP JUMPDEST PUSH1 0x40 MLOAD DUP1 SWAP2 SUB SWAP1 REVERT JUMPDEST PUSH0 PUSH1 0x7 PUSH0 CALLER PUSH20 0xFFFFFFFFFFFFFFFFFFFFFFFFFFFFFFFFFFFFFFFF AND PUSH20 0xFFFFFFFFFFFFFFFFFFFFFFFFFFFFFFFFFFFFFFFF AND DUP2 MSTORE PUSH1 0x20 ADD SWAP1 DUP2 MSTORE PUSH1 0x20 ADD PUSH0 KECCAK256 PUSH1 0x2 ADD DUP2 SWAP1 SSTORE POP CALLER PUSH20 0xFFFFFFFFFFFFFFFFFFFFFFFFFFFFFFFFFFFFFFFF AND PUSH2 0x8FC DUP3 SWAP1 DUP2 ISZERO MUL SWAP1 PUSH1 0x40 MLOAD PUSH0 PUSH1 0x40 MLOAD DUP1 DUP4 SUB DUP2 DUP6 DUP9 DUP9 CALL SWAP4 POP POP POP POP ISZERO DUP1 ISZERO PUSH2 0x114A JUMPI RETURNDATASIZE PUSH0 DUP1 RETURNDATACOPY RETURNDATASIZE PUSH0 REVERT JUMPDEST POP CALLER PUSH20 0xFFFFFFFFFFFFFFFFFFFFFFFFFFFFFFFFFFFFFFFF AND PUSH32 0x884EDAD9CE6FA2440D8A54CC123490EB96D2768479D49FF9C7366125A9424364 DUP3 PUSH1 0x40 MLOAD PUSH2 0x1191 SWAP2 SWAP1 PUSH2 0x1594 JUMP JUMPDEST PUSH1 0x40 MLOAD DUP1 SWAP2 SUB SWAP1 LOG2 POP JUMP JUMPDEST PUSH0 DUP1 PUSH0 PUSH1 0x2 SLOAD TIMESTAMP LT PUSH2 0x11B6 JUMPI PUSH0 DUP1 PUSH0 SWAP3 POP SWAP3 POP SWAP3 POP PUSH2 0x121A JUMP JUMPDEST PUSH0 TIMESTAMP PUSH1 0x2 SLOAD PUSH2 0x11C5 SWAP2 SWAP1 PUSH2 0x1CC3 JUMP JUMPDEST SWAP1 POP PUSH3 0x15180 DUP2 PUSH2 0x11D6 SWAP2 SWAP1 PUSH2 0x1C93 JUMP JUMPDEST SWAP4 POP PUSH3 0x15180 DUP2 PUSH2 0x11E7 SWAP2 SWAP1 PUSH2 0x20F4 JUMP JUMPDEST SWAP1 POP PUSH2 0xE10 DUP2 PUSH2 0x11F7 SWAP2 SWAP1 PUSH2 0x1C93 JUMP JUMPDEST SWAP3 POP PUSH2 0xE10 DUP2 PUSH2 0x1207 SWAP2 SWAP1 PUSH2 0x20F4 JUMP JUMPDEST SWAP1 POP PUSH1 0x3C DUP2 PUSH2 0x1216 SWAP2 SWAP1 PUSH2 0x1C93 JUMP JUMPDEST SWAP2 POP POP JUMPDEST SWAP1 SWAP2 SWAP3 JUMP JUMPDEST PUSH0 PUSH1 0x7 PUSH0 CALLER PUSH20 0xFFFFFFFFFFFFFFFFFFFFFFFFFFFFFFFFFFFFFFFF AND PUSH20 0xFFFFFFFFFFFFFFFFFFFFFFFFFFFFFFFFFFFFFFFF AND DUP2 MSTORE PUSH1 0x20 ADD SWAP1 DUP2 MSTORE PUSH1 0x20 ADD PUSH0 KECCAK256 PUSH1 0x2 ADD SLOAD SWAP1 POP SWAP1 JUMP JUMPDEST PUSH0 PUSH1 0x3 SLOAD SWAP1 POP SWAP1 JUMP JUMPDEST PUSH1 0x2 SLOAD TIMESTAMP LT ISZERO PUSH2 0x12B4 JUMPI PUSH1 0x40 MLOAD PUSH32 0x8C379A000000000000000000000000000000000000000000000000000000000 DUP2 MSTORE PUSH1 0x4 ADD PUSH2 0x12AB SWAP1 PUSH2 0x18F9 JUMP JUMPDEST PUSH1 0x40 MLOAD DUP1 SWAP2 SUB SWAP1 REVERT JUMPDEST PUSH1 0x5 PUSH0 SWAP1 SLOAD SWAP1 PUSH2 0x100 EXP SWAP1 DIV PUSH20 0xFFFFFFFFFFFFFFFFFFFFFFFFFFFFFFFFFFFFFFFF AND PUSH20 0xFFFFFFFFFFFFFFFFFFFFFFFFFFFFFFFFFFFFFFFF AND CALLER PUSH20 0xFFFFFFFFFFFFFFFFFFFFFFFFFFFFFFFFFFFFFFFF AND EQ PUSH2 0x1343 JUMPI PUSH1 0x40 MLOAD PUSH32 0x8C379A000000000000000000000000000000000000000000000000000000000 DUP2 MSTORE PUSH1 0x4 ADD PUSH2 0x133A SWAP1 PUSH2 0x1F52 JUMP JUMPDEST PUSH1 0x40 MLOAD DUP1 SWAP2 SUB SWAP1 REVERT JUMPDEST PUSH0 JUMPDEST PUSH1 0x6 DUP1 SLOAD SWAP1 POP DUP2 LT ISZERO PUSH2 0x14EC JUMPI PUSH0 PUSH1 0x6 DUP3 DUP2 SLOAD DUP2 LT PUSH2 0x1367 JUMPI PUSH2 0x1366 PUSH2 0x1A14 JUMP JUMPDEST JUMPDEST SWAP1 PUSH0 MSTORE PUSH1 0x20 PUSH0 KECCAK256 ADD PUSH0 SWAP1 SLOAD SWAP1 PUSH2 0x100 EXP SWAP1 DIV PUSH20 0xFFFFFFFFFFFFFFFFFFFFFFFFFFFFFFFFFFFFFFFF AND SWAP1 POP PUSH0 PUSH1 0x7 PUSH0 DUP4 PUSH20 0xFFFFFFFFFFFFFFFFFFFFFFFFFFFFFFFFFFFFFFFF AND PUSH20 0xFFFFFFFFFFFFFFFFFFFFFFFFFFFFFFFFFFFFFFFF AND DUP2 MSTORE PUSH1 0x20 ADD SWAP1 DUP2 MSTORE PUSH1 0x20 ADD PUSH0 KECCAK256 PUSH1 0x1 ADD SLOAD SWAP1 POP PUSH0 DUP2 GT DUP1 ISZERO PUSH2 0x1431 JUMPI POP DUP2 PUSH20 0xFFFFFFFFFFFFFFFFFFFFFFFFFFFFFFFFFFFFFFFF AND PUSH1 0x4 PUSH0 SWAP1 SLOAD SWAP1 PUSH2 0x100 EXP SWAP1 DIV PUSH20 0xFFFFFFFFFFFFFFFFFFFFFFFFFFFFFFFFFFFFFFFF AND PUSH20 0xFFFFFFFFFFFFFFFFFFFFFFFFFFFFFFFFFFFFFFFF AND EQ ISZERO JUMPDEST ISZERO PUSH2 0x14DD JUMPI PUSH0 PUSH1 0x7 PUSH0 DUP5 PUSH20 0xFFFFFFFFFFFFFFFFFFFFFFFFFFFFFFFFFFFFFFFF AND PUSH20 0xFFFFFFFFFFFFFFFFFFFFFFFFFFFFFFFFFFFFFFFF AND DUP2 MSTORE PUSH1 0x20 ADD SWAP1 DUP2 MSTORE PUSH1 0x20 ADD PUSH0 KECCAK256 PUSH1 0x1 ADD DUP2 SWAP1 SSTORE POP PUSH0 PUSH1 0x64 PUSH1 0x62 DUP4 PUSH2 0x148B SWAP2 SWAP1 PUSH2 0x1C25 JUMP JUMPDEST PUSH2 0x1495 SWAP2 SWAP1 PUSH2 0x1C93 JUMP JUMPDEST SWAP1 POP DUP3 PUSH20 0xFFFFFFFFFFFFFFFFFFFFFFFFFFFFFFFFFFFFFFFF AND PUSH2 0x8FC DUP3 SWAP1 DUP2 ISZERO MUL SWAP1 PUSH1 0x40 MLOAD PUSH0 PUSH1 0x40 MLOAD DUP1 DUP4 SUB DUP2 DUP6 DUP9 DUP9 CALL SWAP4 POP POP POP POP ISZERO DUP1 ISZERO PUSH2 0x14DA JUMPI RETURNDATASIZE PUSH0 DUP1 RETURNDATACOPY RETURNDATASIZE PUSH0 REVERT JUMPDEST POP POP JUMPDEST POP POP DUP1 DUP1 PUSH1 0x1 ADD SWAP2 POP POP PUSH2 0x1345 JUMP JUMPDEST POP PUSH32 0xB70B873ADCCC41A4FDC0B8FE6D3D21B4449270A44E8A431952703E2E654CBFDB PUSH1 0x40 MLOAD PUSH2 0x151A SWAP1 PUSH2 0x2194 JUMP JUMPDEST PUSH1 0x40 MLOAD DUP1 SWAP2 SUB SWAP1 LOG1 JUMP JUMPDEST PUSH0 PUSH20 0xFFFFFFFFFFFFFFFFFFFFFFFFFFFFFFFFFFFFFFFF DUP3 AND SWAP1 POP SWAP2 SWAP1 POP JUMP JUMPDEST PUSH0 PUSH2 0x154D DUP3 PUSH2 0x1524 JUMP JUMPDEST SWAP1 POP SWAP2 SWAP1 POP JUMP JUMPDEST PUSH2 0x155D DUP2 PUSH2 0x1543 JUMP JUMPDEST DUP3 MSTORE POP POP JUMP JUMPDEST PUSH0 PUSH1 0x20 DUP3 ADD SWAP1 POP PUSH2 0x1576 PUSH0 DUP4 ADD DUP5 PUSH2 0x1554 JUMP JUMPDEST SWAP3 SWAP2 POP POP JUMP JUMPDEST PUSH0 DUP2 SWAP1 POP SWAP2 SWAP1 POP JUMP JUMPDEST PUSH2 0x158E DUP2 PUSH2 0x157C JUMP JUMPDEST DUP3 MSTORE POP POP JUMP JUMPDEST PUSH0 PUSH1 0x20 DUP3 ADD SWAP1 POP PUSH2 0x15A7 PUSH0 DUP4 ADD DUP5 PUSH2 0x1585 JUMP JUMPDEST SWAP3 SWAP2 POP POP JUMP JUMPDEST PUSH0 DUP2 MLOAD SWAP1 POP SWAP2 SWAP1 POP JUMP JUMPDEST PUSH0 DUP3 DUP3 MSTORE PUSH1 0x20 DUP3 ADD SWAP1 POP SWAP3 SWAP2 POP POP JUMP JUMPDEST PUSH0 DUP2 SWAP1 POP PUSH1 0x20 DUP3 ADD SWAP1 POP SWAP2 SWAP1 POP JUMP JUMPDEST PUSH2 0x15DF DUP2 PUSH2 0x1543 JUMP JUMPDEST DUP3 MSTORE POP POP JUMP JUMPDEST PUSH0 PUSH2 0x15F0 DUP4 DUP4 PUSH2 0x15D6 JUMP JUMPDEST PUSH1 0x20 DUP4 ADD SWAP1 POP SWAP3 SWAP2 POP POP JUMP JUMPDEST PUSH0 PUSH1 0x20 DUP3 ADD SWAP1 POP SWAP2 SWAP1 POP JUMP JUMPDEST PUSH0 PUSH2 0x1612 DUP3 PUSH2 0x15AD JUMP JUMPDEST PUSH2 0x161C DUP2 DUP6 PUSH2 0x15B7 JUMP JUMPDEST SWAP4 POP PUSH2 0x1627 DUP4 PUSH2 0x15C7 JUMP JUMPDEST DUP1 PUSH0 JUMPDEST DUP4 DUP2 LT ISZERO PUSH2 0x1657 JUMPI DUP2 MLOAD PUSH2 0x163E DUP9 DUP3 PUSH2 0x15E5 JUMP JUMPDEST SWAP8 POP PUSH2 0x1649 DUP4 PUSH2 0x15FC JUMP JUMPDEST SWAP3 POP POP PUSH1 0x1 DUP2 ADD SWAP1 POP PUSH2 0x162A JUMP JUMPDEST POP DUP6 SWAP4 POP POP POP POP SWAP3 SWAP2 POP POP JUMP JUMPDEST PUSH0 DUP2 MLOAD SWAP1 POP SWAP2 SWAP1 POP JUMP JUMPDEST PUSH0 DUP3 DUP3 MSTORE PUSH1 0x20 DUP3 ADD SWAP1 POP SWAP3 SWAP2 POP POP JUMP JUMPDEST PUSH0 DUP2 SWAP1 POP PUSH1 0x20 DUP3 ADD SWAP1 POP SWAP2 SWAP1 POP JUMP JUMPDEST PUSH2 0x1696 DUP2 PUSH2 0x157C JUMP JUMPDEST DUP3 MSTORE POP POP JUMP JUMPDEST PUSH0 PUSH2 0x16A7 DUP4 DUP4 PUSH2 0x168D JUMP JUMPDEST PUSH1 0x20 DUP4 ADD SWAP1 POP SWAP3 SWAP2 POP POP JUMP JUMPDEST PUSH0 PUSH1 0x20 DUP3 ADD SWAP1 POP SWAP2 SWAP1 POP JUMP JUMPDEST PUSH0 PUSH2 0x16C9 DUP3 PUSH2 0x1664 JUMP JUMPDEST PUSH2 0x16D3 DUP2 DUP6 PUSH2 0x166E JUMP JUMPDEST SWAP4 POP PUSH2 0x16DE DUP4 PUSH2 0x167E JUMP JUMPDEST DUP1 PUSH0 JUMPDEST DUP4 DUP2 LT ISZERO PUSH2 0x170E JUMPI DUP2 MLOAD PUSH2 0x16F5 DUP9 DUP3 PUSH2 0x169C JUMP JUMPDEST SWAP8 POP PUSH2 0x1700 DUP4 PUSH2 0x16B3 JUMP JUMPDEST SWAP3 POP POP PUSH1 0x1 DUP2 ADD SWAP1 POP PUSH2 0x16E1 JUMP JUMPDEST POP DUP6 SWAP4 POP POP POP POP SWAP3 SWAP2 POP POP JUMP JUMPDEST PUSH0 PUSH1 0x40 DUP3 ADD SWAP1 POP DUP2 DUP2 SUB PUSH0 DUP4 ADD MSTORE PUSH2 0x1733 DUP2 DUP6 PUSH2 0x1608 JUMP JUMPDEST SWAP1 POP DUP2 DUP2 SUB PUSH1 0x20 DUP4 ADD MSTORE PUSH2 0x1747 DUP2 DUP5 PUSH2 0x16BF JUMP JUMPDEST SWAP1 POP SWAP4 SWAP3 POP POP POP JUMP JUMPDEST PUSH32 0x4E487B7100000000000000000000000000000000000000000000000000000000 PUSH0 MSTORE PUSH1 0x21 PUSH1 0x4 MSTORE PUSH1 0x24 PUSH0 REVERT JUMPDEST PUSH1 0x3 DUP2 LT PUSH2 0x178E JUMPI PUSH2 0x178D PUSH2 0x1750 JUMP JUMPDEST JUMPDEST POP JUMP JUMPDEST PUSH0 DUP2 SWAP1 POP PUSH2 0x179E DUP3 PUSH2 0x177D JUMP JUMPDEST SWAP2 SWAP1 POP JUMP JUMPDEST PUSH0 PUSH2 0x17AD DUP3 PUSH2 0x1791 JUMP JUMPDEST SWAP1 POP SWAP2 SWAP1 POP JUMP JUMPDEST PUSH2 0x17BD DUP2 PUSH2 0x17A3 JUMP JUMPDEST DUP3 MSTORE POP POP JUMP JUMPDEST PUSH0 PUSH1 0x20 DUP3 ADD SWAP1 POP PUSH2 0x17D6 PUSH0 DUP4 ADD DUP5 PUSH2 0x17B4 JUMP JUMPDEST SWAP3 SWAP2 POP POP JUMP JUMPDEST PUSH0 PUSH1 0x60 DUP3 ADD SWAP1 POP PUSH2 0x17EF PUSH0 DUP4 ADD DUP7 PUSH2 0x1585 JUMP JUMPDEST PUSH2 0x17FC PUSH1 0x20 DUP4 ADD DUP6 PUSH2 0x1585 JUMP JUMPDEST PUSH2 0x1809 PUSH1 0x40 DUP4 ADD DUP5 PUSH2 0x1585 JUMP JUMPDEST SWAP5 SWAP4 POP POP POP POP JUMP JUMPDEST PUSH0 DUP3 DUP3 MSTORE PUSH1 0x20 DUP3 ADD SWAP1 POP SWAP3 SWAP2 POP POP JUMP JUMPDEST PUSH32 0x4E6F2067616E6F206C612073756261737461206E6F20707565646520636C6169 PUSH0 DUP3 ADD MSTORE PUSH32 0x6D65617220656C206974656D2073756261737461646F00000000000000000000 PUSH1 0x20 DUP3 ADD MSTORE POP JUMP JUMPDEST PUSH0 PUSH2 0x187B PUSH1 0x36 DUP4 PUSH2 0x1811 JUMP JUMPDEST SWAP2 POP PUSH2 0x1886 DUP3 PUSH2 0x1821 JUMP JUMPDEST PUSH1 0x40 DUP3 ADD SWAP1 POP SWAP2 SWAP1 POP JUMP JUMPDEST PUSH0 PUSH1 0x20 DUP3 ADD SWAP1 POP DUP2 DUP2 SUB PUSH0 DUP4 ADD MSTORE PUSH2 0x18A8 DUP2 PUSH2 0x186F JUMP JUMPDEST SWAP1 POP SWAP2 SWAP1 POP JUMP JUMPDEST PUSH32 0x4C61207375626173746120736967756520766967656E74650000000000000000 PUSH0 DUP3 ADD MSTORE POP JUMP JUMPDEST PUSH0 PUSH2 0x18E3 PUSH1 0x18 DUP4 PUSH2 0x1811 JUMP JUMPDEST SWAP2 POP PUSH2 0x18EE DUP3 PUSH2 0x18AF JUMP JUMPDEST PUSH1 0x20 DUP3 ADD SWAP1 POP SWAP2 SWAP1 POP JUMP JUMPDEST PUSH0 PUSH1 0x20 DUP3 ADD SWAP1 POP DUP2 DUP2 SUB PUSH0 DUP4 ADD MSTORE PUSH2 0x1910 DUP2 PUSH2 0x18D7 JUMP JUMPDEST SWAP1 POP SWAP2 SWAP1 POP JUMP JUMPDEST PUSH32 0x4C612073756261737461206E6F2068612066696E616C697A61646F0000000000 PUSH0 DUP3 ADD MSTORE POP JUMP JUMPDEST PUSH0 PUSH2 0x194B PUSH1 0x1B DUP4 PUSH2 0x1811 JUMP JUMPDEST SWAP2 POP PUSH2 0x1956 DUP3 PUSH2 0x1917 JUMP JUMPDEST PUSH1 0x20 DUP3 ADD SWAP1 POP SWAP2 SWAP1 POP JUMP JUMPDEST PUSH0 PUSH1 0x20 DUP3 ADD SWAP1 POP DUP2 DUP2 SUB PUSH0 DUP4 ADD MSTORE PUSH2 0x1978 DUP2 PUSH2 0x193F JUMP JUMPDEST SWAP1 POP SWAP2 SWAP1 POP JUMP JUMPDEST PUSH32 0x456C2067616E61646F72207265636C616D6F20656C206974656D000000000000 PUSH0 DUP3 ADD MSTORE POP JUMP JUMPDEST PUSH0 PUSH2 0x19B3 PUSH1 0x1A DUP4 PUSH2 0x1811 JUMP JUMPDEST SWAP2 POP PUSH2 0x19BE DUP3 PUSH2 0x197F JUMP JUMPDEST PUSH1 0x20 DUP3 ADD SWAP1 POP SWAP2 SWAP1 POP JUMP JUMPDEST PUSH0 PUSH1 0x20 DUP3 ADD SWAP1 POP DUP2 DUP2 SUB PUSH0 DUP4 ADD MSTORE PUSH2 0x19E0 DUP2 PUSH2 0x19A7 JUMP JUMPDEST SWAP1 POP SWAP2 SWAP1 POP JUMP JUMPDEST PUSH32 0x4E487B7100000000000000000000000000000000000000000000000000000000 PUSH0 MSTORE PUSH1 0x41 PUSH1 0x4 MSTORE PUSH1 0x24 PUSH0 REVERT JUMPDEST PUSH32 0x4E487B7100000000000000000000000000000000000000000000000000000000 PUSH0 MSTORE PUSH1 0x32 PUSH1 0x4 MSTORE PUSH1 0x24 PUSH0 REVERT JUMPDEST PUSH32 0x4E487B7100000000000000000000000000000000000000000000000000000000 PUSH0 MSTORE PUSH1 0x11 PUSH1 0x4 MSTORE PUSH1 0x24 PUSH0 REVERT JUMPDEST PUSH0 PUSH2 0x1A78 DUP3 PUSH2 0x157C JUMP JUMPDEST SWAP2 POP PUSH2 0x1A83 DUP4 PUSH2 0x157C JUMP JUMPDEST SWAP3 POP DUP3 DUP3 ADD SWAP1 POP DUP1 DUP3 GT ISZERO PUSH2 0x1A9B JUMPI PUSH2 0x1A9A PUSH2 0x1A41 JUMP JUMPDEST JUMPDEST SWAP3 SWAP2 POP POP JUMP JUMPDEST PUSH32 0x456C207469656D706F2064652072657469726F206D616E75616C206861206578 PUSH0 DUP3 ADD MSTORE PUSH32 0x70697261646F0000000000000000000000000000000000000000000000000000 PUSH1 0x20 DUP3 ADD MSTORE POP JUMP JUMPDEST PUSH0 PUSH2 0x1AFB PUSH1 0x26 DUP4 PUSH2 0x1811 JUMP JUMPDEST SWAP2 POP PUSH2 0x1B06 DUP3 PUSH2 0x1AA1 JUMP JUMPDEST PUSH1 0x40 DUP3 ADD SWAP1 POP SWAP2 SWAP1 POP JUMP JUMPDEST PUSH0 PUSH1 0x20 DUP3 ADD SWAP1 POP DUP2 DUP2 SUB PUSH0 DUP4 ADD MSTORE PUSH2 0x1B28 DUP2 PUSH2 0x1AEF JUMP JUMPDEST SWAP1 POP SWAP2 SWAP1 POP JUMP JUMPDEST PUSH32 0x47616E6F206C612073756261737461206E6F2070756564652072657469726172 PUSH0 DUP3 ADD MSTORE PUSH32 0x206C61206F666572746100000000000000000000000000000000000000000000 PUSH1 0x20 DUP3 ADD MSTORE POP JUMP JUMPDEST PUSH0 PUSH2 0x1B89 PUSH1 0x2A DUP4 PUSH2 0x1811 JUMP JUMPDEST SWAP2 POP PUSH2 0x1B94 DUP3 PUSH2 0x1B2F JUMP JUMPDEST PUSH1 0x40 DUP3 ADD SWAP1 POP SWAP2 SWAP1 POP JUMP JUMPDEST PUSH0 PUSH1 0x20 DUP3 ADD SWAP1 POP DUP2 DUP2 SUB PUSH0 DUP4 ADD MSTORE PUSH2 0x1BB6 DUP2 PUSH2 0x1B7D JUMP JUMPDEST SWAP1 POP SWAP2 SWAP1 POP JUMP JUMPDEST PUSH32 0x4E6F207469656E6573206D6F6E746F2061207265746972617200000000000000 PUSH0 DUP3 ADD MSTORE POP JUMP JUMPDEST PUSH0 PUSH2 0x1BF1 PUSH1 0x19 DUP4 PUSH2 0x1811 JUMP JUMPDEST SWAP2 POP PUSH2 0x1BFC DUP3 PUSH2 0x1BBD JUMP JUMPDEST PUSH1 0x20 DUP3 ADD SWAP1 POP SWAP2 SWAP1 POP JUMP JUMPDEST PUSH0 PUSH1 0x20 DUP3 ADD SWAP1 POP DUP2 DUP2 SUB PUSH0 DUP4 ADD MSTORE PUSH2 0x1C1E DUP2 PUSH2 0x1BE5 JUMP JUMPDEST SWAP1 POP SWAP2 SWAP1 POP JUMP JUMPDEST PUSH0 PUSH2 0x1C2F DUP3 PUSH2 0x157C JUMP JUMPDEST SWAP2 POP PUSH2 0x1C3A DUP4 PUSH2 0x157C JUMP JUMPDEST SWAP3 POP DUP3 DUP3 MUL PUSH2 0x1C48 DUP2 PUSH2 0x157C JUMP JUMPDEST SWAP2 POP DUP3 DUP3 DIV DUP5 EQ DUP4 ISZERO OR PUSH2 0x1C5F JUMPI PUSH2 0x1C5E PUSH2 0x1A41 JUMP JUMPDEST JUMPDEST POP SWAP3 SWAP2 POP POP JUMP JUMPDEST PUSH32 0x4E487B7100000000000000000000000000000000000000000000000000000000 PUSH0 MSTORE PUSH1 0x12 PUSH1 0x4 MSTORE PUSH1 0x24 PUSH0 REVERT JUMPDEST PUSH0 PUSH2 0x1C9D DUP3 PUSH2 0x157C JUMP JUMPDEST SWAP2 POP PUSH2 0x1CA8 DUP4 PUSH2 0x157C JUMP JUMPDEST SWAP3 POP DUP3 PUSH2 0x1CB8 JUMPI PUSH2 0x1CB7 PUSH2 0x1C66 JUMP JUMPDEST JUMPDEST DUP3 DUP3 DIV SWAP1 POP SWAP3 SWAP2 POP POP JUMP JUMPDEST PUSH0 PUSH2 0x1CCD DUP3 PUSH2 0x157C JUMP JUMPDEST SWAP2 POP PUSH2 0x1CD8 DUP4 PUSH2 0x157C JUMP JUMPDEST SWAP3 POP DUP3 DUP3 SUB SWAP1 POP DUP2 DUP2 GT ISZERO PUSH2 0x1CF0 JUMPI PUSH2 0x1CEF PUSH2 0x1A41 JUMP JUMPDEST JUMPDEST SWAP3 SWAP2 POP POP JUMP JUMPDEST PUSH32 0x4C612073756261737461206861207465726D696E61646F206F20736520656E63 PUSH0 DUP3 ADD MSTORE PUSH32 0x75656E7472612070617573616461000000000000000000000000000000000000 PUSH1 0x20 DUP3 ADD MSTORE POP JUMP JUMPDEST PUSH0 PUSH2 0x1D50 PUSH1 0x2E DUP4 PUSH2 0x1811 JUMP JUMPDEST SWAP2 POP PUSH2 0x1D5B DUP3 PUSH2 0x1CF6 JUMP JUMPDEST PUSH1 0x40 DUP3 ADD SWAP1 POP SWAP2 SWAP1 POP JUMP JUMPDEST PUSH0 PUSH1 0x20 DUP3 ADD SWAP1 POP DUP2 DUP2 SUB PUSH0 DUP4 ADD MSTORE PUSH2 0x1D7D DUP2 PUSH2 0x1D44 JUMP JUMPDEST SWAP1 POP SWAP2 SWAP1 POP JUMP JUMPDEST PUSH32 0x456C2070726F706965746172696F206E6F207075656465206F66657274617220 PUSH0 DUP3 ADD MSTORE PUSH32 0x656E2073752070726F7069612073756261737461000000000000000000000000 PUSH1 0x20 DUP3 ADD MSTORE POP JUMP JUMPDEST PUSH0 PUSH2 0x1DDE PUSH1 0x34 DUP4 PUSH2 0x1811 JUMP JUMPDEST SWAP2 POP PUSH2 0x1DE9 DUP3 PUSH2 0x1D84 JUMP JUMPDEST PUSH1 0x40 DUP3 ADD SWAP1 POP SWAP2 SWAP1 POP JUMP JUMPDEST PUSH0 PUSH1 0x20 DUP3 ADD SWAP1 POP DUP2 DUP2 SUB PUSH0 DUP4 ADD MSTORE PUSH2 0x1E0B DUP2 PUSH2 0x1DD2 JUMP JUMPDEST SWAP1 POP SWAP2 SWAP1 POP JUMP JUMPDEST PUSH32 0x5961207469656E6573206C61206F6665727461206D617320616C746100000000 PUSH0 DUP3 ADD MSTORE POP JUMP JUMPDEST PUSH0 PUSH2 0x1E46 PUSH1 0x1C DUP4 PUSH2 0x1811 JUMP JUMPDEST SWAP2 POP PUSH2 0x1E51 DUP3 PUSH2 0x1E12 JUMP JUMPDEST PUSH1 0x20 DUP3 ADD SWAP1 POP SWAP2 SWAP1 POP JUMP JUMPDEST PUSH0 PUSH1 0x20 DUP3 ADD SWAP1 POP DUP2 DUP2 SUB PUSH0 DUP4 ADD MSTORE PUSH2 0x1E73 DUP2 PUSH2 0x1E3A JUMP JUMPDEST SWAP1 POP SWAP2 SWAP1 POP JUMP JUMPDEST PUSH32 0x4C61206F6665727461206465626520736572207375706572696F7220616C206D PUSH0 DUP3 ADD MSTORE PUSH32 0x656E6F7320656E20352500000000000000000000000000000000000000000000 PUSH1 0x20 DUP3 ADD MSTORE POP JUMP JUMPDEST PUSH0 PUSH2 0x1ED4 PUSH1 0x2A DUP4 PUSH2 0x1811 JUMP JUMPDEST SWAP2 POP PUSH2 0x1EDF DUP3 PUSH2 0x1E7A JUMP JUMPDEST PUSH1 0x40 DUP3 ADD SWAP1 POP SWAP2 SWAP1 POP JUMP JUMPDEST PUSH0 PUSH1 0x20 DUP3 ADD SWAP1 POP DUP2 DUP2 SUB PUSH0 DUP4 ADD MSTORE PUSH2 0x1F01 DUP2 PUSH2 0x1EC8 JUMP JUMPDEST SWAP1 POP SWAP2 SWAP1 POP JUMP JUMPDEST PUSH32 0x5573746564206E6F207469656E65207065726D69736F73000000000000000000 PUSH0 DUP3 ADD MSTORE POP JUMP JUMPDEST PUSH0 PUSH2 0x1F3C PUSH1 0x17 DUP4 PUSH2 0x1811 JUMP JUMPDEST SWAP2 POP PUSH2 0x1F47 DUP3 PUSH2 0x1F08 JUMP JUMPDEST PUSH1 0x20 DUP3 ADD SWAP1 POP SWAP2 SWAP1 POP JUMP JUMPDEST PUSH0 PUSH1 0x20 DUP3 ADD SWAP1 POP DUP2 DUP2 SUB PUSH0 DUP4 ADD MSTORE PUSH2 0x1F69 DUP2 PUSH2 0x1F30 JUMP JUMPDEST SWAP1 POP SWAP2 SWAP1 POP JUMP JUMPDEST PUSH32 0x546F6461766961206573746120686162696C697461646F20656C207265746972 PUSH0 DUP3 ADD MSTORE PUSH32 0x6F206D616E75616C000000000000000000000000000000000000000000000000 PUSH1 0x20 DUP3 ADD MSTORE POP JUMP JUMPDEST PUSH0 PUSH2 0x1FCA PUSH1 0x28 DUP4 PUSH2 0x1811 JUMP JUMPDEST SWAP2 POP PUSH2 0x1FD5 DUP3 PUSH2 0x1F70 JUMP JUMPDEST PUSH1 0x40 DUP3 ADD SWAP1 POP SWAP2 SWAP1 POP JUMP JUMPDEST PUSH0 PUSH1 0x20 DUP3 ADD SWAP1 POP DUP2 DUP2 SUB PUSH0 DUP4 ADD MSTORE PUSH2 0x1FF7 DUP2 PUSH2 0x1FBE JUMP JUMPDEST SWAP1 POP SWAP2 SWAP1 POP JUMP JUMPDEST PUSH32 0x4C612073756261737461206861207465726D696E61646F000000000000000000 PUSH0 DUP3 ADD MSTORE POP JUMP JUMPDEST PUSH0 PUSH2 0x2032 PUSH1 0x17 DUP4 PUSH2 0x1811 JUMP JUMPDEST SWAP2 POP PUSH2 0x203D DUP3 PUSH2 0x1FFE JUMP JUMPDEST PUSH1 0x20 DUP3 ADD SWAP1 POP SWAP2 SWAP1 POP JUMP JUMPDEST PUSH0 PUSH1 0x20 DUP3 ADD SWAP1 POP DUP2 DUP2 SUB PUSH0 DUP4 ADD MSTORE PUSH2 0x205F DUP2 PUSH2 0x2026 JUMP JUMPDEST SWAP1 POP SWAP2 SWAP1 POP JUMP JUMPDEST PUSH32 0x4E6F207469656E6520737566696369656E74652073616C646F20706172612072 PUSH0 DUP3 ADD MSTORE PUSH32 0x6574697261720000000000000000000000000000000000000000000000000000 PUSH1 0x20 DUP3 ADD MSTORE POP JUMP JUMPDEST PUSH0 PUSH2 0x20C0 PUSH1 0x26 DUP4 PUSH2 0x1811 JUMP JUMPDEST SWAP2 POP PUSH2 0x20CB DUP3 PUSH2 0x2066 JUMP JUMPDEST PUSH1 0x40 DUP3 ADD SWAP1 POP SWAP2 SWAP1 POP JUMP JUMPDEST PUSH0 PUSH1 0x20 DUP3 ADD SWAP1 POP DUP2 DUP2 SUB PUSH0 DUP4 ADD MSTORE PUSH2 0x20ED DUP2 PUSH2 0x20B4 JUMP JUMPDEST SWAP1 POP SWAP2 SWAP1 POP JUMP JUMPDEST PUSH0 PUSH2 0x20FE DUP3 PUSH2 0x157C JUMP JUMPDEST SWAP2 POP PUSH2 0x2109 DUP4 PUSH2 0x157C JUMP JUMPDEST SWAP3 POP DUP3 PUSH2 0x2119 JUMPI PUSH2 0x2118 PUSH2 0x1C66 JUMP JUMPDEST JUMPDEST DUP3 DUP3 MOD SWAP1 POP SWAP3 SWAP2 POP POP JUMP JUMPDEST PUSH32 0x4C612073756261737461207465726D696E6F2064657675656C766F2072657469 PUSH0 DUP3 ADD MSTORE PUSH32 0x726F2073696E207265636C616D61722E00000000000000000000000000000000 PUSH1 0x20 DUP3 ADD MSTORE POP JUMP JUMPDEST PUSH0 PUSH2 0x217E PUSH1 0x30 DUP4 PUSH2 0x1811 JUMP JUMPDEST SWAP2 POP PUSH2 0x2189 DUP3 PUSH2 0x2124 JUMP JUMPDEST PUSH1 0x40 DUP3 ADD SWAP1 POP SWAP2 SWAP1 POP JUMP JUMPDEST PUSH0 PUSH1 0x20 DUP3 ADD SWAP1 POP DUP2 DUP2 SUB PUSH0 DUP4 ADD MSTORE PUSH2 0x21AB DUP2 PUSH2 0x2172 JUMP JUMPDEST SWAP1 POP SWAP2 SWAP1 POP JUMP INVALID LOG2 PUSH5 0x6970667358 0x22 SLT KECCAK256 0x4F TIMESTAMP SUB 0xB1 0x2D BYTE 0x4F 0xD5 PUSH12 0x794139DAF7FC4BD66AB3D129 0xE6 MOD 0xA5 0xD3 SWAP14 0xC6 0xB1 MSIZE LOG2 PUSH20 0x6364736F6C634300081A00330000000000000000 "
				},
				"gasEstimates": {
					"creation": {
						"codeDepositCost": "1736000",
						"executionCost": "infinite",
						"totalCost": "infinite"
					},
					"external": {
						"AuctionEnded()": "30638",
						"claimItem()": "7028",
						"estado()": "2694",
						"finalizeWithdrawals()": "infinite",
						"getExcess()": "2591",
						"getTimeLeft()": "infinite",
						"getWinnerAmount()": "2520",
						"getWinnerOffer()": "2582",
						"manualWithdraw()": "infinite",
						"offerWinAddress()": "2532",
						"offerWinAmount()": "2493",
						"setOffer()": "infinite",
						"showOffers()": "infinite",
						"withdrawExcess()": "infinite"
					},
					"internal": {
						"bulkWithdraw()": "infinite"
					}
				},
				"methodIdentifiers": {
					"AuctionEnded()": "a0e92984",
					"claimItem()": "154d3126",
					"estado()": "688e3467",
					"finalizeWithdrawals()": "961045dc",
					"getExcess()": "d54c564e",
					"getTimeLeft()": "c7e284b8",
					"getWinnerAmount()": "d95608e2",
					"getWinnerOffer()": "6733430a",
					"manualWithdraw()": "62e546f9",
					"offerWinAddress()": "05c414ad",
					"offerWinAmount()": "4f595bc5",
					"setOffer()": "689567d5",
					"showOffers()": "534823bf",
					"withdrawExcess()": "c264a063"
				}
			},
			"storageLayout": {
				"storage": [
					{
						"astId": 3,
						"contract": "Auction.sol:Auction",
						"label": "FloorValue",
						"offset": 0,
						"slot": "0",
						"type": "t_uint256"
					},
					{
						"astId": 5,
						"contract": "Auction.sol:Auction",
						"label": "StartDate",
						"offset": 0,
						"slot": "1",
						"type": "t_uint256"
					},
					{
						"astId": 7,
						"contract": "Auction.sol:Auction",
						"label": "Timeframe",
						"offset": 0,
						"slot": "2",
						"type": "t_uint256"
					},
					{
						"astId": 9,
						"contract": "Auction.sol:Auction",
						"label": "offerWinAmount",
						"offset": 0,
						"slot": "3",
						"type": "t_uint256"
					},
					{
						"astId": 18,
						"contract": "Auction.sol:Auction",
						"label": "offerWinAddress",
						"offset": 0,
						"slot": "4",
						"type": "t_address"
					},
					{
						"astId": 20,
						"contract": "Auction.sol:Auction",
						"label": "owner",
						"offset": 0,
						"slot": "5",
						"type": "t_address"
					},
					{
						"astId": 27,
						"contract": "Auction.sol:Auction",
						"label": "estado",
						"offset": 20,
						"slot": "5",
						"type": "t_enum(Estado)24"
					},
					{
						"astId": 30,
						"contract": "Auction.sol:Auction",
						"label": "offerAddresses",
						"offset": 0,
						"slot": "6",
						"type": "t_array(t_address)dyn_storage"
					},
					{
						"astId": 35,
						"contract": "Auction.sol:Auction",
						"label": "offers",
						"offset": 0,
						"slot": "7",
						"type": "t_mapping(t_address,t_struct(Offer)16_storage)"
					}
				],
				"types": {
					"t_address": {
						"encoding": "inplace",
						"label": "address",
						"numberOfBytes": "20"
					},
					"t_array(t_address)dyn_storage": {
						"base": "t_address",
						"encoding": "dynamic_array",
						"label": "address[]",
						"numberOfBytes": "32"
					},
					"t_enum(Estado)24": {
						"encoding": "inplace",
						"label": "enum Auction.Estado",
						"numberOfBytes": "1"
					},
					"t_mapping(t_address,t_struct(Offer)16_storage)": {
						"encoding": "mapping",
						"key": "t_address",
						"label": "mapping(address => struct Auction.Offer)",
						"numberOfBytes": "32",
						"value": "t_struct(Offer)16_storage"
					},
					"t_struct(Offer)16_storage": {
						"encoding": "inplace",
						"label": "struct Auction.Offer",
						"members": [
							{
								"astId": 11,
								"contract": "Auction.sol:Auction",
								"label": "date",
								"offset": 0,
								"slot": "0",
								"type": "t_uint256"
							},
							{
								"astId": 13,
								"contract": "Auction.sol:Auction",
								"label": "offerAmount",
								"offset": 0,
								"slot": "1",
								"type": "t_uint256"
							},
							{
								"astId": 15,
								"contract": "Auction.sol:Auction",
								"label": "excessAmount",
								"offset": 0,
								"slot": "2",
								"type": "t_uint256"
							}
						],
						"numberOfBytes": "96"
					},
					"t_uint256": {
						"encoding": "inplace",
						"label": "uint256",
						"numberOfBytes": "32"
					}
				}
			},
			"userdoc": {
				"kind": "user",
				"methods": {},
				"version": 1
			}
		}
	}
}